:100000000C94D5060C941C070C941C070C941C072C
:100010000C941C070C941C070C941C070C941C07D4
:100020000C941C070C941C070C94712A0C94432B01
:100030000C94DA1A0C941C070C941C070C941C07E3
:100040000C941C070C941C070C941C070C941C07A4
:100050000C941C070C944F1B0C941C070C941C074D
:100060000C941C070C941C070C941C070C941C0784
:100070000C941C070C941C070C941C070C941C0774
:100080000C941C070C941C070C941C070C941C0764
:100090000C941C070C941C070C941C070C941C0754
:1000A0000C941C070C941C070C941C07A610A6109B
:1000B000D810D81025114311641264124E11E311A7
:1000C000F411F4115412641264125D120413041337
:1000D000161316130D131613161316130413041305
:1000E0001213161316131213B02BD72BCF2CD72B9A
:1000F000CF2C232C462CCF2C9D2CAC2C25303258C9
:100100003A20253038620A000A722F6320303132DB
:1001100033343536370A001F0014001A0016000465
:10012000001D001B0006002000210015000800072C
:1001300000090019000500220023001C0017000A16
:10014000000B00110000001E0029002B00E000E160
:1001500000E200E3002C422400250018000C000EF1
:10016000000D0010000000310035432A0028000176
:1001700051E500E600E700260027001200130033D7
:10018000000F00360000002D002E0030002F00343C
:10019000003800370000003B00AC00AB00A900AA0B
:1001A000000100010001003C003D000100AE00A87C
:1001B000000100010001003E003F000100010001BC
:1001C000005500570000003A00010039000100010D
:1001D0000001000100010040004100010046004A0A
:1001E0000054005600000049004C002A005800014D
:1001F0000001000100010042004300470048005098
:10020000004B004D00000044004500010052004F2B
:100210000051004E000000000000001A01160A0400
:100220000100001B01060100003D04000000000069
:10023000000000190100000000000017030000008A
:1002400000000000000000000000000000000000AE
:1002500000000000000000000000000000520051FB
:10026000005000000000000000010000000000003D
:10027000000000000000000000000000000000007E
:10028000004F004A000000000000000000000000D5
:100290000000004D0000000000F400F000F100F24A
:1002A0000000000000B200000000000000F500F3B4
:1002B000000000000000000000000000000000003E
:1002C000000000000000000000005C0000000000D2
:1002D000000000000000000000000000000000001E
:1002E000000000000000000000000000000000000E
:1002F00000000000000000000000000000000000FE
:100300000000000000000000000000A700A60000A0
:100310000000000000000044454255473A2064694F
:100320007361626C65642E0A0044454255473A2069
:10033000656E61626C65642E0A000A0025303258D1
:1003400020006B6579626F6172645F7265706F72B5
:10035000743A20000A0025303258006B6579626FCC
:100360006172645F7365745F6C65643A2000646FEA
:100370006E652E0A00626F6F746D6167696320732A
:1003800063616E3A202E2E2E2000290A002575006A
:100390002F002575005D28002564002000256400DD
:1003A000200025640020002564007C0025303258A0
:1003B000006D6F7573656B6579205B62746E7C7818
:1003C0002079207620685D287265702F61636C2922
:1003D0003A205B006D6B5F776865656C5F74696D73
:1003E000655F746F5F6D6178203D2025640A006D44
:1003F0006B5F776865656C5F6D61785F737065656D
:1004000064203D2025640A006D6B5F74696D655F33
:10041000746F5F6D6178203D2025640A006D6B5F0D
:100420006D61785F7370656564203D2025640A0006
:100430006D6B5F696E74657276616C203D2025641A
:100440000A006D6B5F64656C6179203D2025640A4C
:10045000006D6B5F776865656C5F74696D655F746F
:100460006F5F6D6178203D2025640A006D6B5F77BA
:100470006865656C5F6D61785F7370656564203D6C
:100480002025640A006D6B5F74696D655F746F5F32
:100490006D6178203D2025640A006D6B5F6D617889
:1004A0005F7370656564203D2025640A006D6B5F95
:1004B000696E74657276616C203D2025640A006D5A
:1004C0006B5F64656C6179203D2025640A000A0039
:1004D000257500363A20776865656C5F74696D65CF
:1004E0005F746F5F6D61783A20000A0025750035F2
:1004F0003A20776865656C5F6D61785F73706565DC
:10050000643A20000A00257500343A2074696D654C
:100510005F746F5F6D61783A20000A0025750033C3
:100520003A206D61785F73706565643A20000A0057
:10053000257500323A20696E74657276616C286D9B
:1005400073293A20000A00257500313A2064656C51
:100550006179282A31306D73293A20000A092D204B
:1005600056616C756573202D0A004D3E004D256463
:100570003E20003F007365742064656661756C748D
:100580000A00433E200077686572652064656C74DC
:10059000613A20637572736F723D25642C20776811
:1005A00065656C3D25640A53656520687474703A0E
:1005B0002F2F656E2E77696B6970656469612E6F88
:1005C00072672F77696B692F4D6F7573655F6B6508
:1005D00079730A000A092D204D6F7573656B657973
:1005E000202D0A4553432F713A09717569740A31F8
:1005F0003A0964656C6179282A31306D73290A32B1
:100600003A09696E74657276616C286D73290A33D4
:100610003A096D61785F73706565640A343A0974EC
:10062000696D655F746F5F6D61780A353A09776847
:1006300065656C5F6D61785F73706565640A363AF5
:1006400009776865656C5F74696D655F746F5F6D70
:1006500061780A0A703A097072696E742076616C6A
:100660007565730A643A097365742064656661751B
:100670006C74730A75703A092B310A646F776E3A9D
:10068000092D310A706775703A092B31300A70678D
:10069000646F776E3A092D31300A0A7370656564AC
:1006A000203D2064656C7461202A206D61785F7341
:1006B00070656564202A2028726570656174202F3A
:1006C0002074696D655F746F5F6D6178290A003F02
:1006D000004D3E2000433E20004C25640A00746912
:1006E0006D65725F72656164333228293A20253066
:1006F000346C580A006B6579626F6172645F69647B
:100700006C653A2025580A006B6579626F617264E6
:100710005F70726F746F636F6C3A2025580A0068BF
:100720006F73745F6B6579626F6172645F6C65642F
:100730007328293A2025580A000A092D205374618C
:10074000747573202D0A004743433A20352E342E0A
:1007500030204156522D4C4942433A20322E302E01
:1007600030204156525F415243483A2061767235FB
:100770000A004F5054494F4E533A204C55464120A1
:10078000424F4F544D41474943204D4F5553454BE0
:1007900045592045585452414B455920434F4E53DB
:1007A0004F4C4520434F4D4D414E44203430393657
:1007B0000A004255494C443A2022303064363264B3
:1007C00022202830393A31323A34352053657020AE
:1007D00031312032303230290A005649443A203033
:1007E000783438343828712E6D2E6B2920504944C6
:1007F0003A203078303030312848484B42206D6FF5
:100800006429205645523A203078303130340A007D
:100810000A092D2056657273696F6E202D0A000A31
:10082000092D20436F6E736F6C65202D0A4553436D
:100830002F713A09717569740A6D3A096D6F757394
:10084000656B65790A000A092D204D61676963208F
:100850002D0A443A094465627567204D65737361DA
:10086000676520546F67676C650A583A094D617473
:10087000726978204465627567204D6F6465205405
:100880006F67676C65202D2053686F77206B6579E3
:100890007072657373657320696E206D617472691F
:1008A0007820677269640A4B3A094B6579626F6117
:1008B000726420446562756720546F67676C6520B9
:1008C0002D2053686F77206B657970726573732084
:1008D0007265706F72740A4D3A09446562756720DB
:1008E0004D6F75736520546F67676C650A563A09DA
:1008F00056657273696F6E0A533A09537461747561
:10090000730A433A09416374697661746520436FE1
:100910006E736F6C65204D6F64650A46312D4631EC
:10092000303A0953776974636820746F204C617999
:10093000657220302D392028463130203D204C3042
:10094000290A302D393A0953776974636820746F26
:10095000204C6179657220302D390A475241564545
:100960003A0953776974636820746F204C61796524
:100970007220302028616C7465726E617465290A7A
:10098000423A094A756D7020746F20426F6F746C23
:100990006F616465720A4553433A094A756D702068
:1009A000746F20426F6F746C6F6164657220286190
:1009B0006C7465726E617465290A453A09507269F2
:1009C0006E7420454550524F4D2053657474696EC6
:1009D00067730A4253504143453A09436C6561725B
:1009E00020454550524F4D0A000A002575002E6ED5
:1009F0006B726F3A20000A002575002E73776170C4
:100A00005F6261636B736C6173685F6261636B7378
:100A1000706163653A20000A002575002E737761C6
:100A2000705F67726176655F6573633A20000A00E4
:100A30002575002E6E6F5F6775693A20000A0025E4
:100A400075002E737761705F72616C745F72677589
:100A5000693A20000A002575002E737761705F6C7B
:100A6000616C745F6C6775693A20000A0025750037
:100A70002E737761705F7263746C5F726775693A29
:100A800020000A002575002E737761705F6C637417
:100A90006C5F6C6775693A20000A002575002E634B
:100AA0006170736C6F636B5F746F5F636F6E747292
:100AB0006F6C3A20000A002575002E737761705F15
:100AC000636F6E74726F6C5F636170736C6F636B76
:100AD0003A20000A0025303258006B65796D61704C
:100AE0005F636F6E6669672E7261773A20000A0055
:100AF0002575002E6D6F7573653A20000A00257507
:100B0000002E6B6579626F6172643A20000A0025DD
:100B100075002E6D61747269783A20000A0025759F
:100B2000002E656E61626C653A20000A0025303245
:100B3000580064656275675F636F6E6669672E72E1
:100B400061773A20000A0025750064656661756C5E
:100B5000745F6C617965723A20003F000A6D6F75B1
:100B600073653A206F66660A000A6D6F7573653AA1
:100B7000206F6E0A000A6B6579626F6172643A20B9
:100B80006F66660A000A6B6579626F6172643A206B
:100B90006F6E0A000A6D61747269783A206F66663A
:100BA0000A000A6D61747269783A206F6E0A000A51
:100BB00064656275673A206F66660A000A6465625A
:100BC00075673A206F6E0A000A0A4A756D70696E81
:100BD0006720746F20626F6F746C6F616465722E32
:100BE0002E2E2000433E2000436C656172696E67C3
:100BF00020454550524F4D0A006565636F6E66692A
:100C0000673A0A005B735D004B6579626F617264DD
:100C10002073746172742E0A005B575D005B535D34
:100C2000005B525D005B445D005B435D000403308C
:100C30000000001203480048004B00420020006DF5
:100C4000006F00640000000C0371002E006D002E88
:100C5000006B0000000403090409025B00030100AB
:100C6000A0FA09040000010301010009211101009B
:100C7000012240000705810308000A090401000160
:100C800003000000092111010001228100070582F3
:100C90000320000A090402000203000000092111D8
:100CA000010001222200070583032000010705033C
:100CB0000320000112011001000000084848010053
:100CC0000401010203010631FF0974A10109751530
:100CD0000026FF009520750881020976150026FF81
:100CE00000952075089102C005010902A101850245
:100CF0000901A1000509190129051500250195051E
:100D000075018102950175038101050109300931E1
:100D10001581257F95027508810609381581257F83
:100D2000950175088106050C0A38021581257F9505
:100D30000175088106C0C005010980A1018503195C
:100D4000012AB700150126B700950175108100C072
:100D5000050C0901A101850419012AA0021501262B
:100D6000A002950175108100C005010906A10105C9
:100D70000719E029E71500250195087501810295FD
:100D800001750881010507190029FF150026FF00DC
:100D90009506750881000508190129059505750155
:100DA0009102950175039101C00011241FBECFEF80
:100DB000DAE0DEBFCDBF04B603FE27C08091640237
:100DC00090916502A0916602B09167028730904BC6
:100DD000A740B04BD1F410926402109265021092B9
:100DE00066021092670214BE84B7877F84BF0FB675
:100DF000F894A895809160008861809360001092BB
:100E000060000FBEE0E0F8E3099511E0A0E0B1E07A
:100E1000E0E0FBE502C005900D92A039B107D9F7DB
:100E200022E0A0E9B1E001C01D92A436B207E1F7CB
:100E30000E94A6270C947E2D0C940000FF93EF9344
:100E4000E0919001F0919101309709F00995EF91AF
:100E5000FF910895FC018591803011F0EFDFFBCF09
:100E60000895FF27E0E230E247FF0CC0419597FF6D
:100E700009C0EDE26095709580959095611D711D9A
:100E8000811D911D27FF02C0219530E350E2AA2762
:100E9000660F771F881F991FAA1FA41710F0A41BA5
:100EA00063955A95A9F7AA3008F0A95FA05DAF93A2
:100EB000F395611571058105910541F7ED3211F446
:100EC000EF93F395F21718F43F93F395FBCF8F91BF
:100ED000B5DFFA95E1F70895E991F99185918030B0
:100EE00021F0853219F0AADFF9CF089520E0E894C7
:100EF00055915532C1F3503311F4689455915A33DA
:100F000048F4505390F3220F022E220F220F200D8F
:100F1000250FF4CF0EF4219589919991533619F349
:100F2000533729F1533559F1BC0188279927E894A3
:100F30005C3621F48991999168945591543639F42D
:100F400046EF7EF077FF0DC08FEF9FEF0AC0553759
:100F50004AE039F0583540E121F0523642E009F0DC
:100F60000895FF93EF937DDFEF91FF91B7CFFF934C
:100F7000EF93FC0181918030B9F360DFFBCFFF93E9
:100F8000EF9368DFF1CFDF93CF93CDB7DEB7259630
:100F9000A3DFCF91DF9108958FEF84B980E485B905
:100FA00057985F9A2E9A2F98EAE9F1E0119281E022
:100FB000E23AF807D9F7E2E9F1E08AE991E0119223
:100FC0008E179F07E1F78AE991E09093A50180933E
:100FD000A40182E991E09093A3018093A2010C9473
:100FE0003E0908950C94F1070C94F2070C94F10754
:100FF0000F931F93CF93DF938091A2019091A30150
:101000002091A4013091A5013093A3012093A20166
:101010009093A5018093A401C0E0D0E001E010E02E
:1010200080E090E025B1207C2C2BAC0133E0440F14
:10103000551F3A95E1F7242B25B9EAE1EA95F1F736
:1010400000C0E091A201F091A301EC0FFD1F2081EF
:1010500030E0082E02C0359527950A94E2F720FD6E
:101060002F9AF5E3FA95F1F7000066B52E982AE17C
:101070002A95F1F700C02091A4013091A501F90152
:10108000EC0FFD1F4F9B0AC0A801082E01C0440FA2
:101090000A94EAF740955081452308C07081A80161
:1010A000082E01C0440F0A94EAF7472B408346B547
:1010B000461B463058F0E091A201F091A301EC0FDD
:1010C000FD1F4081F901EC0FFD1F40833AE13A9585
:1010D000F1F700C02F982E9AEBE2F1E03197F1F78B
:1010E00000C0000001968830910509F09BCFA091C7
:1010F000A401B091A501AC0FBD1FE091A201F09138
:10110000A301EC0FFD1F9C918081981751F00E9464
:10111000181B6093A6017093A7018093A801909378
:10112000A9012196C830D10509F07ACF80915B02E0
:10113000853021F080915B02811111C06091A60180
:101140007091A7018091A8019091A9010E94331B81
:10115000613177428105910510F00E94A01A0E942A
:10116000460981E0DF91CF911F910F910895209161
:10117000A4013091A501F901E80FF11D80810895C6
:101180000F931F93CF93DF9388E091E00E942A078B
:10119000C0E0D0E00CEF10E0E091A401F091A501D7
:1011A000EC0FFD1F80810E9477191F928F93DF93B0
:1011B000CF931F930F930E94C30721960F900F9018
:1011C0000F900F900F900F90C830D10529F7DF9145
:1011D000CF911F910F9108950895089581E008958A
:1011E00081E008950C94F00808950C94F4081F937E
:1011F000CF93DF9300D000D01F92CDB7DEB74983E5
:101200005A836B833091BD0189819A81311114C059
:10121000662359F0222349F00E944018182F682FA6
:1012200089819A810E94E91703C00E941418182F1F
:1012300069817A81812F04C00E94401869817A8176
:101240000F900F900F900F900F90DF91CF911F9103
:101250000C94C409FC01262F408151816281738165
:1012600084810C94F708CF93DF93EC0160E00E9437
:101270002A09BE01DF91CF910C94F5080E948919CB
:10128000811102C00E94331A0C94F4070C94F607E3
:1012900008950C94480981E008950C944B09CF936C
:1012A000C82F0E9449098C2F0E944D09CF910895A3
:1012B00008950E94F2120E9458092FEF84E39CE0E7
:1012C000215080409040E1F700C000000C94751B55
:1012D0000F931F93CF93DF93EC0161E00E942A09E3
:1012E0008C01BE010E94F208882309F442C0BE01AD
:1012F000C8010E94680C8823E1F1BE01C8010E9468
:10130000BA0C8823B1F1BE01C8010E94E50D882303
:1013100081F18A81882331F101308CE5180751F081
:101320000E3D8CE51807D9F001151C45D9F40E9433
:1013300059091FC080913302C82FC095C170C0FBEE
:1013400080F980933302CC2329F089E293E00E9454
:101350002A070FC087E193E00E942A070BC00E9472
:10136000331A07C0CE01DF91CF911F910F910C94DA
:10137000EE08C0E08C2FDF91CF911F910F9108955F
:1013800080E090E008950895E72FF0E098E0899FCD
:10139000E00DF11D112483E0EE0FFF1F8A95E1F7A8
:1013A000E60FF11DEE0FFF1FE95EFE4F8591949150
:1013B0000895880F991FFC01E65CFC4F859194917C
:1013C0000895CF93DF930E94C4090E94F90AEC01AB
:1013D0008115904508F041C0C11580E4D80708F098
:1013E000D1C0C83ED10510F5C03ED10508F0FDC002
:1013F000C83AD10578F4C53AD10508F0A2C0C13089
:10140000D10509F4F2C008F4EEC0C430D10508F0EB
:10141000ECC0E9C0CF3BD10508F49BC0C03CD1056E
:1014200008F4E1C0CE01805C91099EC0C11590E234
:10143000D90758F4C11521E0D20708F0D6C0C03F43
:10144000D10508F4D0C0D065D0C0C11580E3D8075D
:1014500008F08EC0CE019F7087C0C11595E5D907F1
:1014600008F043C0C11524E5D20708F0A2C0C11599
:1014700082E5D80708F5C11591E5D90708F085C0C0
:10148000CE0174E0969587957A95E1F783709C2F4D
:10149000937021E030E002C0220F331F9A95E2F7EB
:1014A0003C68382BCF70C695C69580E2C89FE00196
:1014B0001124C22BD32B99C09E01237033278C2F6C
:1014C00086958695C115D34508F064C0C1E0D0E08B
:1014D00002C0CC0FDD1F2A95E2F720E2829FC001F7
:1014E0001124C82BD92BDC6880C0C11529E5D2078F
:1014F000A0F4C11588E5D80708F060C0C11596E5CD
:10150000D90708F070C08C2F0E948D0B8F71C82FE7
:10151000D0E0DC2FCC27D06268C0C1152AE5D20705
:1015200008F451C0CE0190568115904208F05BC07E
:101530008D2F8F710E948D0BDD27D0628F71D82B7C
:1015400054C0C55AD0E0CD5BDE4FC881D0E0D06436
:101550004CC0C85AD0E0CC0FDD1FCB5EDE4F0990E7
:10156000D881C02DD46441C00E94D909EC013DC08E
:10157000CE019927D3FF03C0EC01D86C36C0EC0133
:10158000D06C33C0DF70D06A30C0DC2FCC27C16F85
:10159000D06A2BC0C1E0D0E002C0CC0FDD1F2A957D
:1015A000E2F720E2829FC0011124C82BD92BDA6810
:1015B0001CC0DC2FCC27C46FD06A17C0DC2FCC270F
:1015C000C06FD06A12C08C2F8F700E948D0B94E078
:1015D000D695C7959A95E1F7CF70D0E0DC2FCC2750
:1015E000D069C82B02C0C0E0D0E0CE01DF91CF911E
:1015F00008958238910569F1B0F48133910509F4B9
:101600006DC048F48932910509F463C08A329105AE
:1016100009F469C008958533910509F455C08933EB
:101620009105B9F00895833E910569F138F4803E43
:101630009105B1F0823E910509F10895863E91052C
:10164000A9F1873E9105B9F1843E910509F064C086
:1016500023C02091550220FD4FC021FD4DC00895AB
:101660008091550280FD44C08091560280FF44C0A5
:101670008091550284FD42C083EE4DC08091550299
:1016800082FF38C0F5CF8091550282FD33C0809132
:10169000560280FD31C0ECCF8091560281FF32C0EE
:1016A0008091550284FD2AC087EE35C08091550295
:1016B00083FF26C0F5CF8091550283FD21C0809124
:1016C000560281FD1FC0ECCF8091550285FD1CC0E4
:1016D0001DC08091550285FD19C016C0809155022C
:1016E00086FD16C017C08091550286FD13C010C03C
:1016F00089E311C082EE0FC080EE0DC080E00BC008
:1017000086EE09C084EE07C089E205C085E303C008
:101710008AE201C081E390E008959091550292FF22
:101720000DC0282F2871283019F4877F846006C0E7
:10173000282F2471243011F48B7F886093FF0DC013
:10174000282F2871283119F4877E846106C0282F3C
:101750002471243111F48B7E88612091560220FF80
:101760000DC0382F3871383019F4877F816006C07A
:10177000382F3171313011F48E7F886021FF0DC018
:10178000282F2871283119F4877E816106C0282FFF
:101790002171213111F48E7E886194FD877E089538
:1017A000AF92BF92CF92DF92EF92FF920F931F936F
:1017B000CF93DF937C015B01C42FD22FFC01828188
:1017C0008823F9F04093AC010E940C1B9093AB016D
:1017D0008093AA0180E28C0F883008F06EC0C77039
:1017E00081E001C0880FCA95EAF7DF91CF911F9180
:1017F0000F91FF90EF90DF90CF90BF90AF900C943F
:1018000062108091AC01481335C08091AA0190917B
:10181000AB010E94241B6C01B701C5010E94AB15EE
:10182000C816D90638F510E21D0FCD17B9F080E2C1
:101830008C0F883040F4C77081E001C0880FCA95D2
:10184000EAF70E946910183058F581E09D2F9770D3
:1018500001C0880F9A95EAF70E946210802F0E94BB
:101860004F10183050F5D77081E001C0880FDA951D
:10187000EAF70AC080E28C0F8830F8F4C77081E084
:1018800001C0880FCA95EAF7DF91CF911F910F91A0
:10189000FF90EF90DF90CF90BF90AF900C946910C5
:1018A000802FDF91CF911F910F91FF90EF90DF90EC
:1018B000CF90BF90AF900C944F10DF91CF911F91BC
:1018C0000F91FF90EF90DF90CF90BF90AF90089571
:1018D0000F939C01CB01233F4CE5340731F188F491
:1018E000283DFCE53F07D9F0293D4CE5340779F167
:1018F000273D3C45A9F506E221EE41EE67ED7CE58A
:101900002BC0253FFCE53F07E1F0A8F0263F3C4512
:1019100039F507E225EE46EE66EF7CE51DC007E2ED
:1019200025EE45EE68ED7CE517C006E221EE40EEBF
:1019300063EF7CE511C007E225EE44EE64EF7CE541
:101940000BC006E221EE42EE65EF7CE505C008E241
:1019500021E045EE69ED7CE50E94D00B80E008C0F7
:10196000FC018281882319F01092AC0101C081E052
:101970000F910895CF93DF93EC01FB0182818823BF
:1019800009F41FC1C230FCE5DF0708F41BC1C631F2
:101990009CE5D90738F09E012A5F3C452930310586
:1019A00008F010C10E94A619909356028093550228
:1019B000C031ECE5DE0709F4C3C008F041C0C8300F
:1019C0008CE5D80709F49AC0F0F4C430ECE5DE07E2
:1019D00009F487C068F4C2308CE5D80709F477C0F1
:1019E000C330DC4509F0E3C080915502826076C0C7
:1019F000C630ECE5DE0709F46EC008F07BC08091CC
:101A0000550288606BC0CC308CE5D80709F485C0DE
:101A100068F4CA30ECE5DE0709F474C008F079C058
:101A20000E94F21280915502806858C0CE308CE539
:101A3000D80709F476C008F07FC0809155028BC0AA
:101A4000CB3FECE5DE0709F44FC018F5C3318CE558
:101A5000D80709F47DC078F4C131ECE5DE0709F45C
:101A600073C0C231DC4509F0A2C00E94F21280911D
:101A700055028F7733C0C5318CE5D80709F472C0A1
:101A800008F486C0CA3FDC4509F091C08091560237
:101A90003EC0CF3FFCE5DF0709F45FC058F4CD3FFF
:101AA0009CE5D90709F444C008F43FC08091560270
:101AB00082602DC0C130FDE5DF0709F475C008F470
:101AC0005DC0C230DD4509F072C080E06EC080911B
:101AD0005502816003C08091550280618093550258
:101AE00066C08091550211C0809156028260809339
:101AF00056025DC0809155028062F0CF8091550200
:101B00008064ECCF8091550288608460E7CF81606B
:101B1000EECF809155028E7FE1CF809155028D7F6F
:101B2000DDCF80915502877FD9CF8091560218C0B2
:101B3000809156028D7FDBCF809155028F7ECECF74
:101B4000809155028F7DCACF809155028F7BC6CF81
:101B500080915502877F8B7FC1CF809156028D7F08
:101B60008E7FC5CF8091550282FB222720F991E01C
:101B7000922790FB82F990FB83F9B0CF80915602B7
:101B8000982F909591708E7F892B90FB81F9AFCF24
:101B90000E94F2128091550287FB222720F991E0E2
:101BA000922790FB87F99ACF81E00E94351A8091A5
:101BB0005502909156020E94B7190E94F21280E0DD
:101BC00001C081E0DF91CF910895CF93DF938631FB
:101BD0009C4541F5EB010E94C118982F8A81209104
:101BE000000130910101882379F09A7A81E009F4AB
:101BF00080E08093AD01911102C069E201C065E30C
:101C0000C9010E947C1A0AC08091AD01811102C0F5
:101C100069E201C065E3C9010E947E1A0E940F19A2
:101C200080E001C081E0DF91CF9108959093B301EE
:101C30008093B2010895E091B201F091B301309721
:101C400021F00190F081E02D099480E00895EF9259
:101C5000FF920F931F93CF93DF93E091B201F09126
:101C6000B3013097B1F18C010280F381E02D099529
:101C70008091330282FF2DC080FF04C082E493E094
:101C80000E942A07E80118E08CE3E82E83E0F82E92
:101C90008091330280FF0BC088811F928F93FF9247
:101CA000EF920E94C3070F900F900F900F9011506A
:101CB00021961111EDCF8091330280FF0AC08AE393
:101CC00093E0DF91CF911F910F91FF90EF900C94D3
:101CD0002A07DF91CF911F910F91FF90EF90089508
:101CE000E091B201F091B301309739F022E0DC01CC
:101CF0002C930480F581E02D099408952091B00182
:101D00003091B1012817390771F09093B101809398
:101D1000B001E091B201F091B301309721F006805B
:101D2000F781E02D099408952091AE013091AF0123
:101D30002817390771F09093AF018093AE01E091BD
:101D4000B201F091B301309721F00084F185E02DCC
:101D50000994089585B7806885BF85B7806885BF79
:101D6000089508950C94B10E0C94B20E0C94B10E1B
:101D70000C94B10E0E94AA0E0E94B60E0C94B40EE2
:101D800081E008950C94C00E0E94031B0E94CC07B2
:101D90000E94DD1B0C94B80ECF93C82F80913302A4
:101DA00082FF1EC080FF04C08BE593E00E942A07DB
:101DB0008091330280FF0CC01F92CF9386E593E0A1
:101DC0009F938F930E94C3070F900F900F900F90D7
:101DD0008091330280FF04C084E593E00E942A07CB
:101DE0008C2FCF910C944F09AF92BF92CF92DF927C
:101DF000EF92FF920F931F93CF93DF93CDB7DEB790
:101E00002A970FB6F894DEBF0FBECDBF0E94F80729
:101E10000E94C20E811111C08FEF89838A831B82B9
:101E20000E940C1B8160782F9D838C8349815A818D
:101E30006B818D810E948C0F40C085EBA82E81E0C4
:101E4000B82E00E010E0C02E802F0E94B708E82EC8
:101E5000F501D1905F01D82631F40F5F1F4F083094
:101E6000110589F7D9CF8091330281FD0E94C00806
:101E700080E0FF24F3949D2D9F21D1F08E83CF82AB
:101E8000EF2081E009F480E088870E940C1B8160CC
:101E9000782F9A8789874E815F8168858A850E941D
:101EA0008C0FF801EB54FE4F8081F826F08205C0BC
:101EB0008F5FFF0C8830F9F6D0CF0E94381F0E9448
:101EC0001B0E9091B4018917B1F00E941B0E8093F4
:101ED000B4012A960FB6F894DEBF0FBECDBFDF91D6
:101EE000CF911F910F91FF90EF90DF90CF90BF9017
:101EF000AF900C94CC0E2A960FB6F894DEBF0FBEAE
:101F0000CDBFDF91CF911F910F91FF90EF90DF90A8
:101F1000CF90BF90AF900895CF93DF93CDB7DEB74A
:101F20002B970FB6F894DEBF0FBECDBF4F835887F7
:101F300069877A878B87DE01119686E0FD01119211
:101F40008A95E9F785E0FE01379601900D928A9512
:101F5000E1F749815A816B817C818D819E810E944C
:101F6000AE152B960FB6F894DEBF0FBECDBFDF9136
:101F7000CF910895FC01808191810E94821808957B
:101F8000CF93882309F455C0C82F8CEF8C0F813A6A
:101F9000F8F48C2F0E943A2481114BC06C2F809151
:101FA0000001909101010E94461A882349F06C2F8C
:101FB00080910001909101010E947E1A0E940F19E8
:101FC0006C2F80910001909101010E947C1A0CC03D
:101FD00080E28C0F883058F4C77081E001C0880F10
:101FE000CA95EAF70E94C418CF910C940F19EBE53B
:101FF000EC0FE33040F4F0E0EC58FE4F808190E0CD
:10200000CF910C947E0EE8E5EC0FE73150F4F0E050
:10201000EE0FFF1FEA5BFE4F80819181CF910C9400
:10202000940EC03F30F08C2F0E94AB1DCF910C94CA
:10203000981ECF910895882389F19CEF980F913ACB
:1020400040F4682F80910001909101010E947E1A56
:102050000DC090E2980F983058F4877091E001C05D
:10206000990F8A95EAF7892F0E94CA180C940F19C4
:102070009BE5980F933020F480E090E00C947E0E66
:1020800098E5980F973120F480E090E00C94940E3E
:10209000803F20F00E94131E0C94981E0895CF9349
:1020A000C82F0E94C00FC93349F42FEF87EE93E089
:1020B000215080409040E1F700C000008C2FCF916C
:1020C0000C941B10882321F00E94C4180C940F1943
:1020D0000895882321F00E94CA180C940F190895BE
:1020E000CF92DF92EF92FF920F931F93CF93DF93E4
:1020F0007C01062FC72FFC01158112951F70D2811C
:10210000D1110E94E1180E94BA18882399F0DD23AA
:1021100089F08C2F807F803421F080E2800F88301E
:1021200048F082E00E9459190E94BA1891E0D82E16
:10213000D92601C0D12CCC2EC2948FE0C8228C2D80
:1021400090E0FC01EA5AFF4F0C94222D8C2F807FE7
:10215000CF70882311F0C295C07FDD2399F0CC2386
:1021600009F48DC180E2800F883010F0011104C0A5
:102170008C2F0E94C41803C08C2F0E94D4180E9478
:102180000F197DC1802F0E941B10CC2309F49CC124
:1021900080E2800F883010F0011104C08C2F0E9463
:1021A000CA1803C08C2F0E94DA180E940F198CC124
:1021B0008C2F807FCF70803211F0C295C07F0023BA
:1021C00019F00130C9F022C0DD2371F0112341F074
:1021D000113031F40E94F4188C2B0E94FC1874C149
:1021E0000E94F4188C2B1DC0112319F0113009F432
:1021F0006BC10E94051925C0DD2321F0163008F0BF
:1022000063C10EC0153008F05FC11BC0DD2361F053
:10221000112331F0F701858180FF31C18F708583F3
:102220008C2F0E94621050C1112359F0093309F01C
:1022300037C1FFEF27EE83E0F15020408040E1F707
:102240002DC18C2F0E9469103FC18C2F86958695D9
:10225000837019F0813061F037C1DD2321F0802FC8
:102260009C2F937002C080E090E00E947E0E34C1EB
:10227000DD2321F0802F9C2F937002C080E090E03E
:102280000E94940E29C1802FDD2319F00E94AB1DFE
:1022900002C00E94131E0E94981E1EC18C2F8370C4
:1022A00009F045C0D11114C1402F429546954770A1
:1022B000440F440F602F6F70862F90E0A0E0B0E0D5
:1022C000042E04C0880F991FAA1FBB1F0A94D2F7BF
:1022D00004FF10C00FE010E020E030E004C0000F69
:1022E000111F221F331F4A95D2F700951095209594
:1022F000309503C000E010E09801C695C695C37004
:10230000BC01CD01602B712B822B932BC23049F085
:1023100058F4C13019F00E94FF16DAC00E94ED1681
:10232000D7C00E941117D4C00E94EB16D1C0DD2384
:1023300019F08C2F817001C08695882309F4C8C0DC
:10234000402F429546954770440F440F602F6F70A1
:10235000862F90E0A0E0B0E0042E04C0880F991F03
:10236000AA1FBB1F0A94D2F704FF10C00FE010E0B1
:1023700020E030E004C0000F111F221F331F4A95D8
:10238000D2F7009510952095309503C000E010E03D
:102390009801C695C695C370BC01CD01602B712B09
:1023A000822B932BC23049F058F4C13019F00E94AF
:1023B000C4178EC00E94B2178BC00E94D61788C067
:1023C0000E94251785C0CF70DD2339F08C2F0E9425
:1023D0004B17802F0E9462107BC0802F0E946910D3
:1023E0008C2F0E946C1774C0023F01F128F4003F4B
:1023F00041F0013FA1F03FC0033FF9F0043F39F144
:102400003AC0DD2341F0153008F05EC08C2F8F718B
:102410000E94911759C0163008F056C0F7CFDD233F
:1024200039F08C2F8F710E944B174EC0DD23C9F3FA
:102430008C2F8F710E946C1747C0DD2329F08C2FE1
:102440008F710E94361740C00E9431173DC0DD23B6
:1024500049F0CF718C2F0E944B1763E08C2F0E94A4
:10246000441932C081E00E945919123068F182E0AB
:102470000E94591929C0DD2331F0112391F2802FD8
:102480000E94C00F21C0112399F2093349F49FEF34
:10249000E7EEF3E09150E040F040E1F700C00000CB
:1024A000802F0E941B1010C04C2F4F70602FC7014F
:1024B0000E94C0090E945C160FC04C2F4F70602F05
:1024C000C7010E94C30908C088EF8C0D843020F436
:1024D0000E941B0E0E944F09DD20C9F00E94B61811
:1024E00080FD15C0F70112820E94B0180E944B17A0
:1024F000C7010E94A8120E94B018DF91CF911F91CE
:102500000F91FF90EF90DF90CF900C946C17DF91BC
:10251000CF911F910F91FF90EF90DF90CF90089592
:102520000F931F93CF93DF93EC01688179818A81A8
:102530000E948D188C010E94E8170E94D916B801DC
:10254000CE010E947010DF91CF911F910F910895DD
:10255000CF93DF93EC01988189812B813C81232BE0
:1025600031F08F3F31F481E09F3F19F403C081E0E7
:1025700001C080E080FD19C0CE010E946809811170
:102580000CC00E94BA18882381F08A81882369F0E0
:1025900082E0DF91CF910C945919CE010E949012E4
:1025A000CE01DF91CF910C943309DF91CF91089543
:1025B0000E94E1180E94F1180E940F190E944B20FE
:1025C0000E94981E80E090E00E947E0E80E090E0E5
:1025D0000C94940E80910001909101010E94801A48
:1025E0000C94D8120E94D1180C94EA12E92FE295AB
:1025F000EF704E2F50E0FA013297EE30F105B0F453
:10260000EA59FF4F0C94222D803F91F018F4883E38
:1026100068F40EC0843F51F40BC0883E48F0813FFF
:1026200029F406C093FB882780F9089580E0089577
:1026300081E008950E9482180E94F6120895CF93B7
:10264000DF9300D000D01F92CDB7DEB70F900F9070
:102650000F900F900F90DF91CF910895CF93DF935C
:1026600000D000D000D0CDB7DEB726960FB6F894D4
:10267000DEBF0FBECDBFDF91CF9108951F93CF93E3
:10268000DF93C091BE0116E08091BF01C81799F099
:10269000D0E01C9FF0011D9FF00D1124E054FE4F6F
:1026A0004081518162817381848195810E942E13C2
:1026B0002196C770E9CFDF91CF911F910895409186
:1026C000F0015091F1016091F2017091F30180915C
:1026D000F4019091F5010C942E130F931F93CF9357
:1026E000DF938091F50182958F7009F05DC0809134
:1026F000F201882309F458C08091BE011091BF01F6
:102700006091F0017091F101C091F301D091F40159
:1027100091E06F3F09F090E0292F06E0811709F45E
:1027200043C0209721F07F3F21F030E003C031E02B
:1027300001C0322F90E030FD34C0089FF001099FA6
:10274000F00D1124DF01A054BE4F11963C9111975A
:10275000371327C03C91361324C012963C91129730
:1027600031111FC013964D915C9114974C1B5D0B5A
:10277000483C5105B0F48091F5018F7080618093E1
:10278000F501EB53FE4F80818F708061808380EF75
:1027900091E00E94A812DF91CF911F910F910C94AC
:1027A0003E1301968770BACFDF91CF911F910F91A1
:1027B00008959F92AF92BF92CF92DF92EF92FF92D5
:1027C0000F931F93CF93DF93CDB7DEB761970FB60B
:1027D000F894DEBF0FBECDBF8C0185E0F801DE01AD
:1027E0001D9601900D928A95E1F7F8014081518183
:1027F000E2809091F0016091F1012091F30130911C
:10280000F4012115310531F06F3F31F481E09F3F34
:1028100019F403C081E001C080E0F82FF1709F2E11
:1028200080FD46C1F801A380B48080EFC82E81E00E
:10283000D82EF090F201F501E21BF30BFF2009F412
:10284000DFC08091F501E83CF10508F09BC0282F1E
:10285000207F09F052C0561313C0491311C0FE2C3B
:10286000E1100EC08F7080618093F5010E945F13AC
:10287000C6010E94A8128091F501F801858358C114
:10288000AB2831F05F3F31F481E04F3F19F403C0D2
:1028900081E001C080E080FD03C081E08E2502C0A0
:1028A00080E090E0F82FF170FF2E80FF1CC0809137
:1028B000BE012091BF0136E0821709F417C190E0F4
:1028C000389FF001399FF00D1124E054FE4F6181D3
:1028D000561306C06081461303C06281E61203C02E
:1028E00001968770E9CFFE2CEE2009F421C180917A
:1028F000F50181608093F5015AC0561306C0491353
:1029000004C0E11002C0F8019FC04D875E878D852D
:102910009E850E941A13882379F1EE2069F1209197
:10292000F501822F82958F7090E0029774F080916C
:10293000F0019091F10198878F831986BB86AA8652
:102940002C87CE0107960E94A81286E0F801A0EF1E
:10295000B1E001900D928A95E1F70E946D130E94FB
:102960005F130DC0561729F14D875E878D859E85B3
:102970000E941A1381112CC0C8010E94A812FF24C2
:10298000F394D6C0282F207F69F77A2DB98AA88AB8
:102990006E2D89890E941F1380EF91E00E94A8127A
:1029A00086E0F60111928A95E9F70E945F13F12CF7
:1029B000BFC04913D9CFE110D7CFF8018583C80133
:1029C0000E94A81286E0F60111928A95E9F7B0C03C
:1029D000EE2091F22091F501822F82958F7090E088
:1029E00002970CF4B2CF8091F0019091F1019A839B
:1029F00089831B82BD82AC822E83CE010196A3CF38
:102A0000E83CF10508F047C0FE2CEE2009F4B4CFF5
:102A1000561330C049132EC02091F50120FD21C06E
:102A2000822F82958F70482F50E041155105C9F0D3
:102A3000F80125834F30510541F08F5F982F929513
:102A4000907F822F8F70892B8583C8010E94A812E6
:102A500086E0F801A0EFB1E001900D928A95E1F7D0
:102A600042C086E0F801A0EFB1E001900D928A9596
:102A7000E1F75EC04D875E878D859E850E941A13A3
:102A8000811163CF8091F50181608093F501C801C8
:102A90000E94A8124DC07A2DB98AA88A6E2D898904
:102AA0000E941F1386E0F60111928A95E9F71BC078
:102AB000EE2009F461CF4D875E878D859E850E944B
:102AC0001A13F82E882309F457CF86E0F801A0EFF7
:102AD000B1E001900D928A95E1F780EF91E00E94BC
:102AE000BA0F0E946D130E945F1322C04D875E874C
:102AF0008D859E850E948218292F22952F70223065
:102B000028F49F7039F0811105C00BC0243028F4DF
:102B10009F7049F4805E883020F0C8010E94A8129E
:102B20009F2CF92C05C0F8019581907F99F7F9CF7A
:102B30008F2D61960FB6F894DEBF0FBECDBFDF912B
:102B4000CF911F910F91FF90EF90DF90CF90BF90AA
:102B5000AF909F90089588EC90E008951F93CF93D5
:102B6000DF93CDB7DEB72C970FB6F894DEBF0FBE5C
:102B7000CDBF4F83588769877A878B879C87CE0123
:102B800007960E94D9138823D1F09F8188852A85D2
:102B90003B85232B31F08F3F31F481E09F3F19F4C7
:102BA00003C081E001C080E080FD47C04F815885AF
:102BB00069857A858B859C850E942E133EC086E0B0
:102BC000FE013796DE01119601900D928A95E1F78C
:102BD000FF81E8856A857B856115710531F0EF3FDE
:102BE00031F481E0FF3F19F403C081E001C080E0CF
:102BF00080FD23C02091BF0130E0C901019687709C
:102C000099274091BE0150E084179507F1F1F983AF
:102C1000EA837D836C8396E0929FD001939FB00DF1
:102C20001124A054BE4FFE01319601900D929A9549
:102C3000E1F78093BF010E943E1316E08091BE0130
:102C40009091BF01891771F1189FC0011124805420
:102C50009E4F0E94D913882329F1E091BE011E9F47
:102C6000F0011124E054FE4F408151816281738153
:102C7000848195810E942E138091BE0190E001967F
:102C8000877099278093BE01D9CF0E94F2121092CB
:102C9000BF011092BE01E0EFF1E086E0DF011D927E
:102CA0008A95E9F72C960FB6F894DEBF0FBECDBF1C
:102CB000DF91CF911F910895EF92FF920F931F9391
:102CC000CF93DF938C01892B09F46CC0F12CEE2497
:102CD000E394E8012196F8018491843740F484302C
:102CE00008F051C0813081F0823019F15BC0853726
:102CF00009F444C0A8F19CE7980F903708F052C03F
:102D00008F770E941B1041C00E5F1F4FFE01849100
:102D100090E2980F983050F48770FE2D01C0FF0F9D
:102D20008A95EAF78F2F0E94E41814C00E94C00F02
:102D30002DC00E5F1F4FFE01849190E2980F9830D6
:102D400060F48770FE2D01C0FF0F8A95EAF78F2F80
:102D50000E94EA180E940F1919C00E941B1016C089
:102D60000E5F1F4FFE01C491CC2381F08FE99FE0DD
:102D70000197F1F700C00000C150F6CF0E5F1F4F62
:102D8000FE01F49003C00E94C00F8E018F2D882396
:102D900009F49FCFEFE9FFE03197F1F700C00000A1
:102DA0008150F5CFDF91CF911F910F91FF90EF9060
:102DB0000895089508950C94DA160C94DB160E9479
:102DC000DD16609322027093230280932402909375
:102DD00025020C94D8120C94DF160F931F930091C8
:102DE0002202109123022091240230912502602BAF
:102DF000712B822B932B1F910F910C94DF160F9345
:102E00001F930091220210912302209124023091FD
:102E1000250260237123822393231F910F910C9429
:102E2000DF160F931F93009122021091230220912D
:102E300024023091250260277127822793271F9152
:102E40000F910C94DF160C94DA160E9423176093EE
:102E50001E0270931F0280932002909321020C9413
:102E6000D81260E070E0CB010C9425170F931F93EC
:102E700041E050E060E070E08A019B0104C0000F77
:102E8000111F221F331F8A95D2F7C901B8011F9164
:102E90000F910C9425170F931F9341E050E060E0D1
:102EA00070E004C0440F551F661F771F8A95D2F744
:102EB00080911E0290911F02A0912002B0912102E8
:102EC0008A019B01082B192B2A2B3B2BC901B80126
:102ED0001F910F910C9425170F931F9341E050E021
:102EE00060E070E004C0440F551F661F771F8A958D
:102EF000D2F7409550956095709580911E02909103
:102F00001F02A0912002B09121028A019B01082397
:102F100019232A233B23C901B8011F910F910C9457
:102F200025170F931F9341E050E060E070E004C06C
:102F3000440F551F661F771F8A95D2F780911E0296
:102F400090911F02A0912002B09121028A019B0161
:102F5000082719272A273B27C901B8011F910F917C
:102F60000C9425170F931F9300911E0210911F02BE
:102F70002091200230912102602B712B822B932B08
:102F80001F910F910C9425170F931F9300911E0210
:102F900010911F02209120023091210260237123A1
:102FA000822393231F910F910C9425170F931F9346
:102FB00000911E0210911F022091200230912102E7
:102FC00060277127822793271F910F910C94251753
:102FD000089528E0929F800D1124E82FE695E6954C
:102FE000E695877051E001C0550F8A95EAF785E0B4
:102FF000E89FF0011124EA50FE4F20E030E070E03D
:103000004081CB01022E02C0969587950A94E2F783
:103010008170819584278523842781932F5F3F4F7B
:103020002530310569F7089528E0929F800D11241D
:10303000682F669566956695982F977085E0689FCE
:10304000B001112440E050E080E0FB01E40FF51FE7
:10305000EA50FE4F208130E0092E02C036952795B8
:103060000A94E2F721703327042E01C0220F0A943C
:10307000EAF7822B4F5F5F4F4530510531F70895D6
:10308000BF92CF92DF92EF92FF920F931F93CF9355
:10309000DF938C01C0901E02D0901F02E0902002AE
:1030A000F09021028091220290912302A0912402AB
:1030B000B0912502C82AD92AEA2AFB2ACFE1D0E01A
:1030C000D701C6010C2E04C0B695A7959795879594
:1030D0000A94D2F780FD04C0219790F7B12C07C065
:1030E000BC2EB8018C2F0E94E1090197A9F38B2D0A
:1030F000DF91CF911F910F91FF90EF90DF90CF90D4
:10310000BF900895CF93DF93EC010E944018BE0159
:103110000E94E109DF91CF9108951F93CF93DF9330
:10312000EB019091BD01992321F0CB010E948218FF
:1031300013C0882349F0CB010E944018182F682F34
:10314000CE010E94E91704C0CB010E941418182F69
:10315000BE01812F0E94E109DF91CF911F91089557
:103160008091260285958595859508958091260202
:103170008770089590912602977081E009F480E0AD
:10318000089580913202089590913202892B8093A4
:103190003202089580959091320289238093320201
:1031A000089510923202089590913102892B8093F4
:1031B00031020895809590913102892380933102E4
:1031C000089510923102089590913002892B8093D6
:1031D00030020895809590913002892380933002C7
:1031E000089510923002089580912702089508955D
:1031F0000C94F7180C94F81890912702981721F066
:10320000809327020C94FA1808958091270288234E
:1032100029F01092270280E00C94FA180895E091AA
:103220000001F0910101809132028083E091000160
:10323000F0910101908180913102892B8083E0918E
:103240000001F0910101908180913002892B8083EF
:1032500080912702882381F0E0910001F091010123
:103260009081892B808380910001909101010E94BF
:103270003A1A81110E940519809100019091010173
:103280000C94270E0C94F71898E0899F9001112454
:10329000262B209326020E944B17809126028595AB
:1032A000859585950C9442191092260280E00C9425
:1032B0004219209126028095822380932602982F1E
:1032C000977079F430E0482F082E000C550B241726
:1032D000350739F08595859585950E946C170C9476
:1032E00054190895909391018093900108958295C7
:1032F000982F937344E0949F900111248C7C8695C1
:103300008695282B822F8575880F2A7A2695822B01
:10331000089580E090E00E94442D21E08C3E9E4F75
:1033200009F020E0822F089582E090E00C943C2D7B
:10333000682F82E090E00C944A2D83E090E00C949A
:103340003C2D682F83E090E00C944A2DCF9384E0CD
:1033500090E00E943C2DC82F81E290E00E943C2D1D
:103360002C2F30E0A901582BCA01CF910895CF939B
:10337000C92F682F84E090E00E944A2D6C2F81E2D3
:1033800090E0CF910C944A2DAB01BC018FE090E00E
:103390000C945C2DAB01BC0183E190E00C945C2D9E
:1033A00060E070E0CB010C94CA1960E070E0CB01E2
:1033B0000E94C4190C94D0196CEE7EEF80E090E06E
:1033C0000E94682D60E082E090E00E944A2D60E05B
:1033D00083E090E00E944A2D109222021092230274
:1033E000109224021092250260E084E090E00E9496
:1033F0004A2D60E081E290E00E944A2D60E085E085
:1034000090E00E944A2D60E086E090E00E944A2D04
:103410006FEF87E090E00E944A2D40E050E0BA0153
:1034200088E090E00E945C2D60E08DE090E00E94DA
:103430004A2D40E050E0BA0188E190E00E945C2D06
:1034400060E087E190E00E944A2D40E050E0BA0140
:103450008CE190E00E945C2D60E080E290E00E94B0
:103460004A2D0C94D5190C94DC19682F8EE090E04D
:103470000C944A2DFC01329697E080E0915029F09F
:1034800021912223D9F38F5FF9CF0895662349F064
:10349000FC01329608962191621729F0E817F90786
:1034A000D1F780E0089581E008959C01FC013296F7
:1034B0009FEF80E04191461789F09F3F19F4411139
:1034C00001C0982F8F5F8630A9F79F3F39F0F9012F
:1034D000E90FF11D97FDFA956283089508959C0107
:1034E0002A5F3F4FFC014281461301C012820196C0
:1034F00082179307B9F708950C94551A0C946F1A14
:10350000029626E0FC0111922A95E9F708950895A4
:10351000CF930E94EC080E94F8070E94ED08C0E0DB
:103520008C2F0E94B708811104C0CF5FC830C1F74B
:1035300001C081E0CF9108950C94871A0C949C1AD5
:103540000E949E1A80915B02843049F110923402ED
:1035500020E488E190E00FB6F894A895809360008D
:103560000FBE2093600080E00E944F090E949E1AC7
:1035700083B7817F846083BF83B7816083BF789482
:10358000889583B78E7F83BF0FB6F894A8958091F6
:103590006000886180936000109260000FBE089503
:1035A0000C94871A0E94F2120E941B0E0E944F096F
:1035B0000C94D01A1F920F920FB60F9211248F9372
:1035C0009F93AF93BF9380913402811113C0809178
:1035D000510290915202A0915302B091540241962F
:1035E000A11DB11D8093510290935202A0935302EA
:1035F000B0935402BF91AF919F918F910F900FBEE6
:103600000F901F90189582E084BD93E095BD9AEFCE
:1036100097BD80936E0008952FB7F8948091510262
:1036200090915202A0915302B09154022FBF08957D
:103630002FB7F89460915102709152028091530219
:10364000909154022FBF08959C014FB7F894809138
:10365000510290915202A0915302B09154024FBF77
:10366000821B930B0895CF92DF92EF92FF922FB7B8
:10367000F894C0905102D0905202E0905302F09022
:1036800054022FBFA7019601261B370B480B590B7D
:10369000CA01B901FF90EF90DF90CF900895789420
:1036A0001F920F920FB60F9211248F939F93AF9397
:1036B000BF938091510290915202A0915302B09118
:1036C00054020196A11DB11D8093510290935202A4
:1036D000A0935302B0935402BF91AF919F918F91E9
:1036E0000F900FBE0F901F90189581E08093E0001F
:1036F00080E28093D8001092C9008FE19EE4019788
:10370000F1F700C0000087E090EBDC0180936402D9
:1037100090936502A0936602B09367029CE088E1F3
:103720000FB6F894A895809360000FBE9093600048
:10373000FFCFCF92DF92EF92FF920F931F93CF9321
:10374000C0E0E82EF12C8C2F0E94B70800E010E0BA
:10375000C82ED12CC601002E02C0959587950A94DB
:10376000E2F780FD06C00F5F1F4F0830110591F78B
:103770000AC0602F7C2F80E00E94C409E816F90679
:1037800091F781E004C0CF5FC830E9F680E0CF91C7
:103790001F910F91FF90EF90DF90CF900895CF93FE
:1037A000C82F8CE20E94991B882321F08C2FCF9187
:1037B0000C94991B80E0CF910895CF930E948919B2
:1037C000811102C00E94331A85E793E00E942A0704
:1037D000C5E6C15049F00E94F8078FE39CE90197C4
:1037E000F1F700C00000F5CF8EE693E00E942A07B3
:1037F00089E20E94CF1B81112AC18AE20E94CF1B5D
:1038000081110E94331A85E00E94CF1B81110E9412
:10381000751B0E9494198093330287E00E94CF1B8E
:103820008823A9F18BE10E94CF1B882351F080915E
:10383000330281FB222720F991E0922790FB81F946
:103840000EC08EE00E94CF1B882361F0809133026E
:1038500082FB222720F991E0922790FB82F9809346
:10386000330215C080E10E94CF1B90913302882360
:1038700041F093FB222720F981E0822780FB93F916
:1038800004C0892F809580FB90F99093330280913A
:1038900033020E9498190E94A619909356028093B1
:1038A000550280EE0E94CF1B882341F08091550283
:1038B000982F909590FB80F98093550289E30E94A0
:1038C000CF1B882359F08091550281FB222720F9D4
:1038D00091E0922790FB81F98093550282EE0E943D
:1038E000CF1B882359F08091550282FB222720F9B3
:1038F00091E0922790FB82F98093550286EE0E9418
:10390000CF1B882359F08091550283FB222720F991
:1039100091E0922790FB83F98093550283EE0E94F9
:10392000CF1B882359F08091550284FB222720F970
:1039300091E0922790FB84F98093550285E30E94E1
:10394000CF1B882359F08091550285FB222720F94F
:1039500091E0922790FB85F98093550281E30E94C4
:10396000CF1B882359F08091550286FB222720F92E
:1039700091E0922790FB86F98093550281E10E94A5
:10398000CF1B882359F08091550287FB222720F90D
:1039900091E0922790FB87F9809355028091550220
:1039A000909156020E94B71987E20E94CF1BC82F40
:1039B0008EE10E94CF1B8111C2608FE10E94CF1B5C
:1039C0008111C46080E20E94CF1B8111C86081E236
:1039D0000E94CF1B8111C06182E20E94CF1B811126
:1039E000C06283E20E94CF1B8111C06484E20E9406
:1039F000CF1B882311F0C06802C0CC2329F08C2F84
:103A00000E94A1196C2F03C00E949D19682F70E0BD
:103A100080E090E00E94EB1660911E0270911F0200
:103A200080912002909121020E9423178FE00E9432
:103A3000CF1B882319F081E00E94351A85E10E948E
:103A4000CF1B882321F080E0CF910C94351ACF91C1
:103A5000089580913B0280FF0BC06091070185E0D3
:103A6000689FB001112475956795759567952BC072
:103A700081FF09C06091070185E0689FB0011124B2
:103A80007595679520C082FF07C06091070185E0AA
:103A9000689FB001112417C090913A029923D1F088
:103AA00060910601961788F72091070185E0289F0D
:103AB00090011124929FA001939F500D112470E05A
:103AC000CA010E940E2D6038710540F46115710520
:103AD00019F406C065E070E0862F08958FE7089519
:103AE00081E0089580913B0280FF08C0609103014E
:103AF00070E0759567957595679521C081FF06C043
:103B00006091030170E07595679519C082FF04C04C
:103B10006091030170E010C090913902992399F0EF
:103B2000609102019617A0F780910301899FC0015F
:103B3000112470E00E940E2D6038710540F461156B
:103B4000710519F406C061E070E0862F08958FE7D3
:103B5000089581E00895803F21F40E94291D8195F8
:103B600004C0813F29F40E94291D80933F020895DB
:103B7000823F21F40E94291D819504C0833F29F4CE
:103B80000E94291D80933E020895893F19F40E94E6
:103B9000721D05C08A3F31F40E94721D8195809389
:103BA000400208958B3F21F40E94721D819504C04C
:103BB0008C3F29F40E94721D809341020895843F36
:103BC00021F480913D02816017C0853F21F48091EE
:103BD0003D02826011C0863F21F480913D028460E5
:103BE0000BC0873F21F480913D02886005C0883F6B
:103BF00031F480913D02806180933D0208958D3FB4
:103C000021F480913B0281600BC08E3F21F48091B2
:103C10003B02826005C08F3F29F480913B028460A3
:103C200080933B020895803F39F480913F0287FFE3
:103C30006AC010923F0267C0813F29F480913F0221
:103C40001816BCF360C090913E02823F29F497FFA2
:103C50005AC010923E0257C0833F19F41916CCF394
:103C600052C090914002893F31F419160CF04BC0BC
:103C70001092400248C08A3F19F497FF44C0F8CF21
:103C80008B3F39F48091410287FF3DC01092410281
:103C90003AC08C3F29F4809141021816BCF333C01E
:103CA000843F21F480913D028E7F17C0853F21F42F
:103CB00080913D028D7F11C0863F21F480913D02AD
:103CC0008B7F0BC0873F21F480913D02877F05C029
:103CD000883F31F480913D028F7E80933D0213C076
:103CE0008D3F21F480913B028E7F0BC08E3F21F4EB
:103CF00080913B028D7F05C08F3F29F480913B026C
:103D00008B7F80933B0280913E02811106C080919F
:103D10003F02811102C010923A028091400281114B
:103D200006C080914102811102C0109239020895AB
:103D30008091330283FF7EC081EB93E00E942A07CB
:103D400080913D021F928F938CEA93E09F938F9313
:103D50000E94C3078AEA93E00E942A0780913E02EC
:103D6000282F082E000C330B3F938F9387EA93E0A4
:103D70009F938F930E94C30785EA93E00E942A07CE
:103D800080913F02282F082E000C330B3F938F9316
:103D900082EA93E09F938F930E94C30780EA93E0A7
:103DA0000E942A0780914002282F082E000C330B16
:103DB0003F938F938DE993E09F938F930E94C30766
:103DC0008BE993E00E942A0780914102282F082E58
:103DD000000C330B3F938F9388E993E09F938F936D
:103DE0000E94C30785E993E00E942A0780913A0266
:103DF0001F928F9382E993E09F938F930E94C30752
:103E000080E993E00E942A0780913B021F928F93E2
:103E10008DE893E09F938F930E94C3078AE893E015
:103E20000E942A078DB79EB74C960FB6F8949EBF96
:103E30000FBE8DBF0E940C1B20913E02211104C0B9
:103E400020913F02222321F0909338028093370281
:103E500020914002211104C020914102222321F02F
:103E600090933602809335028CE392E00C94700EAE
:103E7000EF92FF920F931F93CF93DF9300D000D068
:103E800000D0CDB7DEB786E0ECE3F2E0DE011196BC
:103E900001900D928A95E1F7E0903E02F0903F028A
:103EA000009140021091410210923E0210923F0296
:103EB0001092400210924102E11003C0FF2009F469
:103EC0005DC080913702909138020E94241BAC01A2
:103ED00090913A02992339F02091080130E024179B
:103EE000350758F04BC0209109018AE0289F9001C6
:103EF00011242417350718F041C09F3F19F09F5F28
:103F000090933A02EE2061F00E94291D1E1414F0D5
:103F10009FEF01C091E0989F902D112490933E0255
:103F2000FF2061F00E94291D1F1414F09FEF01C0B3
:103F300091E0989F902D112490933F0230913E0282
:103F40003323E1F020913F022223C1F045EB3403FB
:103F5000C0011124992319F090933E0203C081E01F
:103F600080933E0235EB2303C0011124992319F0FD
:103F700090933F0203C081E080933F02011103C090
:103F8000112309F45DC080913502909136020E94A0
:103F9000241BAC0190913902992339F0209104013E
:103FA00030E02417350758F04BC0209105018AE016
:103FB000289F900111242417350718F041C09F3F16
:103FC00019F09F5F90933902002361F00E94721DE7
:103FD000101614F09FEF01C091E0989F902D1124CE
:103FE00090934002112361F00E94721D111614F08B
:103FF0009FEF01C091E0989F902D11249093410272
:10400000309140023323E1F0209141022223C1F09C
:1040100045EB3403C0011124992319F09093400219
:1040200003C081E08093400235EB2303C0011124DB
:10403000992319F09093410203C081E080934102DB
:1040400080913E0281110BC080913F02811107C017
:1040500080914002811103C08091410281110E9430
:10406000981EEB82FC820D831E8386E0FE01319652
:10407000ACE3B2E001900D928A95E1F726960FB677
:10408000F894DEBF0FBECDBFDF91CF911F910F918E
:10409000FF90EF900895ECE3F2E086E0DF011D92DF
:1040A0008A95E9F710923A021092390210923B0277
:1040B000089584ED95E00E942A071F9281E08F9376
:1040C0001F9285E08F9386E895E09F938F930E94DF
:1040D000C3070F900F900F900F900F900F900895BF
:1040E0008330E9F128F4813061F0823009F10895DC
:1040F000853009F462C008F449C0863009F474C000
:10410000089580910901262F30E0280F311D2F3F9F
:10411000310524F4680F6093090103C08FEF809389
:104120000901809109011F928F938FEB94E072C077
:1041300080910801262F30E0280F311D2F3F3105D7
:1041400024F4680F6093080103C08FEF8093080187
:10415000809108011F928F938DEA94E05BC080915B
:104160000701262F30E0280F311D2F3F310524F4A1
:10417000680F6093070103C08FEF80930701809160
:1041800007011F928F938AE994E044C08091060151
:10419000262F30E0280F311D2F3F310524F4680F02
:1041A0006093060103C08FEF8093060180910601A2
:1041B0001F928F9385E894E02DC080910301262FF4
:1041C00030E0280F311D2F3F310524F4680F609334
:1041D000030103C08FEF80930301809103011F92BD
:1041E0008F938CE694E016C080910201262F30E078
:1041F000280F311D2F3F310524F4680F6093020111
:1042000003C08FEF80930201809102011F928F9370
:1042100081E594E09F938F930E94C3070F900F90C6
:104220000F900F900895833081F128F4813059F078
:104230008230D1F00895853009F449C0B8F1863054
:1042400009F456C0089580910901681720F4861B6F
:104250008093090102C010920901809109011F9207
:104260008F9382E494E054C080910801681720F491
:10427000861B8093080102C01092080180910801FA
:104280001F928F9380E394E043C0809107016817E9
:1042900020F4861B8093070102C0109207018091D1
:1042A00007011F928F938DE194E032C08091060147
:1042B000681720F4861B8093060102C01092060145
:1042C000809106011F928F9388E094E021C0809135
:1042D0000301681720F4861B8093030102C010922B
:1042E0000301809103011F928F938FEE93E010C022
:1042F00080910201681720F4861B8093020102C09E
:1043000010920201809102011F928F9384ED93E03D
:104310009F938F930E94C3070F900F900F900F9061
:104320000895CF93C82F1F928F9389ED96E09F93A6
:104330008F930E94C30781E090E0A0E0B0E0BC0151
:10434000CD0104C0660F771F881F991FCA95D2F749
:104350000E94EB160F900F900F900F90CF910C943E
:10436000F212CF93DF938B3109F4EAC108F08BC1CD
:104370008B3009F4AEC108F065C1863009F4ACC1D8
:1043800020F4853009F4BAC15DC2873009F4BDC19B
:10439000883009F057C289EF9BE00E942A078AE41F
:1043A0009BE00E942A070E949D191F928F9387E429
:1043B0009BE09F938F930E94C30785E49BE00E943C
:1043C0002A070E949419C82F82E39BE00E942A07C3
:1043D0001F92CF938DE29BE09F938F930E94C30720
:1043E0008BE29BE00E942A0781E29BE00E942A0761
:1043F0008C2F81701F928F938EE19BE09F938F9300
:104400000E94C3078CE19BE00E942A0782E19BE0A7
:104410000E942A07C1FB882780F91F928F938FE0A3
:104420009BE09F938F930E94C3078DE09BE00E94C7
:104430002A0781E09BE00E942A07C2FB882780F9B7
:104440001F928F938EEF9AE09F938F930E94C307E2
:104450008CEF9AE00E942A0783EF9AE00E942A07D5
:10446000C3FBCC27C0F91F92CF9380EF9AE09F93B4
:104470008F930E94C3078EEE9AE00E942A070E9443
:10448000A619EC018AED9AE00E942A07DF93CF93E8
:1044900085ED9AE09F938F930E94C30783ED9AE086
:1044A0000E942A078AEB9AE00E942A078C2F8170CB
:1044B0001F928F9387EB9AE09F938F930E94C3077D
:1044C0008DB79EB780960FB6F8949EBF0FBE8DBF76
:1044D00085EB9AE00E942A078EE99AE00E942A075B
:1044E000C1FB882780F91F928F938BE99AE09F93F5
:1044F0008F930E94C30789E99AE00E942A0787E800
:104500009AE00E942A078D2F81701F928F9384E872
:104510009AE09F938F930E94C30782E89AE00E94DB
:104520002A0780E79AE00E942A07D695D1701F9249
:10453000DF938DE69AE09F938F930E94C3078BE6EB
:104540009AE00E942A0789E59AE00E942A07C2FBA6
:10455000882780F91F928F9386E59AE09F938F9327
:104560000E94C30784E59AE00E942A0782E49AE049
:104570000E942A07C3FB882780F91F928F938FE33D
:104580009AE09F938F930E94C3078DE39AE00E9465
:104590002A0783E39AE00E942A07C4FB882780F950
:1045A0001F928F9380E39AE09F938F930E94C3079B
:1045B0008EE29AE00E942A078CE19AE00E942A0784
:1045C000C5FB882780F91F928F9389E19AE09F931A
:1045D0008F930E94C30787E19AE00E942A078BEF1E
:1045E00099E00E942A07C6FB882780F91F928F93C3
:1045F00088EF99E09F938F930E94C3078DB79EB772
:1046000080960FB6F8949EBF0FBE8DBF86EF99E0DF
:104610000E942A078EEE99E00E942A07C7FBCC274A
:10462000C0F91F92CF938BEE99E09F938F930E94D6
:10463000C30789EE99E00E942A070F900F900F9010
:104640000F9045C0803109F4A5C020F48E3009F4E4
:104650008BC0F8C0863109F4B8C0893109F0F2C0C6
:1046600080E198E00E942A078AED97E00E942A07DD
:1046700082EB97E00E942A0782E797E00E942A07D0
:1046800087E497E084C08A32E1F060F4873209F46D
:10469000D5C028F48E3108F4D5C08D51D0C08932F0
:1046A00069F1D0C0833448F48A3308F0C5C085333B
:1046B00009F4C4C0883369F0C5C0833409F4BEC0AE
:1046C000C1C088EE9BE00E942A070E94331AC1E015
:1046D000BEC086E498E05BC080913302817F8E7F0C
:1046E000809333028FE198E00E942A0784EE9BE0DA
:1046F0000E942A0781E080934302E9CF88EC9BE087
:104700000E942A070E945909E2CF80913302C82FE4
:10471000C095C170C0FB80F980933302CC2329F08F
:104720008CEB9BE00E942A0792C08FEA9BE00E94DC
:104730002A0780913302897F877F80933302C7CF16
:104740009091330291FBCC27C0F981E0C827892FD3
:10475000C0FB81F980933302CC2319F082EA9BE0FD
:1047600029C084E99BE013C09091330292FBCC27CF
:10477000C0F981E0C827892FC0FB82F980933302FA
:10478000CC2319F085E89BE015C085E79BE00E94EB
:104790002A079DCF9091330293FBCC27C0F981E08B
:1047A000C827892FC0FB83F980933302CC2351F0B3
:1047B00089E69BE00E942A07809133028160809302
:1047C000330245C08CE59BE0E2CF89E397E00E948D
:1047D0002A070E941B0E1F928F938FE197E09F93F1
:1047E0008F930E94C307809114011F928F9388E0DA
:1047F00097E09F938F930E94C307809150021F926E
:104800008F9385EF96E09F938F930E94C3070E943A
:10481000181B9F938F937F936F938EED96E09F93DA
:104820008F930E94C3078DB79EB742960FB6F89438
:104830009EBF0FBE8DBF4BCF895301C080E00E9449
:10484000912145CF8AE59BE00E942A07C0E08C2F8A
:10485000DF91CF91089580E008950C942B248E5120
:104860008A3030F4E82FF0E0E958FE4F8081089557
:1048700080E00895CF93C82F80914302813059F092
:1048800020F0823009F445C039C10E94C11882323B
:1048900009F036C104C00E94C118823261F48C2F25
:1048A0000E942D24811104C08C2F0E94B1212FC0A1
:1048B00081E090E02CC08C2F0E942B24811126C017
:1048C000C431E1F070F4CB3081F0C031D1F40E94FA
:1048D000592081ED96E00E942A0782E080934302EE
:1048E00015C0C93259F0C83361F48FE198E00E94D5
:1048F0002A0785ED96E00E942A0708C0109243021D
:1049000001C18FEC96E00E942A07FCC081E0817013
:10491000FBC0C43228F5CE3108F0C1C0CB30A1F1C4
:10492000D0F4C73009F0D0C08EE18093090182E352
:10493000809308018AE08093070184E18093060157
:1049400088E08093030188E28093020185E795E087
:104950000E942A07BCC0C33149F1C431C1F0B4C0C0
:10496000CB3409F4A6C028F4C93289F0C83361F009
:10497000ABC0C13509F49BC0C23509F496C0CE3432
:1049800009F0A2C06AE09BC00E945920A0C080919B
:104990004202882319F01092420299C082E895E001
:1049A0000E942A0781E080934302AEC08CE595E027
:1049B0000E942A078AE495E00E942A078091090153
:1049C0001F928F9387E495E09F938F930E94C30774
:1049D00085E495E00E942A0783E395E00E942A0778
:1049E000809108011F928F9380E395E09F938F93AE
:1049F0000E94C3078EE295E00E942A078FE195E0AE
:104A00000E942A07809107011F928F938CE195E005
:104A10009F938F930E94C3078AE195E00E942A0723
:104A200089E095E00E942A07809106011F928F93EA
:104A300086E095E09F938F930E94C30784E095E002
:104A40000E942A078FEE94E00E942A0780910301BA
:104A50001F928F938CEE94E09F938F930E94C307D5
:104A60008AEE94E00E942A0783ED94E00E942A07D0
:104A7000809102011F928F9380ED94E09F938F931A
:104A80000E94C3078EEC94E00E942A078DB79EB760
:104A900048960FB6F8949EBF0FBE8DBF18C08C2FDE
:104AA0000E942F248093420212C061E003C061E0A3
:104AB00006C06AE0809142020E94702008C0809186
:104AC00042020E94132103C083E795E013C0809146
:104AD0004202882369F01F928F938DE695E09F93A1
:104AE0008F930E94C3070F900F900F900F9004C0F8
:104AF0008AE695E00E942A0781E006C010924302F0
:104B000080E002C080E003CFCF91089580914F02F2
:104B100008959FB7F894109246029FBF90915B0250
:104B2000943009F057C09091E9009F703091EC00EB
:104B3000232F217030FD20E8922B23E02093E90001
:104B40002091EB0020FF43C02091EE0027FF3FC0E3
:104B500020914402222321F02091E80025FF37C054
:104B60001092440226E03091E80035FD15C03091E6
:104B70005B02343061F53091EB0035FD28C02150E7
:104B800021F481E08093440222C0EFE9FFE03197F5
:104B9000F1F700C00000E7CF8093F1008091E800BA
:104BA00085FD0AC08091E80080FFFCCF8091E8007D
:104BB0008E778093E80006C08FB7F89421E02093A9
:104BC00046028FBF9F709093E90080E008959F7028
:104BD0009093E9008FEF0895CF93DF9300D01F9259
:104BE000CDB7DEB790915B02943019F589837B8352
:104BF0006A8382E08093E9008FEF9091E800815012
:104C000095FD06C095ED9A95F1F700008111F5CF5D
:104C10008091E80085FF0DC040E050E063E070E067
:104C2000CE0101960E9465288091E8008E778093DE
:104C3000E8000F900F900F90DF91CF910895BC0185
:104C400084E00C94EC25BC0183E00C94EC2522E07C
:104C50002093E9002FEF3091E800215035FD06C088
:104C600035ED3A95F1F700002111F5CF2091E800DC
:104C700025FF0BC040E050E066E070E00E94652830
:104C80008091E8008E778093E8000895CF93DF93BA
:104C900021E02093E9002FEF3091E800215035FD0D
:104CA00006C035ED3A95F1F700002111F5CF2091BE
:104CB000E80025FF14C0EC0140E050E068E070E03F
:104CC0000E9465288091E8008E778093E80088E054
:104CD000FE01A7E4B2E001900D928A95E1F7DF9121
:104CE000CF91089589E29CE00E942A0780915A02A0
:104CF000811109C00E94F6290E94532A8091E20086
:104D000084608093E200089585E29CE00E942A0777
:104D100010925A02089581E29CE00C942A078DE1DA
:104D20009CE00C942A0789E19CE00E942A070C94DD
:104D3000D21A209145022F5F822F62E30E94022D3A
:104D4000992319F02093450208951092450280910D
:104D50004602882371F180915B02843041F5809195
:104D6000E9008F702091EC00922F917020FD90E867
:104D7000892B93E09093E9009091EB0090FF14C091
:104D80009091EE0097FF10C09091E80095FF03C04E
:104D90001092F100F9CF9091E80090FF05C090913A
:104DA000E8009E779093E8008F708093E90010925E
:104DB0004602089542E061EC81E00E946F2942E2E0
:104DC00061EC82E00E946F2942E261EC83E00C9486
:104DD0006F2980915D02833009F460C030F4813026
:104DE00071F0823009F499C008958A3009F485C0C1
:104DF0008B3009F46BC0893009F0A7C020C08091C6
:104E00005C02813A09F0A1C08091E800877F80931D
:104E1000E8008091600290916102892B21F468E0A2
:104E200087E492E003C060E080E090E070E00E94E0
:104E3000B0288091E8008B778093E80008958091F6
:104E40005C02813209F081C0809160029091610220
:104E5000029708F07AC08091E800877F8093E8008D
:104E60008091E80082FD05C080915B028111F8CF3E
:104E70006CC02091F3008091F20090E0922B029799
:104E800029F48091F1008B7F813021F48091F10031
:104E900080934F028091E8008B7753C080915C0231
:104EA000813A09F052C08091600290916102892B91
:104EB00009F04BC08091E800877F8093E8008091E3
:104EC000E80080FFFCCF8091140136C080915C0225
:104ED0008132D9F58091600290916102892BA9F508
:104EE0008091E800877F8093E8000E94A429809148
:104EF0005E02809314010C94F21280915C02813264
:104F000021F58091E800877F8093E8000E94A42922
:104F100080915F0280935002089580915C02813AF3
:104F2000A1F48091E800877F8093E8008091E800F9
:104F300080FFFCCF809150028093F1008091E800C7
:104F40008E778093E8000C94A429089584B7877F16
:104F500084BF0FB6F894A895809160008861809313
:104F60006000109260000FBE90E080E80FB6F894E9
:104F700080936100909361000FBE0E94BA0E0E9460
:104F8000F6290E94532A8091E20084608093E20017
:104F900089E895E20E94721978940E94E72C0E9499
:104FA000C40E8AE091E00E94160E88E09CE00E9408
:104FB0002A0780915B02853089F484E09CE00E949E
:104FC0002A070E94A01A80915902882391F30E9417
:104FD000881A882371F30E944F28EBCF0E94F40EA9
:104FE000E8CF0C94F327292F332723303105C9F05C
:104FF00060F42130310581F02230310509F047C0DD
:105000008BE590E029E53CE046C02132310511F105
:105010002232310561F13BC082E190E024EB3CE0BB
:105020003AC099278130910561F040F082309105B6
:1050300059F0039761F5EDE2FCE008C0E5E5FCE01E
:1050400005C0E7E4FCE002C0E3E3FCE0849190E00B
:105050009F0121C063307105D0F4660F771FFB01FB
:10506000E657FE4F2081318189E090E014C0633023
:10507000710568F4FB01EE0FFF1FEC57FE4F208116
:105080003181FB01EF57FE4F808190E004C080E04A
:1050900090E020E030E0FA0131832083089580E140
:1050A00089BD82E189BD09B400FEFDCF8091D800A1
:1050B0008F7D8093D8008091E00082608093E00033
:1050C0008091E00081FDFCCF0895CF92DF92EF92B6
:1050D000FF920F931F93CF93DF93EC018B017A0123
:1050E0000E94C329811133C0E114F10439F0F701A2
:1050F00080819181081B190BC80FD91FC12CD12C9D
:105100000115110519F18091E80085FD16C0809107
:10511000E8008E778093E800E114F10449F0F7018C
:1051200080819181C80ED91ED182C08285E00FC0D6
:105130000E94C329882321F30AC089918093F1003A
:1051400001501109FFEFCF1ADF0ADACF80E0DF91BB
:10515000CF911F910F91FF90EF90DF90CF90089526
:1051600020916202309163022617370748F06115DB
:10517000710539F42091E8002E772093E80001C0F2
:10518000B901FC0120E06115710579F180915B02A4
:105190008823F1F18530F1F18091E80083FD3CC076
:1051A0008091E80082FD2EC08091E80080FFEBCF67
:1051B0002091F3008091F20090E0922B611571052F
:1051C00051F08830910538F421912093F10061501D
:1051D00071090196F3CF21E0089709F020E0809152
:1051E000E8008E778093E800CECF2111CFCF0AC0A0
:1051F00080915B02882361F0853061F08091E80046
:1052000083FD0AC08091E80082FFF2CF80E008951C
:1052100082E0089583E0089581E00895209162027C
:10522000309163022617370748F06115710539F48C
:105230002091E8002E772093E80001C0B901FC011D
:1052400020E06115710591F180915B02882309F4DA
:1052500040C0853009F43FC08091E80083FD3DC027
:105260008091E80082FD2FC08091E80080FFE9CFA7
:105270002091F3008091F20090E0922B611571056E
:1052800059F08830910540F424912093F100319633
:10529000615071090196F2CF21E0089709F020E0F2
:1052A0008091E8008E778093E800CBCF2111CCCF9E
:1052B0000AC080915B02882361F0853061F08091A3
:1052C000E80083FD0AC08091E80082FFF2CF80E011
:1052D000089582E0089583E0089581E00895982F6D
:1052E000973068F59093E900981739F07091EC00C9
:1052F0002091ED005091F00003C0242F762F50E054
:1053000021FD02C09F5FECCF3091EB003E7F3093D8
:10531000EB003091ED003D7F3093ED003091EB00DC
:1053200031603093EB007093EC002093ED005093CC
:10533000F0002091EE0027FDE5CF80E008958F700A
:105340008093E90081E0089580915C0287FF11C09D
:105350008091E80082FD05C080915B028111F8CF49
:1053600011C08091E8008B770BC080915B0288238D
:1053700049F08091E80080FFF8CF8091E8008E77B7
:105380008093E80008952091E4003091E50095E6CF
:105390004091EC00842F817040FF23C08091E80091
:1053A00080FD1DC080915B02882399F0853099F0C3
:1053B0008091EB0085FD11C04091E4005091E50023
:1053C0002417350729F3915011F09A01E1CF84E0B9
:1053D000089582E0089583E0089581E0089580E0D3
:1053E00008954091E80042FFDDCF08950E94642AAD
:1053F0000E946C2AE0EEF0E0808181608083E8ED1D
:10540000F0E080818F77808319BCA7EDB0E08C91AC
:105410008E7F8C9380818F7E808310925A020895B4
:105420000F931F93CF93DF930E94642A0E946C2AEC
:10543000C8EDD0E088818F778883888180688883F1
:1054400088818F7D888319BC10925B02109257026D
:10545000109259021092580200EE10E0F80180817B
:105460008B7F808388818160888342E060E080E078
:105470000E946F29E1EEF0E080818E7F8083E2EE72
:10548000F0E0808181608083808188608083F80182
:1054900080818E7F8083888180618883DF91CF9136
:1054A0001F910F910895E8EDF0E080818F7E808359
:1054B000E7EDF0E080818160808384E082BF81E05D
:1054C00080935A020C94102AE8EDF0E080818E7FE0
:1054D00080831092E20008951092DA001092E100A9
:1054E00008951F920F920FB60F9211242F933F939E
:1054F0004F935F936F937F938F939F93AF93BF93DC
:10550000EF93FF938091E10082FF0BC08091E20056
:1055100082FF07C08091E1008B7F8093E1000E94B1
:1055200099268091DA0080FF1FC08091D80080FF0B
:105530001BC08091DA008E7F8093DA008091D900C1
:1055400080FF0DC080E189BD82E189BD09B400FE04
:10555000FDCF81E080935B020E94722605C019BCDA
:1055600010925B020E9484268091E10080FF19C0A6
:105570008091E20080FF15C08091E2008E7F8093D1
:10558000E2008091E20080618093E2008091D80087
:1055900080628093D80019BC85E080935B020E94F2
:1055A0008F268091E10084FF30C08091E20084FF6B
:1055B0002CC080E189BD82E189BD09B400FEFDCF28
:1055C0008091D8008F7D8093D8008091E1008F7EFC
:1055D0008093E1008091E2008F7E8093E2008091D1
:1055E000E20081608093E20080915702882311F0ED
:1055F00084E007C08091E30087FD02C081E001C024
:1056000083E080935B020E9493268091E10083FFF8
:1056100029C08091E20083FF25C08091E100877F4F
:105620008093E10082E080935B02109257028091A8
:10563000E1008E7F8093E1008091E2008E7F809375
:10564000E2008091E20080618093E20042E060E04D
:1056500080E00E946F298091F00088608093F000C4
:105660000E948B26FF91EF91BF91AF919F918F91F7
:105670007F916F915F914F913F912F910F900FBE4E
:105680000F901F9018951F920F920FB60F92112432
:105690002F933F934F935F936F937F938F939F933A
:1056A000AF93BF93CF93DF93EF93FF93C091E90044
:1056B000CF708091EC00D82FD17080FDD0E810928F
:1056C000E9008091F000877F8093F00078940E9439
:1056D000872B1092E9008091F00088608093F000A1
:1056E000CD2BCF70C093E900FF91EF91DF91CF9167
:1056F000BF91AF919F918F917F916F915F914F91EA
:105700003F912F910F900FBE0F901F9018951F93F0
:10571000CF93DF93CDB7DEB7AA970FB6F894DEBF6D
:105720000FBECDBFECE5F2E08091F100819322E065
:10573000E436F207C9F70E94E9268091E80083FF6A
:105740002EC180915C0290915D02492F50E04A3059
:10575000510508F024C1FA01EC58FF4F0C94222D9A
:10576000803821F0823809F01AC108C080915802AF
:1057700090915902992389F082600FC08091600254
:105780008F70873008F00BC18093E9008091EB00A7
:1057900085FB882780F91092E9009091E800977FB7
:1057A0009093E8008093F1001092F100D1C0282F6F
:1057B0002D7F09F0F4C0882319F0823061F0EFC02A
:1057C00080915E02813009F0EAC0933009F080E0F8
:1057D000809359022EC080915E0281112AC080916F
:1057E00060028F702FEF280F263008F0D8C080930A
:1057F000E9002091EB0020FF1CC0933021F4809140
:10580000EB00806214C09091EB0090619093EB00EC
:1058100021E030E0A90102C0440F551F8A95E2F74C
:105820004093EA001092EA008091EB008860809338
:10583000EB001092E9008091E800877F8093E800F8
:105840000E94A429ACC08111AAC010915E021F77EA
:105850008091E3008078812B8093E3008091E800C1
:10586000877F8093E8000E94A4298091E80080FF50
:10587000FCCF8091E30080688093E300111102C0A7
:1058800082E001C083E080935B0289C0805882304F
:1058900008F085C080915E0290915F028C3D53E0DC
:1058A000950779F583E08A838AE289834FB7F89474
:1058B000DE01139620E03EE051E2E32FF0E050934A
:1058C0005700E49120FF03C0E295EF703F5FEF7057
:1058D0008E2F90E0EA3010F0C79601C0C0968D93ED
:1058E0009D932F5F243149F74FBF8091E800877F58
:1058F0008093E8006AE270E0CE0101960E94B02831
:1059000016C06091600270916102AE014F5F5F4FFF
:105910000E94F127BC01892B09F441C09091E80055
:10592000977F9093E80089819A810E940E29809147
:10593000E8008B778093E80032C0803881F5809151
:10594000E800877F8093E800809157028093F10000
:105950008091E8008E7772CF811121C080915E0224
:1059600090915F0299270297D4F48091E800877F95
:105970008093E80080915E02809357020E94A429E0
:1059800080915702811106C08091E30087FD02C01B
:1059900081E001C084E080935B020E94DA2680915E
:1059A000E80083FF0AC08091E800877F8093E800C9
:1059B0008091EB0080628093EB00AA960FB6F8947A
:1059C000DEBF0FBECDBFDF91CF911F910895CF9362
:1059D00080915B028823A1F0C091E900CF70909183
:1059E000EC00892F817090FD80E8C82B1092E900AF
:1059F0008091E80083FD0E94872BCF70C093E9005F
:105A0000CF910895991B79E004C0991F961708F06B
:105A1000961B881F7A95C9F78095089597FB072EE6
:105A200016F4009407D077FD09D00E94282D07FCBA
:105A300005D03EF4909581959F4F0895709561959E
:105A40007F4F0895EE0FFF1F0590F491E02D09940C
:105A5000AA1BBB1B51E107C0AA1FBB1FA617B70794
:105A600010F0A61BB70B881F991F5A95A9F78095B0
:105A70009095BC01CD010895F999FECF92BD81BDED
:105A8000F89A992780B50895A8E1B0E042E050E087
:105A90000C94702D262FF999FECF92BD81BDF89AF6
:105AA000019700B4021639F01FBA20BD0FB6F89462
:105AB000FA9AF99A0FBE08950396272F0E944B2D4C
:105AC0000E944A2D252F0E944B2D242F0C944B2DE4
:105AD0000196272F0E944B2D0C944A2DDC01CB01FF
