:100000000C94C5060C940C070C940C070C940C076C
:100010000C940C070C940C070C940C070C940C0714
:100020000C940C070C940C070C94FD290C94CF2A0B
:100030000C949B1A0C940C070C940C070C940C0752
:100040000C940C070C940C070C940C070C940C07E4
:100050000C940C070C943B1B0C940C070C940C0791
:100060000C940C070C940C070C940C070C940C07C4
:100070000C940C070C940C070C940C070C940C07B4
:100080000C940C070C940C070C940C070C940C07A4
:100090000C940C070C940C070C940C070C940C0794
:1000A0000C940C070C940C070C940C078609880917
:1000B00093098A098C098E09900992099509970973
:1000C0009909A4099B099D099F09A109A309A609EA
:1000D0007C107C10AE10AE10F71017117B127B1243
:1000E00059117B12FA11FA116B127B127B127412E6
:1000F0000712071207120712071207120712071238
:100100000712071207120712071207120712071227
:10011000181226122D1234123E120A130A131C133F
:100120001C1313131C131C131C130A130A13181388
:100130001C131C1318133C2B632B552C632B552CB1
:10014000AF2BD22B552C282C372C253032583A2067
:10015000253038620A000A722F632030313233347E
:100160003536370A001F0014001A00160004001D5F
:10017000001B0006002000210015000800070009F0
:100180000019000500220023001C0017000A000BC4
:1001900000110000001E0029002B00E000E100E239
:1001A00000E3002C422400250018000C000E000D76
:1001B0000010000000310035002A0028000151E540
:1001C00000E600E700260027001200130033000FAE
:1001D00000360000002D002E0030002F00340038C3
:1001E00000370000003B00BC00BB00A900AA0001D2
:1001F00000010001003C003D000100AE00A800012C
:1002000000010001003E003F000100010001005517
:1002100000570000003A00A500390001000100016C
:10022000000100010040004100010046004A005466
:10023000005600000049004C002A0058000100014F
:100240000001000100420043004700480050004BFD
:10025000004D00000044004500010052004F0051D5
:10026000004E0000000000F400F000F100F2000079
:10027000000000000000000000F900F500F300FAA3
:10028000000000000000000000000000000000006E
:10029000000000000000002C05000000000000002D
:1002A000000000000000000000000052005100505B
:1002B000000000000000000000000000000000003E
:1002C0000000000000000000000000000000004FDF
:1002D00000500800000000000000000000000000C6
:1002E000004F08000044454255473A206469736155
:1002F000626C65642E0A0044454255473A20656E9B
:1003000061626C65642E0A000A00253032582000B4
:100310006B6579626F6172645F7265706F72743A57
:1003200020000A0025303258006B6579626F6172D7
:10033000645F7365745F6C65643A2000646F6E651A
:100340002E0A00626F6F746D616769632073636169
:100350006E3A202E2E2E2000290A002575002F002F
:100360002575005D2800256400200025640020001C
:1003700025640020002564007C0025303258006D83
:100380006F7573656B6579205B62746E7C7820791C
:10039000207620685D287265702F61636C293A2091
:1003A0005B006D6B5F776865656C5F74696D655F39
:1003B000746F5F6D6178203D2025640A006D6B5F6E
:1003C000776865656C5F6D61785F737065656420E3
:1003D0003D2025640A006D6B5F74696D655F746F05
:1003E0005F6D6178203D2025640A006D6B5F6D6153
:1003F000785F7370656564203D2025640A006D6B2D
:100400005F696E74657276616C203D2025640A0018
:100410006D6B5F64656C6179203D2025640A006D19
:100420006B5F776865656C5F74696D655F746F5F3E
:100430006D6178203D2025640A006D6B5F776865EB
:10044000656C5F6D61785F7370656564203D202524
:10045000640A006D6B5F74696D655F746F5F6D61D9
:1004600078203D2025640A006D6B5F6D61785F73B5
:1004700070656564203D2025640A006D6B5F696EC0
:1004800074657276616C203D2025640A006D6B5F97
:1004900064656C6179203D2025640A000A00257599
:1004A00000363A20776865656C5F74696D655F74C6
:1004B0006F5F6D61783A20000A00257500353A209B
:1004C000776865656C5F6D61785F73706565643AC8
:1004D00020000A00257500343A2074696D655F7448
:1004E0006F5F6D61783A20000A00257500333A206D
:1004F0006D61785F73706565643A20000A00257548
:1005000000323A20696E74657276616C286D7329C9
:100510003A20000A00257500313A2064656C617943
:10052000282A31306D73293A20000A092D2056619E
:100530006C756573202D0A004D3E004D25643E20EC
:10054000003F007365742064656661756C740A0011
:10055000433E200077686572652064656C74613A7B
:1005600020637572736F723D25642C207768656512
:100570006C3D25640A53656520687474703A2F2FAA
:10058000656E2E77696B6970656469612E6F72673D
:100590002F77696B692F4D6F7573655F6B65797325
:1005A0000A000A092D204D6F7573656B6579202D42
:1005B0000A4553432F713A09717569740A313A0932
:1005C00064656C6179282A31306D73290A323A09E1
:1005D000696E74657276616C286D73290A333A0905
:1005E0006D61785F73706565640A343A0974696D8A
:1005F000655F746F5F6D61780A353A097768656584
:100600006C5F6D61785F73706565640A363A09776F
:100610006865656C5F74696D655F746F5F6D617847
:100620000A0A703A097072696E742076616C756599
:10063000730A643A097365742064656661756C7445
:10064000730A75703A092B310A646F776E3A092D77
:10065000310A706775703A092B31300A7067646F20
:10066000776E3A092D31300A0A7370656564203D52
:100670002064656C7461202A206D61785F737065F9
:100680006564202A2028726570656174202F2074AB
:10069000696D655F746F5F6D6178290A003F004D79
:1006A0003E2000433E20004C25640A0074696D65BD
:1006B000725F72656164333228293A202530346CC8
:1006C000580A006B6579626F6172645F69646C657A
:1006D0003A2025580A006B6579626F6172645F7019
:1006E000726F746F636F6C3A2025580A00686F73DD
:1006F000745F6B6579626F6172645F6C65647328A7
:10070000293A2025580A000A092D2053746174756E
:1007100073202D0A004743433A20342E392E3220CD
:100720004156522D4C4942433A20312E382E3073D7
:10073000766E204156525F415243483A20617672AC
:10074000350A004F5054494F4E533A204C554641BC
:1007500020424F4F544D41474943204D4F5553453B
:100760004B45592045585452414B455920434F4E13
:10077000534F4C4520434F4D4D414E44203430396A
:10078000360A004255494C443A2022302E362E3447
:1007900033362D322D673832376638632D646972EF
:1007A000747922202830313A31383A3137204A756D
:1007B0006C2032342032303139290A005649443A0B
:1007C0002030784645454428712E6D2E6B292050E7
:1007D00049443A203078434146452848484B422016
:1007E0006D6F6429205645523A20307830313034CC
:1007F0000A00444553433A20712E6D2E6B206B65E1
:1008000079626F617264206669726D7761726520CA
:10081000666F722048484B420A000A092D2056652F
:100820007273696F6E202D0A000A092D20436F6EC6
:10083000736F6C65202D0A4553432F713A0971750A
:1008400069740A6D3A096D6F7573656B65790A0095
:100850000A092D204D61676963202D0A443A094435
:1008600065627567204D65737361676520546F67B6
:10087000676C650A583A094D61747269782044655D
:10088000627567204D6F646520546F67676C6520E3
:100890002D2053686F77206B65797072657373656F
:1008A0007320696E206D6174726978206772696463
:1008B0000A4B3A094B6579626F6172642044656244
:1008C000756720546F67676C65202D2053686F77BC
:1008D000206B65797072657373207265706F7274C6
:1008E0000A4D3A094465627567204D6F757365203E
:1008F000546F67676C650A563A0956657273696F7B
:100900006E0A533A095374617475730A433A094184
:100910006374697661746520436F6E736F6C6520D4
:100920004D6F64650A46312D4631303A0953776977
:1009300074636820746F204C6179657220302D39A2
:100940002028463130203D204C30290A302D393ABC
:100950000953776974636820746F204C61796572FC
:1009600020302D390A47524156453A095377697468
:10097000636820746F204C61796572203020286193
:100980006C7465726E617465290A423A094A756D24
:100990007020746F20426F6F746C6F616465720AAF
:1009A0004553433A094A756D7020746F20426F6F4A
:1009B000746C6F616465722028616C7465726E611D
:1009C0007465290A453A095072696E74204545508C
:1009D000524F4D2053657474696E67730A425350C9
:1009E0004143453A09436C65617220454550524F79
:1009F0004D0A000A002575002E6E6B726F3A2000BA
:100A00000A002575002E737761705F6261636B73F6
:100A10006C6173685F6261636B73706163653A20D8
:100A2000000A002575002E737761705F677261762A
:100A3000655F6573633A20000A002575002E6E6FAE
:100A40005F6775693A20000A002575002E7377618B
:100A5000705F72616C745F726775693A20000A009A
:100A60002575002E737761705F6C616C745F6C67C5
:100A700075693A20000A002575002E636170736C59
:100A80006F636B5F746F5F636F6E74726F6C3A202D
:100A9000000A002575002E737761705F636F6E74B6
:100AA000726F6C5F636170736C6F636B3A20000AE6
:100AB0000025303258006B65796D61705F636F6E31
:100AC0006669672E7261773A20000A002575002E4C
:100AD0006D6F7573653A20000A002575002E6B65F1
:100AE00079626F6172643A20000A002575002E6DEC
:100AF00061747269783A20000A002575002E656ECF
:100B000061626C653A20000A002530325800646545
:100B10006275675F636F6E6669672E7261773A20F0
:100B2000000A0025750064656661756C745F6C6110
:100B30007965723A20003F000A6D6F7573653A203F
:100B40006F66660A000A6D6F7573653A206F6E0AEC
:100B5000000A6B6579626F6172643A206F66660A9B
:100B6000000A6B6579626F6172643A206F6E0A00E9
:100B70000A6D61747269783A206F66660A000A6DC0
:100B800061747269783A206F6E0A000A6465627552
:100B9000673A206F66660A000A64656275673A20E4
:100BA0006F6E0A000A0A4A756D70696E6720746F6D
:100BB00020626F6F746C6F616465722E2E2E200040
:100BC000433E2000436C656172696E672045455065
:100BD000524F4D0A006565636F6E6669673A0A0099
:100BE0005B735D004B6579626F6172642073746141
:100BF00072742E0A005B575D005B535D005B525DB3
:100C0000005B445D005B435D0004033000000012A4
:100C100003480048004B00420020006D006F006454
:100C20000000000C0371002E006D002E006B000010
:100C3000000403090409025B00030100A0FA09048F
:100C400000000103010100092111010001224000FF
:100C50000705810308000A090401000103000000E0
:100C60000921110100012285000705820320000AE5
:100C70000904020002030000000921110100012201
:100C8000220007058303200001070503032000015C
:100C90001201100100000008EDFEFECA040101026D
:100CA00003010631FF0974A1010975150026FF0033
:100CB0009520750881020976150026FF009520759C
:100CC000089102C005010902A10185020901A100E4
:100CD00005091901290515002501950575018102F0
:100CE0009501750381010501093009311581257FC1
:100CF00095027508810609381581257F95017508CB
:100D00008106050C0A38021581257F950175088139
:100D100006C0C005010980A1018503160100260354
:100D2000001A81002A8300751095018100C0050C0E
:100D30000901A1018504160100269C021A01002A5E
:100D40009C02751095018100C005010906A10105ED
:100D50000719E029E715002501950875018102951D
:100D6000017508810105081901290595057501918D
:100D7000029501750391010507190029FF15002649
:100D8000FF00950675088100C00011241FBECFEF3B
:100D9000DAE0DEBFCDBF04B603FE27C080910002BB
:100DA00090910102A0910202B09103028730904B12
:100DB000A740B04BD1F410920002109201021092A1
:100DC00002021092030214BE84B7877F84BF0FB65D
:100DD000F894A895809160008861809360001092DB
:100DE00060000FBEE0E0F8E3099511E0A0E0B1E09B
:100DF000ECE0FAE502C005900D92AC32B107D9F7EC
:100E000022E0ACE2B1E001C01D92A030B207E1F7F0
:100E10000E9418270C94042D0C940000FF93EF936C
:100E2000E0912C01F0912D01309709F00995EF9197
:100E3000FF910895FC018591803011F0EFDFFBCF29
:100E40000895FF27E0E230E247FF0CC0419597FF8D
:100E500009C0EDE26095709580959095611D711DBA
:100E6000811D911D27FF02C0219530E350E2AA2782
:100E7000660F771F881F991FAA1FA41710F0A41BC5
:100E800063955A95A9F7AA3008F0A95FA05DAF93C2
:100E9000F395611571058105910541F7ED3211F466
:100EA000EF93F395F21718F43F93F395FBCF8F91DF
:100EB000B5DFFA95E1F70895E991F99185918030D0
:100EC00021F0853219F0AADFF9CF089520E0E894E7
:100ED00055915532C1F3503311F4689455915A33FA
:100EE00048F4505390F3220F022E220F220F200DB0
:100EF000250FF4CF0EF4219589919991533619F36A
:100F0000533729F1533559F1BC0188279927E894C3
:100F10005C3621F48991999168945591543639F44D
:100F200046EF7EF077FF0DC08FEF9FEF0AC0553779
:100F30004AE039F0583540E121F0523642E009F0FC
:100F40000895FF93EF937DDFEF91FF91B7CFFF936C
:100F5000EF93FC0181918030B9F360DFFBCFFF9309
:100F6000EF9368DFF1CFDF93CF93CDB7DEB7259650
:100F7000A3DFCF91DF9108958FEF84B980E485B925
:100F800057985F9A2E9A2F98E6E3F1E088E08E0F4B
:100F900011928E13FDCFEEE2F1E088E08E0F1192F8
:100FA0008E13FDCF86E391E0909341018093400141
:100FB0008EE291E090933F0180933E010895089561
:100FC0000C94DF070F931F93CF93DF9380913E0123
:100FD00090913F01209140013091410130933F01B8
:100FE00020933E019093410180934001C0E0D0E006
:100FF00001E010E080E090E025B1207C2C2BAC01DA
:1010000033E0440F551F3A95E1F7242B25B9EAE167
:10101000EA95F1F700C0E0913E01F0913F01EC0F3D
:10102000FD1F208130E0082E02C0359527950A94D7
:10103000E2F720FD2F9AF5E3FA95F1F70000E6B507
:101040002E982AE12A95F1F700C040914001509175
:101050004101DA01AC0FBD1F4F9B0AC09801082E59
:1010600001C0220F0A94EAF720953C91232308C07F
:101070006C919801082E01C0220F0A94EAF7262BE2
:101080002C9326B56E2F70E02E1718F026B530E0A1
:1010900004C026B530E021503F4F261B370B2630C9
:1010A000310558F0E0913E01F0913F01EC0FFD1F3A
:1010B0002081FA01EC0FFD1F20833AE13A95F1F708
:1010C00000C02F982E9AEBE2F1E03197F1F700C0C3
:1010D000000001968830910509F08ECFA091400163
:1010E000B0914101AC0FBD1FE0913E01F0913F0175
:1010F000EC0FFD1F9C918081981751F00E94D91A26
:1011000060934201709343018093440190934501A1
:101110002196C830D10509F06DCF8091F701853057
:1011200021F08091F701811111C06091420170910D
:10113000430180914401909145010E940F1B613150
:1011400077428105910510F00E944C1A0E942309F4
:1011500081E0DF91CF911F910F910895209140017F
:1011600030914101F901E80FF11D808108950F933D
:101170001F93CF93DF9386E591E00E941A07C0E0AA
:10118000D0E00AE411E0E0914001F0914101EC0F60
:10119000FD1F80810E9464191F928F93DF93CF936C
:1011A0001F930F930E94B30721960F900F900F90FB
:1011B0000F900F900F90C830D10529F7DF91CF9194
:1011C0001F910F9108950895089581E0089581E099
:1011D00008950C94E7081F93CF93DF9300D000D0BD
:1011E0001F92CDB7DEB749835A8320915901898177
:1011F0009A81211112C0662349F00E942F18182FDE
:10120000682F89819A810E94D41703C00E94031815
:10121000182F69817A81812F04C00E942F1869815B
:101220007A810F900F900F900F900F90DF91CF91D8
:101230001F910C94340AFC014081518162817381B9
:1012400084810C94EB080C94E00708950C94250914
:101250000C94260908950E94FA120E942A092FEF81
:1012600084E39CE0215080409040E1F700C0000002
:101270000C94611B0F931F93CF93DF938C010E94FB
:101280001B09EC01B8010E94E9088823D9F0B801D4
:10129000CE010E94150D8823A9F0C531FCE5DF07BA
:1012A00008F088C0C2308CE5D80770F4C115ECE5B1
:1012B000DE0709F05BC0F801C281CC2309F4CAC083
:1012C0000E942B09C0E0C6C0F8018281882309F47E
:1012D00050C00E947A19811102C00E940A1A0E940D
:1012E000971990E09093F2018093F101FE01E35091
:1012F000FC45E231F10530F4EA5AFF4F8091F101EB
:101300000C94A82C8091F101816027C0826025C0D7
:10131000846023C0806121C080621FC080641DC0C2
:1013200080681BC08460886018C08E7F16C08D7F67
:1013300014C08B7F12C08F7E10C08F7D0EC08F7B3C
:101340000CC08F770AC08B7F877F07C087FB22275F
:1013500020F991E0922790FB87F98093F101809129
:10136000F1010E949B190E94FA12ACCFC130DC45FA
:1013700039F0C801DF91CF911F910F910C94E508CE
:10138000F801C281CC2309F465C08091CF01C82F38
:10139000C095C170C0FB80F98093CF01CC2329F0A8
:1013A00087EF92E00E941A078DCF85EE92E00E94AF
:1013B0001A0750C0CC3D8CE5D80739F4F801C2813A
:1013C000CC2309F447C080E00DC0CD3DECE5DE073D
:1013D00060F0CD3D8CE5D80791F5F801C281CC23B2
:1013E000C9F182E00E94C0276DCFC631DC4509F605
:1013F0000E94AF18282FF80182814091000150917E
:101400000101882379F02A7A91E009F490E0909321
:101410004601911102C069E201C065E3CA010E9460
:101420003E1A0AC080914601811102C069E201C0E2
:1014300065E3CA010E94401A0E94FB1843CFCE3DCB
:10144000DC4509F096CFF801C281CC2319F00E9447
:101450000A1A38CF8C2FDF91CF911F910F910895E9
:1014600080E090E008950895E72FF0E098E0899FEC
:10147000E00DF11D112483E0EE0FFF1F8A95E1F7C7
:10148000E60FF11DEE0FFF1FEB59FE4F8591949172
:101490000895880F991FFC01E85FFC4F8591949196
:1014A0000895CF93DF930E94340A0E94080CEC0148
:1014B000811520E59207F0F5811530E4930708F0D7
:1014C00024C1883E910500F5803E910508F09CC13D
:1014D000883A910570F4853A910508F09FC08130F3
:1014E000910509F491C108F442C1049708F08CC138
:1014F0003EC18F3B910508F49CC0803C910508F4E7
:1015000036C1805C9109F4C0811540E2940758F41B
:10151000C11581E0D80708F077C1C03FD10508F4B4
:1015200026C1D06571C1811520E3920708F0E4C09F
:101530009F70DEC0811535E5930708F044C0811522
:1015400044E5940708F0F8C0C11582E5D80708F50E
:10155000C11521E5D20708F0DBC08C2F837021E094
:1015600030E002C0220F331F8A95E2F73C68CE01BB
:1015700074E0969587957A95E1F78370382BCF7054
:10158000C695C69580E2C89FE0011124C22BD32BDB
:101590003BC12C2F26952695CE0183709927C11526
:1015A000D34508F0BAC040E2249F90011124C1E065
:1015B000D0E002C0CC0FDD1F8A95E2F72C2B3D2B2B
:1015C000E901DC6821C1811549E59407A0F4C11542
:1015D00088E5D80708F0B5C0C11526E5D20708F0A0
:1015E000C6C08C2F0E94850C8F71C82FD0E0DC2FD5
:1015F000CC27D06209C181153AE5930708F4A6C04B
:1016000090568115904208F0B2C08D2F8F710E94C4
:10161000850CDD27D0628F71D82BF6C0853A9105F5
:1016200009F4A8C0863A910509F0A7C0C2E8D0E441
:10163000EBC0883A910509F4A3C0893A910509F4F1
:10164000A2C08A3A910509F4A1C08B3A910509F428
:10165000A0C08C3A910509F49FC08B3B910509F419
:101660009EC08C3B910509F49DC08D3A910509F40B
:101670009CC0803B910509F49BC08E3A910509F40A
:101680009AC08F3A910509F499C0813B910509F4FC
:1016900098C0823B910509F497C0833B910509F4FA
:1016A00096C0843B910509F495C0853B910509F4EA
:1016B00094C0863B910509F493C0873B910509F4DA
:1016C00092C0883B910509F491C0893B910509F4CA
:1016D00090C08D3B910509F48FC08E3B910509F4B4
:1016E0008EC08A3B910509F48DC0C0E0D4E48CC063
:1016F0000E94490AEC0188C09927D3FF03C0EC017E
:10170000D86C82C0EC01D06C7FC0DF70D06A7CC026
:10171000DC2FCC27C16FD06A77C040E2249F9001B4
:101720001124C1E0D0E002C0CC0FDD1F8A95E2F7A2
:10173000C22BD32BDA6868C0D82FCC27C46FD06AED
:1017400063C0DC2FCC27C06FD06A5EC08F700E9450
:10175000850C94E0D695C7959A95E1F7CF70D0E0C7
:10176000DC2FCC27D06A8F70806EC82B4DC0C0E0B4
:10177000D0E04AC0C1E8D0E447C0C3E8D0E444C0E8
:10178000C2EED4E441C0C9EED4E43EC0CAEED4E413
:101790003BC0C5EBD4E438C0C6EBD4E435C0C3EBE2
:1017A000D4E432C0C4EBD4E42FC0C7EBD4E42CC0E3
:1017B000CCECD4E429C0CDECD4E426C0C3E8D5E415
:1017C00023C0CAE8D5E420C0C2E9D5E41DC0C4E9FD
:1017D000D5E41AC0C1E2D6E417C0C3E2D6E414C00F
:1017E000C4E2D6E411C0C5E2D6E40EC0C6E2D6E437
:1017F0000BC0C7E2D6E408C0CFE6D4E405C0C0E71A
:10180000D4E402C0CAE2D6E4CE01DF91CF910895BC
:101810008238910549F1B0F48133910509F458C03B
:1018200048F48932910509F44EC08A32910509F4D1
:1018300054C008958533910509F440C0893391055A
:1018400099F00895833E910529F138F4803E910581
:1018500091F0823E9105A1F00895863E9105F9F040
:10186000873E910531F108952091F10120FD3AC0A4
:1018700021FD38C008958091F10180FD35C032C04E
:101880008091F10182FF32C08091F10184FD30C06E
:1018900083EE39C08091F10182FD28C0F5CF80919F
:1018A000F10183FF27C08091F10184FD21C087EE03
:1018B0002AC08091F10183FD1DC0F5CF8091F10117
:1018C00085FD1AC01BC08091F10185FD17C014C0B1
:1018D0008091F10186FD14C015C08091F10186FD53
:1018E00011C00EC080EE0FC089E30DC082EE0BC0A8
:1018F00080E009C086EE07C089E205C085E303C029
:101900008AE201C081E390E008959091F10192FF95
:101910000DC0282F2871283019F4877F846006C0F5
:10192000282F2471243011F48B7F886093FF0DC021
:10193000282F2871283119F4877E846106C0282F4A
:101940002471243111F48B7E886194FD877E089583
:101950000F931F93CF93DF93C62FD42F022FFC0139
:1019600082818823C9F0609349010E94CD1A909327
:1019700048018093470180E28C0F883008F050C006
:10198000C77081E001C0880FCA95EAF7DF91CF9157
:101990001F910F910C94381010914901161330C00B
:1019A00080914701909148010E94E51A883C910579
:1019B00038F5C0E2CD0F1D17B9F080E2810F8830F5
:1019C00040F4177081E001C0880F1A95EAF70E9471
:1019D0003F10C83048F481E09D2F977001C0880FF8
:1019E0009A95EAF70E943810802F0E942510C8307F
:1019F000B8F4D77081E001C0880FDA95EAF70AC021
:101A000080E28C0F883060F4C77081E001C0880FDD
:101A1000CA95EAF7DF91CF911F910F910C943F1077
:101A2000DF91CF911F910F9108959C01CB01203F31
:101A30004CE53407F9F078F4283DFCE53F07B9F0B0
:101A4000293D4CE5340711F1273D3C4531F526E2AF
:101A500041EE61EE1EC0223FFCE53F0799F070F0B9
:101A6000233F3C45D1F427E245EE66EE12C027E263
:101A700045EE0EC026E241EE60EE0BC027E245EED9
:101A800064EE07C026E241EE62EE03C028E241E0C8
:101A900065EE0E94A80C80E00895FC0182818823F5
:101AA00019F010924901089581E0089590934F0133
:101AB00080934E010895E0914E01F0914F013097CF
:101AC00021F00190F081E02D099480E00895EF92DB
:101AD000FF920F931F93CF93DF93E0914E01F0910C
:101AE0004F013097B1F18C010280F381E02D09950F
:101AF0008091CF0182FF2DC080FF04C080E193E080
:101B00000E941A07E80118E08AE0E82E83E0F82E28
:101B10008091CF0180FF0BC088811F928F93FF922D
:101B2000EF920E94B3070F900F900F900F901150FB
:101B300021961111EDCF8091CF0180FF0AC088E07E
:101B400093E0DF91CF911F910F91FF90EF900C9454
:101B50001A07DF91CF911F910F91FF90EF90089599
:101B6000E0914E01F0914F01309739F022E0DC0115
:101B70002C930480F581E02D0994089520914C0167
:101B800030914D018217930771F090934D0180932E
:101B90004C01E0914E01F0914F01309721F0068009
:101BA000F781E02D0994089520914A0130914B016D
:101BB0008217930771F090934B0180934A01E09153
:101BC0004E01F0914F01309721F00084F185E02D16
:101BD0000994089585B7806885BF85B7806885BFFB
:101BE0000895089508950C94F20D08950C94F50D40
:101BF0000E94EA0D0E94F10D0C94F30D81E008950E
:101C00000E94C41A0E94BC070E94C91B0C94F60DC6
:101C1000CF93C82F8091CF0182FF1EC080FF04C0E8
:101C200089E293E00E941A078091CF0180FF0CC0E7
:101C30001F92CF9384E293E09F938F930E94B30708
:101C40000F900F900F900F908091CF0180FF04C0F4
:101C500082E293E00E941A078C2FCF910C942809FE
:101C6000CF92DF92EF92FF920F931F93CF93DF9368
:101C7000CDB7DEB72B970FB6F894DEBF0FBECDBF42
:101C80000E94E2070E94FE0D811111C08FEF89832F
:101C90008A831B820E94CD1A8160782F9D838C835A
:101CA00049815A816B818D810E94D80E56C081E591
:101CB000C82E81E0D82E00E010E0E02E802F0E9498
:101CC000AE08F60141916F01F42EF82631F40F5F52
:101CD0001F4F0830110589F7D9CF9091CF0191FF9F
:101CE00004C08B870E94B7088B8520E030E04F2D21
:101CF00050E0922FBA01022E02C0759567950A94A2
:101D0000E2F760FF24C02E83EF8221E030E069011A
:101D100002C0CC0CDD1C9A95E2F790E08C219D214D
:101D2000892B09F420E028870E94CD1A8160782F42
:101D30009A8789874E815F8168858A850E94D80E3F
:101D4000F801EF5AFE4F8081C826C08206C02F5F7F
:101D50003F4F2830310569F6BACF0E94F61E109128
:101D600050010E945B0D1817A1F00E945B0D80933B
:101D700050012B960FB6F894DEBF0FBECDBFDF919A
:101D8000CF911F910F91FF90EF90DF90CF900C9427
:101D9000080E2B960FB6F894DEBF0FBECDBFDF91B5
:101DA000CF911F910F91FF90EF90DF90CF9008950A
:101DB000CF93DF93CDB7DEB72B970FB6F894DEBF86
:101DC0000FBECDBF4F83588769877A878B87DE0127
:101DD000119686E0FD0111928A95E9F785E0FE01F2
:101DE000379601900D928A95E1F749815A816B816E
:101DF0007C818D819E810E94A4152B960FB6F8944C
:101E0000DEBF0FBECDBFDF91CF910895FC01808171
:101E100091810E9470180895CF93DF931F92CDB7E0
:101E2000DEB7882309F4D9C0682F8CEF860F813A7A
:101E300070F4862F69830E94632369818111CDC06C
:101E400080910001909101010E943E1A0CC080E235
:101E5000860F883068F4677081E001C0880F6A954A
:101E6000EAF70E94B2180F90DF91CF910C94FB1803
:101E70008BE5860F833088F4653A29F0663A31F0B5
:101E800083E890E005C081E890E002C082E890E03D
:101E90000F90DF91CF910C94BE0D88E5860F8731AE
:101EA00008F091C0683A09F445C0693A09F445C0A0
:101EB0006A3A09F445C06B3A09F445C06C3A09F432
:101EC00045C06B3B09F445C06C3B09F445C06D3A15
:101ED00009F445C0603B09F445C06E3A09F445C0B9
:101EE0006F3A09F445C0613B09F445C0623B09F40F
:101EF00045C0633B09F445C0643B09F445C0653BFC
:101F000009F445C0663B09F445C0673B09F445C088
:101F1000683B09F445C0693B09F445C06D3B09F4D1
:101F200045C06E3B09F445C06A3B09F445C080E0FA
:101F300090E044C082EE90E041C089EE90E03EC067
:101F40008AEE90E03BC085EB90E038C086EB90E0F5
:101F500035C083EB90E032C084EB90E02FC087EB7C
:101F600090E02CC08CEC90E029C08DEC90E026C075
:101F700083E891E023C08AE891E020C082E991E003
:101F80001DC084E991E01AC081E292E017C083E2AB
:101F900092E014C084E292E011C085E292E00EC0AB
:101FA00086E292E00BC087E292E008C08FE690E004
:101FB00005C080E790E002C08AE292E00F90DF91D6
:101FC000CF910C94D40D603F40F0862F0E947C1D71
:101FD0000F90DF91CF910C94691E0F90DF91CF91FC
:101FE0000895882389F19CEF980F913A40F4682F67
:101FF00080910001909101010E94401A0DC090E271
:10200000980F983058F4877091E001C0990F8A9525
:10201000EAF7892F0E94B8180C94FB189BE5980FDB
:10202000933020F480E090E00C94BE0D98E5980F7A
:10203000973120F480E090E00C94D40D803F20F0A4
:102040000E94E41D0C94691E0895CF93C82F0E942E
:102050000C0FC93349F42FEF87EE93E021508040F5
:102060009040E1F700C000008C2FCF910C94F10F4D
:10207000882321F00E94B2180C94FB18089588233D
:1020800021F00E94B8180C94FB1808954F925F92AB
:102090006F927F92BF92CF92DF92EF92FF920F9357
:1020A0001F93CF93DF937C01062FC72FFC0115816F
:1020B00012951F70D281D1110E94CF180E94A818CA
:1020C000882379F0DD2369F080E2800F883048F0C2
:1020D00082E00E9446190E94A81891E0B82EB92605
:1020E00001C0B12CCC2EC2948FE0C822D12CF601B5
:1020F000E859FF4F0C94A82C8C2F807FCF70882339
:1021000011F0C295C07FDD2399F0CC2309F4CEC134
:1021100080E2800F883010F0011104C08C2F0E94E3
:10212000B21803C08C2F0E94C2180E94FB18BEC1B7
:10213000802F0E94F10FCC2309F4DDC180E2800FD3
:10214000883010F0011104C08C2F0E94B81803C011
:102150008C2F0E94C8180E94FB18CDC18C2F807F45
:10216000CF70803211F0C295C07F002319F001308A
:10217000C9F022C0DD2371F0112341F0113031F498
:102180000E94E2188C2B0E94E818B5C10E94E21848
:102190008C2B45C1112319F0113009F4ACC10E94F8
:1021A000F11823C0DD2321F0163008F0A4C10EC0C1
:1021B000153008F0A0C119C0DD2351F0112331F012
:1021C000F701858180FF72C18F7085838C2F27C1B5
:1021D000112359F0093309F07AC1FFEF27EE83E0AC
:1021E000F15020408040E1F770C18C2F1EC18C2F30
:1021F00086958695837090E0009719F0019761F0BD
:102200007AC1DD2321F0802F9C2F937002C080E0E3
:1022100090E00E94BE0D7FC1DD2321F0802F9C2F16
:10222000937002C080E090E00E94D40D74C1DD2361
:10223000F9F0053F51F0063F71F0043FA9F4809199
:10224000EB019091EC0181600BC08091EB019091CA
:10225000EC01826005C08091EB019091EC018460FB
:102260009093EC018093EB01802F0E947C1D1EC097
:10227000053F51F0063F71F0043FA9F48091EB0156
:102280009091EC018E7F0BC08091EB019091EC015D
:102290008D7F05C08091EB019091EC018B7F909335
:1022A000EC018093EB01802F0E94E41D0E94691EC7
:1022B00032C18C2F837009F04BC0D11128C1202F5F
:1022C000229526952770220F220F602F6F70862F80
:1022D00090E0A0E0B0E02C013D01022E04C0440CCF
:1022E000551C661C771C0A94D2F704FF10C08FE0BF
:1022F00090E0A0E0B0E004C0880F991FAA1FBB1FA8
:102300002A95D2F780959095A095B09503C080E06E
:1023100090E0DC01C695C695C370D0E0BC01CD014C
:102320006429752986299729C230D10559F0C3300F
:10233000D10559F0219719F00E94E916E8C00E94D2
:10234000D716E5C00E94FB16E2C00E94D516DFC07A
:10235000DD2319F08C2F817001C08695882309F444
:10236000D6C0202F229526952770220F220F602F8E
:102370006F70862F90E0A0E0B0E02C013D01022EAE
:1023800004C0440C551C661C771C0A94D2F704FF49
:1023900010C08FE090E0A0E0B0E004C0880F991F6B
:1023A000AA1FBB1F2A95D2F780959095A095B0954E
:1023B00003C080E090E0DC01C695C695C370D0E014
:1023C000BC01CD016429752986299729C230D10520
:1023D00059F0C330D10559F0219719F00E94AF1779
:1023E00096C00E949D1793C00E94C11790C00E9482
:1023F00010178DC0802F90E0FC01E05EF109E531FF
:10240000F10508F04FC0E858FF4F0C94A82C0F704E
:102410008C2F8F71DD2331F00E943617802F0E94A0
:10242000381069C00E945717802F0E943F1063C068
:10243000DD2341F0153008F05EC08C2F8F710E94B3
:102440007C1759C0163008F056C0F7CFDD2339F09D
:102450008C2F8F710E9436174EC0DD23C9F38C2F4D
:102460008F710E94571747C0DD2329F08C2F8F7181
:102470000E94211740C00E941C173DC0DD2349F077
:10248000CF718C2F0E94361763E08C2F0E94311978
:1024900032C081E00E944619123068F182E00E9449
:1024A000461929C0DD2331F0112391F2802F0E94BB
:1024B0000C0F21C0112399F2093349F49FEFE7EE85
:1024C000F3E09150E040F040E1F700C00000802FC1
:1024D0000E94F10F10C04C2F4F70602FC7010E9457
:1024E000300A0E94481617C04C2F4F70602FC7014A
:1024F0000E94330A10C028E0C216D10441F05CF0FB
:102500009AE0C91AD108E2E0CE16D10420F40E9464
:102510005B0D0E942809BB20F1F00E94A41880FDE9
:102520001AC0F70112820E949E180E943617C70136
:102530000E94B9120E949E18DF91CF911F910F91B6
:10254000FF90EF90DF90CF90BF907F906F905F9063
:102550004F900C945717DF91CF911F910F91FF90DF
:10256000EF90DF90CF90BF907F906F905F904F90F3
:1025700008950F931F93CF93DF93EC018881998186
:102580002B813C81232BB9F09F3F11F48F3F99F0B1
:10259000CE010E943A09882371F0688179818A818D
:1025A0000E947B188C010E94D3170E94D416B80198
:1025B000CE010E944610DF91CF911F910F91089597
:1025C0000E94CF180E94DF180E94FB180E94911FE2
:1025D0000E94691E80E090E00E94BE0D80E090E0C5
:1025E0000C94D40D80910001909101010E94421A37
:1025F0000C94E0120E94BF180C94F212E92FE2959D
:10260000EF70F0E03297EE30F105B0F4E357FF4F92
:102610000C94A82C803F91F018F4803E68F40EC012
:10262000843F51F40BC0803E48F0813F29F406C03E
:1026300093FB882780F9089580E0089581E008954C
:102640000E9470180E94FE120895CF93DF9300D06D
:1026500000D01F92CDB7DEB70F900F900F900F9064
:102660000F90DF91CF910895CF93DF9300D000D0EA
:1026700000D0CDB7DEB726960FB6F894DEBF0FBEFA
:10268000CDBFDF91CF9108951F93CF93DF93C0917A
:102690005A0116E080915B01C81799F0D0E01C9FA9
:1026A000F0011D9FF00D1124E45AFE4F408151812D
:1026B00062817381848195810E9434132196C77051
:1026C000E9CFDF91CF911F91089540918C015091F6
:1026D0008D0160918E0170918F0180919001909198
:1026E00091010C9434138091910182958F7009F0BF
:1026F00054C080918E01882309F44FC080915A0103
:10270000A0915B0160918C0170918D0140918F01CE
:1027100050919001B6E08A1709F43FC090E041154E
:102720005105C1F17F3F11F46F3FA1F1B89FF00156
:10273000B99FF00D1124E45AFE4F218172132AC073
:102740002081621327C02281211124C0238134817A
:102750002417350710F421503109241B350B283C70
:102760003105C0F4209191012F70206120939101D7
:1027700026E0289FF001299FF00D1124EF59FE4F0C
:1027800080818F70806180838CE891E00E94B91213
:102790000C94441301968770BECF0895CF92DF92B8
:1027A000EF92FF920F931F93CF93DF93CDB7DEB7D6
:1027B00062970FB6F894DEBF0FBECDBF8C0185E0E7
:1027C000F801DE011D9601900D928A95E1F7D8017E
:1027D0004C9111965C91119712966C9112971396E9
:1027E000CD90DC90149730918C0170918D01809187
:1027F0008F0190919001009709F46BC17F3F19F40C
:102800003F3F09F466C1E0908E01EE2009F4C0C09C
:1028100020919101C816D90628F0F601E81BF90BA2
:10282000CF0104C0809590958C0D9D1DFF24F394DD
:10283000883C910578F0F12C207F09F0C6C07C2DF2
:10284000D98AC88A89890E9425138CE891E00E9460
:10285000B912B1C0822F807F09F046C0751314C031
:10286000341312C0611110C02F70206120939101A8
:102870000E9465138CE891E00E94B9128091910149
:10288000D80115968C932EC0CD2819F15F3F11F415
:102890004F3FF9F0F62E61111CC080915A01209132
:1028A0005B0136E0821709F45AC090E0389FF001CE
:1028B000399FF00D1124E45AFE4F7181571306C061
:1028C0007081471303C07281711103C00196877034
:1028D000E9CFF62E662309F427C18091910181602A
:1028E00080939101F12C20C1751308C0341306C0E8
:1028F000611104C080919101D801C3C04D875E87EA
:102900008D859E856A8B0E9420136A898823E1F158
:102910006623D1F120919101822F82958F7090E0F2
:10292000029774F080918C0190918D0198878F832C
:102930001986DB86CA862C87CE0107960E94B912BB
:1029400086E0F801ACE8B1E001900D928A95E1F7DC
:102950000E9473130E946513FF24F394E5C04D8712
:102960005E878D859E850E947018292F22952F7075
:1029700030E0223031050CF0CBC09F7009F0C5C0AB
:10298000805E883008F4D0C0C8010E94B912E4CF3C
:10299000C816D90608F453C0F601E81BF90BCF019D
:1029A000883C910508F450C0F12C7C2DD98AC88A46
:1029B00089890E942513ECE8F1E086E0DF011D9291
:1029C0008A95E9F70E946513AFC0751314C03413DC
:1029D00012C0611110C080919101F8018583C80176
:1029E0000E94B91286E0ECE8F1E0DF011D928A95C1
:1029F000E9F7FE2C99C04D875E878D859E856A8B91
:102A00000E9420136A89882309F4BECF662309F443
:102A1000BBCF20919101822F82958F7090E0029719
:102A20000CF48ECF80918C0190918D019A838983D3
:102A30001B82DD82CC822E83CE0101967FCF8095D2
:102A400090958C0D9D1DACCFF62E662309F49CCF7E
:102A500075132EC034132CC02091910120FD1FC08E
:102A6000822F82958F70D9F0D80115962C931597E7
:102A70008F3049F08F5F982F9295907F822F8F70C3
:102A8000892B15968C93C8010E94B91286E0F80133
:102A9000ACE8B1E001900D928A95E1F793CF86E022
:102AA000F801ACE8B1E001900D928A95E1F73CC0E5
:102AB0004D875E878D859E850E942013811140CFB2
:102AC00080919101816080939101C8010E94B912A7
:102AD0002BC0662309F458CF4D875E878D859E8570
:102AE0000E942013F82E882309F44ECF86E0F801C7
:102AF000ACE8B1E001900D928A95E1F78CE891E0A5
:102B00000E94060F0E9473135DCF811139CF0CC054
:102B1000243031050CF038CF9F7009F431CFF80123
:102B20009581907F09F02CCF8F2D62960FB6F89487
:102B3000DEBF0FBECDBFDF91CF911F910F91FF90F0
:102B4000EF90DF90CF9008951F93CF93DF93CDB791
:102B5000DEB72C970FB6F894DEBF0FBECDBF4F8304
:102B6000588769877A878B879C87CE0107960E9452
:102B7000CE13882369F08F8198852A853B85232B86
:102B8000F1F19F3F09F063C08F3F09F060C037C08B
:102B900086E0FE013796DE01119601900D928A952E
:102BA000E1F76F817885EA85FB85309741F17F3FBA
:102BB00011F46F3F21F120915B0130E0C9010196D2
:102BC0008770992740915A0150E08417950709F4BE
:102BD00047C069837A83FD83EC8396E0929FD0019E
:102BE000939FB00D1124A45ABE4FFE01319601905F
:102BF0000D929A95E1F780935B010E94441316E0D1
:102C000080915A0190915B018917C1F1189FC00111
:102C10001124845A9E4F0E94CE13882379F1E091AB
:102C20005A011E9FF0011124E45AFE4F4081518148
:102C300062817381848195810E94341380915A014D
:102C400090E001968770992780935A01D9CF4F81E0
:102C5000588569857A858B859C850E943413CFCFF2
:102C60000E94FA1210925B0110925A01ECE8F1E016
:102C700086E0DF011D928A95E9F7C1CF2C960FB649
:102C8000F894DEBF0FBECDBFDF91CF911F910895A5
:102C9000EF92FF920F931F93CF93DF938C01892BB9
:102CA00009F46CC0F12CEE24E394E8012196F801BC
:102CB0008491843740F4843008F051C0813081F031
:102CC000823019F15BC0853709F444C0A8F19CE754
:102CD000980F903708F052C08F770E94F10F41C0D3
:102CE0000E5F1F4FFE01C49180E28C0F883048F4C4
:102CF000C7708E2D01C0880FCA95EAF70E94D218BE
:102D000014C08C2F0E940C0F2DC00E5F1F4FFE01B0
:102D1000C49180E28C0F883058F4C7708E2D01C0AA
:102D2000880FCA95EAF70E94D8180E94FB181AC0AB
:102D30008C2F0E94F10F16C00E5F1F4FFE01C49131
:102D4000CC2381F08FE99FE00197F1F700C00000EC
:102D5000C150F6CF0E5F1F4FFE01F49003C00E94DA
:102D60000C0F8E018F2D882309F49FCFEFE9FFE030
:102D70003197F1F700C000008150F5CFDF91CF917E
:102D80001F910F91FF90EF90089508950C94C51630
:102D90000E94C6166093BE017093BF018093C0016C
:102DA0009093C1010C94E01208950C94C8160F93EF
:102DB0001F930091BE011091BF012091C00130917D
:102DC000C101602B712B822B932B1F910F910C94BF
:102DD000C8160F931F930091BE011091BF0120915F
:102DE000C0013091C10160237123822393231F917D
:102DF0000F910C94C8160F931F930091BE01109170
:102E0000BF012091C0013091C10160277127822745
:102E100093271F910F910C94C81608950C940D17C9
:102E20000E940E176093BA017093BB018093BC019E
:102E30009093BD010C94E01260E070E0CB010C9423
:102E400010170F931F9341E050E060E070E08A019B
:102E50009B0104C0000F111F221F331F8A95D2F758
:102E6000C901B8011F910F910C9410170F931F9374
:102E700041E050E060E070E004C0440F551F661F61
:102E8000771F8A95D2F78091BA019091BB01A091EA
:102E9000BC01B091BD018A019B01082B192B2A2B83
:102EA0003B2BC901B8011F910F910C9410170F9380
:102EB0001F9341E050E060E070E004C0440F551FF4
:102EC000661F771F8A95D2F740955095609570954B
:102ED0008091BA019091BB01A091BC01B091BD015C
:102EE0008A019B01082319232A233B23C901B80126
:102EF0001F910F910C9410170F931F9341E050E016
:102F000060E070E004C0440F551F661F771F8A956C
:102F1000D2F78091BA019091BB01A091BC01B09110
:102F2000BD018A019B01082719272A273B27C901D0
:102F3000B8011F910F910C9410170F931F930091DC
:102F4000BA011091BB012091BC013091BD01602BF1
:102F5000712B822B932B1F910F910C9410170F93B1
:102F60001F930091BA011091BB012091BC013091D7
:102F7000BD0160237123822393231F910F910C9431
:102F800010170F931F930091BA011091BB0120916C
:102F9000BC013091BD0160277127822793271F91C3
:102FA0000F910C941017089528E0929F800D112422
:102FB000A82FA695A695A695877051E001C0550F3C
:102FC0008A95EAF785E0A89FD001112420E030E03F
:102FD00070E0F901EA0FFB1FEE56FE4F4081CB0176
:102FE000022E02C0969587950A94E2F78170992780
:102FF000819584278523842780832F5F3F4F253049
:10300000310539F7089528E0929F800D1124682F2B
:10301000669566956695982F977085E0689FB001D4
:10302000112440E050E080E0FA01E60FF71FEE5671
:10303000FE4F208130E0092E02C0369527950A9474
:10304000E2F721703327042E01C0220F0A94EAF719
:10305000822B4F5F5F4F4530510531F70895BF9286
:10306000CF92DF92EF92FF920F931F93CF93DF9354
:103070008C01C090BE01D090BF01E090C001F090E3
:10308000C1018091BA019091BB01A091BC01B091A6
:10309000BD01C82AD92AEA2AFB2ACFE1D0E0D7010C
:1030A000C6010C2E04C0B695A795979587950A94EE
:1030B000D2F780FF07C0BC2EB8018C2F0E94510AA6
:1030C000019719F4219758F7B12C8B2DDF91CF91EF
:1030D0001F910F91FF90EF90DF90CF90BF900895D8
:1030E000CF93DF93EC010E942F18BE010E94510A7A
:1030F000DF91CF9108951F93CF93DF93EB019091D0
:103100005901992321F0CB010E94701813C0882324
:1031100049F0CB010E942F18182F682FCE010E9472
:10312000D41704C0CB010E940318182FBE01812FB1
:103130000E94510ADF91CF911F9108958091C201A1
:1031400085958595859508958091C201877008952C
:103150009091C201977081E009F480E00895809118
:10316000CE0108959091CE01892B8093CE010895D0
:1031700080959091CE0189238093CE01089510927D
:10318000CE0108959091CD01892B8093CD010895B2
:1031900080959091CD0189238093CD01089510925F
:1031A000CD0108959091CC01892B8093CC01089595
:1031B00080959091CC0189238093CC010895109241
:1031C000CC0108958091C301089508950C94E518E9
:1031D0009091C301981721F08093C3010C94E618D5
:1031E00008958091C301882329F01092C30180E0E3
:1031F0000C94E6180895E0910001F091010180918E
:10320000CE018083E0910001F091010190818091D5
:10321000CD01892B8083E0910001F0910101908123
:103220008091CC01892B80838091C301882381F018
:10323000E0910001F09101019081892B80838091C0
:103240000001909101010E940C1A81110E94F11855
:1032500080910001909101010C94670D08950C94E8
:103260002E1998E0899F90011124262B2093C201EA
:103270000E9436178091C2018595859585950C949D
:103280002F191092C20180E00C942F192091C201D5
:10329000809582238093C201982F977079F430E053
:1032A000482F082E000C550B2417350739F085954B
:1032B000859585950E9457170C9441190895909310
:1032C0002D0180932C0108958295982F9C7C392F95
:1032D00036953695282F237344E0249FC00111248E
:1032E000932F982B292F2A7A2695892F8575880F59
:1032F000822B089580E090E00E94CA2C21E08D3E50
:103300009E4F09F020E0822F089582E090E00C9417
:10331000C22C682F82E090E00C94D02C83E090E0E7
:103320000C94C22C682F83E090E00C94D02C84E0A5
:1033300090E00C94C22C682F84E090E00C94D02C88
:10334000AB01BC018FE090E00C94E22CAB01BC011E
:1033500083E190E00C94E22C60E070E0CB010C94EF
:10336000A61960E070E0CB010E94A0190C94AC1982
:103370006DEE7EEF80E090E00E94EE2C60E082E057
:1033800090E00E94D02C60E083E090E00E94D02C7E
:103390001092BE011092BF011092C0011092C101A3
:1033A00060E084E090E00E94D02C60E085E090E056
:1033B0000E94D02C60E086E090E00E94D02C6FEF5D
:1033C00087E090E00E94D02C40E050E0BA0188E015
:1033D00090E00E94E22C60E08DE090E00E94D02C12
:1033E00040E050E0BA0188E190E00E94E22C60E009
:1033F00087E190E00E94D02C40E050E0BA018CE1DF
:1034000090E00E94E22C60E080E290E00E94D02CEC
:103410000C94B1190C94B819FC01329697E080E035
:10342000915029F021912223D9F38F5FF9CF08958C
:103430009C01FC0132969FEF80E04191461789F094
:103440009F3F19F4411101C0982F8F5F8630A9F773
:103450009F3F39F0F901E90FF11D97FDFA9562835D
:1034600008950895FC01329608962081261301C024
:1034700010823196E817F907C1F708950C94181ACD
:103480000C94321A029626E0FC0111922A95E9F773
:10349000089508950C94491A0E944A1A8091F701E0
:1034A000843049F11092D00120E488E190E00FB619
:1034B000F894A895809360000FBE2093600080E090
:1034C0000E9428090E944A1A83B7817F846083BFC3
:1034D00083B7816083BF7894889583B78E7F83BFDD
:1034E0000FB6F894A8958091600088618093600081
:1034F000109260000FBE0895CF930E94E3080E94CF
:10350000E2070E94E408C0E08C2F0E94AE088111FF
:1035100004C0CF5FC830C1F701C081E0CF910895EA
:1035200008950C94901A0E94FA120E945B0D0E945A
:1035300028090C94911A1F920F920FB60F92112422
:103540008F939F93AF93BF938091D001811113C04C
:103550008091ED019091EE01A091EF01B091F00109
:103560004196A11DB11D8093ED019093EE01A093B2
:10357000EF01B093F001BF91AF919F918F910F90A8
:103580000FBE0F901F90189582E084BD93E095BD0B
:103590009AEF97BD80936E0008952FB7F8948091AD
:1035A000ED019091EE01A091EF01B091F0012FBFDC
:1035B00008952FB7F8946091ED017091EE0180911C
:1035C000EF019091F0012FBF0895CF92DF92EF921B
:1035D000FF920F931F932FB7F8944091ED015091F4
:1035E000EE016091EF017091F0012FBF6A017B0144
:1035F000EE24FF248C0120E030E0C016D106E20664
:10360000F30610F4415051099A01281B390BC901E6
:103610001F910F91FF90EF90DF90CF900895CF9280
:10362000DF92EF92FF920F931F932FB7F894C09001
:10363000ED01D090EE01E090EF01F090F0012FBF8E
:1036400097018601061B170B280B390BC616D706E8
:10365000E806F90618F0C901B80106C0C901B801A9
:1036600061507109810991091F910F91FF90EF90AD
:10367000DF90CF90089578941F920F920FB60F921B
:1036800011248F939F93AF93BF938091ED019091FD
:10369000EE01A091EF01B091F0010196A11DB11DC5
:1036A0008093ED019093EE01A093EF01B093F001B0
:1036B000BF91AF919F918F910F900FBE0F901F9070
:1036C000189581E08093E00080E28093D80010920A
:1036D000C9008FE19EE40197F1F700C0000087E088
:1036E00090EBDC018093000290930102A093020210
:1036F000B09303029CE088E10FB6F894A8958093FC
:1037000060000FBE90936000FFCFCF92DF92EF92E8
:10371000FF920F931F93CF93C0E0E82EF12C8C2FD4
:103720000E94AE0800E010E0C82ED12CC601002E89
:1037300002C0959587950A94E2F780FD06C00F5F59
:103740001F4F0830110591F70AC0602F7C2F80E0D1
:103750000E94340AE816F90691F781E004C0CF5FB1
:10376000C830E9F680E0CF911F910F91FF90EF9064
:10377000DF90CF900895CF93C82F8CE20E94851BD5
:10378000882321F08C2FCF910C94851B80E0CF9162
:103790000895CF930E947A19811102C00E940A1ADB
:1037A00083E493E00E941A07C5E6C15049F00E94E5
:1037B000E2078FE39CE90197F1F700C00000F5CF25
:1037C0008CE393E00E941A0789E20E94BB1B8111DF
:1037D0000FC18AE20E94BB1B81110E940A1A85E078
:1037E0000E94BB1B81110E94611B0E94851980935E
:1037F000CF0187E00E94BB1B8823A9F18BE10E94C7
:10380000BB1B882351F08091CF0181FB222720F937
:1038100091E0922790FB81F90EC08EE00E94BB1BC5
:10382000882361F08091CF0182FB222720F991E06B
:10383000922790FB82F98093CF0115C080E10E940E
:10384000BB1B9091CF01882341F093FB222720F9E5
:1038500081E0822780FB93F904C0892F809580FB4B
:1038600090F99093CF018091CF010E9489190E9415
:10387000971990E09093F2018093F10180EE0E94FD
:10388000BB1B882341F08091F101982F909590FB0C
:1038900080F98093F10189E30E94BB1B882359F0D2
:1038A0008091F10181FB222720F991E0922790FB82
:1038B00081F98093F10182EE0E94BB1B882359F0AD
:1038C0008091F10182FB222720F991E0922790FB61
:1038D00082F98093F10186EE0E94BB1B882359F088
:1038E0008091F10183FB222720F991E0922790FB40
:1038F00083F98093F10183EE0E94BB1B882359F06A
:103900008091F10184FB222720F991E0922790FB1E
:1039100084F98093F10185E30E94BB1B882359F051
:103920008091F10185FB222720F991E0922790FBFD
:1039300085F98093F10181E30E94BB1B882359F034
:103940008091F10186FB222720F991E0922790FBDC
:1039500086F98093F10181E10E94BB1B882359F015
:103960008091F10187FB222720F991E0922790FBBB
:1039700087F98093F1018091F1010E949B1987E200
:103980000E94BB1BC82F8EE10E94BB1B8111C2602D
:103990008FE10E94BB1B8111C46080E20E94BB1BAF
:1039A0008111C86081E20E94BB1B8111C06182E26B
:1039B0000E94BB1B8111C06283E20E94BB1B81116C
:1039C000C06484E20E94BB1B882311F0C06802C05F
:1039D000CC2329F08C2F0E9492196C2F03C00E94D7
:1039E0008E19682F70E080E090E0CF910C94D5168E
:1039F000CF9108958091D40180FF0BC060910501A3
:103A000085E0689FB0011124759567957595679558
:103A10002BC081FF09C06091050185E0689FB0015E
:103A200011247595679520C082FF07C0609105013C
:103A300085E0689FB001112417C09091D3019923AC
:103A4000D1F060910401961788F72091050185E077
:103A5000289F90011124929FA001939F500D112443
:103A600070E0CA010E94942C6038710540F4611521
:103A7000710539F002C065E070E0862F08958FE788
:103A8000089581E008958091D40180FF08C060917D
:103A9000030170E0759567957595679521C081FF65
:103AA00006C06091030170E07595679519C082FFAB
:103AB00004C06091030170E010C09091D30199237C
:103AC000C1F0609102019617A0F780910301899FD0
:103AD000C001112470E00E94942C6038710528F414
:103AE0006115710521F0862F08958FE7089581E013
:103AF000089561E070E0F4CF803F21F40E94FA1C49
:103B0000819504C0813F29F40E94FA1C8093D8015A
:103B10000895823F21F40E94FA1C819504C0833FDE
:103B200029F40E94FA1C8093D7010895893F19F463
:103B30000E94431D05C08A3F31F40E94431D8195B8
:103B40008093D90108958B3F21F40E94431D8195F4
:103B500004C08C3F29F40E94431D8093DA0108952C
:103B6000843F21F48091D601816017C0853F21F404
:103B70008091D601826011C0863F21F48091D601E8
:103B800084600BC0873F21F48091D601886005C016
:103B9000883F31F48091D60180618093D6010895E9
:103BA0008D3F21F48091D40181600BC08E3F21F4C0
:103BB0008091D401826005C08F3F29F48091D401A7
:103BC00084608093D4010895803F39F48091D801B6
:103BD00087FF6CC01092D80169C0813F29F48091A1
:103BE000D8011816BCF362C09091D701823F29F426
:103BF00097FF5CC01092D70159C0833F19F4191682
:103C0000CCF354C0893F41F48091D90118160CF0CF
:103C10004DC01092D9014AC08A3F29F48091D90140
:103C200087FF44C0F6CF8B3F39F48091DA0187FFDC
:103C30003DC01092DA013AC08C3F29F48091DA013C
:103C40001816BCF333C0843F21F48091D6018E7FD7
:103C500017C0853F21F48091D6018D7F11C0863F2A
:103C600021F48091D6018B7F0BC0873F21F4809196
:103C7000D601877F05C0883F31F48091D6018F7EC1
:103C80008093D60113C08D3F21F48091D4018E7FA3
:103C90000BC08E3F21F48091D4018D7F05C08F3FF2
:103CA00029F48091D4018B7F8093D4018091D70136
:103CB00081110EC08091D80181110AC08091D90173
:103CC000811106C08091DA01811102C01092D301E6
:103CD00008958091CF0183FF7EC08FE793E00E941B
:103CE0001A078091D6011F928F938AE793E09F93E2
:103CF0008F930E94B30788E793E00E941A07809190
:103D0000D701282F082E000C330B3F938F9385E7A4
:103D100093E09F938F930E94B30783E793E00E9401
:103D20001A078091D801282F082E000C330B3F93DF
:103D30008F9380E793E09F938F930E94B3078EE663
:103D400093E00E941A078091D901282F082E000CB9
:103D5000330B3F938F938BE693E09F938F930E9457
:103D6000B30789E693E00E941A078091DA01282FB1
:103D7000082E000C330B3F938F9386E693E09F93BE
:103D80008F930E94B30783E693E00E941A07809105
:103D9000D3011F928F9380E693E09F938F930E94AD
:103DA000B3078EE593E00E941A078091D4011F9219
:103DB0008F938BE593E09F938F930E94B30788E5E1
:103DC00093E00E941A078DB79EB74C960FB6F894F1
:103DD0009EBF0FBE8DBF85ED91E00E94B00D0E9489
:103DE000CD1A9093D2018093D10108951F93CF9360
:103DF000DF938091D1019091D2010E94E51AAC012C
:103E00009091D301992321F02091060130E006C062
:103E1000209107018AE0289F90011124421753073F
:103E200008F47BC08091D701C091D801D091D9010D
:103E30001091DA01811107C0C1116BC0D11169C0A5
:103E4000111167C06AC09F3F19F09F5F9093D30123
:103E5000181624F40E94FA1C8093D7018091D70190
:103E600087FF05C00E94FA1C81958093D7011C161C
:103E700024F40E94FA1C8093D8018091D80187FF16
:103E800005C00E94FA1C81958093D8013091D7011A
:103E90003323E1F02091D8012223C1F045EB340314
:103EA000C0011124892F990F990B009709F481E023
:103EB0008093D70135EB2303C0011124892F990F7B
:103EC000990B009709F481E08093D8011D1624F422
:103ED0000E94431D8093D9018091D90187FF05C0BD
:103EE0000E94431D81958093D901111624F40E94EC
:103EF000431D8093DA018091DA0187FF05C00E949B
:103F0000431D81958093DA01DF91CF911F910C942D
:103F1000691E9F3F09F099CFA1CFDF91CF911F91EB
:103F20000895E5EDF1E086E0DF011D928A95E9F75D
:103F30001092D3011092D401089582EA95E00E9474
:103F40001A071F9281E08F931F9285E08F9384E57B
:103F500095E09F938F930E94B3070F900F900F905F
:103F60000F900F900F9008958330E9F128F481307D
:103F700061F0823009F10895853009F462C008F4D7
:103F800049C0863009F474C0089580910701262F36
:103F900030E0280F311D2F3F310524F4680F609366
:103FA000070103C08FEF80930701809107011F92E3
:103FB0008F938DE894E072C080910601262F30E047
:103FC000280F311D2F3F310524F4680F609306013F
:103FD00003C08FEF80930601809106011F928F939B
:103FE0008BE794E05BC080910501262F30E0280F1D
:103FF000311D2F3F310524F4680F6093050103C084
:104000008FEF80930501809105011F928F9388E6C1
:1040100094E044C080910401262F30E0280F311D28
:104020002F3F310524F4680F6093040103C08FEF24
:1040300080930401809104011F928F9383E594E0A3
:104040002DC080910301262F30E0280F311D2F3F16
:10405000310524F4680F6093030103C08FEF809350
:104060000301809103011F928F938AE394E016C0AD
:1040700080910201262F30E0280F311D2F3F31059E
:1040800024F4680F6093020103C08FEF8093020154
:10409000809102011F928F938FE194E09F938F9301
:1040A0000E94B3070F900F900F900F9008958330E8
:1040B00081F128F4813059F08230D1F008958530B3
:1040C00009F449C0B8F1863009F456C008958091CA
:1040D0000701681720F4861B8093070102C0109225
:1040E0000701809107011F928F9380E194E054C0F3
:1040F00080910601681720F4861B8093060102C098
:1041000010920601809106011F928F938EEF93E02B
:1041100043C080910501681720F4861B8093050138
:1041200002C010920501809105011F928F938BEEC2
:1041300093E032C080910401681720F4861B8093BD
:10414000040102C010920401809104011F928F9318
:1041500086ED93E021C080910301681720F4861B4F
:104160008093030102C010920301809103011F920A
:104170008F938DEB93E010C080910201681720F4BB
:10418000861B8093020102C01092020180910201FD
:104190001F928F9382EA93E09F938F930E94B307BD
:1041A0000F900F900F900F900895CF93C82F1F92EC
:1041B0008F9387EA96E09F938F930E94B30781E0E5
:1041C00090E0A0E0B0E0BC01CD0104C0660F771F15
:1041D000881F991FCA95D2F70E94D5160F900F908D
:1041E0000F900F90CF910C94FA12CF938B3109F46A
:1041F000D1C108F067C18B3009F48AC108F03DC114
:10420000863009F488C120F4853009F496C144C28F
:10421000873009F4A4C1883009F03EC285ED9BE0E7
:104220000E941A0786E29BE00E941A070E948E19DC
:104230001F928F9383E29BE09F938F930E94B3071B
:1042400081E29BE00E941A070E948519C82F8EE028
:104250009BE00E941A071F92CF9389E09BE09F93F7
:104260008F930E94B30787E09BE00E941A078DEFAF
:104270009AE00E941A078C2F81701F928F938AEF09
:104280009AE09F938F930E94B30788EF9AE00E9471
:104290001A078EEE9AE00E941A07C1FB882780F960
:1042A0001F928F938BEE9AE09F938F930E94B30798
:1042B00089EE9AE00E941A078DED9AE00E941A0793
:1042C000C2FB882780F91F928F938AED9AE09F9313
:1042D0008F930E94B30788ED9AE00E941A078FEC33
:1042E0009AE00E941A07C3FBCC27C0F91F92CF9314
:1042F0008CEC9AE09F938F930E94B3078AEC9AE02C
:104300000E941A070E949719C82F86EB9AE00E9414
:104310001A071F92CF9381EB9AE09F938F930E948D
:10432000B3078FEA9AE00E941A0786E99AE00E9492
:104330001A078C2F81701F928F9383E99AE09F93C5
:104340008F930E94B3078DB79EB780960FB6F894EF
:104350009EBF0FBE8DBF81E99AE00E941A078AE7CF
:104360009AE00E941A07C1FB882780F91F928F9359
:1043700087E79AE09F938F930E94B30785E79AE0BF
:104380000E941A0783E69AE00E941A07C2FB882758
:1043900080F91F928F9380E69AE09F938F930E94FB
:1043A000B3078EE59AE00E941A078CE49AE00E9417
:1043B0001A07C3FB882780F91F928F9389E49AE03C
:1043C0009F938F930E94B30787E49AE00E941A0795
:1043D0008DE39AE00E941A07C4FB882780F91F9298
:1043E0008F938AE39AE09F938F930E94B30788E3A9
:1043F0009AE00E941A0786E29AE00E941A07C5FB1B
:10440000882780F91F928F9383E29AE09F938F937E
:104410000E94B30781E29AE00E941A0785E09AE0C1
:104420000E941A07C6FB882780F91F928F9382E0AB
:104430009AE09F938F930E94B30780E09AE00E94D6
:104440001A0788EF99E00E941A07C7FBCC27C0F92A
:104450001F92CF9385EF99E09F938F930E94B307AC
:1044600083EF99E00E941A078DB79EB74C960FB65E
:10447000F8949EBF0FBE8DBF49C0803109F4B4C00F
:1044800020F48E3009F49AC007C1863109F4C7C000
:10449000893109F001C18AE198E00E941A0782EF90
:1044A00097E00E941A078CEB97E00E941A0783E8B6
:1044B00097E00E941A0783E497E00E941A0785E1BB
:1044C00097E08FC08A32E1F060F4873209F4E0C0EF
:1044D00028F48E3108F4E0C08D51DBC0893269F1D7
:1044E000DBC0833448F48A3308F0D0C0853309F444
:1044F000CFC0883369F0D0C0833409F4C9C0CCC0C0
:1045000084EC9BE00E941A070E940A1AC1E0C9C00D
:1045100080E598E066C08091CF01817F8E7F809397
:10452000CF0189E298E00E941A0780EC9BE00E948C
:104530001A0781E08093DC01E9CF0E94FA1284EA35
:104540009BE00E941A079FEF23ED80E391502040EB
:104550008040E1F700C000000E94611BD7CF80912E
:10456000CF01C82FC095C170C0FB80F98093CF01E7
:10457000CC2329F088E99BE00E941A0792C08BE8BF
:104580009BE00E941A078091CF01897F877F8093EB
:10459000CF01BCCF9091CF0191FBCC27C0F981E036
:1045A000C827892FC0FB81F98093CF01CC2319F054
:1045B0008EE79BE029C080E79BE013C09091CF017C
:1045C00092FBCC27C0F981E0C827892FC0FB82F974
:1045D0008093CF01CC2319F081E69BE015C081E5E3
:1045E0009BE00E941A0792CF9091CF0193FBCC27BA
:1045F000C0F981E0C827892FC0FB83F98093CF01E0
:10460000CC2351F085E49BE00E941A078091CF01F2
:1046100081608093CF0145C088E39BE0E2CF87E0D3
:1046200097E00E941A070E945B0D1F928F938DEEF8
:1046300096E09F938F930E94B307809112011F927F
:104640008F9386ED96E09F938F930E94B30780919E
:10465000E9011F928F9383EC96E09F938F930E94C2
:10466000B3070E94D91A9F938F937F936F938CEA1D
:1046700096E09F938F930E94B3078DB79EB74296A3
:104680000FB6F8949EBF0FBE8DBF40CF895301C0B7
:1046900080E00E94D5203ACF86E39BE00E941A0773
:1046A000C0E08C2FCF91089580E0089580E00895B8
:1046B0008E518A3030F4E82FF0E0ED5EFE4F8081BD
:1046C000089580E00895CF93C82F8091DC01813058
:1046D00059F020F0823009F445C039C10E94AF186A
:1046E000823209F036C104C00E94AF18823261F4F0
:1046F0008C2F0E945423811104C08C2F0E94F5201E
:104700002FC081E090E02CC08C2F0E945623811195
:1047100026C0C431E1F070F4CB3081F0C031D1F467
:104720000E949D1F8FE996E00E941A0782E0809305
:10473000DC0115C0C93259F0C83361F489E298E050
:104740000E941A0783EA96E00E941A0708C0109296
:10475000DC0101C18DE996E00E941A07FCC081E0EE
:104760008170FBC0C43228F5CE3108F0C1C0CB3017
:10477000A1F1D0F4C73009F0D0C08EE180930701D9
:1047800082E3809306018AE08093050184E18093AF
:10479000040188E08093030188E28093020183E4AE
:1047A00095E00E941A07BCC0C33149F1C431C1F081
:1047B000B4C0CB3409F4A6C028F4C93289F0C83398
:1047C00061F0ABC0C13509F49BC0C23509F496C095
:1047D000CE3409F0A2C06AE09BC00E949D1FA0C019
:1047E0008091DB01882319F01092DB0199C080E5EC
:1047F00095E00E941A0781E08093DC01AEC08AE256
:1048000095E00E941A0788E195E00E941A078091BE
:1048100007011F928F9385E195E09F938F930E94EC
:10482000B30783E195E00E941A0781E095E00E94BA
:104830001A07809106011F928F938EEF94E09F9349
:104840008F930E94B3078CEF94E00E941A078DEEBD
:1048500094E00E941A07809105011F928F938AEEBF
:1048600094E09F938F930E94B30788EE94E00E9498
:104870001A0787ED94E00E941A07809104011F92A5
:104880008F9384ED94E09F938F930E94B30782ED02
:1048900094E00E941A078DEB94E00E941A07809121
:1048A00003011F928F938AEB94E09F938F930E9452
:1048B000B30788EB94E00E941A0781EA94E00E9413
:1048C0001A07809102011F928F938EE994E09F93C3
:1048D0008F930E94B3078CE994E00E941A078DB76A
:1048E0009EB748960FB6F8949EBF0FBE8DBF18C0F6
:1048F0008C2F0E9458238093DB0112C061E003C01B
:1049000061E006C06AE08091DB010E94B41F08C02C
:104910008091DB010E94572003C081E495E013C021
:104920008091DB01882369F01F928F938BE395E0E0
:104930009F938F930E94B3070F900F900F900F904B
:1049400004C088E395E00E941A0781E006C0109237
:10495000DC0180E002C080E003CFCF910895809118
:10496000E80108959FB7F8941092DF019FBF9091DE
:10497000F701943009F057C09091E9009F70309191
:10498000EC00232F217030FD20E8922B23E02093B0
:10499000E9002091EB0020FF43C02091EE0027FFAB
:1049A0003FC02091DD01222321F02091E80025FF66
:1049B00037C01092DD0126E03091E80035FD15C0CA
:1049C0003091F701343061F53091EB0035FD28C0AE
:1049D000215021F481E08093DD0122C0EFE9FFE066
:1049E0003197F1F700C00000E7CF8093F10080918C
:1049F000E80085FD0AC08091E80080FFFCCF80912F
:104A0000E8008E778093E80006C08FB7F89421E025
:104A10002093DF018FBF9F709093E90080E008959D
:104A20009F709093E9008FEF08950F931F93CF939A
:104A3000DF9300D01F92CDB7DEB78C010E94D02744
:104A4000823011F0843021F584E089831B830A834E
:104A500082E08093E9008FEF9091E800815095FD0E
:104A600006C095ED9A95F1F700008111F5CF809180
:104A7000E80085FF0DC040E050E063E070E0CE014B
:104A800001960E94ED278091E8008E778093E800E0
:104A90000F900F900F90DF91CF911F910F9108957C
:104AA000CF93DF9300D01F92CDB7DEB72091F701EF
:104AB000243031F523E02983805891099B838A8330
:104AC00082E08093E9008FEF9091E800815095FD9E
:104AD00006C095ED9A95F1F700008111F5CF809110
:104AE000E80085FF0DC040E050E063E070E0CE01DB
:104AF00001960E94ED278091E8008E778093E80070
:104B00000F900F900F90DF91CF910895CF93DF9387
:104B1000EC010E94D027823011F08430F9F482E059
:104B20008093E9009FEF8091E800915085FD06C0D9
:104B300085ED8A95F1F700009111F5CF8091E8009D
:104B400085FF0CC040E050E066E070E0CE010E94BE
:104B5000ED278091E8008E778093E800DF91CF9178
:104B60000895CF93DF93EC010E94D027823011F09B
:104B7000843039F581E08093E9008FEF9091E8006F
:104B8000815095FD06C095ED9A95F1F700008111D1
:104B9000F5CF8091E80085FF14C040E050E068E068
:104BA00070E0CE010E94ED278091E8008E7780931F
:104BB000E80088E0FE01A0EEB1E001900D928A9538
:104BC000E1F7DF91CF91089585E09CE00E941A07FC
:104BD0008091F601811109C00E9482290E94DF297B
:104BE0008091E20084608093E200089581E09CE07F
:104BF0000E941A071092F60108958DEF9BE00C9425
:104C00001A0789EF9BE00C941A0785EF9BE00E943E
:104C10001A070C94931A2091DE012F5F822F62E312
:104C20000E94882C992319F02093DE010895109298
:104C3000DE018091DF01882371F18091F7018430DA
:104C400041F58091E9008F702091EC00922F9170D6
:104C500020FD90E8892B93E09093E9009091EB0080
:104C600090FF14C09091EE0097FF10C09091E80063
:104C700095FF03C01092F100F9CF9091E80090FFEA
:104C800005C09091E8009E779093E8008F70809324
:104C9000E9001092DF01089542E061EC81E00E949A
:104CA000FC2842E261EC82E00E94FC2842E261ECD6
:104CB00083E00C94FC288091F901833009F460C0F2
:104CC00030F4813071F0823009F499C008958A304F
:104CD00009F485C08B3009F46BC0893009F0A7C096
:104CE00020C08091F801813A09F0A1C08091E800CC
:104CF000877F8093E8008091FC019091FD01892BD2
:104D000021F468E080EE91E003C060E080E090E094
:104D100070E00E9438288091E8008B778093E8004B
:104D200008958091F801813209F081C08091FC01E1
:104D30009091FD01029708F07AC08091E800877F8A
:104D40008093E8008091E80082FD05C08091F70122
:104D50008111F8CF6CC02091F3008091F20090E0B7
:104D6000922B029729F48091F1008B7F813021F4FE
:104D70008091F1008093E8018091E8008B7753C027
:104D80008091F801813A09F052C08091FC01909124
:104D9000FD01892B09F04BC08091E800877F80934B
:104DA000E8008091E80080FFFCCF8091120136C0BE
:104DB0008091F8018132D9F58091FC019091FD013B
:104DC000892BA9F58091E800877F8093E8000E94F5
:104DD00031298091FA01809312010C94FA1280918A
:104DE000F801813221F58091E800877F8093E80007
:104DF0000E9431298091FB018093E90108958091FF
:104E0000F801813AA1F48091E800877F8093E8005F
:104E10008091E80080FFFCCF8091E9018093F10050
:104E20008091E8008E778093E8000C9431290895F2
:104E300084B7877F84BF0FB6F894A89580916000EF
:104E4000886180936000109260000FBE80E88093BC
:104E50006100109261000E94F80D0E9482290E9458
:104E6000DF298091E20084608093E20082EB94E28B
:104E70000E945F1978940E946D2C0E94000E88E0B9
:104E800091E00E94560D84EE9BE00E941A078091EB
:104E9000F701853089F480EE9BE00E941A070E949A
:104EA0004C1A8091F501882391F30E947C1A882383
:104EB00071F30E94D727EBCF0E94300EE8CF0C94FD
:104EC0006127292F332723303105C9F064F42130BD
:104ED000310581F02230310509F049C08BE590E0C1
:104EE00025E33CE048C02132310521F12232310571
:104EF00071F13DC082E190E020E93CE03CC099279F
:104F00008130910571F02CF4892B89F5E1E3FCE007
:104F10000DC08230910541F0039749F5E9E0FCE0CE
:104F200005C0E3E2FCE002C0EFE0FCE0849190E029
:104F30009F0121C063307105D0F4660F771FFB011C
:104F4000EA5DFE4F2081318189E090E014C063303A
:104F5000710568F4FB01EE0FFF1FE05EFE4F20813C
:104F60003181FB01E35EFE4F808190E004C080E070
:104F700090E020E030E0FA01318320830895089525
:104F8000CF93C82F0E94BF27C093EA01CF91089505
:104F90008091F701843011F081E0089582E0089556
:104FA0008091EA01811102C00C94C827089580E124
:104FB00089BD82E189BD09B400FEFDCF8091D80092
:104FC0008F7D8093D8008091E00082608093E00024
:104FD0008091E00081FDFCCF0895CF92DF92EF92A7
:104FE000FF920F931F93CF93DF93EC018B016A0124
:104FF0000E945029811133C0C114D10439F0F60147
:1050000080819181081B190BC80FD91FE12CF12C4D
:105010000115110519F18091E80085FD16C08091F8
:10502000E8008E778093E800C114D10449F0F601BE
:1050300080819181E80EF91EF182E08285E00FC047
:105040000E945029882321F30AC089918093F1009E
:1050500001501109FFEFEF1AFF0ADACF80E0DF916C
:10506000CF911F910F91FF90EF90DF90CF90089517
:105070002091FE013091FF012617370748F0611596
:10508000710539F42091E8002E772093E80001C0E3
:10509000B90140E061157105A9F12091F7012223C2
:1050A00009F443C0253009F442C02091E80023FDF3
:1050B00040C02091E80022FD32C02091E80020FF8E
:1050C000E9CF4091F3002091F20030E0342BFC0155
:1050D000CF016115710559F02830310540F48191F7
:1050E0008093F100615071092F5F3F4FF1CF41E094
:1050F0002830310509F040E02091E8002E77209318
:10510000E800C8CF4111C9CF0AC08091F7018823B8
:1051100061F0853061F08091E80083FD0AC08091E4
:10512000E80082FFF2CF80E0089582E0089583E0F6
:10513000089581E008952091FE013091FF01261726
:10514000370748F06115710539F42091E8002E7792
:105150002093E80001C0B901FC0120E06115710550
:1051600091F18091F701882309F440C0853009F45A
:105170003FC08091E80083FD3DC08091E80082FD42
:105180002FC08091E80080FFE9CF2091F30080914B
:10519000F20090E0922B6115710559F0883091056D
:1051A00040F424912093F1003196615071090196E9
:1051B000F2CF21E0089709F020E08091E8008E7797
:1051C0008093E800CBCF2111CCCF0AC08091F701AA
:1051D000882361F0853061F08091E80083FD0AC08A
:1051E0008091E80082FFF2CF80E0089582E0089588
:1051F00083E0089581E00895982F973058F59093B3
:10520000E900981739F07091EC002091ED00509171
:10521000F00003C0242F762F50E021FF19C03091F9
:10522000EB003E7F3093EB003091ED003D7F3093FB
:10523000ED003091EB0031603093EB007093EC00A7
:105240002093ED005093F0002091EE0027FF07C05F
:105250009F5FD3CF8F708093E90081E0089580E055
:1052600008958091F80187FF11C08091E80082FDC8
:1052700005C08091F7018111F8CF11C08091E8003D
:105280008B770BC08091F701882349F08091E8006B
:1052900080FFF8CF8091E8008E778093E800089532
:1052A0002091E4003091E50095E64091EC00842FD8
:1052B000817040FF22C08091E80080FD1CC0809179
:1052C000F701882391F0853091F08091EB0085FD06
:1052D00010C04091E4005091E5004217530729F3B4
:1052E0009A01915011F784E0089582E0089583E0D7
:1052F000089581E0089580E008954091E80042FF1C
:10530000DECF08950E94F0290E94F829E0EEF0E037
:10531000808181608083E8EDF0E080818F778083F9
:1053200019BCA7EDB0E08C918E7F8C9380818F7E2D
:1053300080831092F60108950F931F93CF93DF930C
:105340000E94F0290E94F829C8EDD0E088818F776B
:10535000888388818068888388818F7D888319BC51
:105360001092F7011092F3011092F5011092F401DE
:1053700000EE10E0F80180818B7F8083888181605E
:10538000888342E060E080E00E94FC28E1EEF0E0EB
:1053900080818E7F8083E2EEF0E080818160808377
:1053A000808188608083F80180818E7F80838881FE
:1053B00080618883DF91CF911F910F910895E8ED6F
:1053C000F0E080818F7E8083E7EDF0E08081816076
:1053D000808384E082BF81E08093F6010C949C2955
:1053E000E8EDF0E080818E7F80831092E2000895E6
:1053F0001092DA001092E10008951F920F920FB6FA
:105400000F9211242F933F934F935F936F937F934A
:105410008F939F93AF93BF93EF93FF938091E1009E
:1054200082FF0BC08091E20082FF07C08091E10003
:105430008B7F8093E1000E940B268091DA0080FF31
:105440001FC08091D80080FF1BC08091DA008E7F42
:105450008093DA008091D90080FF0DC080E189BD82
:1054600082E189BD09B400FEFDCF81E08093F701A0
:105470000E94E42505C019BC1092F7010E94F62590
:105480008091E10080FF19C08091E20080FF15C08B
:105490008091E2008E7F8093E2008091E200806143
:1054A0008093E2008091D80080628093D80019BC7C
:1054B00085E08093F7010E9401268091E10084FF3E
:1054C00030C08091E20084FF2CC080E189BD82E180
:1054D00089BD09B400FEFDCF8091D8008F7D8093F7
:1054E000D8008091E1008F7E8093E1008091E200FE
:1054F0008F7E8093E2008091E20081608093E200E1
:105500008091F301882311F084E007C08091E300CB
:1055100087FD02C081E001C083E08093F7010E9413
:1055200005268091E10083FF29C08091E20083FF7E
:1055300025C08091E100877F8093E10082E0809325
:10554000F7011092F3018091E1008E7F8093E100DA
:105550008091E2008E7F8093E2008091E200806182
:105560008093E20042E060E080E00E94FC288091AD
:10557000F00088608093F0000E94FD25FF91EF917C
:10558000BF91AF919F918F917F916F915F914F915B
:105590003F912F910F900FBE0F901F9018951F9263
:1055A0000F920FB60F9211242F933F934F935F9357
:1055B0006F937F938F939F93AF93BF93CF93DF931B
:1055C000EF93FF93C091E900CF708091EC00D82F4A
:1055D000D17080FDD0E81092E9008091F000877FC3
:1055E0008093F00078940E94132B1092E900809130
:1055F000F00088608093F000CD2BCF70C093E9005D
:10560000FF91EF91DF91CF91BF91AF919F918F91DA
:105610007F916F915F914F913F912F910F900FBEAE
:105620000F901F9018951F93CF93DF93CDB7DEB7E0
:10563000AA970FB6F894DEBF0FBECDBFE8EFF1E03A
:1056400088E08E0F9091F10091938E13FBCF0E9412
:105650005B268091E80083FF28C18091F80190913A
:10566000F901492F50E04A30510508F01EC1FA01F6
:10567000E556FF4F0C94A82C803821F0823809F0B1
:1056800014C108C08091F4019091F501992389F02B
:1056900082600FC08091FC018F70873008F005C1D7
:1056A0008093E9008091EB0085FB882780F91092B8
:1056B000E9009091E800977F9093E8008093F100D3
:1056C0001092F100D0C0282F2D7F09F0EEC0882362
:1056D00019F0823061F0E9C08091FA01813009F05F
:1056E000E4C0933009F080E08093F5012EC08091F2
:1056F000FA0181112AC08091FC018F702FEF280FD1
:10570000263008F0D2C08093E9002091EB0020FF02
:105710001CC0933021F48091EB00806214C0909102
:10572000EB0090619093EB0021E030E0A90102C012
:10573000440F551F8A95E2F74093EA001092EA0061
:105740008091EB0088608093EB001092E9008091DB
:10575000E800877F8093E8000E943129A6C081116C
:10576000A4C01091FA011F778091E3008078812B0B
:105770008093E3008091E800877F8093E8000E9497
:1057800031298091E80080FFFCCF8091E3008068A0
:105790008093E300111102C082E001C083E0809396
:1057A000F70183C08058823008F07FC08091FA01F1
:1057B0009091FB018C3D53E0950779F583E08A8356
:1057C0008AE289834FB7F894DE01139620E03EE029
:1057D00051E2E32FF0E050935700E49120FF03C023
:1057E000E295EF703F5FEF708E2F90E0EA3010F09F
:1057F000C79601C0C0968D939D932F5F243149F7C2
:105800004FBF8091E800877F8093E8006AE270E0F4
:10581000CE0101960E94382815C06091FC0170915C
:10582000FD01AE014F5F5F4F0E945F27BC01892BD6
:10583000E1F19091E800977F9093E80089819A8147
:105840000E949B288091E8008B778093E8002DC010
:10585000803859F58091E800877F8093E800809137
:10586000F3018093F1008091E8008E7773CF81116E
:105870001CC09091FA019230C0F48091E800877FBB
:105880008093E8009093F3010E9431298091F30105
:10589000811106C08091E30087FD02C081E001C054
:1058A00084E08093F7010E944C268091E80083FFFA
:1058B0000AC08091E800877F8093E8008091EB0028
:1058C00080628093EB00AA960FB6F894DEBF0FBEFD
:1058D000CDBFDF91CF911F910895CF938091F701B4
:1058E0008823A1F0C091E900CF709091EC00892F3E
:1058F000817090FD80E8C82B1092E9008091E8004B
:1059000083FD0E94132BCF70C093E900CF910895BF
:10591000991B79E004C0991F961708F0961B881F01
:105920007A95C9F78095089597FB072E16F4009491
:1059300007D077FD09D00E94AE2C07FC05D03EF4BD
:10594000909581959F4F0895709561957F4F08952B
:10595000EE0FFF1F0590F491E02D0994AA1BBB1BCD
:1059600051E107C0AA1FBB1FA617B70710F0A61B5F
:10597000B70B881F991F5A95A9F780959095BC0180
:10598000CD010895F999FECF92BD81BDF89A99276E
:1059900080B50895A8E1B0E042E050E00C94F62C08
:1059A000262FF999FECF92BD81BDF89A019700B4D8
:1059B000021639F01FBA20BD0FB6F894FA9AF99A78
:1059C0000FBE08950396272F0E94D12C0E94D02C41
:1059D000252F0E94D12C242F0C94D12C0196272FF7
:1059E0000E94D12C0C94D02CDC01CB01FC01F99944
:1059F000FECF06C0F2BDE1BDF89A319600B40D921B
:0C5A000041505040B8F70895F894FFCFD3
:105A0C00C4012808140A321EAF24B125862550255E
:105A1C00152501010203040506070809004085222B
:0C5A2C00490DC40CA20C470C600C790C56
:00000001FF
