:100000000C9471060C94B8060C94B8060C94B806BF
:100010000C94B8060C94B8060C94B8060C94B80668
:100020000C94B8060C94B8060C94A12B0C94732C69
:100030000C94FB210C94B8060C94B8060C94B806EA
:100040000C94B8060C94B8060C94B8060C94B80638
:100050000C94B8060C9463220C94B8060C94B80661
:100060000C94B8060C94B8060C94B8060C94B80618
:100070000C94B8060C94B8060C94B8060C94B80608
:100080000C94B8060C94B8060C94B8060C94B806F8
:100090000C94B8060C94B8060C94B8060C94B806E8
:1000A0000C94B8060C94B8060C94B8060A090C090E
:1000B00017090E09100912091409160919091B0953
:1000C0001D0928091F0921092309250927092A09CA
:1000D000AB17AB17DD17DD171B183B18D019D0195C
:1000E0007D18D0192A192A199C19A519D019C919CE
:1000F0003719371937193719371937193719371980
:10010000371937193719371937193719371937196F
:10011000481956195D1964196E195F1A5F1A711A18
:10012000711A681A711A711A711A5F1A5F1A6D1AA8
:10013000711A711A6D1AE02C072DF92D072DF92D62
:10014000532D762DF92DCC2DDB2D07634236B79B31
:10015000D8A71A39685618AEBAAB558C1D3CB7CC27
:100160005763BD6DEDFD753EF6177231BF0000009F
:10017000803F05A84CCDB2D44EB93836A9020C50F8
:10018000B9918688083CA6AAAA2ABE000000803F32
:1001900029001E001F00200021002200230024004F
:1001A0002500260027002D002E0031002B00140012
:1001B0001A000800150017001C0018000C0012009F
:1001C00013002F0030002A00E00004001600070092
:1001D00009000A000B000D000E000F003300340070
:1001E00028000000E1001D001B00060019000500AA
:1001F00011001000360037003800E1000151000006
:10020000E2000100E3000000000000002C420000BA
:1002100000000000E7000100E200350001003A00A4
:100220003B003C003D003E003F00400041004200DA
:1002300043004400450001000100AC00AB00AE00EB
:1002400001000100010001000100010001000100A6
:10025000010001000100AA00A900A800010001009E
:100260002C05010001000100010001000100000057
:100270000100010001000100010001000100010076
:100280000100010001000100010000000100010067
:10029000010000000000000001000000000000005C
:1002A0000100010001000100010001000100010046
:1002B0000100010001000100010001000100010036
:1002C0000100010001000100010001000100010026
:1002D000010001005200010001004B004E004C00E3
:1002E00001000100010001000100010001005000B7
:1002F00051004F0001000100010000000100010059
:1003000001000100010001000100010050084F0838
:1003100001000100010000000100010001000000D7
:1003200000000000010000000000000001000100CA
:1003300001000100010001000100010001000100B5
:1003400001000100010001000100010001000100A5
:100350000100010001000100010001000100010095
:100360000100010001000100010001000100010085
:100370000100010001000100010001000100010075
:100380000100010001000000010001000100010066
:100390000100010001000100010001000100010055
:1003A0000100000001000100010000000000000049
:1003B0000100000000000000010001000100010038
:1003C0000100010001000100010001000100010025
:1003D0000100010001000100010001000100010015
:1003E0000100010001000100010001000100010005
:1003F00001000100010001000100010001000100F5
:1004000001000100010001000100010001000100E4
:1004100001000000010001000100010001000100D5
:1004200001000100010001000100010001000000C5
:1004300001000100010000000000000001000000B8
:1004400000000000010001000100010001000100A6
:100450000100010001000100010001000100010094
:100460000100010001000100010001000100010084
:100470000100010001000100010001000100010074
:100480000100010001000100010001000100010064
:100490000100010001000100010001000100000055
:1004A0000100010001000100010001000100010044
:1004B0000100010001000100010000000100010035
:1004C000010000000000000001000000000000002A
:1004D0000100010001000100010001000100010014
:1004E0000100010001000100010001000100010004
:1004F00001000100010001000100010001000100F4
:1005000001000100010001000100010001000100E3
:1005100001000100010001000100010001000100D3
:1005200001000100010001000100000001000100C4
:1005300001000100010001000100010001000100B3
:1005400001000100010000000100010001000000A5
:100550000000000001000000000000000100010098
:100560000100010001000100010001000100010083
:100570000100010001000100010001000100010073
:100580000100010001000100010001000100010063
:100590000100010001000100010001000100010053
:1005A0000100010001000100010001000100010043
:1005B0000100010001000000010001000100010034
:1005C0000100010001000100010001000100010023
:1005D0000100000001000100010000000000000017
:1005E0000100000000000000010001000100010006
:1005F00001000100010001000100010001000100F3
:1006000001000100010001000100010001000100E2
:1006100001000100010001000100010001000100D2
:1006200001000100010001000100010001000100C2
:1006300001000100010001000100010001000100B2
:1006400001000000010001000100010001000100A3
:100650000100010001000100010001000100000093
:100660000100010001000000000000000100000086
:100670000000000001000100010001000100010074
:100680000100010001000100010001000100010062
:100690000100010001000100010001000100010052
:1006A0000100010001000100010001000100010042
:1006B0000100010001000100010001000100010032
:1006C0000100010001000100010001000100000023
:1006D0000100010001000100010001000100010012
:1006E0000100010001000100010000000100010003
:1006F00001000000000000000100000000000000F8
:1007000001000100010001000100010001000100E1
:1007100001000100010001000100010001000100D1
:1007200001000100010001000100010001000100C1
:1007300001000100010001000100010001000100B1
:1007400001000100010001000100010001000100A1
:100750000100010001000100010000000100010092
:100760000100010001000100010001000100010081
:100770000100010001000000010001000100000073
:100780000000000001000000000000000100010066
:100790000100010001000100010001000100010051
:1007A0000100010001000100010001000100010041
:1007B0000100010001000100010001000100010031
:1007C0000100010001000100010001000100010021
:1007D0000100010001000100010001000100010011
:1007E0000100010001000000010001000100010002
:1007F00001000100010001000100010001000100F1
:1008000001000000010001000100000000000000E4
:1008100001000000000000000100010001000100D3
:1008200001000100010001000100010001000100C0
:1008300001000100010001000100010001000100B0
:1008400001000100010001000100010001000100A0
:100850000100010001000100010001000100010090
:100860000100010001000100010001000100010080
:100870000100000001000100010001000100010071
:100880000100010001000100010001000100000061
:100890000100010001000000000000000100000054
:1008A0000000000001000100010001000100010042
:1008B0000100010001000100010001000100010030
:1008C0000100010001000100010001000100010020
:1008D0000100010001000100010001000100010010
:1008E0000100010001000100010001000100010000
:1008F00001000100010001000100010001000000F1
:1009000001000100010001000100010001000100DF
:1009100001000100010001000100000001000100D0
:1009200001000000000000000100000000000000C5
:1009300001000100010001000100010001000100AF
:10094000010001000100010001000100010001009F
:10095000010001000100010001000100010001008F
:10096000010001000100010001000100010001007F
:10097000010001000100010001000100010001006F
:100980000100010001000100010000000100010060
:10099000010001000100010001000100010001004F
:1009A0000100010001000000010001000100000041
:1009B0000000000001000000000000000100010034
:1009C000010001000100010001000100010001001F
:1009D000010001000100010001000100010001000F
:1009E00001000100010001000100010001000100FF
:1009F00001000100010001000100010001000100EF
:100A000001000100010001000100010001000100DE
:100A100001000100010000000100010001000100CF
:100A200001000100010001000100010001000100BE
:100A300001000000010001000100000000000000B2
:100A400001000000000000000100010001000100A1
:100A500000047F3F1F643214643214783C1E1E145D
:100A60000A056801F000B40078005A000000000098
:100A70000001010101010101010102020202020261
:100A80000202020303030303030303040404040434
:100A900004050505050506060606060707070708F7
:100AA0000808080909090A0A0A0A0B0B0B0C0C0CA6
:100AB0000D0D0D0E0E0F0F0F10101111111212133C
:100AC000131414151516161717181819191A1A1BB6
:100AD0001C1C1D1D1E1F1F20202122222324252512
:100AE00026272728292A2B2B2C2D2E2F2F30313249
:100AF00033343536363738393A3B3C3D3E3F40415A
:100B0000424344464748494A4B4C4D4F505152533B
:100B1000555657585A5B5C5E5F60626364666769EE
:100B20006A6C6D6E707173747678797B7C7E80816F
:100B3000838486888A8B8D8F91929496989A9B9DB8
:100B40009FA1A3A5A7A9ABADAFB1B3B5B7B9BBBDC5
:100B5000BFC1C4C6C8CACCCFD1D3D6D8DADCDFE196
:100B6000E4E6E8EBEDF0F2F5F7FAFCFF0403300001
:100B700000000C034B004200440036005800000007
:100B80000E0364007A0074006500630068000000D2
:100B90000403090409023B00020100A0FA09040051
:100BA0000001030101000921110100012240000799
:100BB00005810308000A090401000103000000097F
:100BC000211101000122C0000705820320000A1242
:100BD00001100100000008EDFE6060010001020349
:100BE0000105010902A10185020901A100050919F8
:100BF00001290515002501950575018102950175ED
:100C00000381010501093009311581257F950275A0
:100C100008810609381581257F950175088106052B
:100C20000C0A38021581257F950175088106C0C020
:100C300005010980A10185031601002603001A8120
:100C4000002A8300751095018100C0050C0901A1DF
:100C5000018504160100269C021A01002A9C0275D7
:100C60001095018100C005010906A1018505050750
:100C700019E029E71500250195087501810205088D
:100C800019012905950575019102950175039101D9
:100C90000507190029EF1500250195F0750181025E
:100CA000C005010906A101050719E029E71500257E
:100CB00001950875018102950175088101050819E2
:100CC00001290595057501910295017503910105AD
:100CD00007190029FF150026FF00950675088100F9
:100CE000C00011241FBECFEFDAE0DEBFCDBF04B6D7
:100CF00003FE27C08091880290918902A0918A0208
:100D0000B0918B028730904BA740B04BD1F410923A
:100D100088021092890210928A0210928B0214BEED
:100D200084B7877F84BF0FB6F894A8958091600040
:100D3000886180936000109260000FBEE0E0F8E3ED
:100D4000099511E0A0E0B1E0EEE8F4E602C00590FC
:100D50000D92A433B107D9F722E0A4E3B1E001C0BA
:100D60001D92A838B207E1F70E94C3280C944532BF
:100D70000C94000080E090E008950895089581FFAC
:100D800002C0269A01C026982E98089581E0089501
:100D900081E008950C94C8060C94830CCF92DF92E6
:100DA000EF92FF92843030F4811105C09091800061
:100DB000977F04C083E090918000986090938000BA
:100DC000282F30E0AFEFBFEF0E94D63123E030E0B4
:100DD00040E050E00E94AE312C3784E138074105F5
:100DE000510530F4C90169E070E00E94863129C0E4
:100DF000DA01C9018A50974DAF4FBF4F6627782F50
:100E0000892F9A2F25EF38E241E050E00E94AE3161
:100E100069017A01CA01B9010E9476319B01AC01D6
:100E2000C701B6010E947631BB27A92F982F872FC3
:100E3000009721E0A207B10511F0BC0102C06FEFDD
:100E40007FEF70938D0060938C00FF90EF90DF90A8
:100E5000CF900895279A2F988AE08093800089E1A7
:100E6000809381008FEF9FEF90938700809386009F
:100E70000C9443260E949120811102C00E941221ED
:100E80000E942A070C94810C0C94BF060C94440712
:100E900008950E944F1A0E9448072FEF84E39CE0B8
:100EA000215080409040E1F700C000000C9489225E
:100EB000FF920F931F93CF93DF938C01FC01C081AE
:100EC000D18180918101811113C08281882349F0F1
:100ED000CE010E94841FF82E682FCE010E94291F88
:100EE00004C0CE010E94581FF82EBE018F2D04C0F1
:100EF000CE010E94841FBE010E94D709EC01B801F7
:100F00000E94CA06882309F44AC2CC3CFCE5DF07EC
:100F100009F4DFC0E8F5C43C9CE5D90709F4A3C097
:100F2000F8F4C531FCE5DF0778F4C2308CE5D8076A
:100F300008F04EC1C1159CE5D90709F465C0C13060
:100F4000DC4509F469C01EC2C23CFCE5DF0709F4B8
:100F500076C008F07CC0C631DC4509F4ECC112C291
:100F6000F8018281C83CFCE5DF0709F49AC040F42F
:100F7000C63CECE5DE0709F488C008F480C08BC0ED
:100F8000CA3C9CE5D90709F498C008F490C09BC0FE
:100F9000C43DFCE5DF0709F4F6C0C0F4F801828126
:100FA000C03DFCE5DF0709F4BDC040F4CE3CECE5F4
:100FB000DE0709F49BC008F494C0A6C0C23D9CE5BE
:100FC000D90709F4CDC008F4BDC0D8C0C83DFCE5C0
:100FD000DF0709F495C150F4F8018281C63DFCE5B4
:100FE000DF0709F447C108F4DEC065C1CC3DECE57C
:100FF000DE0709F4E4C0CD3DFCE5DF07C1F0CB3DE1
:10100000DC4509F0BFC1D4C0F8018281882309F40E
:10101000C6C10E944907C3C1F8018281882309F42F
:10102000BEC180911402816080931402B8C1F8019E
:101030008281882309F4B3C10E941221B0C1F80152
:101040008281882309F4ABC10E940311A8C1F80171
:101050008281882309F4A3C10E945520827261F025
:101060000E94A8109CC1F8018281882309F497C1CD
:101070000E9455208272A1F30E949A1090C1882389
:1010800009F48DC10E949D0F8AC1882309F487C18C
:101090000E94C10F84C1882309F481C10E94E10F1D
:1010A0007EC1882309F47BC10E94011078C1882386
:1010B00009F475C10E94211072C1882309F46FC11F
:1010C0000E9441106CC1882309F469C10E94590E25
:1010D00066C1F8018281882309F461C10E946E0E05
:1010E0005EC1882309F45BC181E029C0882309F42B
:1010F00056C10E94500E823028F00E94500E85305A
:1011000008F4BACF82E01BC0882309F448C10E94CA
:10111000500E863028F00E94500E883008F4ACCF74
:1011200086E00DC0882309F43AC10E94500E893030
:1011300028F00E94500E8E3008F49ECF89E00E9465
:10114000AB102DC1882309F42AC10E94500E8F30A4
:1011500028F00E94500E843108F48ECF8FE0EFCF3C
:10116000882309F41CC10E94500E853128F00E948A
:10117000500E873108F480CF85E1E1CF882309F450
:101180000EC188E1DCCFF8018281882309F407C110
:101190000E94500E893128F00E94500E823208F4CD
:1011A0006BCF89E1CCCF882309F4F9C083E2C7CFA4
:1011B000F8018281882309F4F2C080E006C0F801BA
:1011C0008281882309F4EBC082E00E946429E7C091
:1011D000F8018281882309F4DAC00E9491208111EC
:1011E00002C00E9412210E94AE2090E090937902EA
:1011F00080937802FE01E350FC45E231F10530F4C2
:10120000EA5AFF4F809178020C94D0318091780295
:10121000816027C0826025C0846023C0806121C0B6
:1012200080621FC080641DC080681BC084608860AD
:1012300018C08E7F16C08D7F14C08B7F12C08F7E2A
:1012400010C08F7D0EC08F7B0CC08F770AC08B7F44
:10125000877F07C087FB222720F991E0922790FB28
:1012600087F980937802809178020E94B2200E94D0
:101270004F1A95C0882351F0109239010E942D22F7
:10128000909336018093350182E020C0809139012E
:1012900081110FC080913501909136010E94392251
:1012A000883C910530F486E20E94E11586E20E94B6
:1012B000FF1682E022C0882361F010923A010E945A
:1012C0002D22909338018093370180E20E946717A6
:1012D00066C080913A0181110FC0809137019091D1
:1012E00038010E943922883C910530F487E20E943F
:1012F000E11587E20E94FF1680E20E946E174FC040
:10130000F80182818111D9CF80913A018111F4CF06
:1013100080913701909138010E943922883C9105D3
:1013200058F780E20E946E1788E20E94E11588E279
:101330000E94FF1634C00E945520282FF801828198
:1013400040910D0150910E01882379F02A7A91E0A5
:1013500009F490E090933401911102C069E201C058
:1013600065E3CA010E9479210AC08091340181118C
:1013700002C069E201C065E3CA010E9484210E94A3
:1013800022200DC081E08093390180933A01C80189
:10139000DF91CF911F910F91FF900C94C60680E0D2
:1013A000DF91CF911F910F91FF90089508959EE0D6
:1013B000799FF001112496E4899FE00DF11D11241D
:1013C000E60FF11DEE0FFF1FE057FE4F8591949140
:1013D0000895880F991FFC01E05BF54F859194916A
:1013E0000895CF93DF930E94D7090E94E10BEC018F
:1013F000811521E5920708F042C0811560E5960746
:1014000008F02CC1883E910500F5803E910508F05A
:10141000D4C1883A910570F4853A910508F0A2C0CC
:101420008130910509F4C9C108F47AC1049708F024
:10143000C4C176C18F3B910508F49FC0803C9105E3
:1014400008F46EC1805C9109F9C0C11580E3D8072A
:1014500080F4C11590E2D90708F0EEC0C03FD10575
:1014600008F45EC1CF3FD10511F008F0A6C1D065E8
:10147000A4C1C11520E4D20708F0EDC0E2C0811577
:1014800069E5960760F5C11588E5D80708F032C10F
:10149000C11594E5D90778F4C11523E5D20708F002
:1014A0000EC1C11562E5D60708F0F3C0DC2FCC27CA
:1014B000C16FD06A82C1C11585E5D80708F415C18E
:1014C000C11596E5D90708F02BC18C2F0E945E0C40
:1014D0008F71C82FD0E0DC2FCC27D0626EC18D3B3E
:1014E0002CE5920709F413C1D0F4CB3B8CE5D80767
:1014F00009F407C108F008C1C1152AE5D20708F0B0
:101500000FC12C2F2F70206E30E0306A84E0D6950A
:10151000C7958A95E1F7CF70C9019C2BF0C0803C3C
:101520009C4509F4FAC0C13C8CE5D80760F4CE3B79
:101530009CE5D90709F4EEC0CF3BDC4509F0F0C0CB
:10154000C0E0D2ED3AC1CE0190568115904208F02C
:10155000E7C08D2F8F710E945E0CDD27D0628F71E6
:10156000D82B2BC1853A910509F4DDC0863A910547
:1015700009F0DCC0C2E8D0E420C1883A910509F442
:10158000D8C0893A910509F4D7C08A3A910509F47F
:10159000D6C08B3A910509F4D5C08C3A910509F46F
:1015A000D4C08B3B910509F4D3C08C3B910509F461
:1015B000D2C08D3A910509F4D1C0803B910509F460
:1015C000D0C08E3A910509F4CFC08F3A910509F445
:1015D000CEC0813B910509F4CDC0823B910509F451
:1015E000CCC0833B910509F4CBC0843B910509F441
:1015F000CAC0853B910509F4C9C0863B910509F431
:10160000C8C0873B910509F4C7C0883B910509F420
:10161000C6C0893B910509F4C5C08D3B910509F40D
:10162000C4C08E3B910509F4C3C08A3B910509F4FF
:10163000C2C0C0E0D4E4C1C0CE019F700E94E909DD
:101640005EC0CE019927D3FF03C0EC01D86CB5C0B2
:10165000EC01D06CB2C0DF70D06AAFC0837021E003
:1016600030E002C0220F331F8A95E2F73C68CE01BA
:1016700054E0969587955A95E1F78370382BCF7093
:10168000C695C69580E2C89FE0011124C22BD32BDA
:1016900094C04C2F4695469590E2499FA001112495
:1016A000C370DD2721E030E0C90102C0880F991F17
:1016B000CA95E2F7EC01C42BD52BDC687EC04C2F19
:1016C0004695469580E2489FA0011124C370DD270E
:1016D00021E030E0C90102C0880F991FCA95E2F7E6
:1016E000EC01C42BD52BDA6868C0DC2FCC27C46F83
:1016F000D06A63C0DC2FCC27C06FD06A5EC0EC011B
:101700005CC0C0E0D4ED59C0C0E0D5ED56C0C0E02B
:10171000D1ED53C0C0E0D0ED50C0C0E0D3ED4DC01E
:10172000C0E0D0E04AC0C1E8D0E447C0C3E8D0E49C
:1017300044C0C2EED4E441C0C9EED4E43EC0CAEE17
:10174000D4E43BC0C5EBD4E438C0C6EBD4E435C028
:10175000C3EBD4E432C0C4EBD4E42FC0C7EBD4E471
:101760002CC0CCECD4E429C0CDECD4E426C0C3E832
:10177000D5E423C0CAE8D5E420C0C2E9D5E41DC041
:10178000C4E9D5E41AC0C1E2D6E417C0C3E2D6E486
:1017900014C0C4E2D6E411C0C5E2D6E40EC0C6E26D
:1017A000D6E40BC0C7E2D6E408C0CFE6D4E405C057
:1017B000C0E7D4E402C0CAE2D6E4CE01DF91CF9103
:1017C00008958238910549F1B0F48133910509F407
:1017D00058C048F48932910509F44EC08A32910507
:1017E00009F454C008958533910509F440C0893344
:1017F000910599F00895833E910529F138F4803ED2
:10180000910591F0823E9105A1F00895863E9105E3
:10181000F9F0873E910531F108952091780220FD7D
:101820003AC021FD38C008958091780280FD35C00E
:1018300032C08091780282FF32C08091780284FDAC
:1018400030C083EE39C08091780282FD28C0F5CF88
:101850008091780283FF27C08091780284FD21C0A7
:1018600087EE2AC08091780283FD1DC0F5CF80915C
:10187000780285FD1AC01BC08091780285FD17C0D3
:1018800014C08091780286FD14C015C08091780242
:1018900086FD11C00EC080EE0FC089E30DC082EE40
:1018A0000BC080E009C086EE07C089E205C085E371
:1018B00003C08AE201C081E390E00895909178022C
:1018C00092FF0DC0282F2871283019F4877F84607B
:1018D00006C0282F2471243011F48B7F886093FF79
:1018E0000DC0282F2871283119F4877E846106C025
:1018F000282F2471243111F48B7E886194FD877E1A
:1019000008950C94BD060C94BE06EEE2F1E041E0B1
:1019100050E025E02E0F9191A92FA295AF70B0E075
:1019200091963C9191979F70BA0102C0660F771F04
:101930009A95E2F7CB018095832391968C932E1391
:10194000EACFA0E2B1E041E050E02EE02A0F8D9115
:10195000E82FE295EF70F0E031A18F70BA0102C07C
:10196000660F771F8A95E2F7CB01962F9095932308
:1019700091A392A1892B82A32A13E9CFE5E4F1E098
:10198000ABE3B1E0119211921D921D9271E0EF3420
:10199000F707C1F785E00E94710D0C943A074F924A
:1019A0005F927F928F929F92AF92BF92CF92DF927F
:1019B000EF92FF920F931F93CF93DF932EE2422E6D
:1019C00021E0522EA5E4B1E020E001E010E05D014D
:1019D0008D909C90119711961C921E92E201899114
:1019E0002E01E82FE295EF70F0E031A18F70A80191
:1019F00002C0440F551F8A95E2F7CA01342B31A368
:101A000042A1382F3095432342A350EA5A95F1F76B
:101A100090E2C92E91E0D92E40E050E0E6017990A5
:101A20006E01672D62956F7070E0EB01E8A06D911B
:101A30007C911197F12CD72DDF7002C0F594E794BB
:101A4000DA95E2F7E0FC08C07801042E02C0EE0C43
:101A5000FF1C0A94E2F702C0E12CF12C6E297F29C9
:101A600011967C936E934F5F5F4F4E305105B1F6E8
:101A700091A1392331A392A1892B82A3129681E0EF
:101A8000F501408151818416950609F480E0282BE8
:101A9000F1E0AF34BF0709F09ACF45E06BE371E0A6
:101AA00085E491E00E94720D0E94CC0681E0DF91F6
:101AB000CF911F910F91FF90EF90DF90CF90BF904B
:101AC000AF909F908F907F905F904F900895E82FF8
:101AD000F0E0EE0FFF1FE55CFE4F808191810895DD
:101AE00008950895FF920F931F93CF93DF93F82EDD
:101AF000092F162FD72FC42F222349F081E080937E
:101B000051010E942D229093500180934F018091AA
:101B100051018823B9F080914F01909150010E94AA
:101B20003922069778F0EF2DF02FA12FBD2F80E0FE
:101B30008C1731F0219131912D933D938F5FF8CF28
:101B400010925101DF91CF911F910F91FF90089555
:101B5000EF92FF920F931F93CF93DF93E9014B3FD7
:101B600008F04AEF662309F44BC0242F30E0EFEF72
:101B7000F0E0E61BF109B901E69F9001E79F300D07
:101B8000F69F300D1124232F8B01031B11095CE3F9
:101B9000E52EF12CB7010E948631FB01BC01069FA6
:101BA000C001079F900D169F900D1124B7010E9450
:101BB0008631E230F105B1F040F4309779F0319799
:101BC00011F5832F242F461B21C0E430F105A1F02D
:101BD00068F03597C1F4842F861B18C0832F262FF9
:101BE000230F14C0862F830FE42F03C0E42FE61BBE
:101BF000842F432F2E2F0AC0842F462F430F06C059
:101C0000842F242F03C080E020E040E0E42FF0E0A8
:101C1000E459F54F4491E22FF0E0E459F54F9491E7
:101C2000E82FF0E0E459F54FE49149839883EA8383
:101C3000DF91CF911F910F91FF90EF90089588E071
:101C400090E00C940532CF92DF92EF92FF926B01FD
:101C50007C010E941F0E6C157D058E059F0551F0BD
:101C6000B701A60188E090E0FF90EF90DF90CF9061
:101C70000C942332FF90EF90DF90CF900895E3E42F
:101C8000F2E083E08083109244028FEF82838AEF38
:101C90008383148260817181828193810C94230EED
:101CA0008091430280FF03C086958F73089580E082
:101CB00008958091470290E001968430910514F0D8
:101CC00083E090E080934702609143027091440268
:101CD00080914502909146020C94230E8091470218
:101CE00090E0019797FF02C080E090E0843091057A
:101CF00014F083E090E0809347026091430270917A
:101D0000440280914502909146020C94230E8091EA
:101D1000430280FF06C06EE070E088E492E00C941D
:101D20006F1480E090E0FC01E85BFD4F11821082AF
:101D3000128203968A329105B1F7EDCF909143025A
:101D400090FF0FC020E030E0F901E85BFD4F818398
:101D5000608342832D5F3F4F2A323105A9F70C94EF
:101D6000870E0895CF93DF9300D01F92CDB7DEB7D3
:101D70002091430220FF0AC09E012F5F3F4F0E9427
:101D8000A80D4B8169818A810E949E0E0F900F9051
:101D90000F90DF91CF9108955F926F927F928F9213
:101DA0009F92AF92BF92CF92DF92EF92FF920F93EA
:101DB0001F93CF93DF9300D01F92CDB7DEB78C0176
:101DC000E62EF42E522E8091430280FF89C0982F78
:101DD0009E77923061F49E012F5F3F4FC8010E94B1
:101DE000A80D4B8169818A810E949E0E59C0E82FFF
:101DF000E695EF739EE39E0F9F73943018F4F09076
:101E000046024EC09AE39E0F9F73993068F4881F74
:101E10008827881F90914402292F220F022F082B18
:101E200097FB112710F93CC087E28E0F8F738A3021
:101E3000B8F5F0E07997E0FD02C021E001C02FEF96
:101E4000EE7FEE59F54F859194916EE070E00E941F
:101E5000863126034001279F900C1124580188E900
:101E6000A81A8EEFB80A88E4C82E82E0D82E98E629
:101E7000692E77247394C501B3010E9486319601BF
:101E80004F2D6E2D0E94A80DA80CB91C83E0C80E22
:101E9000D11C82E7C81682E0D80669F70E94870E37
:101EA0008091430200FB87F980934302902F96951F
:101EB000809144028078892B10FB87F9809344023B
:101EC000E0924502F0924602552051F060914302A3
:101ED0007091440280914502909146020E94230E27
:101EE0000F900F900F90DF91CF911F910F91FF9066
:101EF000EF90DF90CF90BF90AF909F908F907F90AA
:101F00006F905F900895282FE3E4F2E09081991F8D
:101F10009927991F30914402832F880F482F492B0E
:101F200037FB552750F9CA01089668E671E00E9410
:101F30009A31438162810C94CC0E81E00C94830F22
:101F4000282F90914302991F9927991F309144029D
:101F5000832F880F482F492B37FB552750F9CA018B
:101F6000483051051CF4805A9E4F01C0089768E61E
:101F700071E00E949A3140914602609145020C94B2
:101F8000CC0E81E00C94A00F60914502262F30E02A
:101F9000283F310514F4685F01C06FEF30914302B0
:101FA000331F3327331F90914402592F550F97FB4E
:101FB000992790F9282F40914602852F832B0C9466
:101FC000CC0E81E00C94C40F60914502262F30E0C6
:101FD0002830310514F0685001C060E030914302B0
:101FE000331F3327331F90914402592F550F97FB0E
:101FF000992790F9282F40914602852F832B0C9426
:10200000CC0E81E00C94E40F40914602242F30E086
:10201000233F310514F4485F01C04AEF3091430279
:10202000331F3327331F90914402592F550F97FBCD
:10203000992790F9282F60914502852F832B0C94C6
:10204000CC0E81E00C94041040914602242F30E025
:102050002830310514F0485001C040E0309143026F
:10206000331F3327331F90914402592F550F97FB8D
:10207000992790F9282F60914502852F832B0C9486
:10208000CC0E81E00C94241020E00C94CC0ECF9365
:102090009091430290FF40C09178811102C09260FC
:1020A00007C0853210F0986403C08F73880F982B97
:1020B00090934302662351F0609143027091440271
:1020C00080914502909146020E94230EC0914302E6
:1020D0006C2F66956F7370E04BE050E082E091E00A
:1020E0000E94F031892B19F010926F0103C081E03A
:1020F00080936F01CC1FCC27CC1F90914402892F75
:10210000880F97FB992790F940914602609145020C
:102110008C2BCF910C944410CF910895682F9091FF
:10212000430296959F7381E0890F853208F081E024
:102130000C94471081E00C948E10682F909143020C
:1021400096959F738FEF890F09F484E20C944710E2
:1021500081E00C949D1061E00C944710E3E4F2E000
:1021600080818160808386958F730C94AB1060E0D2
:102170000C944710809114028160809314020E9495
:102180009120811104C00E9412210E943F0E0E94E2
:102190001F0E609343027093440280934502909314
:1021A00046026E7761F40E943F0E0E941F0E6093FC
:1021B000430270934402809345029093460281E06B
:1021C00080936F018091430280FF04C086958F73D6
:1021D0000C94B7100895E3E4F2E080818E7F808351
:1021E00060817181828193810E94230E10926F0120
:1021F0002FEF80E792E0215080409040E1F700C04F
:1022000000000C94870E8091430280FD0C94EB102B
:102210000C94AE10CF93C82F80916D0190916E01F8
:102220000E943922EC2FF0E0E25AF54FE491F0E001
:102230008E179F0708F443C00E942D2290936E01D1
:1022400080936D0160916C0170E080E090E00E94ED
:10225000772F20E030E04FE753E40E949A2E2BEDD9
:102260003FE049E450E40E94A0300E940D310E94FA
:10227000142F2BE43AE34EE25FE30E942D2E20EF71
:102280003BEF48ED52E40E94A0300E94462F462FBB
:1022900080914302881F8827881F90914402292F2C
:1022A000220F97FB992790F960914502822B0E949B
:1022B000B20E80916C0190E0019680936C01CF91F9
:1022C0000895CF93C82F80916A0190916B010E946D
:1022D0003922EC2FF0E0E55AF54FE491F0E08E174B
:1022E0009F07E8F00E942D2290936B0180936A0172
:1022F0004091460260914502809168019091690188
:102300000E94B20E8091680190916901019668E681
:1023100071E00E9486319093690180936801CF91AA
:102320000895CF92DF92FF920F931F93CF93DF9385
:10233000F82E80916601909167010E943922EF2D5D
:10234000E695F0E0E85AF54FE491F0E08E179F072C
:10235000F0F10E942D22909367018093660108E4BA
:1023600012E0C0E0D0E088E6C82EDD24D39480914E
:102370006401909165018C0F9D1FB6010E9486310A
:10238000980140914602609145020E94A80D69960D
:102390000D5F1F4FCE3581E0D80749F70E94870EA9
:1023A0002091640130916501F0FE0BC0C9010196D6
:1023B00068E671E00E948631909365018093640124
:1023C00006C0215031093093650120936401DF91EB
:1023D000CF911F910F91FF90DF90CF900895AF9212
:1023E000BF92CF92DF92EF92FF920F931F93CF9302
:1023F000DF93C82F80FF02C01FEF01C011E0809162
:102400006201909163010E943922C695EC2FF0E0A1
:10241000EB5AF54FE491F0E08E179F0708F466C081
:102420000E942D22909363018093620128E4C22EC2
:1024300022E0D22E3AE4E32E32E0F32EC0E0D0E0E8
:10244000F70131971082F6011082F701108294E0B3
:10245000A92EB12C00E080916101800F87FD825F81
:10246000082E000C990BC817D907E9F48091460291
:102470008A9DA0018B9D500D11245595479555952A
:10248000479580914302881F8827881F90914402B6
:10249000592F550F97FB992790F9960160914502A6
:1024A000852B0E94A80D010FF1E0AF1AB10899F633
:1024B000219683E0C80ED11CE3E0EE0EF11CCE3075
:1024C000D10509F0BDCF0E94870E809161011130C6
:1024D00031F4811102C08DE007C0815005C090E049
:1024E0000196BE010E949A3180936101DF91CF91E4
:1024F0001F910F91FF90EF90DF90CF90BF90AF9022
:1025000008950F931F93CF93DF93C82F80915F019E
:10251000909160010E943922EC2FF0E0EE5AF54FC5
:10252000E491F0E08E179F0708F466C00E942D2208
:102530009093600180935F0180E090E0FC01E85B94
:10254000FD4F11821082128203968A329105B1F7F3
:10255000C0E0D0E00EE010E0CE01B8010E949A3158
:1025600040915E01042E000C550BFC01EE0FFF1F85
:10257000C417D5070CF140910101042E000C550B36
:102580004C175D07CCF08E0F9F1F9C01285B3D4FC1
:1025900080914302881F8827881F90914402592FF9
:1025A000550F97FB992790F940914602609145029B
:1025B000852B0E94A80D07C0E80FF91FE85BFD4FAF
:1025C0001182108212822196CE30D10529F60E9406
:1025D000870E8091000190915E01980F90935E01AB
:1025E00020910101280F20930101121614F49D304F
:1025F0001CF0819580930001DF91CF911F910F9185
:102600000895EF92FF920F931F93CF93DF938091E2
:102610005C0190915D010E943922883E9340D0F187
:102620000E942D2290935D0180935C01C0915A011C
:10263000D0915B012196C170DD27D0935B01C093DF
:102640005A0188E4E82E82E0F82E10E008E7812F96
:102650008695FE01E80FF11DCF0181709927970142
:102660004091460260914502FC010E9FC0010F9F00
:10267000900D11240E94A80D1F5FF3E0EF0EF11CD6
:102680001E3029F7DF91CF911F910F91FF90EF90AE
:102690000C94870EDF91CF911F910F91FF90EF90D7
:1026A0000895CF93DF9300D01F92CDB7DEB780910E
:1026B0005801909159010E943922E0E5FAE02591F4
:1026C000349182179307C0F18091570181110CC09A
:1026D0009E012F5F3F4F4AEF6FEF80E090E00E9436
:1026E000A80D8A81809357010E942D229093590151
:1026F0008093580180915601813051F028F082304A
:1027000061F4409157010AC08091570140E007C031
:102710006091570140E080E003C040E080E060E06D
:102720000E949E0E8091560190E0019663E070E059
:102730000E949A31809356010F900F900F90DF9175
:10274000CF9108950F931F93CF93DF9380915401FE
:10275000909155010E943922843F914008F448C06D
:102760000E942D229093550180935401C8E4D2E039
:1027700000E010E02091520130915301809143021A
:1027800090914402073011051CF4232B79F002C00C
:10279000232B61F4881F8827881F592F550F97FB1B
:1027A000992790F99E01409146020AC0881F882708
:1027B000881F592F550F97FB992790F99E0140E0EC
:1027C00060914502852B0E94A80D0F5F1F4F239635
:1027D0000E30110579F60E94870E8091520190917A
:1027E0005301019681709927909353018093520170
:1027F000DF91CF911F910F91089580916F018823F0
:10280000D9F190914302892F86958F732EE3280F7B
:102810002F73243018F482500C940A112AE3280FE5
:102820002F73233018F486500C94611127E3280F7E
:102830002F73263018F489500C94911121E3280F3E
:102840002F73263018F48F500C94EF112BE2280FC1
:102850002F73233018F485510C948112892F8E77B1
:10286000803311F40C940113863411F40C94511339
:10287000883411F40C94A213089521B3342F3095A9
:10288000232331B3432B3FB7F894FC01680F791F22
:10289000E617F70789F0819198E041BB000000C07E
:1028A00087FF21BB880F000000C000C000C021BB13
:1028B00000C09A9591F7ECCF3FBF089520B3242B29
:1028C00020BB9B01220F331F620F731F0E943D1418
:1028D00087EC90E00197F1F700C00000089541E017
:1028E0000C945E1490937501809374010895E091A7
:1028F0007401F0917501309721F00190F081E02D85
:10290000099480E00895E0917401F0917501309789
:1029100099F020911F01222359F02091780227FF7E
:1029200007C0DC012C9111962C93119725E02C9374
:102930000280F381E02D09940895E0917401F091F3
:102940007501309739F022E0DC012C930480F58189
:10295000E02D09940895209172013091730182173E
:10296000930771F09093730180937201E091740169
:10297000F0917501309721F00680F781E02D0994E0
:10298000089520917001309171018217930771F0C1
:102990009093710180937001E0917401F091750141
:1029A000309721F00084F185E02D0994089585B7D2
:1029B000806885BF85B7806885BF089508950E94A7
:1029C000D7140C94DE1481E008950E9424220E9402
:1029D000850C0E94F9220E9443260C94BA104F9253
:1029E0005F927F928F929F92AF92BF92CF92DF922F
:1029F000EF92FF920F931F93CF93DF93CDB7DEB784
:102A00002A970FB6F894DEBF0FBECDBF0E94CF0C41
:102A10000E94E314811111C08FEF89838A831B8286
:102A20000E942D228160782F9D838C8349815A8159
:102A30006B818D810E94AD1557C097E7C92E91E03B
:102A4000D92E00E010E0AA24A394B12C702E802F80
:102A50000E94670D4C01F601419051906F0148268C
:102A600059264114510431F40F5F1F4F05301105F1
:102A700069F7D2CF8091140281FD0E94700D20E091
:102A800030E07501022E02C0EE0CFF1C0A94E2F742
:102A9000C70184219521892B09F12E837F828E2005
:102AA0009F2091E0892809F490E098870E942D22C8
:102AB0008160782F9A8789874E815F8168858A85B2
:102AC0000E94AD15000F111FF801E958FE4F8081DB
:102AD0009181E826F926F182E08206C02F5F3F4F00
:102AE0002E30310571F6C0CF0E949C2510917601E1
:102AF0000E9477141817D9F00E94771480937601FA
:102B00002A960FB6F894DEBF0FBECDBFDF91CF91EE
:102B10001F910F91FF90EF90DF90CF90BF90AF90FB
:102B20009F908F907F905F904F900C9446072A96CD
:102B30000FB6F894DEBF0FBECDBFDF91CF911F91CE
:102B40000F91FF90EF90DF90CF90BF90AF909F904C
:102B50008F907F905F904F900895CF93DF93CDB784
:102B6000DEB72B970FB6F894DEBF0FBECDBF4F83F5
:102B7000588769877A878B87DE01119686E0FD0189
:102B800011928A95E9F785E0FE01379601900D9242
:102B90008A95E1F749815A816B817C818D819E8183
:102BA0000E94F91C2B960FB6F894DEBF0FBECDBF66
:102BB000DF91CF910895FC01808191810E94C31F14
:102BC0000895882309F41AC18238C1F40E94771449
:102BD00081FD14C169E380910D0190910E010E9465
:102BE00079210E9422202FEF81EE94E02150804035
:102BF0009040E1F700C0000069E319C08338F9F4A0
:102C00000E94771480FDFAC063E580910D019091D8
:102C10000E010E9479210E9422202FEF81EE94E084
:102C2000215080409040E1F700C0000063E58091B2
:102C30000D0190910E010E9484210C942220843871
:102C4000C1F40E94771482FDD9C067E480910D0120
:102C500090910E010E9479210E9422202FEF81EE97
:102C600094E0215080409040E1F700C0000067E40C
:102C7000DECF9CEF980F913A40F4682F80910D01C0
:102C800090910E010E947921D8CF90E2980F983050
:102C900050F4877091E001C0990F8A95EAF7892F67
:102CA0000E945820CACF9BE5980F933070F4853A64
:102CB00029F0863A31F083E890E005C081E890E0A1
:102CC00002C082E890E00C94AB1498E5980F97311D
:102CD00008F08EC0883A09F445C0893A09F445C025
:102CE0008A3A09F445C08B3A09F445C08C3A09F494
:102CF00045C08B3B09F445C08C3B09F445C08D3A77
:102D000009F445C0803B09F445C08E3A09F445C03A
:102D10008F3A09F445C0813B09F445C0823B09F470
:102D200045C0833B09F445C0843B09F445C0853B5D
:102D300009F445C0863B09F445C0873B09F445C00A
:102D4000883B09F445C0893B09F445C08D3B09F433
:102D500045C08E3B09F445C08A3B09F445C080E07C
:102D600090E044C082EE90E041C089EE90E03EC029
:102D70008AEE90E03BC085EB90E038C086EB90E0B7
:102D800035C083EB90E032C084EB90E02FC087EB3E
:102D900090E02CC08CEC90E029C08DEC90E026C037
:102DA00083E891E023C08AE891E020C082E991E0C5
:102DB0001DC084E991E01AC081E292E017C083E26D
:102DC00092E014C084E292E011C085E292E00EC06D
:102DD00086E292E00BC087E292E008C08FE690E0C6
:102DE00005C080E790E002C08AE292E00C94C11432
:102DF000803F20F00E94A4240C94912508958823FC
:102E000009F464C0823879F40E94771481FF5EC0AF
:102E100069E380910D0190910E010E9479210E9439
:102E2000222069E310C08338B1F40E94771480FF38
:102E30004DC063E580910D0190910E010E947921B2
:102E40000E94222063E580910D0190910E010E9465
:102E500084210C942220843879F40E94771482FF14
:102E600035C067E480910D0190910E010E94792197
:102E70000E94222067E4E7CF9CEF980F913A10F46C
:102E8000682FE1CF90E2980F983050F4877091E06E
:102E900001C0990F8A95EAF7892F0E945E20D9CF49
:102EA0009BE5980F933020F480E090E00C94AB14F5
:102EB00098E5980F973120F480E090E00C94C114CD
:102EC000803F20F00E940C250C94912508958823C2
:102ED00021F00E9458200C9422200895882321F08C
:102EE0000E945E200C94222008954F925F926F9270
:102EF0007F92BF92CF92DF92EF92FF920F931F9338
:102F0000CF93DF937C01D62FC72FFC01058102955B
:102F10000F70128111110E9475200E941B208823BE
:102F200079F0112369F080E28D0F883048F082E05B
:102F30000E9404200E941B2091E0B82EB92601C0F7
:102F4000B12CCC2EC2948FE0C822D12CF601E859C6
:102F5000FF4F0C94D0318C2F807FCF70882311F0DD
:102F6000C295C07F112399F0CC2309F4D0C180E22F
:102F70008D0F883010F0D11104C08C2F0E94582082
:102F800003C08C2F0E9468200E942220C0C18D2F78
:102F90000E94FF16CC2309F403C280E28D0F883013
:102FA00010F0D11104C08C2F0E945E2003C08C2F22
:102FB0000E946E200E942220F3C18C2F807FCF7050
:102FC000803211F0C295C07FDD2319F0D130C9F0F5
:102FD00022C0112371F0002341F0013031F40E942E
:102FE0008E208C2B0E948820DBC10E948E208C2B8F
:102FF00046C1002319F0013009F4D2C10E948B2090
:1030000018C0112321F0063008F0CAC10EC00530E7
:1030100008F0C6C10EC0112351F0002331F0F701B2
:10302000858180FF74C18F7085838C2F28C1011129
:103030007FC18C2F2AC18C2F86958695837090E056
:10304000009719F0019761F0ABC1112321F08D2F8A
:103050009C2F937002C080E090E00E94AB14B0C13E
:10306000112321F08D2F9C2F937002C080E090E0FF
:103070000E94C114A5C11123F9F0D53F51F0D63FEC
:1030800071F0D43FA9F48091720290917302816033
:103090000BC08091720290917302826005C0809192
:1030A0007202909173028460909373028093720213
:1030B0008D2F0E94A4241EC0D53F51F0D63F71F041
:1030C000D43FA9F480917202909173028E7F0BC05D
:1030D00080917202909173028D7F05C0809172027F
:1030E000909173028B7F90937302809372028D2F65
:1030F0000E940C250E94912563C18C2F837009F0DA
:1031000050C0111159C18D2F829586958770880FF7
:10311000880F9D2F9F70492E512C612C712C082EE9
:1031200004C0440C551C661C771C0A94D2F7D4FFCB
:1031300014C00FE010E020E030E0B901A80104C0A5
:10314000440F551F661F771F8A95D2F7CB01BA012E
:10315000609570958095909503C060E070E0CB011C
:10316000C695C695C370D0E0C230D10561F0C330BA
:10317000D10581F06429752986299729219771F055
:103180000E943E1E19C164297529862997290E942B
:10319000501E12C10E943E1EC301B2010E942C1E8D
:1031A0000BC1112319F08C2F817001C086958823E3
:1031B00009F402C18D2F829586958770880F880F3C
:1031C0009D2F9F70492E512C612C712C082E04C00C
:1031D000440C551C661C771C0A94D2F7D4FF14C00B
:1031E0000FE010E020E030E0B901A80104C0440F76
:1031F000551F661F771F8A95D2F7CB01BA016095DC
:1032000070958095909503C060E070E0CB01C69505
:10321000C695C3704C2F50E04230510569F04330E1
:10322000510589F06429752986299729413051056E
:1032300071F00E94041FC0C064297529862997294E
:103240000E94161FB9C00E94041FC301B2010E9450
:10325000F21EB2C08D2F90E0FC01E05EF109E53175
:10326000F10508F050C0E858FF4F0C94D031DF70E2
:103270008C2F8F71112331F00E948B1E8D2F0E9495
:1032800067178EC00E94AC1E8D2F0E946E1788C0DB
:10329000112341F0053008F083C08C2F8F710E94FC
:1032A000D11E7EC0063008F07BC0F7CF112339F065
:1032B0008C2F8F710E948B1E73C01123C9F38C2F2A
:1032C0008F710E94AC1E6CC0112329F08C2F8F715E
:1032D0000E94761E65C00E94711E62C0112349F0D3
:1032E000CF718C2F0E948B1E63E08C2F0E94FB1FDE
:1032F00057C081E00E940420023008F451C082E0EF
:103300000E9404204DC0112331F0002389F28D2F3B
:103310000E94E11545C0002391F2D93349F45FEFD3
:1033200067EE73E0515060407040E1F700C000006C
:103330008D2F0E94FF1634C04C2F4F706D2FC70188
:103340000E94BA060E949D1D3BC0111139C0CF706A
:10335000D0E0C230D10599F03CF4209769F0219774
:10336000F9F40E947D262CC0C430D10571F054F0D0
:103370002597B1F480E00AC00E94602621C00E9417
:10338000BC261EC00E94C3261BC083E00E94E62606
:1033900017C04C2F4F706D2FC7010E94D60910C067
:1033A00088E0C816D10441F05CF0EAE0CE1AD108FA
:1033B000F2E0CF16D10420F40E9477140E94460751
:1033C000BB20F1F00E94F71F80FD1AC0F7011282A6
:1033D0000E94F11F0E948B1EC7010E940E1A0E94BC
:1033E000F11FDF91CF911F910F91FF90EF90DF9030
:1033F000CF90BF907F906F905F904F900C94AC1ED9
:10340000DF91CF911F910F91FF90EF90DF90CF90C0
:10341000BF907F906F905F904F9008950F931F9390
:10342000CF93DF93EC01888199812B813C81232B01
:10343000B9F09F3F11F48F3F99F0CE010E945807D9
:10344000882371F0688179818A810E94CE1F8C0166
:103450000E94281F0E94291EB801CE010E947517E4
:10346000DF91CF911F910F9108950E9475200E94C6
:1034700085200E9422200E9437260E94912580E00C
:1034800090E00E94AB1480E090E00C94C114809115
:103490000D0190910E010E948F210C94351A0E940B
:1034A00065200C94471AE92FE295EF70F0E032970F
:1034B000EE30F105B0F4E357FF4F0C94D031803F6C
:1034C00091F018F4803E68F40EC0843F51F40BC0B4
:1034D000803E48F0813F29F406C093FB882780F99D
:1034E000089580E0089581E008950E94C31F0E941E
:1034F000531A0895CF93DF9300D000D01F92CDB719
:10350000DEB70F900F900F900F900F90DF91CF913B
:103510000895CF93DF9300D000D000D0CDB7DEB7B1
:1035200026960FB6F894DEBF0FBECDBFDF91CF91C8
:1035300008951F93CF93DF93C091820116E080918D
:103540008301C81799F0D0E01C9FF0011D9FF00D7A
:103550001124EC57FE4F4081518162817381848137
:1035600095810E94891A2196C770E9CFDF91CF918A
:103570001F9108954091B4015091B5016091B60139
:103580007091B7018091B8019091B9010C94891A9A
:103590008091B90182958F7009F054C08091B60175
:1035A000882309F44FC080918201A091830160912A
:1035B000B4017091B5014091B7015091B801B6E0E6
:1035C0008A1709F43FC090E041155105C1F17F3FD2
:1035D00011F46F3FA1F1B89FF001B99FF00D1124D4
:1035E000EC57FE4F218172132AC02081621327C03D
:1035F0002281211124C0238134812417350710F43E
:1036000021503109241B350B283C3105C0F4209191
:10361000B9012F7020612093B90126E0289FF001A5
:10362000299FF00D1124E757FE4F80818F70806134
:10363000808384EB91E00E940E1A0C94991A0196F3
:103640008770BECF0895CF92DF92EF92FF920F93D3
:103650001F93CF93DF93CDB7DEB762970FB6F89481
:10366000DEBF0FBECDBF8C0185E0F801DE011D96E7
:1036700001900D928A95E1F7D8014C9111965C91D9
:10368000119712966C9112971396CD90DC90149727
:103690003091B4017091B5018091B7019091B8015A
:1036A000009709F46BC17F3F19F43F3F09F466C1ED
:1036B000E090B601EE2009F4C0C02091B901C8160F
:1036C000D90628F0F601E81BF90BCF0104C080955C
:1036D00090958C0D9D1DFF24F394883C910578F006
:1036E000F12C207F09F0C6C07C2DD98AC88A89892F
:1036F0000E947A1A84EB91E00E940E1AB1C0822FC8
:10370000807F09F046C0751314C0341312C06111D4
:1037100010C02F7020612093B9010E94BA1A84EB67
:1037200091E00E940E1A8091B901D80115968C93F0
:103730002EC0CD2819F15F3F11F44F3FF9F0F62E5E
:1037400061111CC0809182012091830136E08217B3
:1037500009F45AC090E0389FF001399FF00D112410
:10376000EC57FE4F7181571306C07081471303C099
:103770007281711103C001968770E9CFF62E66231E
:1037800009F427C18091B90181608093B901F12CBE
:1037900020C1751308C0341306C0611104C08091A4
:1037A000B901D801C3C04D875E878D859E856A8B20
:1037B0000E94751A6A898823E1F16623D1F120916C
:1037C000B901822F82958F7090E0029774F08091FA
:1037D000B4019091B50198878F831986DB86CA86DC
:1037E0002C87CE0107960E940E1A86E0F801A4EB02
:1037F000B1E001900D928A95E1F70E94C81A0E94EB
:10380000BA1AFF24F394E5C04D875E878D859E85A7
:103810000E94C31F292F22952F7030E022303105DE
:103820000CF0CBC09F7009F0C5C0805E883008F4F2
:10383000D0C0C8010E940E1AE4CFC816D90608F4F9
:1038400053C0F601E81BF90BCF01883C910508F441
:1038500050C0F12C7C2DD98AC88A89890E947A1A95
:10386000E4EBF1E086E0DF011D928A95E9F70E9422
:10387000BA1AAFC0751314C0341312C0611110C04E
:103880008091B901F8018583C8010E940E1A86E073
:10389000E4EBF1E0DF011D928A95E9F7FE2C99C077
:1038A0004D875E878D859E856A8B0E94751A6A8911
:1038B000882309F4BECF662309F4BBCF2091B90158
:1038C000822F82958F7090E002970CF48ECF8091BA
:1038D000B4019091B5019A8389831B82DD82CC82E9
:1038E0002E83CE0101967FCF809590958C0D9D1DE6
:1038F000ACCFF62E662309F49CCF75132EC034137B
:103900002CC02091B90120FD1FC0822F82958F709D
:10391000D9F0D80115962C9315978F3049F08F5F09
:10392000982F9295907F822F8F70892B15968C936C
:10393000C8010E940E1A86E0F801A4EBB1E00190E4
:103940000D928A95E1F793CF86E0F801A4EBB1E000
:1039500001900D928A95E1F73CC04D875E878D8579
:103960009E850E94751A811140CF8091B9018160B6
:103970008093B901C8010E940E1A2BC0662309F476
:1039800058CF4D875E878D859E850E94751AF82ECB
:10399000882309F44ECF86E0F801A4EBB1E0019052
:1039A0000D928A95E1F784EB91E00E94DB150E946D
:1039B000C81A5DCF811139CF0CC0243031050CF00D
:1039C00038CF9F7009F431CFF8019581907F09F0CD
:1039D0002CCF8F2D62960FB6F894DEBF0FBECDBFF1
:1039E000DF91CF911F910F91FF90EF90DF90CF90DB
:1039F00008951F93CF93DF93CDB7DEB72C970FB603
:103A0000F894DEBF0FBECDBF4F83588769877A8792
:103A10008B879C87CE0107960E94231B882369F021
:103A20008F8198852A853B85232BF1F19F3F09F0F3
:103A300063C08F3F09F060C037C086E0FE01379653
:103A4000DE01119601900D928A95E1F76F817885DC
:103A5000EA85FB85309741F17F3F11F46F3F21F1FB
:103A60002091830130E0C901019687709927409128
:103A7000820150E08417950709F447C069837A836F
:103A8000FD83EC8396E0929FD001939FB00D1124AB
:103A9000AC57BE4FFE01319601900D929A95E1F719
:103AA000809383010E94991A16E08091820190917F
:103AB00083018917C1F1189FC00111248C579E4FB3
:103AC0000E94231B882379F1E09182011E9FF0015F
:103AD0001124EC57FE4F40815181628173818481B2
:103AE00095810E94891A8091820190E001968770E9
:103AF000992780938201D9CF4F81588569857A852E
:103B00008B859C850E94891ACFCF0E944F1A1092F4
:103B1000830110928201E4EBF1E086E0DF011D9267
:103B20008A95E9F7C1CF2C960FB6F894DEBF0FBE89
:103B3000CDBFDF91CF911F910895EF92FF920F9328
:103B40001F93CF93DF938C01892B09F46CC0F12C68
:103B5000EE24E394E8012196F8018491843740F43F
:103B6000843008F051C0813081F0823019F15BC09F
:103B7000853709F444C0A8F19CE7980F903708F006
:103B800052C08F770E94FF1641C00E5F1F4FFE018B
:103B9000C49180E28C0F883048F4C7708E2D01C02C
:103BA000880FCA95EAF70E94782014C08C2F0E94D3
:103BB000E1152DC00E5F1F4FFE01C49180E28C0FF6
:103BC000883058F4C7708E2D01C0880FCA95EAF767
:103BD0000E947E200E9422201AC08C2F0E94FF1675
:103BE00016C00E5F1F4FFE01C491CC2381F08FE9F8
:103BF0009FE00197F1F700C00000C150F6CF0E5FC3
:103C00001F4FFE01F49003C00E94E1158E018F2D1D
:103C1000882309F49FCFEFE9FFE03197F1F700C067
:103C200000008150F5CFDF91CF911F910F91FF9050
:103C3000EF90089508950C941A1E0E941B1E609325
:103C4000EB017093EC018093ED019093EE010C94E5
:103C5000351A08950C941D1E0F931F930091EB01CC
:103C60001091EC012091ED013091EE01602B712B50
:103C7000822B932B1F910F910C941D1E0F931F935A
:103C80000091EB011091EC012091ED013091EE01DA
:103C900060237123822393231F910F910C941D1E87
:103CA0000F931F930091EB011091EC012091ED0116
:103CB0003091EE0160277127822793271F910F9182
:103CC0000C941D1E08950C94621E0E94631E609346
:103CD000E7017093E8018093E9019093EA010C9465
:103CE000351A60E070E0CB010C94651E0F931F93B2
:103CF00041E050E060E070E08A019B0104C0000FE9
:103D0000111F221F331F8A95D2F7C901B8011F91D5
:103D10000F910C94651E0F931F9341E050E060E0FB
:103D200070E004C0440F551F661F771F8A95D2F7B5
:103D30008091E7019091E801A091E901B091EA0139
:103D40008A019B01082B192B2A2B3B2BC901B80197
:103D50001F910F910C94651E0F931F9341E050E04B
:103D600060E070E004C0440F551F661F771F8A95FE
:103D7000D2F740955095609570958091E7019091AC
:103D8000E801A091E901B091EA018A019B010823B1
:103D900019232A233B23C901B8011F910F910C94C9
:103DA000651E0F931F9341E050E060E070E004C097
:103DB000440F551F661F771F8A95D2F78091E70140
:103DC0009091E801A091E901B091EA018A019B017B
:103DD000082719272A273B27C901B8011F910F91EE
:103DE0000C94651E0F931F930091E7011091E80159
:103DF0002091E9013091EA01602B712B822B932BEA
:103E00001F910F910C94651E0F931F930091E70172
:103E10001091E8012091E9013091EA0160237123BA
:103E2000822393231F910F910C94651E0F931F9370
:103E30000091E7011091E8012091E9013091EA0138
:103E400060277127822793271F910F910C94651E7D
:103E500008952EE0929F800D1124A82FA695A69577
:103E6000A695877051E001C0550F8A95EAF785E065
:103E7000A89FD001112420E030E070E0F901EA0FA2
:103E8000FB1FE654FE4F4081CB01022E02C09695E7
:103E900087950A94E2F78170992781958427852375
:103EA000842780832F5F3F4F2530310539F70895F0
:103EB0002EE0929F800D1124682F66956695669579
:103EC000982F977085E0689FB001112440E050E082
:103ED00080E0FA01E60FF71FE654FE4F208130E044
:103EE000092E02C0369527950A94E2F721703327F0
:103EF000042E01C0220F0A94EAF7822B4F5F5F4F16
:103F00004530510531F70895CF92DF92EF92FF923D
:103F10000F931F93CF93DF938C01C090EB01D09050
:103F2000EC01E090ED01F090EE018091E7019091BD
:103F3000E801A091E901B091EA01C82AD92AEA2A48
:103F4000FB2ACFE1D0E0D701C6010C2E04C0B69504
:103F5000A795979587950A94D2F780FF06C0B80178
:103F60008C2F0E94F109019721F4219760F780E0DE
:103F700001C08C2FDF91CF911F910F91FF90EF9097
:103F8000DF90CF900895CF93DF93EC010E94841FC0
:103F9000BE010E94F109DF91CF9108951F93CF9345
:103FA000DF93EB0190918101992321F0CB010E94D5
:103FB000C31F13C0882349F0CB010E94841F182F10
:103FC000682FCE010E94291F04C0CB010E94581FF8
:103FD000182FBE01812F0E94F109DF91CF911F910F
:103FE00008958091EF018595859585950895809137
:103FF000EF018770089598E0899F90011124262B86
:104000002093EF010C948B1E2091EF018095822369
:104010008093EF01982F977069F430E0482F082EB5
:10402000000C550B2417350729F085958595859546
:104030000C94AC1E08959091EF01977081E009F403
:1040400080E00895E0910D01F0910E01809113023E
:104050008083E0910D01F0910E0190818091120218
:10406000892B8083E0910D01F0910E019081809168
:104070001102892B80838091F001882381F0E091E7
:104080000D01F0910E019081892B808380910D01AB
:1040900090910E010E94142181111092F0018091E3
:1040A0000D0190910E010C948314809113020895D8
:1040B00090911302892B809313020895809590911B
:1040C0001302892380931302089510921302089516
:1040D00090911202892B80931202089580959091FD
:1040E00012028923809312020895109212020895F9
:1040F00090911102892B80931102089580959091DF
:1041000011028923809311020895109211020895DB
:104110008093F00108951092F00108958091F001CC
:10412000089580E090E00E940B3221E08D3E9E4F8A
:1041300009F020E0822F089582E090E00C94FD3198
:10414000682F82E090E00C94113283E090E00C94B0
:10415000FD31682F83E090E00C94113284E090E010
:104160000C94FD31682F84E090E00C94113286E0CD
:1041700090E00C94FD31682F86E090E00C941132B1
:10418000AB01BC018FE090E00C942332AB01BC0189
:1041900083E190E00C94233260E070E0CB010C945A
:1041A000C62060E070E0CB010E94C0200C94CC20BF
:1041B0006DEE7EEF80E090E00E942F3260E082E0C2
:1041C00090E00E94113260E083E090E00E941132A2
:1041D0001092EB011092EC011092ED011092EE01A1
:1041E00060E084E090E00E94113260E085E090E0C1
:1041F0000E94113260E086E090E00E9411326FEF81
:1042000087E090E00E94113240E050E0BA0188E07F
:1042100090E00E94233260E08DE090E00E94113235
:104220000C94D1200C94D820FC01329680911F016F
:10423000882331F08091780287FF02C09EE101C09F
:1042400096E080E0915028F021912223D9F38F5FEE
:10425000F9CF08959C01FC0132969FEF80E04191D7
:10426000461789F09F3F19F4411101C0982F8F5FC5
:104270008630A9F79F3F39F0F901E90FF11D97FD4D
:10428000FA95628308950895FC013296089620817C
:10429000261301C010823196E817F907C1F7089577
:1042A000262F2695269526952E3168F4FC01E20FDF
:1042B000F11D677021E030E001C0220F6A95EAF736
:1042C0008281282B22830895262F269526952695D0
:1042D0002E3170F4FC01E20FF11D677021E030E037
:1042E00001C0220F6A95EAF7209582812823228354
:1042F000089520911F01222329F02091780227FDA3
:104300000C9450210C942A2120911F01222329F082
:104310002091780227FD0C9464210C944421209173
:104320001F01FC013296222331F08091780287FF31
:1043300002C08EE101C086E0DF011D928A95E9F797
:10434000089508950C94A1210E94A22180917F02DA
:10435000843061F11092150220E488E190E00FB6FC
:10436000F894A895809360000FBE2093600080E0D1
:104370000E94CE0680E00E9446070E94A22183B7D9
:10438000817F846083BF83B7816083BF7894889581
:1043900083B78E7F83BF0FB6F894A8958091600095
:1043A000886180936000109260000FBE08950895A8
:1043B0000895CF930E94D7210E94CF0C0E94D8214C
:1043C000C0E08C2F0E94670D892B29F4CF5FC53088
:1043D000C1F780E001C081E0CF91089508950C9469
:1043E000EE210E944F1A0E9443260E9477140E94D9
:1043F00046070C94EF211F920F920FB60F921124D3
:104400008F939F93AF93BF9380911502811113C037
:104410008091740290917502A0917602B09177021A
:104420004196A11DB11D8093740290937502A093D3
:104430007602B0937702BF91AF919F918F910F90C9
:104440000FBE0F901F90189582E084BD93E095BD3C
:104450009AEF97BD80936E0008952FB7F8948091DE
:10446000740290917502A0917602B09177022FBFED
:104470000895CF92DF92EF92FF920F931F932FB781
:10448000F894409174025091750260917602709197
:1044900077022FBF6A017B01EE24FF248C0120E00C
:1044A00030E0C016D106E206F30610F4415051097F
:1044B0009A01281B390BC9011F910F91FF90EF90B2
:1044C000DF90CF90089578941F920F920FB60F92BD
:1044D00011248F939F93AF93BF9380917402909117
:1044E0007502A0917602B09177020196A11DB11DCF
:1044F0008093740290937502A0937602B093770232
:10450000BF91AF919F918F910F900FBE0F901F9011
:10451000189581E08093E00080E28093D8001092AB
:10452000C9008FE19EE40197F1F700C0000087E029
:1045300090EBDC018093880290938902A0938A0219
:10454000B0938B029CE088E10FB6F894A895809315
:1045500060000FBE90936000FFCFAF92BF92CF92EA
:10456000DF92EF92FF920F931F93CF93C0E0CC2482
:10457000C394D12CE82EF12C8C2F0E94670D5C0186
:1045800000E010E09601002E02C0220F331F0A94B3
:10459000E2F72A213B21232B31F40F5F1F4F0E300E
:1045A000110581F70AC0602F7C2F80E00E94D70997
:1045B000E816F90691F781E004C0CF5FC530E1F657
:1045C00080E0CF911F910F91FF90EF90DF90CF90FF
:1045D000BF90AF900895CF93C82F8CE20E94AD2278
:1045E000882321F08C2FCF910C94AD2280E0CF91C5
:1045F0000895CF930E949120811102C00E94122140
:10460000C5E6C15049F00E94CF0C8FE39CE90197A9
:10461000F1F700C00000F5CF89E20E94EB22811182
:104620000FC18AE20E94EB2281110E94122185E0D3
:104630000E94EB2281110E9489220E949C2080937B
:10464000140287E00E94EB228823A9F18BE10E94EB
:10465000EB22882351F08091140281FB222720F95C
:1046600091E0922790FB81F90EC08EE00E94EB2230
:10467000882361F08091140282FB222720F991E0C7
:10468000922790FB82F98093140215C080E10E946A
:10469000EB2290911402882341F093FB222720F90A
:1046A00081E0822780FB93F904C0892F809580FBED
:1046B00090F990931402809114020E94A0200E940D
:1046C000AE2090E0909379028093780280EE0E9471
:1046D000EB22882341F080917802982F909590FBEF
:1046E00080F98093780289E30E94EB22882359F0B5
:1046F0008091780281FB222720F991E0922790FB9C
:1047000081F98093780282EE0E94EB22882359F08F
:104710008091780282FB222720F991E0922790FB7A
:1047200082F98093780286EE0E94EB22882359F06A
:104730008091780283FB222720F991E0922790FB59
:1047400083F98093780283EE0E94EB22882359F04C
:104750008091780284FB222720F991E0922790FB38
:1047600084F98093780285E30E94EB22882359F034
:104770008091780285FB222720F991E0922790FB17
:1047800085F98093780281E30E94EB22882359F017
:104790008091780286FB222720F991E0922790FBF6
:1047A00086F98093780281E10E94EB22882359F0F8
:1047B0008091780287FB222720F991E0922790FBD5
:1047C00087F980937802809178020E94B22087E274
:1047D0000E94EB22C82F8EE10E94EB228111C26061
:1047E0008FE10E94EB228111C46080E20E94EB22E3
:1047F0008111C86081E20E94EB228111C06182E2D6
:104800000E94EB228111C06283E20E94EB2281119F
:10481000C06484E20E94EB22882311F0C06802C0C9
:10482000CC2329F08C2F0E94A9206C2F03C00E945A
:10483000A520682F70E080E090E0CF910C942A1EB4
:10484000CF9108958091180280FF0BC060911201F2
:1048500085E0689FB00111247595679575956795FA
:104860002BC081FF09C06091120185E0689FB001F3
:1048700011247595679520C082FF07C060911201D1
:1048800085E0689FB001112417C090911902992307
:10489000D1F060911101961788F72091120185E0FF
:1048A000289F90011124929FA001939F500D1124E5
:1048B00070E0CA010E949A316038710540F46115B8
:1048C000710539F002C065E070E0862F08958FE72A
:1048D000089581E008958091180280FF08C06091DA
:1048E000100170E0759567957595679521C081FFFA
:1048F00006C06091100170E07595679519C082FF40
:1049000004C06091100170E010C0909119029923C9
:10491000C1F060910F019617A0F780911001899F57
:10492000C001112470E00E949A316038710528F4AA
:104930006115710521F0862F08958FE7089581E0B4
:10494000089561E070E0F4CF803F21F40E942224BA
:10495000819504C0813F29F40E94222480931D0286
:104960000895823F21F40E942224819504C0833F50
:1049700029F40E94222480931C020895893F19F48F
:104980000E946B2405C08A3F31F40E946B248195FC
:1049900080931E0208958B3F21F40E946B24819521
:1049A00004C08C3F29F40E946B2480931F02089559
:1049B000843F21F480911B02816017C0853F21F460
:1049C00080911B02826011C0863F21F480911B02FE
:1049D00084600BC0873F21F480911B02886005C072
:1049E000883F31F480911B02806180931B020895FF
:1049F0008D3F21F48091180281600BC08E3F21F41D
:104A000080911802826005C08F3F29F480911802BE
:104A10008460809318020895803F39F480911D02CC
:104A200087FF6CC010921D0269C0813F29F48091FC
:104A30001D021816BCF362C090911C02823F29F43B
:104A400097FF5CC010921C0259C0833F19F41916DD
:104A5000CCF354C0893F41F480911E0218160CF02B
:104A60004DC010921E024AC08A3F29F480911E0256
:104A700087FF44C0F6CF8B3F39F480911F0287FF38
:104A80003DC010921F023AC08C3F29F480911F0252
:104A90001816BCF333C0843F21F480911B028E7F33
:104AA00017C0853F21F480911B028D7F11C0863F86
:104AB00021F480911B028B7F0BC0873F21F48091F2
:104AC0001B02877F05C0883F31F480911B028F7ED7
:104AD00080931B0213C08D3F21F4809118028E7FBA
:104AE0000BC08E3F21F4809118028D7F05C08F3F4F
:104AF00029F4809118028B7F8093180280911C0208
:104B000081110EC080911D0281110AC080911E0288
:104B1000811106C080911F02811102C010921902FA
:104B200008958AE192E00E949D140E942D229093A4
:104B300017028093160208951F93CF93DF938091FD
:104B40001602909117020E943922AC01909119022D
:104B5000992321F02091130130E006C02091140127
:104B60008AE0289F900111244217530708F47BC064
:104B700080911C02C0911D02D0911E0210911F0253
:104B8000811107C0C1116BC0D11169C0111167C07B
:104B90006AC09F3F19F09F5F90931902181624F482
:104BA0000E94222480931C0280911C0287FF05C072
:104BB0000E942224819580931C021C1624F40E94DA
:104BC000222480931D0280911D0287FF05C00E9450
:104BD0002224819580931D0230911C023323E1F041
:104BE00020911D022223C1F045EB3403C0011124A2
:104BF000892F990F990B009709F481E080931C028B
:104C000035EB2303C0011124892F990F990B0097CD
:104C100009F481E080931D021D1624F40E946B2488
:104C200080931E0280911E0287FF05C00E946B24A4
:104C3000819580931E02111624F40E946B248093A8
:104C40001F0280911F0287FF05C00E946B2481957F
:104C500080931F02DF91CF911F910C9491259F3F6C
:104C600009F099CFA1CFDF91CF911F910895EAE18B
:104C7000F2E086E0DF011D928A95E9F710921902B1
:104C80001092180208950E949120811102C00E9482
:104C900012210E94B72080937A02282F269530E0B7
:104CA0002430310524F08170866080937A028091EF
:104CB0007A0280FF02C0869501C080E00C94CE0687
:104CC00020917A02822F8695482F50E0433051057B
:104CD00044F48F5F982F990F822F8170892B8093D6
:104CE0007A0280917A02816080937A020E94BB20CE
:104CF00080917A0286950C94CE0680917A02982F44
:104D0000969591F09158990F8170892B80937A0232
:104D10008E7F91E009F490E080917A0290FB80F917
:104D200080937A020E94BB2080917A0286950C942F
:104D3000CE0680917A0280FD11C0816080937A0254
:104D4000813019F483E080937A0280917A020E9484
:104D5000BB2080917A0286950C94CE0608958091AE
:104D60007A0280FF08C08E7F80937A020E94BB2067
:104D700080E00C94CE06089580917A0280FD0C9418
:104D8000AF260C94992690917A02892F86958F5F91
:104D90008F779170843028F4880F892B80937A0262
:104DA00002C090937A0280917A028E7F91E009F49A
:104DB00090E080917A0290FB80F980937A020E94C1
:104DC000BB2080917A0286950C94CE06843008F040
:104DD00083E0880F90917A029170892B80937A02F8
:104DE0008E7F91E009F490E080917A0290FB80F947
:104DF00080937A020E94BB2080917A0286950C945F
:104E0000CE068091400208950F931F93CF93DF93B6
:104E100000D01F92CDB7DEB78C010E94742982307A
:104E200011F0843021F584E089831B830A8382E0BA
:104E30008093E9008FEF9091E800815095FD06C0C6
:104E400095ED9A95F1F700008111F5CF8091E8007A
:104E500085FF0DC040E050E063E070E0CE010196B8
:104E60000E9491298091E8008E778093E8000F904E
:104E70000F900F90DF91CF911F910F910895CF93D5
:104E8000DF9300D01F92CDB7DEB720917F02243090
:104E900031F523E02983805891099B838A8382E03E
:104EA0008093E9008FEF9091E800815095FD06C056
:104EB00095ED9A95F1F700008111F5CF8091E8000A
:104EC00085FF0DC040E050E063E070E0CE01019648
:104ED0000E9491298091E8008E778093E8000F90DE
:104EE0000F900F90DF91CF910895CF93DF93EC0156
:104EF0000E947429823011F08430F9F482E08093AA
:104F0000E9009FEF8091E800915085FD06C085ED96
:104F10008A95F1F700009111F5CF8091E80085FFA7
:104F20000CC040E050E066E070E0CE010E949129A4
:104F30008091E8008E778093E800DF91CF9108950B
:104F4000CF93DF93EC010E947429823011F08430FA
:104F5000D9F580911F01882339F08091780287FF6D
:104F600003C060E282E002C068E081E08093E90073
:104F70008FEF9091E800815095FD06C095ED9A95D0
:104F8000F1F700008111F5CF8091E80085FF1CC08A
:104F900080911F01811105C040E050E068E070E0A1
:104FA00003C070E040E050E0CE010E949129809162
:104FB000E8008E778093E80080E2FE01A0E2B2E094
:104FC00001900D928A95E1F7DF91CF91089580913C
:104FD0007E02811109C00E94262B0E94832B8091A2
:104FE000E20084608093E200089510927E020895AA
:104FF000089508950C94F12142E061EC81E00E9453
:10500000A02A42E261EC82E00C94A02A8091810205
:10501000833009F460C030F4813071F0823009F4DB
:1050200099C008958A3009F485C08B3009F46BC0AB
:10503000893009F0A7C020C080918002813A09F030
:10504000A1C08091E800877F8093E800809184026E
:1050500090918502892B21F460E280E292E003C006
:1050600060E080E090E070E00E94DC298091E80040
:105070008B778093E800089580918002813209F057
:1050800081C08091840290918502029708F07AC0D5
:105090008091E800877F8093E8008091E80082FD9E
:1050A00005C080917F028111F8CF6CC02091F30080
:1050B0008091F20090E0922B029729F48091F10008
:1050C0008B7F813021F48091F100809340028091A8
:1050D000E8008B7753C080918002813A09F052C07A
:1050E0008091840290918502892B09F04BC08091B8
:1050F000E800877F8093E8008091E80080FFFCCF84
:1051000080911F0136C0809180028132D9F5809153
:10511000840290918502892BA9F58091E800877F10
:105120008093E8000E94D52A8091820280931F011B
:105130000C944F1A80918002813221F58091E80011
:10514000877F8093E8000E94D52A80918302809314
:105150004102089580918002813AA1F48091E80093
:10516000877F8093E8008091E80080FFFCCF8091EA
:1051700041028093F1008091E8008E778093E800EF
:105180000C94D52A089584B7877F84BF0FB6F8940E
:10519000A895809160008861809360001092600003
:1051A0000FBE80E880936100109261000E94DF14BE
:1051B0000E94262B0E94832B8091E20084608093C2
:1051C000E20078940E94122E0E94E51485E191E09D
:1051D0000E94721480917F02853069F40E94A4219C
:1051E00080917D028823B1F30E94D921882391F315
:1051F0000E947B29EFCF0E94EF140E94FD13EACF9B
:105200000C940229292F332723303105C9F064F487
:105210002130310581F02230310509F04CC08BE39B
:1052200090E024E93BE04BC02132310521F12232EC
:10523000310589F140C082E190E02FEC3BE03FC0B6
:1052400099278130910571F02CF4892BA1F5E0E9C3
:10525000FBE00DC08230910541F0039761F5ECE66B
:10526000FBE005C0E0E8FBE002C0E2E7FBE0849180
:1052700090E09F0124C06115710541F06130710516
:10528000D1F489E090E02FEB3BE019C089E090E099
:1052900026EA3BE014C06115710541F061307105EB
:1052A00051F480EC90E021EE3BE009C080E490E016
:1052B00021EA3CE004C080E090E020E030E0FA0128
:1052C0003183208308950895CF93C82F0E946329C6
:1052D000C0934202CF91089580917F02843011F0F3
:1052E00081E0089582E0089580914202811102C018
:1052F0000C946C29089580E189BD82E189BD09B4CF
:1053000000FEFDCF8091D8008F7D8093D8008091E2
:10531000E00082608093E0008091E00081FDFCCF9E
:105320000895CF92DF92EF92FF920F931F93CF9346
:10533000DF93EC018B016A010E94F42A811133C0D2
:10534000C114D10439F0F60180819181081B190B39
:10535000C80FD91FE12CF12C0115110519F180910D
:10536000E80085FD16C08091E8008E778093E80004
:10537000C114D10449F0F60180819181E80EF91E33
:10538000F182E08285E00FC00E94F42A882321F395
:105390000AC089918093F10001501109FFEFEF1AC3
:1053A000FF0ADACF80E0DF91CF911F910F91FF903C
:1053B000EF90DF90CF900895209186023091870280
:1053C0002617370748F06115710539F42091E80078
:1053D0002E772093E80001C0B90140E06115710506
:1053E000A9F120917F02222309F443C0253009F45A
:1053F00042C02091E80023FD40C02091E80022FD3A
:1054000032C02091E80020FFE9CF4091F3002091C5
:10541000F20030E0342BFC01CF016115710559F029
:105420002830310540F481918093F1006150710979
:105430002F5F3F4FF1CF41E02830310509F040E0C8
:105440002091E8002E772093E800C8CF4111C9CF02
:105450000AC080917F02882361F0853061F08091DD
:10546000E80083FD0AC08091E80082FFF2CF80E06F
:10547000089582E0089583E0089581E008952091E1
:105480008602309187022617370748F061157105AB
:1054900039F42091E8002E772093E80001C0B9018B
:1054A000FC0120E06115710591F180917F02882354
:1054B00009F440C0853009F43FC08091E80083FDC5
:1054C0003DC08091E80082FD2FC08091E80080FF00
:1054D000E9CF2091F3008091F20090E0922B6115CA
:1054E000710559F08830910540F424912093F10022
:1054F0003196615071090196F2CF21E0089709F0C9
:1055000020E08091E8008E778093E800CBCF2111D6
:10551000CCCF0AC080917F02882361F0853061F092
:105520008091E80083FD0AC08091E80082FFF2CFFD
:1055300080E0089582E0089583E0089581E0089571
:10554000982F973058F59093E900981739F070919B
:10555000EC002091ED005091F00003C0242F762F35
:1055600050E021FF19C03091EB003E7F3093EB00FB
:105570003091ED003D7F3093ED003091EB003160D4
:105580003093EB007093EC002093ED005093F0000B
:105590002091EE0027FF07C09F5FD3CF8F708093CD
:1055A000E90081E0089580E008958091800287FFFE
:1055B00011C08091E80082FD05C080917F028111B9
:1055C000F8CF11C08091E8008B770BC080917F02EB
:1055D000882349F08091E80080FFF8CF8091E800AF
:1055E0008E778093E80008952091E4003091E500E3
:1055F00095E64091EC00842F817040FF22C080919D
:10560000E80080FD1CC080917F02882391F08530E6
:1056100091F08091EB0085FD10C04091E400509125
:10562000E5004217530729F39A01915011F784E0DE
:10563000089582E0089583E0089581E0089580E070
:1056400008954091E80042FFDECF08950E94942B18
:105650000E949C2BE0EEF0E0808181608083E8ED89
:10566000F0E080818F77808319BCA7EDB0E08C914A
:105670008E7F8C9380818F7E808310927E0208952E
:105680000F931F93CF93DF930E94942B0E949C2B28
:10569000C8EDD0E088818F7788838881806888838F
:1056A00088818F7D888319BC10927F0210927B02C3
:1056B00010927D0210927C0200EE10E0F8018081D1
:1056C0008B7F808388818160888342E060E080E016
:1056D0000E94A02AE1EEF0E080818E7F8083E2EEDE
:1056E000F0E0808181608083808188608083F80120
:1056F00080818E7F8083888180618883DF91CF91D4
:105700001F910F910895E8EDF0E080818F7E8083F6
:10571000E7EDF0E080818160808384E082BF81E0FA
:1057200080937E020C94402BE8EDF0E080818E7F28
:1057300080831092E20008951092DA001092E10046
:1057400008951F920F920FB60F9211242F933F933B
:105750004F935F936F937F938F939F93AF93BF9379
:10576000EF93FF938091E10082FF0BC08091E200F4
:1057700082FF07C08091E1008B7F8093E1000E944F
:10578000112E8091DA0080FF1FC08091D80080FF29
:105790001BC08091DA008E7F8093DA008091D9005F
:1057A00080FF0DC080E189BD82E189BD09B400FEA2
:1057B000FDCF81E080937F020E94E72705C019BCDE
:1057C00010927F020E94F5278091E10080FF19C0AE
:1057D0008091E20080FF15C08091E2008E7F80936F
:1057E000E2008091E20080618093E2008091D80025
:1057F00080628093D80019BC85E080937F020E946C
:10580000F9278091E10084FF30C08091E20084FF9D
:105810002CC080E189BD82E189BD09B400FEFDCFC5
:105820008091D8008F7D8093D8008091E1008F7E99
:105830008093E1008091E2008F7E8093E20080916E
:10584000E20081608093E20080917B02882311F066
:1058500084E007C08091E30087FD02C081E001C0C1
:1058600083E080937F020E94FA278091E10083FF0A
:1058700029C08091E20083FF25C08091E100877FED
:105880008093E10082E080937F0210927B028091FE
:10589000E1008E7F8093E1008091E2008E7F809313
:1058A000E2008091E20080618093E20042E060E0EB
:1058B00080E00E94A02A8091F00088608093F00030
:1058C0000E94F827FF91EF91BF91AF919F918F9127
:1058D0007F916F915F914F913F912F910F900FBEEC
:1058E0000F901F9018951F920F920FB60F921124D0
:1058F0002F933F934F935F936F937F938F939F93D8
:10590000AF93BF93CF93DF93EF93FF93C091E900E1
:10591000CF708091EC00D82FD17080FDD0E810922C
:10592000E9008091F000877F8093F00078940E94D6
:10593000B72C1092E9008091F00088608093F0000D
:10594000CD2BCF70C093E900FF91EF91DF91CF9104
:10595000BF91AF919F918F917F916F915F914F9187
:105960003F912F910F900FBE0F901F9018951F938E
:10597000CF93DF93CDB7DEB7AA970FB6F894DEBF0B
:105980000FBECDBFE0E8F2E088E08E0F9091F1000D
:1059900091938E13FBCF0E9406288091E80083FF2D
:1059A00028C18091800290918102492F50E04A30B5
:1059B000510508F01EC1FA01E556FF4F0C94D03195
:1059C000803821F0823809F014C108C080917C022F
:1059D00090917D02992389F082600FC080918402AA
:1059E0008F70873008F005C18093E9008091EB004B
:1059F00085FB882780F91092E9009091E800977F55
:105A00009093E8008093F1001092F100D0C0282F0D
:105A10002D7F09F0EEC0882319F0823061F0E9C0D3
:105A200080918202813009F0E4C0933009F080E077
:105A300080937D022EC08091820281112AC08091C4
:105A400084028F702FEF280F263008F0D2C0809389
:105A5000E9002091EB0020FF1CC0933021F48091DD
:105A6000EB00806214C09091EB0090619093EB008A
:105A700021E030E0A90102C0440F551F8A95E2F7EA
:105A80004093EA001092EA008091EB0088608093D6
:105A9000EB001092E9008091E800877F8093E80096
:105AA0000E94D52AA6C08111A4C0109182021F773E
:105AB0008091E3008078812B8093E3008091E8005F
:105AC000877F8093E8000E94D52A8091E80080FFBC
:105AD000FCCF8091E30080688093E300111102C045
