:100000000C943D060C9484060C9484060C9484068F
:100010000C9484060C9484060C9484060C94840638
:100020000C9484060C9484060C946B2E0C943D2F37
:100030000C945A270C9484060C9484060C94840621
:100040000C9484060C9484060C9484060C94840608
:100050000C94E1160C94A7270C9484060C94840647
:100060000C9484060C9484060C9484060C948406E8
:100070000C9484060C9484060C9484060C948406D8
:100080000C9484060C9484060C9484060C948406C8
:100090000C9484060C9484060C9484060C948406B8
:1000A0000C9484060C9484060C9484063F14421429
:1000B0004A144F14541459145E14631468146D14C4
:1000C0007214771479147C147F14821485148814A4
:1000D0008A148F1449164B16501653165616591675
:1000E0005C16F91CF91C2B1D2B1D781D9F1E9F1ED5
:1000F0009F1E961D2F1E401E401E3B1F3B1F4D1F67
:100100004D1F441F4D1F4D1F4D1F3B1F3B1F491FC0
:100110004D1F4D1F491FAA2FD12FC930D12FC930D4
:100120001D304030C9309730A63029001E001F0016
:1001300020002100220023002400250026002700A3
:100140002D002E0031002B0014001A0008001500AD
:1001500017001C0018000C00120013002F003000C4
:100160002A00E00004001600070009000A000B0046
:100170000D000E000F003300340028000000E500E1
:100180001D001B00060019000500110010003600BC
:1001900037003800E50002510000E200E200E30011
:1001A0000000000000002C43000000000000E300FD
:1001B000E200E6003541005C0100010001000100A1
:1001C0000100010001000100010001000100010027
:1001D00001000100C25CC35CC55CC65CC75CC85C56
:1001E000C95CCA5C01000100A600A7000100010073
:1001F00001000100010001000100010001000100F7
:1002000001000100010001000000010001000100E7
:10021000BD5CBF5CBE5CC05C010001000100010070
:1002200001000100000001000100010000000000C9
:1002300000000100000000000000010001000100BA
:1002400001002C053A003B003C003D003E003F0011
:10025000400041004200430044004500000000000F
:10026000AC00AB00AE000000000000000000000089
:10027000000000000000000000000000AA00A9002B
:10028000A8000000000000000000000000000000C6
:10029000000000000000000000000000000000005E
:1002A000000000000000000000000000000001004D
:1002B000000000000000000000000000000000003E
:1002C0000000000000000000000000004C000000E2
:1002D0000000000000003D040000000000000000DD
:1002E00000000000000000000000000000001A01F3
:1002F00000000000170300004B0052004E000000F9
:1003000000000000000000000401160A00000000C8
:1003100000000000500051004F00000000000000ED
:100320000000000000001B01060119010000000090
:1003300000004A004D000000000000000000000026
:1003400000000000000000000000000000000000AD
:1003500000000000000000004C0044454255473AB0
:100360002064697361626C65642E0A0044454255DD
:10037000473A20656E61626C65642E0A000A0025AA
:1003800030313662003A200025303258000A722F90
:1003900063203031323334353637383941424344C3
:1003A00045460A007267626C696768742074696DFB
:1003B00065722064697361626C652E0A00726762FF
:1003C0006C696768742074696D657220656E61621E
:1003D0006C65642E0A007267626C696768742073CA
:1003E000657420687376205B4E4F454550524F4DE3
:1003F0005D3A2025752C25752C25750A00726762DB
:100400006C696768742073657420687376205B4537
:100410004550524F4D5D3A2025752C25752C25757C
:100420000A007267626C69676874207261696E6243
:100430006F7720736574206873763A2025642C25C5
:10044000642C25642C25750A007267626C696768E4
:10045000742064697361626C65205B4E4F45455042
:10046000524F4D5D3A207267626C696768745F63D2
:100470006F6E6669672E656E61626C65203D202532
:10048000750A007267626C696768742064697361D9
:10049000626C65205B454550524F4D5D3A20726756
:1004A000626C696768745F636F6E6669672E656EFC
:1004B00061626C65203D2025750A007267626C6977
:1004C00067687420656E61626C65205B4E4F4545C0
:1004D00050524F4D5D3A207267626C696768745F75
:1004E000636F6E6669672E656E61626C65203D2084
:1004F00025750A007267626C6967687420656E61B1
:10050000626C65205B454550524F4D5D3A207267E5
:10051000626C696768745F636F6E6669672E656E8B
:1005200061626C65203D2025750A007267626C6906
:1005300067687420746F67676C65205B454550522F
:100540004F4D5D3A207267626C696768745F636FD4
:100550006E6669672E656E61626C65203D2025754B
:100560000A007267626C69676874206D6F64652049
:100570005B4E4F454550524F4D5D3A2025750A0060
:100580007267626C69676874206D6F6465205B4593
:100590004550524F4D5D3A2025750A007267626CD6
:1005A000696768745F696E6974207267626C6967F5
:1005B00068745F636F6E6669672E6D6F6465203D5A
:1005C00020302E2057726974652064656661756CF1
:1005D000742076616C75657320746F2045455052A8
:1005E0004F4D2E0A007267626C696768745F696EAE
:1005F0006974206565636F6E666967206973206E34
:100600006F7420656E61626C65642E0A00726762A9
:100610006C696768745F696E697420737461727461
:10062000210A007267626C696768745F696E697439
:100630002063616C6C65642E0A007267626C696786
:1006400068745F636F6E6669672E7370656564209A
:100650003D2025640A007267626C696768745F6395
:100660006F6E6669672E76616C203D2025640A00F6
:100670007267626C696768745F636F6E6669672E24
:10068000736174203D2025640A007267626C69679B
:1006900068745F636F6E6669672E687565203D20BC
:1006A00025640A007267686C696768745F636F6EBF
:1006B0006669672E6D6F6465203D2025640A0072AF
:1006C00067626C696768745F636F6E6669672E65E1
:1006D0006E61626C65203D2025640A007267626C61
:1006E000696768745F636F6E66696720454550523D
:1006F0004F4D3A0A0032190A00047F3F1F6432143A
:10070000643214783C1E1E140A052223252628294B
:100710002A2C2D2F3032333536383A3B3D3E40427D
:10072000434547494A4C4E5051535557595A5C5EC0
:100730006062646668696B6D6F71737577797B7DD4
:100740007F81838587898A8C8E90929496989A9CD3
:100750009E9FA1A3A5A7A8AAACAEAFB1B3B4B6B8EB
:10076000B9BBBCBEBFC1C2C3C5C6C7C9CACBCCCD4D
:10077000CED0D1D2D2D3D4D5D6D7D7D8D9D9DADA28
:10078000DBDBDBDCDCDCDCDCDDDDDDDDDCDCDCDCA8
:10079000DCDBDBDBDADAD9D9D8D7D7D6D5D4D3D2DC
:1007A000D2D1D0CECDCCCBCAC9C7C6C5C3C2C1BFBA
:1007B000BEBCBBB9B8B6B4B3B1AFAEACAAA8A7A51E
:1007C000A3A19F9E9C9A98969492908E8C8A8987DA
:1007D0008583817F7D7B79777573716F6D6B6968B8
:1007E000666462605E5C5A5957555351504E4C4A8C
:1007F0004947454342403E3D3B3A38363533323037
:100800002F2D2C2A292826252322FFAA7F55406236
:1008100061636B6C69676874206272656174686992
:100820006E672064697361626C650A006261636B64
:100830006C6967687420627265617468696E6720AC
:10084000656E61626C650A006261636B6C69676802
:100850007420627265617468696E6720746F67677F
:100860006C653A2025750A006261636B6C69676884
:100870007420737465703A2025750A006261636B99
:100880006C696768742064697361626C650A0062F0
:1008900061636B6C6967687420656E61626C650A80
:1008A000006261636B6C6967687420746F67676C62
:1008B000653A2025750A006261636B6C696768742C
:1008C0002064656372656173653A2025750A00626C
:1008D00061636B6C6967687420696E6372656173CC
:1008E000653A2025750A00000000000000000000A5
:1008F000000001010203040506080A0C0F11141878
:100900001C2024292E33393F464C535B626A71798F
:10091000818A929AA2AAB2B9C1C8CFD5DCE1E7EB2D
:10092000F0F4F7FAFCFDFEFFFEFDFCFAF7F4F0EB45
:10093000E7E1DCD5CFC8C1B9B2AAA29A928A81797F
:10094000716A625B534C463F39332E2924201C18B0
:1009500014110F0C0A08060504030201010000002F
:10096000000000000000000001010101010101017F
:100970000102020202020202020203030303030352
:100980000303040404040404040505050505060620
:1009900006060607070707070808080809090909DE
:1009A0000A0A0A0B0B0B0C0C0C0D0D0D0E0E0E0F84
:1009B0000F0F101011111112121313141415151614
:1009C000161717181819191A1A1B1B1C1D1D1E1E85
:1009D0001F202021222223242425262627282929D6
:1009E0002A2B2C2D2D2E2F30313232333435363701
:1009F00038393A3B3C3D3E3F4041424344454647FF
:100A000048494A4C4D4E4F50515354555658595AD7
:100A10005B5D5E5F616264656668696B6C6D6F707B
:100A200072737577787A7B7D7E8082838587888AEA
:100A30008C8E8F91939596989A9C9EA0A2A3A5A721
:100A4000A9ABADAFB1B3B5B7BABCBEC0C2C4C6C91D
:100A5000CBCDCFD1D4D6D8DBDDDFE2E4E7E9EBEED6
:100A6000F0F3F5F8FAFDFF0A002530325820006B4C
:100A70006579626F6172645F7265706F72743A203B
:100A8000000A0025303258006B6579626F6172642C
:100A90005F7365745F6C65643A200064656C5F6BBE
:100AA00065795F6269743A2063616E2774206465BA
:100AB0006C3A20253032580A006164645F6B6579B6
:100AC0005F6269743A2063616E2774206164643ADE
:100AD00020253032580A00646F6E652E0A00626F5E
:100AE0006F746D61676963207363616E3A202E2EA7
:100AF0002E20005B735D004B6579626F617264202C
:100B000073746172742E0A005B575D005B535D0065
:100B10005B525D005B445D005B435D00040330009D
:100B200000000C036B0062006400360078000000D7
:100B3000080359006F00750000000403090409024E
:100B40005B00030100A0FA09040000010301010099
:100B50000921110100012240000705810308000A54
:100B60000904010001030000000921110100012214
:100B70006D000705820320000A0904020002030039
:100B80000000092111010001222200070583032032
:100B900000010705030320000112011001000000FD
:100BA00008424B58360100010203010631FF097467
:100BB000A1010975150026FF00952075088102091D
:100BC00076150026FF00952075089102C0050109E1
:100BD00080A101850319012AB700150126B70095E8
:100BE0000175108100C0050C0901A10185041901DE
:100BF0002AA002150126A002950175108100C005EA
:100C0000010906A1018505050719E029E715002559
:100C1000019508750181020507190029EF150025C6
:100C20000195F075018102050819012905950575E1
:100C3000019102950175039101C005010906A10109
:100C4000050719E029E715002501950875018102BE
:100C50009501750881010507190029FF150026FF78
:100C60000095067508810005081901290595057587
:100C7000019102950175039101C011241FBECFEFB0
:100C8000DAE0DEBFCDBF04B603FE27C08091560375
:100C900090915703A0915803B09159038730904B1E
:100CA000A740B04BD1F41092560310925703109204
:100CB00058031092590314BE84B7877F84BF0FB6C0
:100CC000F894A895809160008861809360001092EC
:100CD00060000FBEE0E0F8E3099511E0A0E0B1E0AC
:100CE000E2EFF4E602C005900D92A43DB107D9F7FA
:100CF00023E0A4EDB1E001C01D92A635B207E1F7F3
:100D00000E94A02B0C9477320C940000FF93EF9379
:100D1000E091D401F091D501309709F00995EF9158
:100D2000FF910895FC018591803011F0EFDFFBCF3A
:100D30000895FF27E0E230E247FF0CC0419597FF9E
:100D400009C0EDE26095709580959095611D711DCB
:100D5000811D911D27FF02C0219530E350E2AA2793
:100D6000660F771F881F991FAA1FA41710F0A41BD6
:100D700063955A95A9F7AA3008F0A95FA05DAF93D3
:100D8000F395611571058105910541F7ED3211F477
:100D9000EF93F395F21718F43F93F395FBCF8F91F0
:100DA000B5DFFA95E1F70895E991F99185918030E1
:100DB00021F0853219F0AADFF9CF089520E0E894F8
:100DC00055915532C1F3503311F4689455915A330B
:100DD00048F4505390F3220F022E220F220F200DC1
:100DE000250FF4CF0EF4219589919991533619F37B
:100DF000533729F1533559F1BC0188279927E894D5
:100E00005C3621F48991999168945591543639F45E
:100E100046EF7EF077FF0DC08FEF9FEF0AC055378A
:100E20004AE039F0583540E121F0523642E009F00D
:100E30000895FF93EF937DDFEF91FF91B7CFFF937D
:100E4000EF93FC0181918030B9F360DFFBCFFF931A
:100E5000EF9368DFF1CFDF93CF93CDB7DEB7259661
:100E6000A3DFCF91DF9108950C94520A0C94500A9D
:100E70000C94440781FF02C0269A01C026982E9840
:100E80000C949C0781E0089581E0089508950C94E6
:100E900046071F93CF93DF9300D000D01F92CDB7AA
:100EA000DEB749835A836B833091430289819A81EB
:100EB000311114C0662359F0222349F00E94FA230D
:100EC000182F682F89819A810E94A32303C00E9452
:100ED000CE23182F69817A81812F04C00E94FA23C2
:100EE00069817A810F900F900F900F900F90DF9192
:100EF000CF911F910C942008FC01262F4081518135
:100F00006281738184810C944907CF93DF93EC0154
:100F100060E00E947C07BE01DF91CF910C944707EF
:100F20000E944925811102C00E94FC250E94501791
:100F30000C9434070C943607089581E008950C94BE
:100F40009D07CF93C82F0E943A078C2F0E949F07BE
:100F5000CF91089508950E94291F0E94AA072FEF9C
:100F600084E39CE0215080409040E1F700C0000005
:100F70000C94CD270F931F93CF93DF93EC0161E087
:100F80000E947C078C01BE010E943807882309F467
:100F900050C0BE01C8010E943A16882309F449C016
:100FA000BE01C8010E942918882309F442C0BE016D
:100FB000C8010E947B188823E1F1BE01C8010E948C
:100FC000A6198823B1F1BE01C8010E942814882304
:100FD00081F18A81882331F101308CE5180751F0C5
:100FE0000E3D8CE51807D9F001151C45D9F40E9477
:100FF000AB071FC08091D602C82FC095C170C0FB3F
:1010000080F98093D602CC2329F08CE693E00E94ED
:1010100092060FC08AE593E00E9492060BC00E94E0
:10102000FC2507C0CE01DF91CF911F910F910C9449
:101030004207C0E08C2FDF91CF911F910F9108954F
:1010400026E4829FC0011124FC012EE0729FE00D76
:10105000F11D1124E60FF11DEE0FFF1FE65DFE4F9F
:10106000859194910895CF93DF930E9420080E9468
:101070002409EC0181159245F0F5C11581E5D807E9
:1010800008F0A9C0C83ED10528F5C03ED10508F03A
:10109000D7C0C83AD10578F4C53AD10508F074C074
:1010A000C130D10509F4CCC008F4C8C0C430D105A2
:1010B00008F0C6C0C3C0CF3BD10508F0BFC0C85AB6
:1010C000D0E0CC0FDD1FCB5DDE4F0990D881C02D65
:1010D000D464B6C0C11590E5D90708F060C0C11549
:1010E00020E4D20708F058C0CE019A9581159F419F
:1010F00008F4A6C0A3C0C11586E5D80718F5C11528
:1011000095E5D90708F080C0C11524E5D20708F09D
:1011100076C09E01237033278C2F86958695C11546
:10112000D34508F05DC0C1E0D0E002C0CC0FDD1FA8
:101130002A95E2F720E2829FC0011124C82BD92B07
:10114000DC687EC0C1152AE5D20778F4C11589E5AF
:10115000D80708F063C0C11598E5D90708F46EC038
:10116000DC2FCC27C06FD06A6BC0CE0190568115A2
:10117000904208F063C08D2F8F710E94B809DD275F
:10118000D0628F71D82B5CC0C55AD0E0CD5ADE4FEB
:10119000C881D0E0D06454C0DF70D06A51C0CE01A5
:1011A00074E0969587957A95E1F783709C2F9370FC
:1011B00021E030E002C0220F331F9A95E2F73C682D
:1011C000382BCF70C695C69580E2C89FE0011124E8
:1011D000C22BD32B35C0DC2FCC27C16FD06A30C0D7
:1011E000C1E0D0E002C0CC0FDD1F2A95E2F720E27B
:1011F000829FC0011124C82BD92BDA6821C0DC2FB3
:10120000CC27C46FD06A1CC08C2F0E94B8098F7184
:10121000C82FD0E0DC2FCC27D06212C08C2F8F706B
:101220000E94B80994E0D695C7959A95E1F7CF70DA
:10123000D0E0DC2FCC27D069C82B02C0C0E0D0E0C2
:10124000CE01DF91CF9108958238910569F1B0F414
:101250008133910509F46DC048F48932910509F490
:1012600063C08A32910509F469C0089585339105F8
:1012700009F455C089339105B9F00895833E91056D
:1012800069F138F4803E9105B1F0823E910509F193
:101290000895863E9105A9F1873E9105B9F1843EF6
:1012A000910509F064C023C02091470320FD4FC081
:1012B00021FD4DC008958091470380FD44C0809179
:1012C000480380FF44C08091470384FD42C083EE01
:1012D0004DC08091470382FF38C0F5CF809147030E
:1012E00082FD33C08091480380FD31C0ECCF8091F6
:1012F000480381FF32C08091470384FD2AC087EEF6
:1013000035C08091470383FF26C0F5CF8091470306
:1013100083FD21C08091480381FD1FC0ECCF8091E7
:10132000470385FD1CC01DC08091470385FD19C082
:1013300016C08091470386FD16C017C080914703F1
:1013400086FD13C010C089E311C082EE0FC080EE8D
:101350000DC080E00BC086EE09C084EE07C089E2B4
:1013600005C085E303C08AE201C081E390E00895EF
:101370009091470392FF0DC0282F2871283019F44F
:10138000877F846006C0282F2471243011F48B7F5E
:10139000886093FF0DC0282F2871283119F4877EAB
:1013A000846106C0282F2471243111F48B7E88615A
:1013B0002091480320FF0DC0382F3871383019F4C0
:1013C000877F816006C0382F3171313011F48E7FF4
:1013D000886021FF0DC0282F2871283119F4877EDD
:1013E000816106C0282F2171213111F48E7E886120
:1013F00094FD877E0895E82FF0E0EE0FFF1FE75F72
:10140000FC4F808191810895CF92DF92EF92FF92FD
:101410000F931F93CF93DF938DE893E00E94920682
:1014200089E0E82E83E0F82EC0E0D0E098E8C92EED
:1014300093E0D92E0FE713E0DF93CF93DF92CF92A3
:101440000E942B0785E893E00E949206F7018191A4
:1014500091917F010E9436259F938F931F930F9345
:101460000E942B078DE793E00E94920621968DB78C
:101470009EB708960FB6F8949EBF0FBE8DBFC530BD
:10148000D105D1F6DF91CF911F910F91FF90EF9091
:10149000DF90CF90089580EA8A95F1F70895089536
:1014A0000C944F0A0C944F0ACF93DF93A4E6B1E05B
:1014B00049E651E061E070E08D91E82FE295EF7030
:1014C000F0E021A18F70EB0102C0CC0FDD1F8A95E7
:1014D000E2F7CE019C2F9095922391A392A1892BA4
:1014E00082A34A175B0741F7A6E5B1E044E651E065
:1014F00061E070E08D91E82FE295EF70F0E021A1BE
:101500008F70EB0102C0CC0FDD1F8A95E2F7CE0190
:101510009C2F9095922391A392A1892B82A34A1785
:101520005B0741F7EFEFF2E0A9E0B3E089E093E079
:10153000119211921D921D928E179F07C9F785E097
:101540000E94330BDF91CF910C9490076F927F92A2
:101550008F929F92AF92BF92CF92DF92EF92FF92C3
:101560000F931F93CF93DF9384E6C82E81E0D82E8C
:101570000FEF12E099E0A92E93E0B92E712C882488
:101580008394912CF60181916F01C82FC295CF7081
:10159000D0E099A18F70740101C0EE0C8A95EAF732
:1015A000892F8E2989A38AA16E2C609486218AA313
:1015B0000E944B0AE6E5F1E040E050E020E030E038
:1015C0006191A62FA295AF70B0E090968C9190E0BB
:1015D0006F7002C0959587956A95E2F780FD08C007
:1015E000C401042E02C0880F991F0A94E2F702C0BA
:1015F00080E090E0282B392B4F5F5F4F4E30510534
:10160000F9F689A1682269A28AA1E82AEAA2F8016A
:10161000808191812817390721F03183208381E06F
:1016200001C080E0782A0E5F1F4FA016B10609F0B6
:10163000A9CF272D45E069E073E08FEF92E00E948B
:10164000340B0E949A07872DDF91CF911F910F9144
:10165000FF90EF90DF90CF90BF90AF909F908F90D2
:101660007F906F9008950895FF920F931F93CF93EB
:10167000DF93F82E092F162FD72FC42F222349F0DE
:1016800081E08093D8010E948C279093D7018093AA
:10169000D6018091D8018823D9F08091D60190910C
:1016A000D7010E949827069798F0EF2DF02FA12FD1
:1016B000BD2F80E090E04C2F50E08417950734F464
:1016C000219131912D933D930196F7CF1092D8013E
:1016D000DF91CF911F910F91FF900895EF92FF92AC
:1016E0000F931F93CF93DF938B01682F11110AC0C3
:1016F000442329F0E82FF0E0E959F64F6491762F62
:10170000862F75C0212F30E0E82FF0E0442321F030
:10171000E959F64FE491F0E046E0049FC00111243E
:10172000CFEFD0E0BE010E9426314BEA4603C00154
:10173000479F900D1124800F911D800F911D982FB0
:10174000990F890FAE01421B530B4E9FD0014F9F43
:10175000B00D5E9FB00D11249B2F189FA001112486
:10176000452F55278E01041B150B0E9FA0010F9FBF
:10177000500D1E9F500D11247E01E81AF108E29EC3
:101780008001E39E100DF29E100D1124212F3327AE
:10179000C21BD30BCE9F9001CF9F300DDE9F300D2B
:1017A000112462307105A9F048F46115710569F0E2
:1017B00061307105C9F48B2F752F0DC06430710530
:1017C00081F058F06630710579F47E2F8B2F932FBE
:1017D0000DC0832F7B2F9E2F09C08E2F7B2F952F1F
:1017E00005C08E2F732F02C07E2F852F692FDF91AA
:1017F000CF911F910F91FF90EF90089541E00E94CB
:101800006E0B08950895CF93DF93762FE901682F2B
:10181000842F0E94FE0B798368838A83DF91CF91A6
:10182000089580911303282F269530E02115310566
:1018300019F48170826005C02B32310524F081706B
:10184000846580931303089588E090E00C94183227
:10185000CF92DF92EF92FF926B017C010E94110CFC
:10186000B701A60188E090E0FF90EF90DF90CF9065
:101870000C943632E3E1F3E083E0808311828FEF52
:1018800082838383148260817181828193810C942D
:10189000280C8091D60280FF08C08CED96E09F93C3
:1018A0008F930E942B070F900F908091D60280FF9C
:1018B0000FC08091130381701F928F938FEB96E07E
:1018C0009F938F930E942B070F900F900F900F9074
:1018D0008091D60280FF0FC08091130386951F92DE
:1018E0008F9384EA96E09F938F930E942B070F902B
:1018F0000F900F900F908091D60280FF0EC08091C4
:1019000014031F928F938AE896E09F938F930E940F
:101910002B070F900F900F900F908091D60280FFB1
:101920000EC0809115031F928F9380E796E09F93DE
:101930008F930E942B070F900F900F900F90809124
:10194000D60280FF0EC0809116031F928F9386E50A
:1019500096E09F938F930E942B070F900F900F900C
:101960000F908091D60280FF0EC0809117031F92C6
:101970008F938AE396E09F938F930E942B070F909B
:101980000F900F900F9008958091130380FF02C075
:101990008695089580E0089590911703933018F488
:1019A0009F5F90931703882351F060911303709108
:1019B000140380911503909116030C94280C08953C
:1019C00081E00C94CC0C90911703992319F091505D
:1019D00090931703882351F06091130370911403BF
:1019E00080911503909116030C94280C089581E0C2
:1019F0000C94E30C70E00C946617609108018091E0
:101A0000130380FF0AC08091070123E0829FC00179
:101A10001124885E9C4F0C94FA0C809109019091DE
:101A20000A01891780F7E82FF0E09F01220F331F8A
:101A3000E20FF31FE85EFC4F1182108212828F5F6B
:101A4000F0CF9091130390FF16C09091090120915F
:101A50000A01921770F4E92FF0E0DF01AA0FBB1F13
:101A6000EA0FFB1FE85EFC4F8183608342839F5F28
:101A7000F0CF0C94FD0C0895CF93DF9300D01F920C
:101A8000CDB7DEB79091130390FF0AC09E012F5F80
:101A90003F4F0E94030C4B8169818A810E94210D76
:101AA0000F900F900F90DF91CF910895CF93DF9318
:101AB000EC01EC81F0E0E65FF84F4491E3E1F3E004
:101AC000628181810E943C0D8C818F5F8C83DF91CC
:101AD000CF910895CF93DF93EC01E3E1F3E04381ED
:101AE00062818C810E943C0D8C818F5F8C83DF91A1
:101AF000CF9108950F931F93CF93DF9300D01F9240
:101B0000CDB7DEB78C018091D90181110AC09E0149
:101B10002F5F3F4F4FEF6FEF0E94030C8A8180933E
:101B2000D901F8018481813051F028F0823061F4CC
:101B30004091D9010AC08091D90140E007C060916D
:101B4000D90140E080E003C040E080E060E00E9416
:101B5000210DF801848190E0019663E070E00E941D
:101B60003A3184830F900F900F90DF91CF911F91A6
:101B70000F9108954F925F926F927F928F929F92F2
:101B8000AF92BF92CF92DF92EF92FF920F931F938B
:101B9000CF93DF9300D01F92CDB7DEB7F82EB62ECD
:101BA000E42E622E9091130390FFB4C0E92FE695C6
:101BB000AE2FB0E0A759BE4F8C91809329029E7F33
:101BC000923061F49E012F5F3F4F8F2D0E94030CD6
:101BD0004B8169818A810E94210D62C0823019F493
:101BE000E09016035DC0863019F4F090140358C0DD
:101BF0008930D9F3893109F053C0E9518E2F8170B2
:101C0000782E81E0A72CA826E695F0E0E65FF74F56
:101C1000C590D490412CDD2492E2892E94E0992E37
:101C200060910B014616D0F5042D10E00C9DC0010B
:101C30000D9D900D1C9D900D112470E00E94263189
:101C40005F2C711002C0560E01C0561A8091D60248
:101C500080FF11C0DF92CF921F92AF921F925F92CE
:101C60001F924F929F928F920E942B070FB6F8946B
:101C7000DEBF0FBECDBF80910901080F111D980175
:101C8000220F331F020F131F9801285E3C4F4E2D69
:101C90006B2D852D0E94030C4394C2CF0E94FD0C36
:101CA000F0921403B0921503E09216036620E9F057
:101CB00060911303709114038091150390911603A2
:101CC0000E94280C8091D60280FF24C080911603C8
:101CD0001F928F93809115031F928F93809114030D
:101CE0001F928F938DEF93E00CC08091D60280FFFE
:101CF00011C01F92EF921F92BF921F92FF9286ED2A
:101D000093E09F938F930E942B070FB6F894DEBF4A
:101D10000FBECDBF0F900F900F90DF91CF911F910D
:101D20000F91FF90EF90DF90CF90BF90AF909F907A
:101D30008F907F906F905F904F900895E3E1F3E074
:101D40009181282F438162818CE0890F0C94BA0D18
:101D500081E00C949E0EE3E1F3E09181282F438112
:101D6000628184EF890F0C94BA0D81E00C94AB0E64
:101D7000E3E1F3E062812CE0620F08F46FEF282FBB
:101D8000438181810C94BA0D81E00C94B80EE3E19B
:101D9000F3E062812CE0621B08F460E0282F4381AD
:101DA00081810C94BA0D81E00C94C70EE3E1F3E05D
:101DB00043812CE0420F08F44FEF282F628181818C
:101DC0000C94BA0D81E00C94D60EE3E1F3E043816C
:101DD0002CE0421B08F440E0282F628181810C94A2
:101DE000BA0D81E00C94E50E20E00C94BA0DFF9240
:101DF0000F931F93CF93DF93EC01F12C0FEF10E0C3
:101E000060910B01F616F0F4809109012F2D30E05E
:101E1000280F311DC901880F991F280F391F285E0F
:101E20003C4F70E0C8010E943A31962F8C8140915E
:101E3000160360911503F99E800D11240E94030C76
:101E4000F394DECF0E94FD0C9A818C8190FF02C03A
:101E50008F5F01C081508C83DF91CF911F910F91D3
:101E6000FF900895AF92BF92CF92DF92EF92FF92D0
:101E70000F931F93CF93DF93FC01828180FF02C0F9
:101E80000FEF01C001E010E04EE0A42E80910B01A5
:101E9000181708F043C080910901C12ED12CE6012A
:101EA000C80FD11DCE01880F991FC80FD91FC85E5A
:101EB000DC4F198218821A8234E0E32EF12CB12C07
:101EC0008091DB018B0D8F302CF06A2D0E94183130
:101ED000892F05C087FF03C090910B01890F082E41
:101EE000000C990BC816D90691F4809116038E9DAB
:101EF000A0018F9D500D11245595479555954795F7
:101F00009E0160911503809114030E94030CB00E92
:101F1000F1E0EF1AF108A1F61F5FB8CF0E94FD0CA7
:101F20008091DB01013031F4811102C080910B01FD
:101F3000815007C090E0019660910B0170E00E9413
:101F40003A318093DB01DF91CF911F910F91FF9088
:101F5000EF90DF90CF90BF90AF900895CF93809196
:101F6000090190910A01891770F4E82FF0E09F01B0
:101F7000220F331FE20FF31FE85EFC4F1182108225
:101F800012828F5FF0CFC0E060910B01C617C0F5E1
:101F9000EC2FF0E070E0CF010E943A31209109016E
:101FA000820F2091DA01022E000C330B90E0E21731
:101FB000F307CCF020910601022E000C330B2E17F4
:101FC0003F078CF09C01220F331F820F931F9C014F
:101FD000285E3C4F409116036091150380911403D5
:101FE0000E94030C0BC0FC01EE0FFF1F8E0F9F1F02
:101FF000FC01E85EFC4F118210821282CF5FC4CFD9
:102000000E94FD0C209105018091DA01820F8093DE
:10201000DA0190910601920F9093060119165CF473
:10202000082E000C990B40910B0150E041505109D2
:10203000841795071CF0219520930501CF910895F1
:102040008F929F92AF92BF92CF92DF92EF92FF92C8
:102050000F931F93CF93DF938C01FC014481C42F16
:10206000D0E09E01DE010E947E319B01AC010E9406
:1020700094316B017C01E0E2F0E0EC1BFD0BA5E587
:10208000B0E09B01AC010E9494314B015C019F01C7
:10209000DF010E9476319B01AC010E949F319B01C0
:1020A000AC012C0D3D1D4E1D5F1DC501B4010E94EC
:1020B0004E31C22FD22F2A3228F4F3E02F9F900105
:1020C00011240DC025E530E02C1B3109C901880F12
:1020D000991F280F391F37FF02C02F5F3F4F3595DB
:1020E0002795C22FC095F12C85E5E82EED1A809139
:1020F0000B01F816C8F4F1FC02C08E2D01C08D2F23
:10210000909109012F2D30E0290F311DA901440FB5
:10211000551F240F351F285E3C4F4C2F609115032F
:102120000E94030CF394E3CF0E94FD0CF80184811C
:10213000811102C091E003C0803219F49FEF9093A7
:10214000040190910401890FF8018483DF91CF91FC
:102150001F910F91FF90EF90DF90CF90BF90AF90C5
:102160009F908F9008950F931F93CF93DF93EC016F
:1021700000E010E080910B01282F30E002171307D8
:1021800024F5909109019801290F311DA901440FEF
:10219000551F240F351F285E3C4F869590E04C81DB
:1021A000081719071CF4442331F002C0411103C081
:1021B0004091160301C040E0609115038091140323
:1021C0000E94030C0F5F1F4FD5CF0E94FD0C8C8126
:1021D00090E00196817099278C83DF91CF911F91B8
:1021E0000F9108958F929F92AF92BF92CF92DF92FC
:1021F000EF92FF920F931F93CF93DF93FC01B28076
:10220000948081E0848300E015E05BE4A52E8824BF
:102210008394EE24EA94F12C7BE4C72ED12C809198
:102220000B01081708F08FC0C02FD0E01C9FF001F1
:102230001D9FF00D1124E452FE4F911003C0138234
:10224000128267C02381222389F1215023833481A4
:10225000332319F09A2D921B01C0922F80911603FF
:102260001C9FF0011D9FF00D1124E452FE4F899F29
:10227000C0011124B6010E9426316283211104C0DD
:10228000332311F01482A38222E02B1508F441C0FD
:102290001C9FF0011D9FF00D1124E452FE4F809110
:1022A0001403808380911503818333C00E94F3312E
:1022B0008230914074F582E08B1530F40E94F33146
:1022C000B7010E943A3102C0809114031C9FF001B3
:1022D0001D9FF00D1124E452FE4F808322E02B1548
:1022E00058F40E94F331209115032695622F70E077
:1022F0000E943A31820F02C0809115031C9FF001A9
:102300001D9FF00D1124E452FE4F81831282A3829F
:102310008482809109019E01280F311DC901880F17
:10232000991F280F391F285E3C4F1C9FF0011D9FED
:10233000F00D1124E452FE4F4281618180810E94A0
:10234000030C0F5F6CCFDF91CF911F910F91FF9026
:10235000EF90DF90CF90BF90AF909F908F900C94B4
:10236000FD0C60911303669570E04BE050E08CE04B
:1023700091E00E940332892B19F481E080932A02B4
:102380000E948C2790932302809322028091D60290
:1023900080FF08C08DEB93E09F938F930E942B07E3
:1023A0000F900F90089510922A028091D60280FF1C
:1023B00008C084EA93E09F938F930E942B070F90AD
:1023C0000F9008959091130390FF54C09170811164
:1023D00002C0926006C08B3210F0946502C0880F74
:1023E000982B909313036623B1F0609113037091BF
:1023F000140380911503909116030E94280C80917C
:10240000D60280FF1BC08091130386951F928F9385
:1024100080E895E00BC08091D60280FF0FC08091CC
:10242000130386951F928F9382E695E09F938F9377
:102430000E942B070F900F900F900F906091130345
:10244000669570E04BE050E08CE091E00E94033232
:10245000892B19F00E94D31102C00E94B11181E0B2
:102460008093250240911603609115038091140317
:102470000C94F40E0895682F90911303969581E0C3
:10248000890F8B3208F081E00C94E21181E00C940A
:102490003B12682F9091130396958FEF890F09F4E3
:1024A0008AE20C94E21181E00C94491261E00C94F0
:1024B000E211809113038160809313038091D6020F
:1024C00080FF0DC01F9281E08F9384EF94E09F9373
:1024D0008F930E942B070F900F900F900F90809179
:1024E000130386950C94561260E00C94E2118091CF
:1024F0002802811160C08091D60280FF08C083E26B
:1025000096E09F938F930E942B070F900F908091DE
:10251000D60280FF08C08DE096E09F938F930E94C3
:102520002B070F900F900E944925811110C08091B8
:10253000D60280FF08C085EE95E09F938F930E949E
:102540002B070F900F900E94FC250E943A0C0E94CE
:10255000240C6093130370931403809315039093DA
:1025600016036E7FC1F48091D60280FF08C08CE90B
:1025700095E09F938F930E942B070F900F900E94DE
:102580003A0C0E94240C60931303709314038093FD
:102590001503909316030E94110C0E94490C10928F
:1025A0002A028091130380FF03C086950E94741253
:1025B00081E08093280208958091130381608093C5
:1025C00013038091D60280FF0DC01F9281E08F938C
:1025D0008BEB94E09F938F930E942B070F900F90AB
:1025E0000F900F908091130386950C947412809134
:1025F00013038E7F80931303609113037091140370
:1026000080911503909116030E94280C8091D602A8
:1026100080FF0FC08091130381701F928F9383E816
:1026200094E09F938F930E942B070F900F900F9031
:102630000F900E94D3112FEF80E792E0215080404D
:102640009040E1F700C000000C94FD0C8091D60290
:1026500080FF10C080911303809581701F928F932B
:102660008BE295E09F938F930E942B070F900F9022
:102670000F900F908091130380FD0C94F7120C942F
:102680005912809113038E7F809313038091D60299
:1026900080FF0CC01F921F9289E494E09F938F9358
:1026A0000E942B070F900F900F900F900E94D31154
:1026B0002FEF80E792E0215080409040E1F700C08A
:1026C00000000C94FD0C0F931F93CF93DF93809128
:1026D0002A02882309F49CC080912902E091130307
:1026E000E695E81BE0932402823049F4F0E0EA5FCB
:1026F000F84FE491CE2FD0E006E51DE059C08630BA
:1027000049F4F0E0ED5FF84FE491CE2FD0E00AE617
:102710001DE04EC0893051F4E695F0E0E050F94FED
:10272000E491CE2FD0E007EF1EE042C08F3051F48D
:10273000E695F0E0E350F94FE491CE2FD0E002E3CC
:102740001FE036C0853149F4F0E0E650F94FE491DE
:10275000CE2FD0E00EEA1FE02BC08831D9F08332B3
:1027600039F4E8EFF6E0C591D4910AE71DE020C006
:102770008432A9F08532C1F48E2F63E00E940C31BF
:10278000E92FF0E0EB50F94FE491CE2FD0E002EFCB
:1027900010E10EC0C8E2D0E000E210E109C0C4EFD1
:1027A000D1E003EB10E104C0C0EDD7E002E01CE093
:1027B00080912502882389F0109225020E948C279F
:1027C0009E0120953095820F931F90932302809352
:1027D00022021092270210922602809122029091EA
:1027E00023020E9498278C179D0790F0E091220207
:1027F000F0912302CE0FDF1FD0932302C093220259
:1028000082E292E0F801DF91CF911F910F9109943C
:10281000DF91CF911F910F910895882311F0FA0154
:1028200001C0FB010994CF93DF93C82FD62F0E94DC
:10283000C40C8C1740F00E94C40C8D1720F4DF915B
:10284000CF910C9446128C2FDF91CF910C9456129D
:102850000F931F93CF93FB01C281CC2309F463C074
:102860008C010E947B248272F801E25CFC45E43119
:10287000F10508F059C0EA5AFF4F0C9470310E94DC
:10288000261306C043E552E166E472E10E940D148E
:10289000C0E04AC046E452E163E572E1F7CF45EBA0
:1028A0005EE068EA7EE0F2CF48EA5EE065EB7EE05B
:1028B000EDCF43ED5EE064EC7EE0E8CF44EC5EE01B
:1028C00063ED7EE0E3CF41EF5EE062EE7EE0DECFDF
:1028D00042EE5EE061EF7EE0D9CF47EF5CE060EE74
:1028E0007CE0D4CF40EE5CE067EF7CE0CFCF81E0CE
:1028F00017C065E082E010C068E086E00DC06EE0C1
:1029000089E00AC064E18FE007C067E185E104C0A7
:1029100088E106C062E289E10E941314B9CF83E224
:102920000E945612B5CFC1E08C2FCF911F910F910D
:1029300008958091420386958695869508958091A5
:10294000420381FD13C08260809342030E94882568
:102950008091D60280FF08C08CE298E09F938F930D
:102960000E942B070F900F900C94CC160895809125
:10297000420381FF13C08D7F809342030E9488250C
:102980008091D60280FF08C08FE098E09F938F93DC
:102990000E942B070F900F900C94D8160895CF9398
:1029A000C0914203C695C1708091D60280FF0CC0D1
:1029B0001F92CF9388E498E09F938F930E942B07F8
:1029C0000F900F900F900F90CC2319F0CF910C9493
:1029D000B714CF910C949F14809142038695817017
:1029E00008958091170108950E944925811102C020
:1029F0000E94FC250E94842580934203282F26955F
:102A00002695269530E02430310524F087708861C2
:102A1000809342038091420380FF04C0869586958F
:102A2000869501C080E00C94A21620914203822F6B
:102A3000869586958695482F50E04330510554F48D
:102A40008F5F982F990F990F990F822F8770892B7D
:102A500080934203809142038160809342030E94ED
:102A600088258091D60280FF11C08091420386950F
:102A7000869586951F928F938FEC98E09F938F9306
:102A80000E942B070F900F900F900F9080914203A0
:102A90008695869586950C94A21680914203982F70
:102AA000969596959695A1F0915E990F990F990F2D
:102AB0008770892B80934203887F91E009F490E02E
:102AC0008091420390FB80F9809342030E94882505
:102AD0008091D60280FF11C0809142038695869531
:102AE00086951F928F9387EB98E09F938F930E9418
:102AF0002B070F900F900F900F90809142038695B7
:102B0000869586950C94A2168091420380FD1FC085
:102B1000816080934203813019F489E080934203FD
:102B2000809142030E9488258091D60280FF08C0D0
:102B30008FE898E09F938F930E942B070F900F9040
:102B4000809142038695869586950C94A2160895E9
:102B50008091420380FF14C08E7F809342030E94C5
:102B600088258091D60280FF08C08CE798E09F936B
:102B70008F930E942B070F900F9080E00C94A21669
:102B80000895CF93C0914203C1708091D60280FF17
:102B90000CC01F92CF9381EA98E09F938F930E947D
:102BA0002B070F900F900F900F90CC2319F0CF911F
:102BB0000C94A815CF910C94841590914203892F01
:102BC0008695869586958F5F8F719770843038F4DF
:102BD000880F880F880F892B8093420302C090933F
:102BE000420380914203887F91E009F490E0809154
:102BF000420390FB80F9809342030E9488258091D4
:102C0000D60280FF11C080914203869586958695F5
:102C10001F928F9388E698E09F938F930E942B07D3
:102C20000F900F900F900F9080914203869586959C
:102C300086950C94A216843008F083E090914203AC
:102C40009770282F220F220F220F922B909342036E
:102C5000987F21E009F420E09091420320FB90F955
:102C6000909342030C94A2160E941B16809142037B
:102C70000C948825FC01DB0112968C918823F9F0D5
:102C8000EB5BFC45E730F105D8F4E659FF4F0C94B7
:102C9000703183E001C080E00E94341680E0089526
:102CA0000E944D15FBCF0E941515F8CF0E94C1154B
:102CB000F5CF0E94DD15F2CF0E94CF14EFCF81E057
:102CC0000895279A2F9808952F980895CF92DF920C
:102CD000EF92FF928C3724E1920728F469E070E0CC
:102CE0000E94263129C0A0E0B0E08A50974DAF4F36
:102CF000BF4F6627782F892F9A2F25EF38E241E0C2
:102D000050E00E944E3169017A01CA01B9010E9466
:102D1000FC309B01AC01C701B6010E94FC30BB270F
:102D2000A92F982F872F009721E0A207B10511F056
:102D3000BC0102C06FEF7FEFCB01FF90EF90DF90FF
:102D4000CF900895CF93C82F843050F4811109C0DB
:102D500080918000877F809380000E94641606C067
:102D6000C3E0809180008860809380002C2F30E049
:102D7000AFEFBFEF0E947E3123E030E040E050E053
:102D80000E944E31C9010E94661690938D00809377
:102D90008C00CF910895089510922C0210922B026E
:102DA00010922D02EFE6F0E080818160808308952B
:102DB000EFE6F0E080818E7F80830E9499140C946E
:102DC000A2161F920F920FB60F9211242F933F93CA
:102DD0004F935F936F937F938F939F93AF93BF9323
:102DE000CF93EF93FF930E94F11440912B025091E7
:102DF0002C024F5F5F4F94EF899F90011124CA010D
:102E0000B9010E94263190932C0280932B02B901C4
:102E1000660F672F661F770B71950E9426316F77BB
:102E200080912D02823019F4603451F404C0813055
:102E300039F46F3729F480916F008E7F80936F0093
:102E4000E62FF0E0E951F74FC4910E949914282F22
:102E500041E051E0C49FC001C59F900D112463E083
:102E600070E00E942631269FC001279F900D1124FB
:102E70000E94661690938D0080938C00FF91EF91D5
:102E8000CF91BF91AF919F918F917F916F915F9102
:102E90004F913F912F910F900FBE0F901F9018955B
:102EA0000E9461168AE08093800089E1809381000E
:102EB0008FEF9FEF90938700809386000E94F41419
:102EC0000E94EC1481110C94CC160895809A21B3C1
:102ED0002E7F31B331604FB7F894FC01CB01880FDE
:102EE000991F680F791F6E0F7F1FE617F70789F08C
:102EF000819198E031BB000000C087FF21BB880FA3
:102F0000000000C000C000C021BB00C09A9591F72E
:102F1000ECCF4FBF8FE594E00197F1F700C00000C0
:102F20000895AF92BF92CF92DF92EF92FF920F93EC
:102F30001F93CF93DF937C015B01C42FD22FFC0141
:102F400082818823F9F0409330020E948C2790936D
:102F50002F0280932E0280E28C0F883008F06EC022
:102F6000C77081E001C0880FCA95EAF7DF91CF9161
:102F70001F910F91FF90EF90DF90CF90BF90AF9097
:102F80000C94B11C80913002481335C080912E0200
:102F900090912F020E9498276C01B701C5010E94F1
:102FA000E221C816D90638F510E21D0FCD17B9F089
:102FB00080E28C0F883040F4C77081E001C0880F38
:102FC000CA95EAF70E94B81C183058F581E09D2F89
:102FD000977001C0880F9A95EAF70E94B11C802F64
:102FE0000E949E1C183050F5D77081E001C0880FF8
:102FF000DA95EAF70AC080E28C0F8830F8F4C770DF
:1030000081E001C0880FCA95EAF7DF91CF911F9147
:103010000F91FF90EF90DF90CF90BF90AF900C9406
:10302000B81C802FDF91CF911F910F91FF90EF90EF
:10303000DF90CF90BF90AF900C949E1CDF91CF910A
:103040001F910F91FF90EF90DF90CF90BF90AF90C6
:1030500008950F939C01CB01233F4CE5340731F1D8
:1030600088F4283DFCE53F07D9F0293D4CE53407BD
:1030700079F1273D3C45A9F506E221EE41EE67EDE9
:103080007CE52BC0253FFCE53F07E1F0A8F0263F9B
:103090003C4539F507E225EE46EE66EF7CE51DC0BE
:1030A00007E225EE45EE68ED7CE517C006E221EE6D
:1030B00040EE63EF7CE511C007E225EE44EE64EFDD
:1030C0007CE50BC006E221EE42EE65EF7CE505C033
:1030D00008E221E045EE69ED7CE50E94911780E071
:1030E00008C0FC018281882319F01092300201C0CF
:1030F00081E00F910895CF93DF93EC01FB01828172
:10310000882309F41FC1C230FCE5DF0708F41BC1A6
:10311000C6319CE5D90738F09E012A5F3C4529302D
:10312000310508F010C10E946625909348038093F2
:103130004703C031ECE5DE0709F4C3C008F041C025
:10314000C8308CE5D80709F49AC0F0F4C430ECE537
:10315000DE0709F487C068F4C2308CE5D80709F4AB
:1031600077C0C330DC4509F0E3C08091470382603B
:1031700076C0C630ECE5DE0709F46EC008F07BC00F
:103180008091470388606BC0CC308CE5D80709F488
:1031900085C068F4CA30ECE5DE0709F474C008F0B5
:1031A00079C00E94291F80914703806858C0CE30A3
:1031B0008CE5D80709F476C008F07FC080914703FA
:1031C0008BC0CB3FECE5DE0709F44FC018F5C331E7
:1031D0008CE5D80709F47DC078F4C131ECE5DE0751
:1031E00009F473C0C231DC4509F0A2C00E94291F56
:1031F000809147038F7733C0C5318CE5D80709F438
:1032000072C008F486C0CA3FDC4509F091C08091C5
:1032100048033EC0CF3FFCE5DF0709F45FC058F428
:10322000CD3F9CE5D90709F444C008F43FC0809124
:10323000480382602DC0C130FDE5DF0709F475C089
:1032400008F45DC0C230DD4509F072C080E06EC098
:1032500080914703816003C0809147038061809320
:10326000470366C08091470311C080914803826084
:10327000809348035DC0809147038062F0CF8091C6
:1032800047038064ECCF8091470388608460E7CF78
:103290008160EECF809147038E7FE1CF809147031D
:1032A0008D7FDDCF80914703877FD9CF8091480301
:1032B00018C0809148038D7FDBCF809147038F7EBC
:1032C000CECF809147038F7DCACF809147038F7BFC
:1032D000C6CF80914703877F8B7FC1CF8091480302
:1032E0008D7F8E7FC5CF8091470382FB222720F9F7
:1032F00091E0922790FB82F990FB83F9B0CF809107
:103300004803982F909591708E7F892B90FB81F9BF
:10331000AFCF0E94291F8091470387FB222720F906
:1033200091E0922790FB87F99ACF81E00E94FE25D9
:1033300080914703909148030E9477250E94291F9E
:1033400080E001C081E0DF91CF910895CF93DF93BA
:1033500086319C4541F5EB010E947B24982F8A81A0
:103360002091180130911901882379F09A7A81E02F
:1033700009F480E080933102911102C069E201C03A
:1033800065E3C9010E94BB260AC080913102811108
:1033900002C069E201C065E3C9010E94C6260E941D
:1033A000BC2480E001C081E0DF91CF91089590932B
:1033B0003702809336020895E0913602F091370289
:1033C000309721F00190F081E02D099480E008957C
:1033D000EF92FF921F93CF93DF93FC01A0913602EF
:1033E000B0913702109709F442C0809124018823DC
:1033F00041F08091470387FF04C08081818385E08D
:103400008083EF011296ED91FC911397CE010995FF
:103410008091D60282FF2BC080FF04C08FE69AE025
:103420000E94920618E089E6E82E8AE0F82E809144
:10343000D60280FF0BC088811F928F93FF92EF927C
:103440000E942B070F900F900F900F901150219614
:103450001111EDCF8091D60280FF09C087E69AE076
:10346000DF91CF911F91FF90EF900C949206DF9126
:10347000CF911F91FF90EF900895209134023091E9
:1034800035022817390771F0909335028093340282
:10349000E0913602F0913702309721F00680F781F3
:1034A000E02D0994089520913202309133022817BB
:1034B000390771F09093330280933202E091360223
:1034C000F0913702309721F00084F185E02D0994C6
:1034D000089585B7806885BF85B7806885BF0895E2
:1034E00008950C94701A0C94711A0C94701A0C9420
:1034F000701A0E94691A0E94751A0C94731A81E05E
:1035000008950C947F1A0E9483270E94540A0E94F7
:103510003D280E94F4140E9477120C94771ACF93DE
:10352000C82F8091D60282FF1EC080FF04C088E8A9
:103530009AE00E9492068091D60280FF0CC01F92F2
:10354000CF9383E89AE09F938F930E942B070F906D
:103550000F900F900F908091D60280FF04C081E8F9
:103560009AE00E9492068C2FCF910C94A1077F9233
:103570008F929F92AF92BF92CF92DF92EF92FF9283
:103580000F931F93CF93DF93CDB7DEB72A970FB674
:10359000F894DEBF0FBECDBF0E94A60A0E94811A1A
:1035A000811111C08FEF89838A831B820E948C272F
:1035B0008160782F9D838C8349815A816B818D81B5
:1035C0000E94691B4FC049E3A42E42E0B42E00E0E4
:1035D00010E0702E802F0E94FB096C01F501819094
:1035E00091905F01882699268114910431F40F5F30
:1035F0001F4F0530110569F7D5CF8091D60281FDA7
:103600000E94040A80E0EE24E394F12C94012E2120
:103610003F21232B09F18E837F82CE20DF2081E0A2
:10362000CD2809F480E088870E948C278160782F5C
:103630009A8789874E815F8168858A850E94691B88
:10364000000F111FF801E75CFD4F80819181E82692
:10365000F926F182E08206C08F5FEE0CFF1C8E30EF
:10366000A9F6C5CF0E9463130E94CB160E94DC19F5
:10367000909138028917C9F00E94DC1980933802B2
:103680002A960FB6F894DEBF0FBECDBFDF91CF9163
:103690001F910F91FF90EF90DF90CF90BF90AF9070
:1036A0009F908F907F900C948F1A2A960FB6F89463
:1036B000DEBF0FBECDBFDF91CF911F910F91FF9065
:1036C000EF90DF90CF90BF90AF909F908F907F90C2
:1036D0000895CF93DF93CDB7DEB72B970FB6F8944D
:1036E000DEBF0FBECDBF4F83588769877A878B8730
:1036F000DE01119686E0FD0111928A95E9F785E0D9
:10370000FE01379601900D928A95E1F749815A8121
:103710006B817C818D819E810E94E5212B960FB665
:10372000F894DEBF0FBECDBFDF91CF910895FC01AD
:10373000808191810E943C240895CF93882309F4CD
:103740009CC0C82F8238C1F40E94DC1981FD95C04D
:1037500069E380911801909119010E94BB260E9493
:10376000BC242FEF81EE94E0215080409040E1F79F
:1037700000C0000069E319C0833801F50E94DC191C
:1037800080FD7BC063E580911801909119010E9432
:10379000BB260E94BC242FEF81EE94E02150804094
:1037A0009040E1F700C0000063E58091180190911E
:1037B00019010E94C626CF910C94BC248438C1F410
:1037C0000E94DC1982FD59C067E480911801909134
:1037D00019010E94BB260E94BC242FEF81EE94E0C9
:1037E000215080409040E1F700C0000067E4DDCF49
:1037F0008CEF8C0F813AD0F46C2F8091180190914E
:1038000019010E941926882349F06C2F8091180114
:10381000909119010E94C6260E94BC246C2F8091B1
:103820001801909119010E94BB26C5CF80E28C0F30
:10383000883048F4C77081E001C0880FCA95EAF764
:103840000E947E24B8CFEBE5EC0FE33040F4F0E0CB
:10385000EE53FE4F808190E0CF910C943D1AC85AF0
:10386000C73158F4EC2FF0E0EE0FFF1FEC56FE4F7F
:1038700080819181CF910C94531ACF910895882320
:1038800009F45BC0682F823879F40E94DC1981FF4B
:1038900054C069E380911801909119010E94BB26E0
:1038A0000E94BC2469E310C08338B1F40E94DC1983
:1038B00080FF43C063E580911801909119010E9437
:1038C000BB260E94BC2463E58091180190911901E8
:1038D0000E94C6260C94BC24843879F40E94DC191A
:1038E00082FF2BC067E480911801909119010E941A
:1038F000BB260E94BC2467E4E7CF8CEF860F813A99
:1039000018F380E2860F883048F4677081E001C0C8
:10391000880F6A95EAF70E948424DCCF8BE5860F36
:10392000833020F480E090E00C943D1A685A6731AF
:1039300020F480E090E00C94531A0895CF93C82FA0
:103940000E949D1BC93349F42FEF87EE93E021506D
:1039500080409040E1F700C000008C2FCF910C9484
:103960003F1C882321F00E947E240C94BC240895DF
:10397000882321F00E9484240C94BC240895CF92C3
:10398000DF92EF92FF920F931F93CF93DF937C010F
:10399000D62FC72FFC01058102950F7012811111DE
:1039A0000E949B240E947424882399F0112389F09B
:1039B0008C2F807F803421F080E28D0F883048F09A
:1039C00082E00E9406250E94742491E0D82ED92618
:1039D00001C0D12CCC2EC2948FE0C8228C2D90E057
:1039E0008C30910508F0ABC1FC01EF58FF4F0C94EF
:1039F00070318C2F807FCF70882311F0C295C07FEB
:103A0000112399F0CC2309F486C180E28D0F883010
:103A100010F0D11104C08C2F0E947E2403C08C2F83
:103A20000E948E240E94BC2476C18D2F0E943F1CD0
:103A3000CC2309F484C180E28D0F883010F0D111BD
:103A400004C08C2F0E94842403C08C2F0E949424D5
:103A50000E94BC2474C18C2F807FCF70803211F003
:103A6000C295C07FDD2319F0D130C9F022C01123E7
:103A700071F0002341F0013031F40E94A1248C2B1D
:103A80000E94A9245CC10E94A1248C2B1DC000238C
:103A900019F0013009F453C10E94B22425C011234A
:103AA00021F0063008F04BC10EC0053008F047C1C8
:103AB0001BC0112361F0002331F0F701858180FFE5
:103AC0002AC18F7085838C2F0E94B11C38C10023BE
:103AD00059F0D93309F030C1FFEF07EE13E0F15090
:103AE00000401040E1F726C18C2F0E94B81C27C16E
:103AF0008C2F86958695837019F0813061F01FC1F7
:103B0000112321F08D2F9C2F937002C080E090E054
:103B10000E943D1A1CC1112321F08D2F9C2F937000
:103B200002C080E090E00E94531A11C18C2F837074
:103B300009F047C0111107C12D2F22952695277036
:103B4000220F220F6D2F6F70862F90E0A0E0B0E063
:103B5000022E04C0880F991FAA1FBB1F0A94D2F718
:103B6000D4FF10C04FE050E060E070E004C0440FAC
:103B7000551F661F771F2A95D2F74095509560957F
:103B8000709503C040E050E0BA01C695C695C37079
:103B90008A019B01082B192B2A2B3B2BC901B80149
:103BA000C23049F058F4C13019F00E94B922CBC09C
:103BB0000E94A722C8C00E94CB22C5C00E94A52295
:103BC000C2C0112319F08C2F817001C08695882303
:103BD00009F4B9C02D2F229526952770220F220FA8
:103BE0006D2F6F70862F90E0A0E0B0E0022E04C031
:103BF000880F991FAA1FBB1F0A94D2F7D4FF10C0C9
:103C00004FE050E060E070E004C0440F551F661FB5
:103C1000771F2A95D2F7409550956095709503C00F
:103C200040E050E0BA01C695C695C3708A019B0179
:103C3000082B192B2A2B3B2BC901B801C23049F0A4
:103C400058F4C13019F00E947E237DC00E946C237D
:103C50007AC00E94902377C00E94DF2274C0CF7088
:103C6000112339F08C2F0E9405238D2F0E94B11C47
:103C70006AC08D2F0E94B81C8C2F0E94262363C01F
:103C8000D23F01F128F4D03F41F0D13FA1F03FC035
:103C9000D33FF9F0D43F39F13AC0112341F0053058
:103CA00008F04DC08C2F8F710E944B2348C0063006
:103CB00008F045C0F7CF112339F08C2F8F710E9487
:103CC00005233DC01123C9F38C2F8F710E94262339
:103CD00036C0112329F08C2F8F710E94F0222FC043
:103CE0000E94EB222CC0112349F0CF718C2F0E942F
:103CF000052363E08C2F0E94F12421C081E00E9403
:103D000006250230E0F082E00E94062518C011234B
:103D100031F0002391F28D2F0E949D1B10C00023D3
:103D200099F2D93349F41FEF27EE33E011502040C8
:103D30003040E1F700C000008D2F0E943F1C88EF4B
:103D40008C0D843020F40E94DC190E94A107DD2034
:103D5000C9F00E94702480FD15C0F70112820E94F4
:103D60006A240E940523C7010E94E31E0E946A2460
:103D7000DF91CF911F910F91FF90EF90DF90CF9047
:103D80000C942623DF91CF911F910F91FF90EF901C
:103D9000DF90CF9008950F931F93CF93DF93EC01A3
:103DA000688179818A810E9447248C010E94A22324
:103DB0000E949322B801CE010E94BF1CDF91CF91D7
:103DC0001F910F910895CF93DF93EC019881898122
:103DD0002B813C81232B31F08F3F31F481E09F3FD9
:103DE00019F403C081E001C080E080FD19C0CE015C
:103DF0000E94BA0781110CC00E947424882381F0AC
:103E00008A81882369F082E0DF91CF910C940625A6
:103E1000CE010E94CB1ECE01DF91CF910C9485077D
:103E2000DF91CF9108950E949B240E949E240E94BE
:103E3000BC2480E090E00E943D1A80E090E00C9469
:103E4000531A80911801909119010E94D1260C9467
:103E5000131F0E948B240C94211FE92FE295EF7011
:103E60004E2F50E0FA013297EE30F105B0F4E358EE
:103E7000FF4F0C947031803F91F018F4883E68F445
:103E80000EC0843F51F40BC0883E48F0813F29F4B6
:103E900006C093FB882780F9089580E0089581E0AB
:103EA00008950E943C240E942D1F0895CF93DF9314
:103EB00000D000D01F92CDB7DEB70F900F900F90BB
:103EC0000F900F90DF91CF910895CF93DF9300D0A3
:103ED00000D000D0CDB7DEB726960FB6F894DEBF7F
:103EE0000FBECDBFDF91CF9108951F93CF93DF9386
:103EF000C091440216E080914502C81799F0D0E0C5
:103F00001C9FF0011D9FF00D1124EA5BFD4F4081C5
:103F1000518162817381848195810E94651F219600
:103F2000C770E9CFDF91CF911F910895409176023C
:103F300050917702609178027091790280917A02B3
:103F400090917B020C94651F0F931F93CF93DF9387
:103F500080917B0282958F7009F05DC0809178021C
:103F6000882309F458C08091440210914502609161
:103F7000760270917702C0917902D0917A0291E035
:103F80006F3F09F090E0292F06E0811709F443C044
:103F9000209721F07F3F21F030E003C031E001C0E5
:103FA000322F90E030FD34C0089FF001099FF00DE2
:103FB0001124DF01AA5BBD4F11963C911197371375
:103FC00027C03C91361324C012963C9112973111B0
:103FD0001FC013964D915C9114974C1B5D0B483C90
:103FE0005105B0F480917B028F70806180937B02D9
:103FF000E55BFD4F80818F708061808386E792E072
:104000000E94E31EDF91CF911F910F910C94751FB9
:1040100001968770BACFDF91CF911F910F910895CC
:104020009F92AF92BF92CF92DF92EF92FF920F9347
:104030001F93CF93DF93CDB7DEB761970FB6F89498
:10404000DEBF0FBECDBF8C0185E0F801DE011D96FD
:1040500001900D928A95E1F7F80140815181E2804B
:1040600090917602609177022091790230917A02E4
:104070002115310531F06F3F31F481E09F3F19F494
:1040800003C081E001C080E0F82FF1709F2E80FD19
:1040900046C1F801A380B48086E7C82E82E0D82EFE
:1040A000F0907802F501E21BF30BFF2009F4DFC06A
:1040B00080917B02E83CF10508F09BC0282F207F0F
:1040C00009F052C0561313C0491311C0FE2CE11061
:1040D0000EC08F70806180937B020E94961FC60184
:1040E0000E94E31E80917B02F801858358C1AB28B2
:1040F00031F05F3F31F481E04F3F19F403C081E0BC
:1041000001C080E080FD03C081E08E2502C080E018
:1041100090E0F82FF170FF2E80FF1CC080914402C8
:104120002091450236E0821709F417C190E0389FCC
:10413000F001399FF00D1124EA5BFD4F61815613A8
:1041400006C06081461303C06281E61203C0019677
:104150008770E9CFFE2CEE2009F421C180917B020B
:10416000816080937B025AC0561306C0491304C075
:10417000E11002C0F8019FC04D875E878D859E8546
:104180000E94511F882379F1EE2069F120917B0272
:10419000822F82958F7090E0029774F08091760262
:1041A0009091770298878F831986BB86AA862C8781
:1041B000CE0107960E94E31E86E0F801A6E7B2E072
:1041C00001900D928A95E1F70E94A41F0E94961F0C
:1041D0000DC0561729F14D875E878D859E850E94FB
:1041E000511F81112CC0C8010E94E31EFF24F394CB
:1041F000D6C0282F207F69F77A2DB98AA88A6E2D1C
:1042000089890E94561F86E792E00E94E31E86E09D
:10421000F60111928A95E9F70E94961FF12CBFC012
:104220004913D9CFE110D7CFF8018583C8010E9487
:10423000E31E86E0F60111928A95E9F7B0C0EE2000
:1042400091F220917B02822F82958F7090E00297ED
:104250000CF4B2CF80917602909177029A83898391
:104260001B82BD82AC822E83CE010196A3CFE83C97
:10427000F10508F047C0FE2CEE2009F4B4CF561328
:1042800030C049132EC020917B0220FD21C0822F17
:1042900082958F70482F50E041155105C9F0F80103
:1042A00025834F30510541F08F5F982F9295907F75
:1042B000822F8F70892B8583C8010E94E31E86E0C0
:1042C000F801A6E7B2E001900D928A95E1F742C0AD
:1042D00086E0F801A6E7B2E001900D928A95E1F739
:1042E0005EC04D875E878D859E850E94511F81111E
:1042F00063CF80917B02816080937B02C8010E9422
:10430000E31E4DC07A2DB98AA88A6E2D89890E9434
:10431000561F86E0F60111928A95E9F71BC0EE2040
:1043200009F461CF4D875E878D859E850E94511F60
:10433000F82E882309F457CF86E0F801A6E7B2E00B
:1043400001900D928A95E1F786E792E00E94971B13
:104350000E94A41F0E94961F22C04D875E878D85F4
:104360009E850E943C24292F22952F70223028F40C
:104370009F7039F0811105C00BC0243028F49F7064
:1043800049F4805E883020F0C8010E94E31E9F2C13
:10439000F92C05C0F8019581907F99F7F9CF8F2D01
:1043A00061960FB6F894DEBF0FBECDBFDF91CF91FF
:1043B0001F910F91FF90EF90DF90CF90BF90AF9043
:1043C0009F90089588EC90E008951F93CF93DF931A
:1043D000CDB7DEB72C970FB6F894DEBF0FBECDBFBA
:1043E0004F83588769877A878B879C87CE0107968A
:1043F0000E9410208823D1F09F8188852A853B85E3
:10440000232B31F08F3F31F481E09F3F19F403C03B
:1044100081E001C080E080FD47C04F8158856985FB
:104420007A858B859C850E94651F3EC086E0FE01D3
:104430003796DE01119601900D928A95E1F7FF8182
:10444000E8856A857B856115710531F0EF3F31F4B0
:1044500081E0FF3F19F403C081E001C080E080FDEE
:1044600023C02091450230E0C90101968770992749
:104470004091440250E084179507F1F1F983EA83F3
:104480007D836C8396E0929FD001939FB00D1124A1
:10449000AA5BBD4FFE01319601900D929A95E1F70E
:1044A000809345020E94751F16E08091440290910E
:1044B0004502891771F1189FC00111248A5B9D4F35
:1044C0000E941020882329F1E09144021E9FF001F0
:1044D0001124EA5BFD4F40815181628173818481A7
:1044E00095810E94651F8091440290E0019687703B
:1044F000992780934402D9CF0E94291F1092450228
:1045000010924402E6E7F2E086E0DF011D928A9510
:10451000E9F72C960FB6F894DEBF0FBECDBFDF9142
:10452000CF911F910895089508950C9494220C94AE
:1045300095220E9497226093AD027093AE02809301
:10454000AF029093B0020C94131F0C9499220F9316
:104550001F930091AD021091AE022091AF023091F5
:10456000B002602B712B822B932B1F910F910C9417
:1045700099220F931F930091AD021091AE022091EA
:10458000AF023091B00260237123822393231F91E5
:104590000F910C9499220F931F930091AD021091EB
:1045A000AE022091AF023091B002602771278227BE
:1045B00093271F910F910C9499220C9494220E949E
:1045C000DD226093A9027093AA028093AB029093BC
:1045D000AC020C94131F60E070E0CB010C94DF225E
:1045E0000F931F9341E050E060E070E08A019B016F
:1045F00004C0000F111F221F331F8A95D2F7C90173
:10460000B8011F910F910C94DF220F931F9341E08B
:1046100050E060E070E004C0440F551F661F771F34
:104620008A95D2F78091A9029091AA02A091AB023B
:10463000B091AC028A019B01082B192B2A2B3B2B32
:10464000C901B8011F910F910C94DF220F931F93A2
:1046500041E050E060E070E004C0440F551F661F69
:10466000771F8A95D2F74095509560957095809107
:10467000A9029091AA02A091AB02B091AC028A016A
:104680009B01082319232A233B23C901B8011F9149
:104690000F910C94DF220F931F9341E050E060E0F4
:1046A00070E004C0440F551F661F771F8A95D2F72C
:1046B0008091A9029091AA02A091AB02B091AC02A4
:1046C0008A019B01082719272A273B27C901B8011E
:1046D0001F910F910C94DF220F931F930091A90259
:1046E0001091AA022091AB023091AC02602B712B89
:1046F000822B932B1F910F910C94DF220F931F930A
:104700000091A9021091AA022091AB023091AC0253
:1047100060237123822393231F910F910C94DF2236
:104720000F931F930091A9021091AA022091AB024E
:104730003091AC0260277127822793271F910F9138
:104740000C94DF2208952EE0929F800D1124E82F13
:10475000E695E695E695877051E001C0550F8A957C
:10476000EAF785E0E89FF0011124E458FD4F20E0CE
:1047700030E070E04081CB01022E02C09695879513
:104780000A94E2F781708195842785238427819399
:104790002F5F3F4F2530310569F708952EE0929F36
:1047A000800D1124682F669566956695982F9770F1
:1047B00085E0689FB001112440E050E080E0FB01FB
:1047C000E40FF51FE458FD4F208130E0092E02C0B0
:1047D000369527950A94E2F721703327042E01C0FD
:1047E000220F0A94EAF7822B4F5F5F4F4530510545
:1047F00031F70895BF92CF92DF92EF92FF920F931D
:104800001F93CF93DF938C01C090A902D090AA028E
:10481000E090AB02F090AC028091AD029091AE02BC
:10482000A091AF02B091B002C82AD92AEA2AFB2A85
:10483000CFE1D0E0D701C6010C2E04C0B695A795F4
:10484000979587950A94D2F780FD04C0219790F739
:10485000B12C07C0BC2EB8018C2F0E9433080197E1
:10486000A9F38B2DDF91CF911F910F91FF90EF90C6
:10487000DF90CF90BF900895CF93DF93EC010E941B
:10488000FA23BE010E943308DF91CF9108951F9350
:10489000CF93DF93EB0190914302992321F0CB0159
:1048A0000E943C2413C0882349F0CB010E94FA23C4
:1048B000182F682FCE010E94A32304C0CB010E94B1
:1048C000CE23182FBE01812F0E943308DF91CF9194
:1048D0001F9108958091B1028595859585950895DC
:1048E0008091B102877008959091B102977081E034
:1048F00009F480E008958091D50208959091D50241
:10490000892B8093D502089580959091D5028923B3
:104910008093D50208951092D50208959091D40203
:10492000892B8093D402089580959091D402892395
:104930008093D40208951092D40208951092D30265
:1049400008958091B202089508950C94A4240C94C3
:10495000A5249091B202981721F08093B2020C9492
:10496000A72408958091B202882329F01092B20200
:1049700080E00C94A7240895E0911801F0911901AA
:104980008091D5028083E0911801F0911901908106
:104990008091D402892B8083E0911801F091190154
:1049A00090818091D302892B80838091B2028823E9
:1049B00081F0E0911801F09119019081892B808399
:1049C00080911801909119010E94032681110E9483
:1049D000B22480911801909119010C94E8190C945B
:1049E000A42498E0899F90011124262B2093B102E2
:1049F0000E9405238091B1028595859585950C943B
:104A0000EF241092B10280E00C94EF242091B102C7
:104A1000809582238093B102982F977079F430E0CB
:104A2000482F082E000C550B2417350739F08595B3
:104A3000859585950E9426230C94012508959093D1
:104A4000D5018093D40108958295982F937344E003
:104A5000949F900111248C7C86958695282B822F1B
:104A60008575880F2A7A2695822B0895CF93DF9338
:104A7000D92F0E942425C82F8D2F0E9424252C2F4A
:104A800030E0322F2227A901482BCA01DF91CF91B4
:104A9000089580E090E00E941E3221E08C3E9E4FFF
:104AA00009F020E0822F089582E090E00C9410320B
:104AB000682F82E090E00C94243283E090E00C9424
:104AC0001032682F83E090E00C942432CF9384E07E
:104AD00090E00E941032C82F81E290E00E941032D4
:104AE0002C2F30E0A901582BCA01CF910895CF9304
:104AF000C92F682F84E090E00E9424326C2F81E25D
:104B000090E0CF910C94243286E090E00C94103227
:104B1000682F86E090E00C942432AB01BC018FE05A
:104B200090E00C943632AB01BC0183E190E00C9430
:104B3000363260E070E0CB010C94932560E070E0C9
:104B4000CB010E948D250C9499256CEE7EEF80E0C0
:104B500090E00E94423260E082E090E00E942432C5
:104B600060E083E090E00E9424321092AD02109247
:104B7000AE021092AF021092B00260E084E090E0CA
:104B80000E94243260E081E290E00E94243260E0E2
:104B900085E090E00E94243260E086E090E00E9490
:104BA00024326FEF87E090E00E94243240E050E032
:104BB000BA0188E090E00E94363260E08DE090E03B
:104BC0000E94243240E050E0BA0188E190E00E9467
:104BD000363260E087E190E00E94243240E050E00D
:104BE000BA018CE190E00E94363260E080E290E011
:104BF0000E9424320C949E250C94A525682F8EE0EB
:104C000090E00C942432FC01329680912401882398
:104C100031F08091470387FF02C09EE101C096E01A
:104C200080E0915028F021912223D9F38F5FF9CFB2
:104C30000895662351F1209124012223E9F0209167
:104C4000470327FF19C0462F4695469546954E3196
:104C5000E0F4677021E030E002C0220F331F6A9554
:104C6000E2F7FC01E40FF11D828190E02823392353
:104C700081E0232B69F409C0FC013296089621914A
:104C8000621729F0E817F907D1F780E0089581E06D
:104C900008959C01FC0132969FEF80E041914617F8
:104CA00089F09F3F19F4411101C0982F8F5F863022
:104CB000A9F79F3F39F0F901E90FF11D97FDFA952A
:104CC0006283089508959C012A5F3F4FFC01428151
:104CD000461301C01282019682179307B9F708950F
:104CE000262F2695269526952E3170F4FC01E20F8D
:104CF000F11D677021E030E001C0220F6A95EAF7EC
:104D00008281282B228308958091D60280FF0CC0D7
:104D10001F926F9389EB9AE09F938F930E942B07CA
:104D20000F900F900F900F900895262F269526959F
:104D300026952E3178F4FC01E20FF11D677021E019
:104D400030E001C0220F6A95EAF72095828128237E
:104D5000228308958091D60280FF0CC01F926F932A
:104D60008BE99AE09F938F930E942B070F900F90EF
:104D70000F900F90089520912401222329F0209173
:104D8000470327FD0C9470260C944926209124019A
:104D9000222329F02091470327FD0C9495260C949B
:104DA000632620912401FC013296222331F0809168
:104DB000470387FF02C08EE101C086E0DF011D923C
:104DC0008A95E9F7089508950C94E3260C94E32658
:104DD000CF930E94E6260E94A60A0E94E426C0E025
:104DE0008C2F0E94FB09892B29F4CF5FC530C1F7B6
:104DF00080E001C081E0CF9108950C94E3260C94EB
:104E0000FD260E94FF2680914D03843009F43CC0AA
:104E10001092D70220E488E190E00FB6F894A895AC
:104E2000809360000FBE2093600080E00E94A21675
:104E300080E00E94A1070E94D3118091D8028111C5
:104E40000AC081E08093D80280911303817080931F
:104E5000D9020E9441130E94FF2683B7817F84609C
:104E600083BF83B7816083BF7894889583B78E7F33
:104E700083BF0FB6F894A8958091600088618093F5
:104E80006000109260000FBE08950C94E3260E940B
:104E9000291F0E94F4140E94DC190E94A10710929D
:104EA000D8028091D90281110E94DC120E94B111B6
:104EB0000C9445271F920F920FB60F9211248F93D7
:104EC0009F93AF93BF938091D702811113C08091BC
:104ED000430390914403A0914503B091460341964A
:104EE000A11DB11D8093430390934403A0934503F8
:104EF000B0934603BF91AF919F918F910F900FBEDA
:104F00000F901F90189582E084BD93E095BD9AEFB5
:104F100097BD80936E0008952FB7F8948091430356
:104F200090914403A0914503B09146032FBF08958B
:104F30009C014FB7F8948091430390914403A09152
:104F40004503B09146034FBF821B930B089578949D
:104F50001F920F920FB60F9211248F939F93AF93CE
:104F6000BF938091430390914403A0914503B09176
:104F700046030196A11DB11D809343039093440302
:104F8000A0934503B0934603BF91AF919F918F913A
:104F90000F900FBE0F901F90189581E08093E00056
:104FA00080E28093D8001092C9008FE19EE40197BF
:104FB000F1F700C0000087E090EBDC01809356031E
:104FC00090935703A0935803B09359039CE088E152
:104FD0000FB6F894A895809360000FBE9093600080
:104FE000FFCFAF92BF92CF92DF92EF92FF920F93DB
:104FF0001F93CF93C0E0CC24C394D12CE82EF12C86
:105000008C2F0E94FB095C0100E010E0C601002E1D
:1050100002C0880F991F0A94E2F78A219B21892BED
:1050200031F40F5F1F4F0E30110581F70AC0602F5A
:105030007C2F80E00E942008E816F90691F781E0B5
:1050400004C0CF5FC530E1F680E0CF911F910F9192
:10505000FF90EF90DF90CF90BF90AF900895CF93E7
:10506000C82F8CE20E94F127882321F08C2FCF914A
:105070000C94F12780E0CF910895CF930E944925A9
:10508000811102C00E94FC258EED9AE00E949206DA
:10509000C5E6C15049F00E94A60A8FE39CE901973A
:1050A000F1F700C00000F5CF87ED9AE00E9492066C
:1050B00089E20E942F2881112AC18AE20E942F28AA
:1050C00081110E94FC2585E00E942F2881110E94F9
:1050D000CD270E9454258093D60287E00E942F2876
:1050E0008823A9F18BE10E942F28882351F0809119
:1050F000D60281FB222720F991E0922790FB81F9CB
:105100000EC08EE00E942F28882361F08091D60285
:1051100082FB222720F991E0922790FB82F980936D
:10512000D60215C080E10E942F289091D6028823D4
:1051300041F093FB222720F981E0822780FB93F93D
:1051400004C0892F809580FB90F99093D6028091BE
:10515000D6020E9458250E946625909348038093AA
:10516000470380EE0E942F28882341F08091470357
:10517000982F909590FB80F98093470389E30E94D4
:105180002F28882359F08091470381FB222720F99B
:1051900091E0922790FB81F98093470382EE0E9471
:1051A0002F28882359F08091470382FB222720F97A
:1051B00091E0922790FB82F98093470386EE0E944C
:1051C0002F28882359F08091470383FB222720F959
:1051D00091E0922790FB83F98093470383EE0E942E
:1051E0002F28882359F08091470384FB222720F938
:1051F00091E0922790FB84F98093470385E30E9416
:105200002F28882359F08091470385FB222720F916
:1052100091E0922790FB85F98093470381E30E94F8
:105220002F28882359F08091470386FB222720F9F5
:1052300091E0922790FB86F98093470381E10E94D9
:105240002F28882359F08091470387FB222720F9D4
:1052500091E0922790FB87F9809347038091470361
:10526000909148030E94772587E20E942F28C82F3B
:105270008EE10E942F288111C2608FE10E942F28A9
:105280008111C46080E20E942F288111C86081E2F0
:105290000E942F288111C06182E20E942F28811173
:1052A000C06283E20E942F288111C06484E20E94C0
:1052B0002F28882311F0C06802C0CC2329F08C2F3E
:1052C0000E9461256C2F03C00E945D25682F70E04D
:1052D00080E090E00E94A5226091A9027091AA024C
:1052E0008091AB029091AC020E94DD228FE00E947F
:1052F0002F28882319F081E00E94FE2585E10E9475
:105300002F28882321F080E0CF910C94FE25CF91A7
:1053100008958091FD02089508959FB7F894109222
:10532000DC029FBF90914D03943009F057C09091DB
:10533000E9009F703091EC00232F217030FD20E8B0
:10534000922B23E02093E9002091EB0020FF43C043
:105350002091EE0027FF3FC02091DA02222321F0A6
:105360002091E80025FF37C01092DA0226E0309144
:10537000E80035FD15C030914D03343061F53091B2
:10538000EB0035FD28C0215021F481E08093DA0242
:1053900022C0EFE9FFE03197F1F700C00000E7CF4E
:1053A0008093F1008091E80085FD0AC08091E800BB
:1053B00080FFFCCF8091E8008E778093E80006C0E4
:1053C0008FB7F89421E02093DC028FBF9F709093F9
:1053D000E90080E008959F709093E9008FEF0895B1
:1053E000CF93DF9300D01F92CDB7DEB790914D03DE
:1053F000943019F589837B836A8382E08093E90086
:105400008FEF9091E800815095FD06C095ED9A953B
:10541000F1F700008111F5CF8091E80085FF0DC004
:1054200040E050E063E070E0CE0101960E945F2C06
:105430008091E8008E778093E8000F900F900F9096
:10544000DF91CF910895BC0184E00C94F029BC0158
:1054500083E00C94F029CF93DF9320912401222341
:1054600039F02091470327FF03C060E222E002C029
:1054700068E021E02093E9002FEF3091E80021500F
:1054800035FD06C035ED3A95F1F700002111F5CF55
:105490002091E80025FF1DC0EC01809124018111BD
:1054A00005C040E050E068E070E003C070E040E01C
:1054B00050E0CE010E945F2C8091E8008E778093AF
:1054C000E80080E2FE01ADEDB2E001900D928A9518
:1054D000E1F7DF91CF91089588E19BE00E94920669
:1054E00080914C03811109C00E94F02D0E944D2E25
:1054F0008091E20084608093E200089584E19BE063
:105500000E94920610924C03089580E19BE00C9457
:1055100092068CE09BE00C94920688E09BE00E944F
:1055200092060C9447272091DB022F5F822F62E3C3
:105530000E940C31992319F02093DB0208951092F8
:10554000DB028091DC02882371F180914D0384306D
:1055500041F58091E9008F702091EC00922F9170BD
:1055600020FD90E8892B93E09093E9009091EB0067
:1055700090FF14C09091EE0097FF10C09091E8004A
:1055800095FF03C01092F100F9CF9091E80090FFD1
:1055900005C09091E8009E779093E8008F7080930B
:1055A000E9001092DC02089542E061EC81E00E9483
:1055B000692D42E261EC82E00E94692D42E261ECD9
:1055C00083E00C94692D80914F03833009F460C00F
:1055D00030F4813071F0823009F499C008958A3036
:1055E00009F485C08B3009F46BC0893009F0A7C07D
:1055F00020C080914E03813A09F0A1C08091E8005B
:10560000877F8093E8008091520390915303892B08
:1056100021F460E28DED92E003C060E080E090E074
:1056200070E00E94AA2C8091E8008B778093E800BC
:10563000089580914E03813209F081C08091520318
:1056400090915303029708F07AC08091E800877F19
:105650008093E8008091E80082FD05C080914D03B1
:105660008111F8CF6CC02091F3008091F20090E09E
:10567000922B029729F48091F1008B7F813021F4E5
:105680008091F1008093FD028091E8008B7753C0F8
:1056900080914E03813A09F052C08091520390915B
:1056A0005303892B09F04BC08091E800877F8093DA
:1056B000E8008091E80080FFFCCF8091240136C093
:1056C00080914E038132D9F580915203909153031A
:1056D000892BA9F58091E800877F8093E8000E94DC
:1056E0009E2D80915003809324010C94291F80915A
:1056F0004E03813221F58091E800877F8093E80096
:105700000E949E2D809151038093FE020895809106
:105710004E03813AA1F48091E800877F8093E800EE
:105720008091E80080FFFCCF8091FE028093F10021
:105730008091E8008E778093E8000C949E2D089568
:1057400084B7877F84BF0FB6F894A89580916000D6
:10575000886180936000109260000FBE90E080E846
:105760000FB6F89480936100909361000FBE0E9481
:10577000791A0E94F02D0E944D2E8091E2008460E3
:105780008093E2008DE899E20E941F2578940E94A0
:10579000E1300E94831A8AE191E00E94D71987EFD5
:1057A0009AE00E94920680914D03853089F483EF40
:1057B0009AE00E9492060E94012780914B03882361
:1057C00091F30E94E826882371F30E94492CEBCFC5
:1057D0000E94B71AE8CF0C94ED2B292F33272330E2
:1057E0003105C9F060F42130310581F022303105F6
:1057F00009F047C08BE590E02EE33BE046C0213244
:10580000310511F12232310561F13BC082E190E0B6
:1058100029E93BE03AC099278130910561F040F0D9
:105820008230910559F0039761F5ECE1FBE008C087
:10583000EAE3FBE005C0E0E3FBE002C0E2E2FBE0FC
:10584000849190E09F0121C063307105D0F4660F10
:10585000771FFB01E253FE4F2081318189E090E008
:1058600014C06330710568F4FB01EE0FFF1FE853AD
:10587000FE4F20813181FB01EB53FE4F808190E090
:1058800004C080E090E020E030E0FA013183208322
:10589000089580E189BD82E189BD09B400FEFDCF94
:1058A0008091D8008F7D8093D8008091E000826045
:1058B0008093E0008091E00081FDFCCF0895CF92BD
:1058C000DF92EF92FF920F931F93CF93DF93EC0140
:1058D0008B017A010E94BD2D811133C0E114F104C6
:1058E00039F0F70180819181081B190BC80FD91F6E
:1058F000C12CD12C0115110519F18091E80085FD0D
:1059000016C08091E8008E778093E800E114F104DE
:1059100049F0F70180819181C80ED91ED182C082E1
:1059200085E00FC00E94BD2D882321F30AC0899114
:105930008093F10001501109FFEFCF1ADF0ADACF8F
:1059400080E0DF91CF911F910F91FF90EF90DF905A
:10595000CF900895209154033091550326173707AF
:1059600048F06115710539F42091E8002E772093F5
:10597000E80001C0B901FC0120E06115710579F171
:1059800080914D038823F1F18530F1F18091E80099
:1059900083FD3CC08091E80082FD2EC08091E8002C
:1059A00080FFEBCF2091F3008091F20090E0922BEA
:1059B0006115710551F08830910538F421912093DB
:1059C000F100615071090196F3CF21E0089709F0C9
:1059D00020E08091E8008E778093E800CECF2111FF
:1059E000CFCF0AC080914D03882361F0853061F0EC
:1059F0008091E80083FD0AC08091E80082FFF2CF29
:105A000080E0089582E0089583E0089581E008959C
:105A100020915403309155032617370748F061153C
:105A2000710539F42091E8002E772093E80001C039
:105A3000B901FC0120E06115710591F180914D03E0
:105A4000882309F440C0853009F43FC08091E80004
:105A500083FD3DC08091E80082FD2FC08091E80069
:105A600080FFE9CF2091F3008091F20090E0922B2B
:105A70006115710559F08830910540F42491209307
:105A8000F1003196615071090196F2CF21E008973B
:105A900009F020E08091E8008E778093E800CBCF7A
:105AA0002111CCCF0AC080914D03882361F085304D
:105AB00061F08091E80083FD0AC08091E80082FFD8
:105AC000F2CF80E0089582E0089583E0089581E0B8
:105AD0000895982F973068F59093E900981739F05A
