:100000000C943D060C9484060C9484060C9484068F
:100010000C9484060C9484060C9484060C94840638
:100020000C9484060C9484060C94DD2D0C94AF2E55
:100030000C94B3260C9484060C9484060C948406C9
:100040000C9484060C9484060C9484060C94840608
:100050000C9472160C9400270C9484060C9484065D
:100060000C9484060C9484060C9484060C948406E8
:100070000C9484060C9484060C9484060C948406D8
:100080000C9484060C9484060C9484060C948406C8
:100090000C9484060C9484060C9484060C948406B8
:1000A0000C9484060C9484060C948406D013D31309
:1000B000DB13E013E513EA13EF13F413F913FE1344
:1000C000031408140A140D1410141314161419141C
:1000D0001B142014DA15DC15E115E415E715EA15F3
:1000E000ED15551C551C871C871CD41CFB1DFB1DC6
:1000F000FB1DF21C8B1D9C1D9C1D971E971EA91E8F
:10010000A91EA01EA91EA91EA91E971E971EA51EE8
:10011000A91EA91EA51E1C2F432F3B30432F3B3089
:100120008F2FB22F3B300930183029001E001F00DE
:1001300020002100220023002400250026002700A3
:100140002D002E0031002B0014001A0008001500AD
:1001500017001C0018000C00120013002F003000C4
:100160002A00E00004001600070009000A000B0046
:100170000D000E000F003300340028000000D75C93
:100180001D001B00060019000500110010003600BC
:1001900037003800D85C02510000E200E200E300C2
:1001A0000000000000002C43000000000000E300FD
:1001B000E200E6003541005C0100010001000100A1
:1001C0000100010001000100010001000100010027
:1001D00001000100C25CC35CC55CC65CC75CC85C56
:1001E000C95CCA5C01000100A600A7000100010073
:1001F00001000100010001000100010001000100F7
:1002000001000100010001000000010001000100E7
:10021000BD5CBF5CBE5CC05C010001000100010070
:1002200001000100000001000100010000000000C9
:1002300000000100000000000000010001000100BA
:1002400001002C053A003B003C003D003E003F0011
:10025000400041004200430044004500000000000F
:10026000AC00AB00AE000000000000000000000089
:10027000000000000000000000000000AA00A9002B
:10028000A8000000000000000000000000000000C6
:10029000000000000000000000000000000000005E
:1002A000000000000000000000000000000001004D
:1002B000000000000000000000000000000000003E
:1002C0000000000000000000000000004C000000E2
:1002D000000000000000000000000000000000001E
:1002E000000000000000000000000000000000000E
:1002F00000000000000000004B0052004E00000013
:1003000000000000000000000000000000000000ED
:1003100000000000500051004F00000000000000ED
:1003200000000000000000000000000000000000CD
:1003300000004A004D000000000000000000000026
:1003400000000000000000000000000000000000AD
:1003500000000000000000004C0044454255473AB0
:100360002064697361626C65642E0A0044454255DD
:10037000473A20656E61626C65642E0A000A0025AA
:1003800030313662003A200025303258000A722F90
:1003900063203031323334353637383941424344C3
:1003A00045460A007267626C696768742074696DFB
:1003B00065722064697361626C652E0A00726762FF
:1003C0006C696768742074696D657220656E61621E
:1003D0006C65642E0A007267626C696768742073CA
:1003E000657420687376205B4E4F454550524F4DE3
:1003F0005D3A2025752C25752C25750A00726762DB
:100400006C696768742073657420687376205B4537
:100410004550524F4D5D3A2025752C25752C25757C
:100420000A007267626C69676874207261696E6243
:100430006F7720736574206873763A2025642C25C5
:10044000642C25642C25750A007267626C696768E4
:10045000742064697361626C65205B4E4F45455042
:10046000524F4D5D3A207267626C696768745F63D2
:100470006F6E6669672E656E61626C65203D202532
:10048000750A007267626C696768742064697361D9
:10049000626C65205B454550524F4D5D3A20726756
:1004A000626C696768745F636F6E6669672E656EFC
:1004B00061626C65203D2025750A007267626C6977
:1004C00067687420656E61626C65205B4E4F4545C0
:1004D00050524F4D5D3A207267626C696768745F75
:1004E000636F6E6669672E656E61626C65203D2084
:1004F00025750A007267626C6967687420656E61B1
:10050000626C65205B454550524F4D5D3A207267E5
:10051000626C696768745F636F6E6669672E656E8B
:1005200061626C65203D2025750A007267626C6906
:1005300067687420746F67676C65205B454550522F
:100540004F4D5D3A207267626C696768745F636FD4
:100550006E6669672E656E61626C65203D2025754B
:100560000A007267626C69676874206D6F64652049
:100570005B4E4F454550524F4D5D3A2025750A0060
:100580007267626C69676874206D6F6465205B4593
:100590004550524F4D5D3A2025750A007267626CD6
:1005A000696768745F696E6974207267626C6967F5
:1005B00068745F636F6E6669672E6D6F6465203D5A
:1005C00020302E2057726974652064656661756CF1
:1005D000742076616C75657320746F2045455052A8
:1005E0004F4D2E0A007267626C696768745F696EAE
:1005F0006974206565636F6E666967206973206E34
:100600006F7420656E61626C65642E0A00726762A9
:100610006C696768745F696E697420737461727461
:10062000210A007267626C696768745F696E697439
:100630002063616C6C65642E0A007267626C696786
:1006400068745F636F6E6669672E7370656564209A
:100650003D2025640A007267626C696768745F6395
:100660006F6E6669672E76616C203D2025640A00F6
:100670007267626C696768745F636F6E6669672E24
:10068000736174203D2025640A007267626C69679B
:1006900068745F636F6E6669672E687565203D20BC
:1006A00025640A007267686C696768745F636F6EBF
:1006B0006669672E6D6F6465203D2025640A0072AF
:1006C00067626C696768745F636F6E6669672E65E1
:1006D0006E61626C65203D2025640A007267626C61
:1006E000696768745F636F6E66696720454550523D
:1006F0004F4D3A0A0032190A00047F3F1F6432143A
:10070000643214783C1E1E140A052223252628294B
:100710002A2C2D2F3032333536383A3B3D3E40427D
:10072000434547494A4C4E5051535557595A5C5EC0
:100730006062646668696B6D6F71737577797B7DD4
:100740007F81838587898A8C8E90929496989A9CD3
:100750009E9FA1A3A5A7A8AAACAEAFB1B3B4B6B8EB
:10076000B9BBBCBEBFC1C2C3C5C6C7C9CACBCCCD4D
:10077000CED0D1D2D2D3D4D5D6D7D7D8D9D9DADA28
:10078000DBDBDBDCDCDCDCDCDDDDDDDDDCDCDCDCA8
:10079000DCDBDBDBDADAD9D9D8D7D7D6D5D4D3D2DC
:1007A000D2D1D0CECDCCCBCAC9C7C6C5C3C2C1BFBA
:1007B000BEBCBBB9B8B6B4B3B1AFAEACAAA8A7A51E
:1007C000A3A19F9E9C9A98969492908E8C8A8987DA
:1007D0008583817F7D7B79777573716F6D6B6968B8
:1007E000666462605E5C5A5957555351504E4C4A8C
:1007F0004947454342403E3D3B3A38363533323037
:100800002F2D2C2A292826252322FFAA7F55406236
:1008100061636B6C69676874206272656174686992
:100820006E672064697361626C650A006261636B64
:100830006C6967687420627265617468696E6720AC
:10084000656E61626C650A006261636B6C69676802
:100850007420627265617468696E6720746F67677F
:100860006C653A2025750A006261636B6C69676884
:100870007420737465703A2025750A006261636B99
:100880006C696768742064697361626C650A0062F0
:1008900061636B6C6967687420656E61626C650A80
:1008A000006261636B6C6967687420746F67676C62
:1008B000653A2025750A006261636B6C696768742C
:1008C0002064656372656173653A2025750A00626C
:1008D00061636B6C6967687420696E6372656173CC
:1008E000653A2025750A00000000000000000000A5
:1008F000000001010203040506080A0C0F11141878
:100900001C2024292E33393F464C535B626A71798F
:10091000818A929AA2AAB2B9C1C8CFD5DCE1E7EB2D
:10092000F0F4F7FAFCFDFEFFFEFDFCFAF7F4F0EB45
:10093000E7E1DCD5CFC8C1B9B2AAA29A928A81797F
:10094000716A625B534C463F39332E2924201C18B0
:1009500014110F0C0A08060504030201010000002F
:10096000000000000000000001010101010101017F
:100970000102020202020202020203030303030352
:100980000303040404040404040505050505060620
:1009900006060607070707070808080809090909DE
:1009A0000A0A0A0B0B0B0C0C0C0D0D0D0E0E0E0F84
:1009B0000F0F101011111112121313141415151614
:1009C000161717181819191A1A1B1B1C1D1D1E1E85
:1009D0001F202021222223242425262627282929D6
:1009E0002A2B2C2D2D2E2F30313232333435363701
:1009F00038393A3B3C3D3E3F4041424344454647FF
:100A000048494A4C4D4E4F50515354555658595AD7
:100A10005B5D5E5F616264656668696B6C6D6F707B
:100A200072737577787A7B7D7E8082838587888AEA
:100A30008C8E8F91939596989A9C9EA0A2A3A5A721
:100A4000A9ABADAFB1B3B5B7BABCBEC0C2C4C6C91D
:100A5000CBCDCFD1D4D6D8DBDDDFE2E4E7E9EBEED6
:100A6000F0F3F5F8FAFDFF0A002530325820006B4C
:100A70006579626F6172645F7265706F72743A203B
:100A8000000A0025303258006B6579626F6172642C
:100A90005F7365745F6C65643A200064656C5F6BBE
:100AA00065795F6269743A2063616E2774206465BA
:100AB0006C3A20253032580A006164645F6B6579B6
:100AC0005F6269743A2063616E2774206164643ADE
:100AD00020253032580A00646F6E652E0A00626F5E
:100AE0006F746D61676963207363616E3A202E2EA7
:100AF0002E20005B735D004B6579626F617264202C
:100B000073746172742E0A005B575D005B535D0065
:100B10005B525D005B445D005B435D00040330009D
:100B200000000C036B0062006400360078000000D7
:100B3000080359006F00750000000403090409024E
:100B40005B00030100A0FA09040000010301010099
:100B50000921110100012240000705810308000A54
:100B60000904010001030000000921110100012214
:100B70006D000705820320000A0904020002030039
:100B80000000092111010001222200070583032032
:100B900000010705030320000112011001000000FD
:100BA00008424B58360100010203010631FF097467
:100BB000A1010975150026FF00952075088102091D
:100BC00076150026FF00952075089102C0050109E1
:100BD00080A101850319012AB700150126B70095E8
:100BE0000175108100C0050C0901A10185041901DE
:100BF0002AA002150126A002950175108100C005EA
:100C0000010906A1018505050719E029E715002559
:100C1000019508750181020507190029EF150025C6
:100C20000195F075018102050819012905950575E1
:100C3000019102950175039101C005010906A10109
:100C4000050719E029E715002501950875018102BE
:100C50009501750881010507190029FF150026FF78
:100C60000095067508810005081901290595057587
:100C7000019102950175039101C011241FBECFEFB0
:100C8000DAE0DEBFCDBF04B603FE27C08091570374
:100C900090915803A0915903B0915A038730904B1B
:100CA000A740B04BD1F41092570310925803109202
:100CB000590310925A0314BE84B7877F84BF0FB6BE
:100CC000F894A895809160008861809360001092EC
:100CD00060000FBEE0E0F8E3099511E0A0E0B1E0AC
:100CE000E8EBF3E602C005900D92A43DB107D9F7F9
:100CF00023E0A4EDB1E001C01D92A735B207E1F7F2
:100D00000E94032B0C94DA310C940000FF93EF93B4
:100D1000E091D401F091D501309709F00995EF9158
:100D2000FF910895FC018591803011F0EFDFFBCF3A
:100D30000895FF27E0E230E247FF0CC0419597FF9E
:100D400009C0EDE26095709580959095611D711DCB
:100D5000811D911D27FF02C0219530E350E2AA2793
:100D6000660F771F881F991FAA1FA41710F0A41BD6
:100D700063955A95A9F7AA3008F0A95FA05DAF93D3
:100D8000F395611571058105910541F7ED3211F477
:100D9000EF93F395F21718F43F93F395FBCF8F91F0
:100DA000B5DFFA95E1F70895E991F99185918030E1
:100DB00021F0853219F0AADFF9CF089520E0E894F8
:100DC00055915532C1F3503311F4689455915A330B
:100DD00048F4505390F3220F022E220F220F200DC1
:100DE000250FF4CF0EF4219589919991533619F37B
:100DF000533729F1533559F1BC0188279927E894D5
:100E00005C3621F48991999168945591543639F45E
:100E100046EF7EF077FF0DC08FEF9FEF0AC055378A
:100E20004AE039F0583540E121F0523642E009F00D
:100E30000895FF93EF937DDFEF91FF91B7CFFF937D
:100E4000EF93FC0181918030B9F360DFFBCFFF931A
:100E5000EF9368DFF1CFDF93CF93CDB7DEB7259661
:100E6000A3DFCF91DF9108950C94520A0C94500A9D
:100E70000C94440781FF02C0269A01C026982E9840
:100E80000C949C0781E0089581E0089508950C94E6
:100E900046071F93CF93DF9300D000D01F92CDB7AA
:100EA000DEB749835A836B833091430289819A81EB
:100EB000311114C0662359F0222349F00E945323B4
:100EC000182F682F89819A810E94FC2203C00E94FA
:100ED0002723182F69817A81812F04C00E94532310
:100EE00069817A810F900F900F900F900F90DF9192
:100EF000CF911F910C942008FC01262F4081518135
:100F00006281738184810C944907CF93DF93EC0154
:100F100060E00E947C07BE01DF91CF910C944707EF
:100F20000E94A224811102C00E9455250E94E11650
:100F30000C9434070C943607089581E008950C94BE
:100F40009D07CF93C82F0E943A078C2F0E949F07BE
:100F5000CF91089508950E94851E0E94AA072FEF41
:100F600084E39CE0215080409040E1F700C0000005
:100F70000C9426270F931F93CF93DF93EC0161E02E
:100F80000E947C078C01BE010E943807882309F467
:100F900050C0BE01C8010E94CB15882309F449C086
:100FA000BE01C8010E949617882309F442C0BE0101
:100FB000C8010E94D7178823E1F1BE01C8010E9431
:100FC00002198823B1F1BE01C8010E94B913882318
:100FD00081F18A81882331F101308CE5180751F0C5
:100FE0000E3D8CE51807D9F001151C45D9F40E9477
:100FF000AB071FC08091D602C82FC095C170C0FB3F
:1010000080F98093D602CC2329F08CE693E00E94ED
:1010100092060FC08AE593E00E9492060BC00E94E0
:10102000552507C0CE01DF91CF911F910F910C94F0
:101030004207C0E08C2FDF91CF911F910F9108954F
:1010400026E4829FC0011124FC012EE0729FE00D76
:10105000F11D1124E60FF11DEE0FFF1FE65DFE4F9F
:10106000859194910895CF93DF930E9420080E9468
:101070002409EC0181159245F0F5C11581E5D807E9
:1010800008F0A9C0C83ED10528F5C03ED10508F03A
:10109000D7C0C83AD10578F4C53AD10508F074C074
:1010A000C130D10509F4CCC008F4C8C0C430D105A2
:1010B00008F0C6C0C3C0CF3BD10508F0BFC0C85AB6
:1010C000D0E0CC0FDD1FCC5DDE4F0990D881C02D64
:1010D000D464B6C0C11590E5D90708F060C0C11549
:1010E00020E4D20708F058C0CE019A9581159F419F
:1010F00008F4A6C0A3C0C11586E5D80718F5C11528
:1011000095E5D90708F080C0C11524E5D20708F09D
:1011100076C09E01237033278C2F86958695C11546
:10112000D34508F05DC0C1E0D0E002C0CC0FDD1FA8
:101130002A95E2F720E2829FC0011124C82BD92B07
:10114000DC687EC0C1152AE5D20778F4C11589E5AF
:10115000D80708F063C0C11598E5D90708F46EC038
:10116000DC2FCC27C06FD06A6BC0CE0190568115A2
:10117000904208F063C08D2F8F710E94B809DD275F
:10118000D0628F71D82B5CC0C55AD0E0CE5ADE4FEA
:10119000C881D0E0D06454C0DF70D06A51C0CE01A5
:1011A00074E0969587957A95E1F783709C2F9370FC
:1011B00021E030E002C0220F331F9A95E2F73C682D
:1011C000382BCF70C695C69580E2C89FE0011124E8
:1011D000C22BD32B35C0DC2FCC27C16FD06A30C0D7
:1011E000C1E0D0E002C0CC0FDD1F2A95E2F720E27B
:1011F000829FC0011124C82BD92BDA6821C0DC2FB3
:10120000CC27C46FD06A1CC08C2F0E94B8098F7184
:10121000C82FD0E0DC2FCC27D06212C08C2F8F706B
:101220000E94B80994E0D695C7959A95E1F7CF70DA
:10123000D0E0DC2FCC27D069C82B02C0C0E0D0E0C2
:10124000CE01DF91CF9108958238910569F1B0F414
:101250008133910509F46DC048F48932910509F490
:1012600063C08A32910509F469C0089585339105F8
:1012700009F455C089339105B9F00895833E91056D
:1012800069F138F4803E9105B1F0823E910509F193
:101290000895863E9105A9F1873E9105B9F1843EF6
:1012A000910509F064C023C02091480320FD4FC080
:1012B00021FD4DC008958091480380FD44C0809178
:1012C000490380FF44C08091480384FD42C083EEFF
:1012D0004DC08091480382FF38C0F5CF809148030C
:1012E00082FD33C08091490380FD31C0ECCF8091F5
:1012F000490381FF32C08091480384FD2AC087EEF4
:1013000035C08091480383FF26C0F5CF8091480304
:1013100083FD21C08091490381FD1FC0ECCF8091E6
:10132000480385FD1CC01DC08091480385FD19C080
:1013300016C08091480386FD16C017C080914803EF
:1013400086FD13C010C089E311C082EE0FC080EE8D
:101350000DC080E00BC086EE09C084EE07C089E2B4
:1013600005C085E303C08AE201C081E390E00895EF
:101370009091480392FF0DC0282F2871283019F44E
:10138000877F846006C0282F2471243011F48B7F5E
:10139000886093FF0DC0282F2871283119F4877EAB
:1013A000846106C0282F2471243111F48B7E88615A
:1013B0002091490320FF0DC0382F3871383019F4BF
:1013C000877F816006C0382F3171313011F48E7FF4
:1013D000886021FF0DC0282F2871283119F4877EDD
:1013E000816106C0282F2171213111F48E7E886120
:1013F00094FD877E0895E82FF0E0EE0FFF1FE65F73
:10140000FC4F808191810895CF92DF92EF92FF92FD
:101410000F931F93CF93DF938DE893E00E94920682
:101420008AE0E82E83E0F82EC0E0D0E098E8C92EEC
:1014300093E0D92E0FE713E0DF93CF93DF92CF92A3
:101440000E942B0785E893E00E949206F7018191A4
:1014500091917F010E948F249F938F931F930F93ED
:101460000E942B078DE793E00E94920621968DB78C
:101470009EB708960FB6F8949EBF0FBE8DBFC530BD
:10148000D105D1F6DF91CF911F910F91FF90EF9091
:10149000DF90CF90089580EA8A95F1F70895089536
:1014A0000C944F0A0C944F0ACF93DF93A3E6B1E05C
:1014B00048E651E061E070E08D91E82FE295EF7031
:1014C000F0E021A18F70EB0102C0CC0FDD1F8A95E7
:1014D000E2F7CE019C2F9095922391A392A1892BA4
:1014E00082A34A175B0741F7A5E5B1E043E651E067
:1014F00061E070E08D91E82FE295EF70F0E021A1BE
:101500008F70EB0102C0CC0FDD1F8A95E2F7CE0190
:101510009C2F9095922391A392A1892B82A34A1785
:101520005B0741F7E0E0F3E0AAE0B3E08AE093E094
:10153000119211921D921D928E179F07C9F785E097
:101540000E94330BDF91CF910C9490076F927F92A2
:101550008F929F92AF92BF92CF92DF92EF92FF92C3
:101560000F931F93CF93DF9383E6C82E81E0D82E8D
:1015700000E013E09AE0A92E93E0B92E712C8824A4
:101580008394912CF60181916F01C82FC295CF7081
:10159000D0E099A18F70740101C0EE0C8A95EAF732
:1015A000892F8E2989A38AA16E2C609486218AA313
:1015B0000E944B0AE5E5F1E040E050E020E030E039
:1015C0006191A62FA295AF70B0E090968C9190E0BB
:1015D0006F7002C0959587956A95E2F780FD08C007
:1015E000C401042E02C0880F991F0A94E2F702C0BA
:1015F00080E090E0282B392B4F5F5F4F4E30510534
:10160000F9F689A1682269A28AA1E82AEAA2F8016A
:10161000808191812817390721F03183208381E06F
:1016200001C080E0782A0E5F1F4FA016B10609F0B6
:10163000A9CF272D45E06AE073E080E093E00E94A7
:10164000340B0E949A07872DDF91CF911F910F9144
:10165000FF90EF90DF90CF90BF90AF909F908F90D2
:101660007F906F9008950895FF920F931F93CF93EB
:10167000DF93F82E092F162FD72FC42F222349F0DE
:1016800081E08093D8010E94E5269093D701809352
:10169000D6018091D8018823D9F08091D60190910C
:1016A000D7010E94F126069798F0EF2DF02FA12F79
:1016B000BD2F80E090E04C2F50E08417950734F464
:1016C000219131912D933D930196F7CF1092D8013E
:1016D000DF91CF911F910F91FF900895EF92FF92AC
:1016E0000F931F93CF93DF93F62E472FE82FF0E051
:1016F000711106C0E959F64F6491762F862F72C09A
:10170000272F30E0E959F64FE4910E2F10E056E014
:10171000659FC0011124CFEFD0E0BE010E94983038
:101720005BEA5603C001579F900D11248F0D911D48
:101730008F0D911D982F990F890F7E01E21AF30AE0
:10174000E09ED001E19EB00DF09EB00D1124489FA7
:10175000A0011124452F55277E01E41AF50AE09EC9
:10176000A001E19E500DF09E500D11247E01E81A5B
:10177000F108E29EC001E39E900DF29E900D1124AF
:10178000892F9927C81BD90BC09FC001C19F900DFD
:10179000D09F900D11246230710591F048F46115CD
:1017A0007105E1F061307105A9F48B2F752F19C017
:1017B0006430710561F038F06630710579F00AC067
:1017C000892F7B2F0EC08E2F7B2FE52F0AC08E2FE7
:1017D000792F02C0852F7E2FEB2F03C08B2F7E2FFA
:1017E000E92F6E2FDF91CF911F910F91FF90EF9016
:1017F00008950895CF93DF93762FE901682F842F02
:101800000E946E0B798368838A83DF91CF9108955C
:1018100080911403282F269530E02115310519F405
:101820008170826005C02B32310524F0817084659F
:1018300080931403089588E090E00C947331CF9264
:10184000DF92EF92FF926B017C010E94080CB701BE
:10185000A60188E090E0FF90EF90DF90CF900C948D
:101860009131E4E1F3E083E0808311828FEF8283A2
:101870008383148260817181828193810C941F0C17
:101880008091D60280FF08C08CED96E09F938F93E5
:101890000E942B070F900F908091D60280FF0FC0FF
:1018A0008091140381701F928F938FEB96E09F932A
:1018B0008F930E942B070F900F900F900F908091A5
:1018C000D60280FF0FC08091140386951F928F93DC
:1018D00084EA96E09F938F930E942B070F900F90BE
:1018E0000F900F908091D60280FF0EC0809115035B
:1018F0001F928F938AE896E09F938F930E942B0705
:101900000F900F900F900F908091D60280FF0EC025
:10191000809116031F928F9380E796E09F938F9399
:101920000E942B070F900F900F900F908091D6027E
:1019300080FF0EC0809117031F928F9386E596E07B
:101940009F938F930E942B070F900F900F900F90F3
:101950008091D60280FF0EC0809118031F928F9352
:101960008AE396E09F938F930E942B070F900F902E
:101970000F900F9008958091140380FF02C0869508
:10198000089580E0089580911803833018F48F5FE4
:1019900080931803609114037091150380911603CE
:1019A000909117030C941F0C80911803882319F051
:1019B00081508093180360911403709115038091F6
:1019C0001603909117030C941F0C70E00C94F716FB
:1019D000609107018091140380FF0AC08091060185
:1019E00023E0829FC0011124875E9C4F0C94E50C7C
:1019F0008091080190910901891780F7E82FF0E0A4
:101A00009F01220F331FE20FF31FE75EFC4F11828D
:101A1000108212828F5FF0CF9091140390FF16C056
:101A20009091080120910901921770F4E92FF0E0DC
:101A3000DF01AA0FBB1FEA0FFB1FE75EFC4F81838C
:101A4000608342839F5FF0CF0C94E80C0895CF939E
:101A5000DF9300D01F92CDB7DEB79091140390FFB3
:101A60000AC09E012F5F3F4F0E94FA0B4B81698194
:101A70008A810E940C0D0F900F900F90DF91CF91F3
:101A80000895CF93DF93EC01EC81F0E0E65FF84F2F
:101A90004491E4E1F3E0628181810E94270D8C8111
:101AA0008F5F8C83DF91CF910895CF93DF93EC010B
:101AB000E4E1F3E0438162818C810E94270D8C81F7
:101AC0008F5F8C83DF91CF9108950F931F93CF93F6
:101AD000DF9300D01F92CDB7DEB78C018091D90182
:101AE00081110AC09E012F5F3F4F4FEF6FEF0E94A1
:101AF000FA0B8A818093D901F8018481813051F0F9
:101B000028F0823061F44091D9010AC08091D90156
:101B100040E007C06091D90140E080E003C040E0B0
:101B200080E060E00E940C0DF801848190E0019655
:101B300063E070E00E94AC3084830F900F900F90B0
:101B4000DF91CF911F910F9108954F925F926F9205
:101B50007F928F929F92AF92BF92CF92DF92EF923D
:101B6000FF920F931F93CF93DF9300D01F92CDB7B7
:101B7000DEB7F82EB62EE42E622E9091140390FF5D
:101B8000B4C0E92FE695AE2FB0E0A859BE4F8C91B6
:101B9000809329029E7F923061F49E012F5F3F4F18
:101BA0008F2D0E94FA0B4B8169818A810E940C0D56
:101BB00062C0823019F4E09017035DC0863019F4DA
:101BC000F090150358C08930D9F3893109F053C01A
:101BD000E9518E2F8170782E81E0A72CA826E695FA
:101BE000F0E0E65FF74FC590D490412CDD2492E2FF
:101BF000892E94E0992E60910A014616D0F5042DA5
:101C000010E00C9DC0010D9D900D1C9D900D1124A8
:101C100070E00E9498305F2C711002C0560E01C017
:101C2000561A8091D60280FF11C0DF92CF921F9288
:101C3000AF921F925F921F924F929F928F920E943B
:101C40002B070FB6F894DEBF0FBECDBF8091080101
:101C5000080F111D9801220F331F020F131F980147
:101C6000275E3C4F4E2D6B2D852D0E94FA0B439421
:101C7000C2CF0E94E80CF0921503B0921603E092D6
:101C800017036620E9F060911403709115038091A9
:101C90001603909117030E941F0C8091D60280FFBB
:101CA00024C0809117031F928F93809116031F9277
:101CB0008F93809115031F928F938DEF93E00CC04B
:101CC0008091D60280FF11C01F92EF921F92BF92A7
:101CD0001F92FF9286ED93E09F938F930E942B07B4
:101CE0000FB6F894DEBF0FBECDBF0F900F900F90D0
:101CF000DF91CF911F910F91FF90EF90DF90CF90E8
:101D0000BF90AF909F908F907F906F905F904F901B
:101D10000895E4E1F3E09181282F438162818CE012
:101D2000890F0C94A50D81E00C94890EE4E1F3E099
:101D30009181282F4381628184EF890F0C94A50D36
:101D400081E00C94960EE4E1F3E062812CE0620FF6
:101D500008F46FEF282F438181810C94A50D81E059
:101D60000C94A30EE4E1F3E062812CE0621B08F422
:101D700060E0282F438181810C94A50D81E00C94B3
:101D8000B20EE4E1F3E043812CE0420F08F44FEFA0
:101D9000282F628181810C94A50D81E00C94C10EE5
:101DA000E4E1F3E043812CE0421B08F440E0282FFB
:101DB000628181810C94A50D81E00C94D00E20E00D
:101DC0000C94A50DFF920F931F93CF93DF93EC011B
:101DD000F12C0FEF10E060910A01F616F0F48091FB
:101DE00008012F2D30E0280F311DC901880F991FE0
:101DF000280F391F275E3C4F70E0C8010E94AC30AD
:101E0000962F8C814091170360911603F99E800DE7
:101E100011240E94FA0BF394DECF0E94E80C9A8101
:101E20008C8190FF02C08F5F01C081508C83DF9155
:101E3000CF911F910F91FF900895AF92BF92CF92D3
:101E4000DF92EF92FF920F931F93CF93DF93FC01EA
:101E5000828180FF02C00FEF01C001E010E04EE080
:101E6000A42E80910A01181708F043C08091080140
:101E7000C12ED12CE601C80FD11DCE01880F991FAC
:101E8000C80FD91FC75EDC4F198218821A8234E04E
:101E9000E32EF12CB12C8091DB018B0D8F302CF0D7
:101EA0006A2D0E948A30892F05C087FF03C0909158
:101EB0000A01890F082E000C990BC816D90691F457
:101EC000809117038E9DA0018F9D500D1124559573
:101ED0004795559547959E0160911603809115038E
:101EE0000E94FA0BB00EF1E0EF1AF108A1F61F5FA5
:101EF000B8CF0E94E80C8091DB01013031F48111F0
:101F000002C080910A01815007C090E00196609163
:101F10000A0170E00E94AC308093DB01DF91CF9129
:101F20001F910F91FF90EF90DF90CF90BF90AF90F7
:101F30000895CF938091080190910901891770F459
:101F4000E82FF0E09F01220F331FE20FF31FE75E3F
:101F5000FC4F1182108212828F5FF0CFC0E060913F
:101F60000A01C617C0F5EC2FF0E070E0CF010E9427
:101F7000AC3020910801820F2091DA01022E000C72
:101F8000330B90E0E217F307CCF020910501022E0D
:101F9000000C330B2E173F078CF09C01220F331FD0
:101FA000820F931F9C01275E3C4F40911703609165
:101FB0001603809115030E94FA0B0BC0FC01EE0F73
:101FC000FF1F8E0F9F1FFC01E75EFC4F11821082E6
:101FD0001282CF5FC4CF0E94E80C2091040180914F
:101FE000DA01820F8093DA0190910501920F9093AC
:101FF000050119165CF4082E000C990B40910A019A
:1020000050E041505109841795071CF02195209309
:102010000401CF9108950F931F93CF93DF938C0109
:10202000FC01848195810196817099279583848331
:10203000C0E0D5E580910A01C81700F5809108013C
:102040002C2F30E0280F311DC901880F991F280F50
:10205000391F275E3C4F4C2F4695F80184819581AE
:10206000840F911D817040911703609116038D9F1D
:10207000802D11240E94FA0BCF5FDCCFDF91CF912E
:102080001F910F910C94E80C0F931F93CF93DF9344
:10209000EC0100E010E080910A01282F30E00217E7
:1020A000130724F5909108019801290F311DA9010A
:1020B000440F551F240F351F275E3C4F869590E037
:1020C0004C81081719071CF4442331F002C0411158
:1020D00003C04091170301C040E060911603809156
:1020E00015030E94FA0B0F5F1F4FD5CF0E94E80C1B
:1020F0008C8190E00196817099278C83DF91CF913C
:102100001F910F9108958F929F92AF92BF92CF929D
:10211000DF92EF92FF920F931F93CF93DF93FC0117
:10212000B280948081E0848300E015E05BE4A52E1A
:1021300088248394EE24EA94F12C7BE4C72ED12CDE
:1021400080910A01081708F08FC0C02FD0E01C9FB3
:10215000F0011D9FF00D1124E452FE4F911003C0B9
:102160001382128267C02381222389F121502383A5
:102170003481332319F09A2D921B01C0922F809144
:1021800017031C9FF0011D9FF00D1124E452FE4F18
:10219000899FC0011124B6010E94983062832111E9
:1021A00004C0332311F01482A38222E02B1508F41B
:1021B00041C01C9FF0011D9FF00D1124E452FE4F01
:1021C00080911503808380911603818333C00E9420
:1021D0004E318230914074F582E08B1530F40E94CC
:1021E0004E31B7010E94AC3002C0809115031C9F94
:1021F000F0011D9FF00D1124E452FE4F808322E078
:102200002B1558F40E944E31209116032695622F0B
:1022100070E00E94AC30820F02C0809116031C9FB8
:10222000F0011D9FF00D1124E452FE4F81831282B4
:10223000A3828482809108019E01280F311DC9016B
:10224000880F991F280F391F275E3C4F1C9FF001F4
:102250001D9FF00D1124E452FE4F42816181808167
:102260000E94FA0B0F5F6CCFDF91CF911F910F91FE
:10227000FF90EF90DF90CF90BF90AF909F908F90A6
:102280000C94E80C60911403669570E04BE050E00C
:102290008BE091E00E945E31892B19F481E08093FC
:1022A0002A020E94E52690932302809322028091C5
:1022B000D60280FF08C08DEB93E09F938F930E941E
:1022C0002B070F900F90089510922A028091D6024A
:1022D00080FF08C084EA93E09F938F930E942B07AE
:1022E0000F900F9008959091140390FF54C0917037
:1022F000811102C0926006C08B3210F0946502C05A
:10230000880F982B909314036623B1F06091140307
:102310007091150380911603909117030E941F0C72
:102320008091D60280FF1BC08091140386951F9276
:102330008F9380E895E00BC08091D60280FF0FC09C
:102340008091140386951F928F9382E695E09F9368
:102350008F930E942B070F900F900F900F9060911A
:102360001403669570E04BE050E08BE091E00E9432
:102370005E31892B19F00E94641102C00E94421143
:1023800081E08093250240911703609116038091AC
:1023900015030C94DF0E0895682F90911403969501
:1023A00081E0890F8B3208F081E00C94731181E099
:1023B0000C94CC11682F9091140396958FEF890F90
:1023C00009F48AE20C94731181E00C94DA1161E053
:1023D0000C94731180911403816080931403809195
:1023E000D60280FF0DC01F9281E08F9384EF94E0AE
:1023F0009F938F930E942B070F900F900F900F9039
:102400008091140386950C94E71160E00C9473118D
:1024100080912802811160C08091D60280FF08C09F
:1024200083E296E09F938F930E942B070F900F906B
:102430008091D60280FF08C08DE096E09F938F9335
:102440000E942B070F900F900E94A224811110C0B0
:102450008091D60280FF08C085EE95E09F938F9310
:102460000E942B070F900F900E9455250E94310C5F
:102470000E941B0C60931403709315038093160342
:10248000909317036E7FC1F48091D60280FF08C03D
:102490008CE995E09F938F930E942B070F900F90EC
:1024A0000E94310C0E941B0C60931403709315035F
:1024B00080931603909317030E94080C0E94400C0F
:1024C00010922A028091140380FF03C086950E9417
:1024D000051281E0809328020895809114038160A1
:1024E000809314038091D60280FF0DC01F9281E07B
:1024F0008F938BEB94E09F938F930E942B070F9009
:102500000F900F900F908091140386950C940512F4
:10251000809114038E7F8093140360911403709153
:10252000150380911603909117030E941F0C809150
:10253000D60280FF0FC08091140381701F928F9389
:1025400083E894E09F938F930E942B070F900F9046
:102550000F900F900E9464112FEF80E792E02150BE
:1025600080409040E1F700C000000C94E80C80919E
:10257000D60280FF10C080911403809581701F9255
:102580008F938BE295E09F938F930E942B070F9080
:102590000F900F900F908091140380FD0C9488127F
:1025A0000C94EA11809114038E7F80931403809120
:1025B000D60280FF0CC01F921F9289E494E09F9383
:1025C0008F930E942B070F900F900F900F900E94F7
:1025D00064112FEF80E792E0215080409040E1F7B6
:1025E00000C000000C94E80C0F931F93CF93DF936F
:1025F00080912A02882309F49CC080912902E091ED
:102600001403E695E81BE0932402823049F4F0E0DD
:10261000EA5FF84FE491CE2FD0E001E41DE059C00D
:10262000863049F4F0E0ED5FF84FE491CE2FD0E032
:1026300005E51DE04EC0893051F4E695F0E0E0502C
:10264000F94FE491CE2FD0E002EE1EE042C08F3071
:1026500051F4E695F0E0E350F94FE491CE2FD0E04D
:102660000DE11FE036C0853149F4F0E0E650F94F46
:10267000E491CE2FD0E009E91FE02BC08831D9F0DA
:10268000833239F4E8EFF6E0C591D49105E61DE018
:1026900020C08432A9F08532C1F48E2F63E00E94FD
:1026A0007E30E92FF0E0EB50F94FE491CE2FD0E0EF
:1026B00003E810E10EC0C8EED3E00BE010E109C062
:1026C000C4EFD1E004E410E104C0C0EDD7E009EFAD
:1026D0001BE080912502882389F0109225020E9438
:1026E000E5269E0120953095820F931F909323023B
:1026F00080932202109227021092260280912202D9
:10270000909123020E94F1268C179D0790F0E09192
:102710002202F0912302CE0FDF1FD0932302C09339
:10272000220282E292E0F801DF91CF911F910F9196
:102730000994DF91CF911F910F910895882311F093
:10274000FA0101C0FB010994CF93DF93C82FD62F64
:102750000E94BB0C8C1740F00E94BB0C8D1720F41C
:10276000DF91CF910C94D7118C2FDF91CF910C94E6
:10277000E7110F931F93CF93FB01C281CC2309F480
:1027800063C08C010E94D4238272F801E25CFC4594
:10279000E431F10508F059C0EA5AFF4F0C94E230D9
:1027A0000E94B71206C044EE51E167ED71E10E944C
:1027B0009E13C0E04AC047ED51E164EE71E1F7CFEE
:1027C00040EA5EE063E97EE0F2CF43E95EE060EA82
:1027D0007EE0EDCF4EEB5EE06FEA7EE0E8CF4FEAC1
:1027E0005EE06EEB7EE0E3CF4CED5EE06DEC7EE014
:1027F000DECF4DEC5EE06CED7EE0D9CF44ED5CE0E9
:1028000063EC7CE0D4CF43EC5CE064ED7CE0CFCFC4
:1028100081E017C065E082E010C068E086E00DC08E
:102820006EE089E00AC064E18FE007C067E185E1FE
:1028300004C088E106C062E289E10E94A413B9CF16
:1028400083E20E94E711B5CFC1E08C2FCF911F9199
:102850000F910895809143038695869586950895F6
:102860008091430381FD13C08260809343030E94E3
:10287000E1248091D60280FF08C08CE298E09F930B
:102880008F930E942B070F900F900C945D16089564
:102890008091430381FF13C08D7F809343030E9487
:1028A000E1248091D60280FF08C08FE098E09F93DA
:1028B0008F930E942B070F900F900C946916089528
:1028C000CF93C0914303C695C1708091D60280FF1B
:1028D0000CC01F92CF9388E498E09F938F930E943F
:1028E0002B070F900F900F900F90CC2319F0CF91E2
:1028F0000C944814CF910C94301480914303869526
:10290000817008958091160108950E94A22481117A
:1029100002C00E9455250E94DD2480934303282F86
:1029200026952695269530E02430310524F08770D1
:102930008861809343038091430380FF04C08695A0
:102940008695869501C080E00C9433162091430350
:10295000822F869586958695482F50E04330510505
:1029600054F48F5F982F990F990F990F822F8770CA
:10297000892B8093430380914303816080934303B9
:102980000E94E1248091D60280FF11C08091430310
:102990008695869586951F928F938FEC98E09F93EE
:1029A0008F930E942B070F900F900F900F908091A4
:1029B00043038695869586950C9433168091430340
:1029C000982F969596959695A1F0915E990F990FEF
:1029D000990F8770892B80934303887F91E009F4D6
:1029E00090E08091430390FB80F9809343030E9421
:1029F000E1248091D60280FF11C080914303869527
:102A0000869586951F928F9387EB98E09F938F937F
:102A10000E942B070F900F900F900F90809143030F
:102A20008695869586950C9433168091430380FD98
:102A30001FC0816080934303813019F489E0809343
:102A40004303809143030E94E1248091D60280FFDA
:102A500008C08FE898E09F938F930E942B070F90F8
:102A60000F90809143038695869586950C94331636
:102A700008958091430380FF14C08E7F80934303A9
:102A80000E94E1248091D60280FF08C08CE798E084
:102A90009F938F930E942B070F900F9080E00C94D0
:102AA00033160895CF93C0914303C1708091D6022D
:102AB00080FF0CC01F92CF9381EA98E09F938F9381
:102AC0000E942B070F900F900F900F90CC2319F0BE
:102AD000CF910C943915CF910C9415159091430317
:102AE000892F8695869586958F5F8F719770843034
:102AF00038F4880F880F880F892B8093430302C016
:102B00009093430380914303887F91E009F490E020
:102B10008091430390FB80F9809343030E94E1245A
:102B20008091D60280FF11C08091430386958695DF
:102B300086951F928F9388E698E09F938F930E94CB
:102B40002B070F900F900F900F9080914303869565
:102B5000869586950C943316843008F083E0909126
:102B600043039770282F220F220F220F922B90934E
:102B70004303987F21E009F420E09091430320FB78
:102B800090F9909343030C9433160E94AC158091F6
:102B900043030C94E124FC01DB0112968C91882301
:102BA000F9F0EB5BFC45E730F105D8F4E659FF4F4F
:102BB0000C94E23083E001C080E00E94C51580E003
:102BC00008950E94DE14FBCF0E94A614F8CF0E9445
:102BD0005215F5CF0E946E15F2CF0E946014EFCF10
:102BE00081E00895279A2F9808952F980895CF92FD
:102BF000DF92EF92FF928C3724E1920728F469E08C
:102C000070E00E94983029C0A0E0B0E08A50974D53
:102C1000AF4FBF4F6627782F892F9A2F25EF38E2C5
:102C200041E050E00E94C03069017A01CA01B90157
:102C30000E946E309B01AC01C701B6010E946E304C
:102C4000BB27A92F982F872F009721E0A207B10556
:102C500011F0BC0102C06FEF7FEFCB01FF90EF904E
:102C6000DF90CF900895CF93C82F843050F4811116
:102C700009C080918000877F809380000E94F515B5
:102C800006C0C3E0809180008860809380002C2F74
:102C900030E0AFEFBFEF0E94E83023E030E040E0EB
:102CA00050E00E94C030C9010E94F71590938D003A
:102CB00080938C00CF910895089510922C02109269
:102CC0002B0210922D02EFE6F0E08081816080837C
:102CD0000895EFE6F0E080818E7F80830E942A14C1
:102CE0000C9433161F920F920FB60F9211242F934C
:102CF0003F934F935F936F937F938F939F93AF9384
:102D0000BF93CF93EF93FF930E94821440912B02C5
:102D100050912C024F5F5F4F94EF899F90011124D7
:102D2000CA01B9010E94983090932C0280932B0223
:102D3000B901660F672F661F770B71950E94983057
:102D40006F7780912D02823019F4603451F404C001
:102D5000813039F46F3729F480916F008E7F809332
:102D60006F00E62FF0E0E951F74FC4910E942A145A
:102D7000282F41E051E0C49FC001C59F900D112450
:102D800063E070E00E949830269FC001279F900D5D
:102D900011240E94F71590938D0080938C00FF9171
:102DA000EF91CF91BF91AF919F918F917F916F9153
:102DB0005F914F913F912F910F900FBE0F901F90F9
:102DC00018950E94F2158AE08093800089E1809333
:102DD00081008FEF9FEF90938700809386000E9481
:102DE00085140E947D1481110C945D160895809ABB
:102DF00021B32E7F31B331604FB7F894FC01CB0182
:102E0000880F991F680F791F6E0F7F1FE617F7074E
:102E100089F0819198E031BB000000C087FF21BBA1
:102E2000880F000000C000C000C021BB00C09A9500
:102E300091F7ECCF4FBF8FE594E00197F1F700C019
:102E4000000008950F931F93CF93DF93C62FD42FC5
:102E5000122FFC0182818823C9F0609330020E9406
:102E6000E52690932F0280932E0280E28C0F88300B
:102E700008F057C0C77081E001C0880FCA95EAF713
:102E8000DF91CF911F910F910C940D1C8091300216
:102E9000681330C080912E0290912F020E94F1267B
:102EA000883C910538F500E20D0FCD17B9F080E2AE
:102EB0008C0F883040F4C77081E001C0880FCA953C
:102EC000EAF70E94141C083028F581E09D2F9770C6
:102ED00001C0880F9A95EAF70E940D1C812F0E946D
:102EE000FA1B0830F0F4D77081E001C0880FDA9542
:102EF000EAF70AC080E28C0F883098F4C77081E04E
:102F000001C0880FCA95EAF7DF91CF911F910F9109
:102F10000C94141C812FDF91CF911F910F910C9471
:102F2000FA1BDF91CF911F910F9108959C01CB0166
:102F3000233F4CE53407F9F078F4283DFCE53F07E2
:102F4000B9F0293D4CE5340711F1273D3C4531F5F9
:102F500026E241EE61EE1EC0253FFCE53F0799F0F9
:102F600070F0263F3C45D1F427E245EE66EE12C0F4
:102F700027E245EE0EC026E241EE60EE0BC027E2EE
:102F800045EE64EE07C026E241EE62EE03C028E2A1
:102F900041E065EE0E94221780E00895FC018281E5
:102FA000882319F010923002089581E00895CF939C
:102FB000DF93EC01FB018281882309F41FC1C23039
:102FC000FCE5DF0708F41BC1C6319CE5D90738F0E2
:102FD0009E012A5F3C452930310508F010C10E944E
:102FE000BF249093490380934803C031ECE5DE078A
:102FF00009F4C3C008F041C0C8308CE5D80709F413
:103000009AC0F0F4C430ECE5DE0709F487C068F438
:10301000C2308CE5D80709F477C0C330DC4509F02D
:10302000E3C080914803826076C0C630ECE5DE07DD
:1030300009F46EC008F07BC08091480388606BC0C3
:10304000CC308CE5D80709F485C068F4CA30ECE5CB
:10305000DE0709F474C008F079C00E94851E8091D3
:103060004803806858C0CE308CE5D80709F476C094
:1030700008F07FC0809148038BC0CB3FECE5DE07B2
:1030800009F44FC018F5C3318CE5D80709F47DC0A9
:1030900078F4C131ECE5DE0709F473C0C231DC45D8
:1030A00009F0A2C00E94851E809148038F7733C02B
:1030B000C5318CE5D80709F472C008F486C0CA3F50
:1030C000DC4509F091C0809149033EC0CF3FFCE54B
:1030D000DF0709F45FC058F4CD3F9CE5D90709F438
:1030E00044C008F43FC08091490382602DC0C130C4
:1030F000FDE5DF0709F475C008F45DC0C230DD45A9
:1031000009F072C080E06EC080914803816003C006
:103110008091480380618093480366C08091480392
:1031200011C0809149038260809349035DC0809102
:1031300048038062F0CF809148038064ECCF809197
:10314000480388608460E7CF8160EECF80914803B8
:103150008E7FE1CF809148038D7FDDCF8091480342
:10316000877FD9CF8091490318C0809149038D7F13
:10317000DBCF809148038F7ECECF809148038F7D37
:10318000CACF809148038F7BC6CF80914803877F49
:103190008B7FC1CF809149038D7F8E7FC5CF80917A
:1031A000480382FB222720F991E0922790FB82F9C5
:1031B00090FB83F9B0CF80914903982F909591703F
:1031C0008E7F892B90FB81F9AFCF0E94851E809165
:1031D000480387FB222720F991E0922790FB87F98B
:1031E0009ACF81E00E94572580914803909149032E
:1031F0000E94D0240E94851E80E001C081E0DF9102
:10320000CF910895CF93DF9386319C4541F5EB0133
:103210000E94D423982F8A812091170130911801A0
:10322000882379F09A7A81E009F480E08093310272
:10323000911102C069E201C065E3C9010E94142630
:103240000AC080913102811102C069E201C065E3C8
:10325000C9010E941F260E94152480E001C081E060
:10326000DF91CF91089590933702809336020895AD
:10327000E0913602F0913702309721F00190F08111
:10328000E02D099480E00895EF92FF921F93CF9371
:10329000DF93FC01A0913602B0913702109709F438
:1032A00042C080912301882341F08091480387FF29
:1032B00004C08081818385E08083EF011296ED91C7
:1032C000FC911397CE0109958091D60282FF2BC005
:1032D00080FF04C08FE69AE00E94920618E089E61B
:1032E000E82E8AE0F82E8091D60280FF0BC08881FC
:1032F0001F928F93FF92EF920E942B070F900F90D7
:103300000F900F90115021961111EDCF8091D602A0
:1033100080FF09C087E69AE0DF91CF911F91FF906F
:10332000EF900C949206DF91CF911F91FF90EF9058
:10333000089520913402309135022817390771F031
:103340009093350280933402E0913602F091370277
:10335000309721F00680F781E02D0994089520919F
:103360003202309133022817390771F090933302FB
:1033700080933202E0913602F0913702309721F0CB
:103380000084F185E02D0994089585B7806885BF94
:1033900085B7806885BF089508950C94CC190C9466
:1033A000CD190C94CC190C94CC190E94C5190E940B
:1033B000D1190C94CF1981E008950C94DB190E9467
:1033C000DC260E94540A0E9496270E9485140E94BF
:1033D00008120C94D319CF93C82F8091D60282FF84
:1033E0001EC080FF04C088E89AE00E949206809187
:1033F000D60280FF0CC01F92CF9383E89AE09F9380
:103400008F930E942B070F900F900F900F90809139
:10341000D60280FF04C081E89AE00E9492068C2FB9
:10342000CF910C94A1077F928F929F92AF92BF92FF
:10343000CF92DF92EF92FF920F931F93CF93DF9380
:10344000CDB7DEB72A970FB6F894DEBF0FBECDBF5B
:103450000E94A60A0E94DD19811111C08FEF898395
:103460008A831B820E94E5268160782F9D838C834E
:1034700049815A816B818D810E94C51A4FC049E3F1
:10348000A42E42E0B42E00E010E0702E802F0E94A7
:10349000FB096C01F501819091905F0188269926C6
:1034A0008114910431F40F5F1F4F0530110569F746
:1034B000D5CF8091D60281FD0E94040A80E0EE24DF
:1034C000E394F12C94012E213F21232B09F18E83CB
:1034D0007F82CE20DF2081E0CD2809F480E088873C
:1034E0000E94E5268160782F9A8789874E815F81C7
:1034F00068858A850E94C51A000F111FF801E75CD4
:10350000FD4F80819181E826F926F182E08206C094
:103510008F5FEE0CFF1C8E30A9F6C5CF0E94F4120F
:103520000E945C160E943819909138028917C9F0E0
:103530000E943819809338022A960FB6F894DEBF9D
:103540000FBECDBFDF91CF911F910F91FF90EF90F4
:10355000DF90CF90BF90AF909F908F907F900C9412
:10356000EB192A960FB6F894DEBF0FBECDBFDF91E0
:10357000CF911F910F91FF90EF90DF90CF90BF9070
:10358000AF909F908F907F900895CF93DF93CDB7AA
:10359000DEB72B970FB6F894DEBF0FBECDBF4F83BB
:1035A000588769877A878B87DE01119686E0FD014F
:1035B00011928A95E9F785E0FE01379601900D9208
:1035C0008A95E1F749815A816B817C818D819E8149
:1035D0000E943E212B960FB6F894DEBF0FBECDBFE2
:1035E000DF91CF910895FC01808191810E94952304
:1035F0000895CF93882309F49CC0C82F8238C1F462
:103600000E94381981FD95C069E38091170190915E
:1036100018010E9414260E9415242FEF81EE94E0D9
:10362000215080409040E1F700C0000069E319C0DC
:10363000833801F50E94381980FD7BC063E58091D5
:103640001701909118010E9414260E9415242FEF53
:1036500081EE94E0215080409040E1F700C00000EE
:1036600063E580911701909118010E941F26CF9168
:103670000C9415248438C1F40E94381982FD59C075
:1036800067E480911701909118010E9414260E940E
:1036900015242FEF81EE94E0215080409040E1F717
:1036A00000C0000067E4DDCF8CEF8C0F813AD0F4CE
:1036B0006C2F80911701909118010E947225882328
:1036C00049F06C2F80911701909118010E941F26DC
:1036D0000E9415246C2F80911701909118010E946F
:1036E0001426C5CF80E28C0F883048F4C77081E083
:1036F00001C0880FCA95EAF70E94D723B8CFEBE53F
:10370000EC0FE33040F4F0E0EF53FE4F808190E0A7
:10371000CF910C949919C85AC73158F4EC2FF0E0A6
:10372000EE0FFF1FED56FE4F80819181CF910C94DB
:10373000AF19CF910895882309F45BC0682F8238B0
:1037400079F40E94381981FF54C069E38091170110
:10375000909118010E9414260E94152469E310C05C
:103760008338B1F40E94381980FF43C063E580912B
:103770001701909118010E9414260E94152463E5F8
:1037800080911701909118010E941F260C94152416
:10379000843879F40E94381982FF2BC067E4809145
:1037A0001701909118010E9414260E94152467E4C5
:1037B000E7CF8CEF860F813A18F380E2860F8830CE
:1037C00048F4677081E001C0880F6A95EAF70E94AB
:1037D000DD23DCCF8BE5860F833020F480E090E0A2
:1037E0000C949919685A673120F480E090E00C94A9
:1037F000AF190895CF93C82F0E94F91AC93349F41D
:103800002FEF87EE93E0215080409040E1F700C019
:1038100000008C2FCF910C949B1B882321F00E94D9
:10382000D7230C9415240895882321F00E94DD23CA
:103830000C9415240895CF92DF92EF92FF920F938C
:103840001F93CF93DF937C01D62FC72FFC010581F7
:1038500002950F70128111110E94F4230E94CD2352
:10386000882399F0112389F08C2F807F803421F0F8
:1038700080E28D0F883048F082E00E945F240E9431
:10388000CD2391E0D82ED92601C0D12CCC2EC294C4
:103890008FE0C8228C2D90E08C30910508F0ABC1F0
:1038A000FC01EF58FF4F0C94E2308C2F807FCF70DB
:1038B000882311F0C295C07F112399F0CC2309F41D
:1038C00086C180E28D0F883010F0D11104C08C2F9A
:1038D0000E94D72303C08C2F0E94E7230E94152447
:1038E00076C18D2F0E949B1BCC2309F484C180E2FA
:1038F0008D0F883010F0D11104C08C2F0E94DD2371
:1039000003C08C2F0E94ED230E94152474C18C2FBC
:10391000807FCF70803211F0C295C07FDD2319F017
:10392000D130C9F022C0112371F0002341F00130E1
:1039300031F40E94FA238C2B0E9402245CC10E9465
:10394000FA238C2B1DC0002319F0013009F453C158
:103950000E940B2425C0112321F0063008F04BC132
:103960000EC0053008F047C11BC0112361F00023D1
:1039700031F0F701858180FF2AC18F7085838C2FFC
:103980000E940D1C38C1002359F0D93309F030C111
:10399000FFEF07EE13E0F15000401040E1F726C1C1
:1039A0008C2F0E94141C27C18C2F869586958370BE
:1039B00019F0813061F01FC1112321F08D2F9C2F50
:1039C000937002C080E090E00E9499191CC11123FD
:1039D00021F08D2F9C2F937002C080E090E00E9418
:1039E000AF1911C18C2F837009F047C0111107C1A5
:1039F0002D2F229526952770220F220F6D2F6F7085
:103A0000862F90E0A0E0B0E0022E04C0880F991F3E
:103A1000AA1FBB1F0A94D2F7D4FF10C04FE050E09A
:103A200060E070E004C0440F551F661F771F2A95A1
:103A3000D2F7409550956095709503C040E050E0F6
:103A4000BA01C695C695C3708A019B01082B192B34
:103A50002A2B3B2BC901B801C23049F058F4C130C0
:103A600019F00E941222CBC00E940022C8C00E94FE
:103A70002422C5C00E94FE21C2C0112319F08C2F40
:103A8000817001C08695882309F4B9C02D2F229535
:103A900026952770220F220F6D2F6F70862F90E0D2
:103AA000A0E0B0E0022E04C0880F991FAA1FBB1F20
:103AB0000A94D2F7D4FF10C04FE050E060E070E00D
:103AC00004C0440F551F661F771F2A95D2F74095F3
:103AD00050956095709503C040E050E0BA01C695DE
:103AE000C695C3708A019B01082B192B2A2B3B2BEF
:103AF000C901B801C23049F058F4C13019F00E9430
:103B0000D7227DC00E94C5227AC00E94E92277C0D8
:103B10000E94382274C0CF70112339F08C2F0E947C
:103B20005E228D2F0E940D1C6AC08D2F0E94141CD6
:103B30008C2F0E947F2263C0D23F01F128F4D03F36
:103B400041F0D13FA1F03FC0D33FF9F0D43F39F16C
:103B50003AC0112341F0053008F04DC08C2F8F7111
:103B60000E94A42248C0063008F045C0F7CF1123B8
:103B700039F08C2F8F710E945E223DC01123C9F352
:103B80008C2F8F710E947F2236C0112329F08C2F39
:103B90008F710E9449222FC00E9444222CC0112301
:103BA00049F0CF718C2F0E945E2263E08C2F0E941F
:103BB0004A2421C081E00E945F240230E0F082E0CC
:103BC0000E945F2418C0112331F0002391F28D2F41
:103BD0000E94F91A10C0002399F2D93349F41FEF5B
:103BE00027EE33E0115020403040E1F700C00000E4
:103BF0008D2F0E949B1B88EF8C0D843020F40E9437
:103C000038190E94A107DD20C9F00E94C92380FD58
:103C100015C0F70112820E94C3230E945E22C701D1
:103C20000E943F1E0E94C323DF91CF911F910F91ED
:103C3000FF90EF90DF90CF900C947F22DF91CF9197
:103C40001F910F91FF90EF90DF90CF9008950F9309
:103C50001F93CF93DF93EC01688179818A810E9461
:103C6000A0238C010E94FB220E94EC21B801CE010E
:103C70000E941B1CDF91CF911F910F910895CF934C
:103C8000DF93EC01988189812B813C81232B31F0DA
:103C90008F3F31F481E09F3F19F403C081E001C000
:103CA00080E080FD19C0CE010E94BA0781110CC0CE
:103CB0000E94CD23882381F08A81882369F082E0E5
:103CC000DF91CF910C945F24CE010E94271ECE017C
:103CD000DF91CF910C948507DF91CF9108950E94D9
:103CE000F4230E94F7230E94152480E090E00E94B4
:103CF000991980E090E00C94AF1980911701909190
:103D000018010E942A260C946F1E0E94E4230C9432
:103D10007D1EE92FE295EF704E2F50E0FA013297A9
:103D2000EE30F105B0F4E358FF4F0C94E230803FE1
:103D300091F018F4883E68F40EC0843F51F40BC033
:103D4000883E48F0813F29F406C093FB882780F91C
:103D5000089580E0089581E008950E9495230E94CF
:103D6000891E0895CF93DF9300D000D01F92CDB766
:103D7000DEB70F900F900F900F900F90DF91CF91C3
:103D80000895CF93DF9300D000D000D0CDB7DEB739
:103D900026960FB6F894DEBF0FBECDBFDF91CF9150
:103DA00008951F93CF93DF93C091440216E0809152
:103DB0004502C81799F0D0E01C9FF0011D9FF00D3F
:103DC0001124EA5BFD4F40815181628173818481BE
:103DD00095810E94C11E2196C770E9CFDF91CF91D6
:103DE0001F91089540917602509177026091780278
:103DF0007091790280917A0290917B020C94C11E9D
:103E00000F931F93CF93DF9380917B0282958F70E6
:103E100009F05DC080917802882309F458C0809130
:103E20004402109145026091760270917702C09130
:103E30007902D0917A0291E06F3F09F090E0292F4A
:103E400006E0811709F443C0209721F07F3F21F05D
:103E500030E003C031E001C0322F90E030FD34C0CB
:103E6000089FF001099FF00D1124DF01AA5BBD4FEF
:103E700011963C911197371327C03C91361324C0FB
:103E800012963C91129731111FC013964D915C917F
:103E900014974C1B5D0B483C5105B0F480917B029C
:103EA0008F70806180937B02E55BFD4F80818F7016
:103EB0008061808386E792E00E943F1EDF91CF9170
:103EC0001F910F910C94D11E01968770BACFDF918C
:103ED000CF911F910F9108959F92AF92BF92CF9271
:103EE000DF92EF92FF920F931F93CF93DF93CDB7A3
:103EF000DEB761970FB6F894DEBF0FBECDBF8C0161
:103F000085E0F801DE011D9601900D928A95E1F79A
:103F1000F80140815181E2809091760260917702B0
:103F20002091790230917A022115310531F06F3FED
:103F300031F481E09F3F19F403C081E001C080E0CB
:103F4000F82FF1709F2E80FD46C1F801A380B48048
:103F500086E7C82E82E0D82EF0907802F501E21BA9
:103F6000F30BFF2009F4DFC080917B02E83CF105F0
:103F700008F09BC0282F207F09F052C0561313C0B1
:103F8000491311C0FE2CE1100EC08F708061809328
:103F90007B020E94F21EC6010E943F1E80917B029E
:103FA000F801858358C1AB2831F05F3F31F481E0DF
:103FB0004F3F19F403C081E001C080E080FD03C0E1
:103FC00081E08E2502C080E090E0F82FF170FF2E96
:103FD00080FF1CC0809144022091450236E0821788
:103FE00009F417C190E0389FF001399FF00D1124BA
:103FF000EA5BFD4F6181561306C06081461303C022
:104000006281E61203C001968770E9CFFE2CEE2094
:1040100009F421C180917B02816080937B025AC0A8
:10402000561306C0491304C0E11002C0F8019FC036
:104030004D875E878D859E850E94AD1E882379F110
:10404000EE2069F120917B02822F82958F7090E0A3
:10405000029774F0809176029091770298878F830F
:104060001986BB86AA862C87CE0107960E943F1E22
:1040700086E0F801A6E7B2E001900D928A95E1F79B
:104080000E94001F0E94F21E0DC0561729F14D8795
:104090005E878D859E850E94AD1E81112CC0C80152
:1040A0000E943F1EFF24F394D6C0282F207F69F77B
:1040B0007A2DB98AA88A6E2D89890E94B21E86E758
:1040C00092E00E943F1E86E0F60111928A95E9F780
:1040D0000E94F21EF12CBFC04913D9CFE110D7CFF7
:1040E000F8018583C8010E943F1E86E0F601119207
:1040F0008A95E9F7B0C0EE2091F220917B02822FE1
:1041000082958F7090E002970CF4B2CF8091760286
:10411000909177029A8389831B82BD82AC822E8321
:10412000CE010196A3CFE83CF10508F047C0FE2C74
:10413000EE2009F4B4CF561330C049132EC020919D
:104140007B0220FD21C0822F82958F70482F50E086
:1041500041155105C9F0F80125834F30510541F053
:104160008F5F982F9295907F822F8F70892B8583F8
:10417000C8010E943F1E86E0F801A6E7B2E0019068
:104180000D928A95E1F742C086E0F801A6E7B2E019
:1041900001900D928A95E1F75EC04D875E878D850F
:1041A0009E850E94AD1E811163CF80917B0281604C
:1041B00080937B02C8010E943F1E4DC07A2DB98AB0
:1041C000A88A6E2D89890E94B21E86E0F60111929E
:1041D0008A95E9F71BC0EE2009F461CF4D875E8711
:1041E0008D859E850E94AD1EF82E882309F457CF39
:1041F00086E0F801A6E7B2E001900D928A95E1F71A
:1042000086E792E00E94F31A0E94001F0E94F21EAD
:1042100022C04D875E878D859E850E949523292F1C
:1042200022952F70223028F49F7039F0811105C03B
:104230000BC0243028F49F7049F4805E883020F051
:10424000C8010E943F1E9F2CF92C05C0F8019581E2
:10425000907F99F7F9CF8F2D61960FB6F894DEBF56
:104260000FBECDBFDF91CF911F910F91FF90EF90C7
:10427000DF90CF90BF90AF909F9008951F93CF9302
:10428000DF93CDB7DEB72C970FB6F894DEBF0FBE25
:10429000CDBF4F83588769877A878B879C87CE01EC
:1042A00007960E946C1F8823D1F09F8188852A85FC
:1042B0003B85232B31F08F3F31F481E09F3F19F490
:1042C00003C081E001C080E080FD47C04F81588578
:1042D00069857A858B859C850E94C11E3EC086E0DB
:1042E000FE013796DE01119601900D928A95E1F755
:1042F000FF81E8856A857B856115710531F0EF3FA7
:1043000031F481E0FF3F19F403C081E001C080E097
:1043100080FD23C02091450230E0C90101968770DD
:1043200099274091440250E084179507F1F1F983F1
:10433000EA837D836C8396E0929FD001939FB00DBA
:104340001124AA5BBD4FFE01319601900D929A9502
:10435000E1F7809345020E94D11E16E0809144024D
:1043600090914502891771F1189FC00111248A5B51
:104370009D4F0E946C1F882329F1E09144021E9FEB
:10438000F0011124EA5BFD4F40815181628173810C
:10439000848195810E94C11E8091440290E0019623
:1043A0008770992780934402D9CF0E94851E10926E
:1043B000450210924402E6E7F2E086E0DF011D923A
:1043C0008A95E9F72C960FB6F894DEBF0FBECDBFE5
:1043D000DF91CF911F910895089508950C94ED21D8
:1043E0000C94EE210E94F0216093AD027093AE0216
:1043F0008093AF029093B0020C946F1E0C94F22144
:104400000F931F930091AD021091AE022091AF0265
:104410003091B002602B712B822B932B1F910F9147
:104420000C94F2210F931F930091AD021091AE02F4
:104430002091AF023091B002602371238223932335
:104440001F910F910C94F2210F931F930091AD02D5
:104450001091AE022091AF023091B0026027712717
:10446000822793271F910F910C94F2210C94ED2138
:104470000E9436226093A9027093AA028093AB0235
:104480009093AC020C946F1E60E070E0CB010C9432
:1044900038220F931F9341E050E060E070E08A0102
:1044A0009B0104C0000F111F221F331F8A95D2F7F2
:1044B000C901B8011F910F910C9438220F931F93DB
:1044C00041E050E060E070E004C0440F551F661FFB
:1044D000771F8A95D2F78091A9029091AA02A091A4
:1044E000AB02B091AC028A019B01082B192B2A2B3D
:1044F0003B2BC901B8011F910F910C9438220F93E7
:104500001F9341E050E060E070E004C0440F551F8D
:10451000661F771F8A95D2F74095509560957095E4
:104520008091A9029091AA02A091AB02B091AC0235
:104530008A019B01082319232A233B23C901B801BF
:104540001F910F910C9438220F931F9341E050E07C
:1045500060E070E004C0440F551F661F771F8A9506
:10456000D2F78091A9029091AA02A091AB02B091DA
:10457000AC028A019B01082719272A273B27C9017A
:10458000B8011F910F910C9438220F931F93009143
:10459000A9021091AA022091AB023091AC02602BCB
:1045A000712B822B932B1F910F910C9438220F9318
:1045B0001F930091A9021091AA022091AB023091A1
:1045C000AC0260237123822393231F910F910C94DB
:1045D00038220F931F930091A9021091AA022091F3
:1045E000AB023091AC0260277127822793271F917D
:1045F0000F910C94382208952EE0929F800D112483
:10460000E82FE695E695E695877051E001C0550FD5
:104610008A95EAF785E0E89FF0011124E458FD4F00
:1046200020E030E070E04081CB01022E02C0969580
:1046300087950A94E2F781708195842785238427E2
:1046400081932F5F3F4F2530310569F708952EE0A4
:10465000929F800D1124682F669566956695982F18
:10466000977085E0689FB001112440E050E080E041
:10467000FB01E40FF51FE458FD4F208130E0092EC7
:1046800002C0369527950A94E2F721703327042E4D
:1046900001C0220F0A94EAF7822B4F5F5F4F45302B
:1046A000510531F70895BF92CF92DF92EF92FF92BA
:1046B0000F931F93CF93DF938C01C090A902D090EA
:1046C000AA02E090AB02F090AC028091AD02909112
:1046D000AE02A091AF02B091B002C82AD92AEA2A4C
:1046E000FB2ACFE1D0E0D701C6010C2E04C0B6955D
:1046F000A795979587950A94D2F780FD04C02197D6
:1047000090F7B12C07C0BC2EB8018C2F0E94330843
:104710000197A9F38B2DDF91CF911F910F91FF90FE
:10472000EF90DF90CF90BF900895CF93DF93EC018F
:104730000E945323BE010E943308DF91CF91089558
:104740001F93CF93DF93EB0190914302992321F0C4
:10475000CB010E94952313C0882349F0CB010E940E
:104760005323182F682FCE010E94FC2204C0CB01D6
:104770000E942723182FBE01812F0E943308DF914A
:10478000CF911F9108958091B1028595859585956A
:1047900008958091B102877008959091B102977049
:1047A00081E009F480E008958091D5020895909108
:1047B000D502892B8093D502089580959091D502DA
:1047C00089238093D50208951092D502089590917F
:1047D000D402892B8093D402089580959091D402BD
:1047E00089238093D40208951092D40208951092E0
:1047F000D30208958091B202089508950C94FD2388
:104800000C94FE239091B202981721F08093B2028B
:104810000C94002408958091B202882329F010920C
:10482000B20280E00C9400240895E0911701F09109
:1048300018018091D5028083E0911701F091180151
:1048400090818091D402892B8083E0911701F091AF
:10485000180190818091D302892B80838091B202CC
:10486000882381F0E0911701F09118019081892B44
:10487000808380911701909118010E945C2581111D
:104880000E940B2480911701909118010C944419F7
:104890000C94FD2398E0899F90011124262B2093EE
:1048A000B1020E945E228091B10285958595859521
:1048B0000C9448241092B10280E00C94482420917A
:1048C000B102809582238093B102982F977079F47A
:1048D00030E0482F082E000C550B2417350739F00F
:1048E0008595859585950E947F220C945A2408957C
:1048F0009093D5018093D40108958295982F937356
:1049000044E0949F900111248C7C86958695282BF9
:10491000822F8575880F2A7A2695822B0895CF934A
:10492000DF93D92F0E947D24C82F8D2F0E947D24D4
:104930002C2F30E0322F2227A901482BCA01DF910A
:10494000CF91089580E090E00E94793121E08C3E83
:104950009E4F09F020E0822F089582E090E00C94B1
:104960006B31682F82E090E00C947F3183E090E01F
:104970000C946B31682F83E090E00C947F31CF93DF
:1049800084E090E00E946B31C82F81E290E00E94A9
:104990006B312C2F30E0A901582BCA01CF9108951B
:1049A000CF93C92F682F84E090E00E947F316C2F55
:1049B00081E290E0CF910C947F3186E090E00C94FE
:1049C0006B31682F86E090E00C947F31AB01BC0125
:1049D0008FE090E00C949131AB01BC0183E190E059
:1049E0000C94913160E070E0CB010C94EC2460E019
:1049F00070E0CB010E94E6240C94F2246CEE7EEF72
:104A000080E090E00E949D3160E082E090E00E94B2
:104A10007F3160E083E090E00E947F311092AD0230
:104A20001092AE021092AF021092B00260E084E0E9
:104A300090E00E947F3160E081E290E00E947F314F
:104A400060E085E090E00E947F3160E086E090E0E9
:104A50000E947F316FEF87E090E00E947F3140E05D
:104A600050E0BA0188E090E00E94913160E08DE072
:104A700090E00E947F3140E050E0BA0188E190E090
:104A80000E94913160E087E190E00E947F3140E038
:104A900050E0BA018CE190E00E94913160E080E248
:104AA00090E00E947F310C94F7240C94FE24682F30
:104AB0008EE090E00C947F31FC01329680912301CE
:104AC000882331F08091480387FF02C09EE101C036
:104AD00096E080E0915028F021912223D9F38F5F56
:104AE000F9CF0895662351F1209123012223E9F0A3
:104AF0002091480327FF19C0462F469546954695B5
:104B00004E31E0F4677021E030E002C0220F331F25
:104B10006A95E2F7FC01E40FF11D828190E0282301
:104B2000392381E0232B69F409C0FC0132960896F1
:104B30002191621729F0E817F907D1F780E008956D
:104B400081E008959C01FC0132969FEF80E0419145
:104B5000461789F09F3F19F4411101C0982F8F5FCC
:104B60008630A9F79F3F39F0F901E90FF11D97FD54
:104B7000FA956283089508959C012A5F3F4FFC01D6
:104B80004281461301C01282019682179307B9F73A
:104B90000895262F2695269526952E3170F4FC0132
:104BA000E20FF11D677021E030E001C0220F6A952D
:104BB000EAF78281282B228308958091D60280FF14
:104BC0000CC01F926F9389EB9AE09F938F930E9482
:104BD0002B070F900F900F900F900895262F26957A
:104BE000269526952E3178F4FC01E20FF11D6770B1
:104BF00021E030E001C0220F6A95EAF7209582811A
:104C00002823228308958091D60280FF0CC01F9232
:104C10006F938BE99AE09F938F930E942B070F90DD
:104C20000F900F900F90089520912301222329F0D7
:104C30002091480327FD0C94C9250C94A2252091AE
:104C40002301222329F02091480327FD0C94EE250F
:104C50000C94BC2520912301FC013296222331F0D3
:104C60008091480387FF02C08EE101C086E0DF012A
:104C70001D928A95E9F7089508950C943C260C94AA
:104C80003C26CF930E943F260E94A60A0E943D2602
:104C9000C0E08C2F0E94FB09892B29F4CF5FC5301F
:104CA000C1F780E001C081E0CF9108950C943C26CB
:104CB0000C9456260E94582680914E03843009F4A5
:104CC0003CC01092D70220E488E190E00FB6F8943F
:104CD000A895809360000FBE2093600080E00E9442
:104CE000331680E00E94A1070E9464118091D802CF
:104CF00081110AC081E08093D802809114038170F1
:104D00008093D9020E94D2120E94582683B7817FD5
:104D1000846083BF83B7816083BF7894889583B7AD
:104D20008E7F83BF0FB6F894A8958091600088614C
:104D300080936000109260000FBE08950C943C2692
:104D40000E94851E0E9485140E9438190E94A107A6
:104D50001092D8028091D90281110E946D120E9496
:104D600042110C949E261F920F920FB60F9211249F
:104D70008F939F93AF93BF938091D702811113C0FC
:104D80008091440390914503A0914603B09147035D
:104D90004196A11DB11D8093440390934503A093B8
:104DA0004603B0934703BF91AF919F918F910F90AE
:104DB0000FBE0F901F90189582E084BD93E095BDC3
:104DC0009AEF97BD80936E0008952FB7F894809165
:104DD000440390914503A0914603B09147032FBF30
:104DE00008959C014FB7F894809144039091450336
:104DF000A0914603B09147034FBF821B930B0895C8
:104E000078941F920F920FB60F9211248F939F9355
:104E1000AF93BF938091440390914503A0914603C3
:104E2000B09147030196A11DB11D80934403909357
:104E30004503A0934603B0934703BF91AF919F9161
:104E40008F910F900FBE0F901F90189581E0809367
:104E5000E00080E28093D8001092C9008FE19EE4C8
:104E60000197F1F700C0000087E090EBDC01809330
:104E7000570390935803A0935903B0935A039CE0AF
:104E800088E10FB6F894A895809360000FBE9093C8
:104E90006000FFCFAF92BF92CF92DF92EF92FF926E
:104EA0000F931F93CF93C0E0CC24C394D12CE82E52
:104EB000F12C8C2F0E94FB095C0100E010E0C60180
:104EC000002E02C0880F991F0A94E2F78A219B21C5
:104ED000892B31F40F5F1F4F0E30110581F70AC087
:104EE000602F7C2F80E00E942008E816F90691F7D9
:104EF00081E004C0CF5FC530E1F680E0CF911F9123
:104F00000F91FF90EF90DF90CF90BF90AF900895FA
:104F1000CF93C82F8CE20E944A27882321F08C2F40
:104F2000CF910C944A2780E0CF910895CF930E94AF
:104F3000A224811102C00E9455258EED9AE00E94A4
:104F40009206C5E6C15049F00E94A60A8FE39CE98B
:104F50000197F1F700C00000F5CF87ED9AE00E94BD
:104F6000920689E20E948827811120C18AE20E946C
:104F7000882781110E94552585E00E94882781118C
:104F80000E9426270E94AD248093D60287E00E94CB
:104F900088278823A9F18BE10E948827882351F074
:104FA0008091D60281FB222720F991E0922790FB85
:104FB00081F90EC08EE00E948827882361F08091DD
:104FC000D60282FB222720F991E0922790FB82F9FA
:104FD0008093D60215C080E10E9488279091D60266
:104FE000882341F093FB222720F981E0822780FB70
:104FF00093F904C0892F809580FB90F99093D60295
:105000008091D6020E94B1240E94BF24909349034C
:105010008093480380EE0E948827882341F0809186
:105020004803982F909590FB80F98093480389E37B
:105030000E948827882359F08091480381FB22270A
:1050400020F991E0922790FB81F98093480382EE4A
:105050000E948827882359F08091480382FB2227E9
:1050600020F991E0922790FB82F98093480386EE25
:105070000E948827882359F08091480383FB2227C8
:1050800020F991E0922790FB83F98093480383EE07
:105090000E948827882359F08091480384FB2227A7
:1050A00020F991E0922790FB84F98093480385E3EF
:1050B0000E948827882359F08091480385FB222786
:1050C00020F991E0922790FB85F98093480381E3D2
:1050D0000E948827882359F08091480386FB222765
:1050E00020F991E0922790FB86F98093480381E1B3
:1050F0000E948827882359F08091480387FB222744
:1051000020F991E0922790FB87F9809348038091E2
:105110004803909149030E94D02487E20E94882787
:10512000C82F8EE10E9488278111C2608FE10E9402
:1051300088278111C46080E20E9488278111C8609D
:1051400081E20E9488278111C06182E20E94882743
:105150008111C06283E20E9488278111C06484E2C9
:105160000E948827882311F0C06802C0CC2329F050
:105170008C2F0E94BA246C2F03C00E94B624682F83
:1051800070E080E090E00E94FE218FE00E9488277E
:10519000882319F081E00E94572585E10E94882725
:1051A000882321F080E0CF910C945725CF9108956A
:1051B0008091FD02089508959FB7F8941092DC0243
:1051C0009FBF90914E03943009F057C09091E90031
:1051D0009F703091EC00232F217030FD20E8922B3E
:1051E00023E02093E9002091EB0020FF43C02091B1
:1051F000EE0027FF3FC02091DA02222321F0209108
:10520000E80025FF37C01092DA0226E03091E8006E
:1052100035FD15C030914E03343061F53091EB000F
:1052200035FD28C0215021F481E08093DA0222C0AC
:10523000EFE9FFE03197F1F700C00000E7CF80937E
:10524000F1008091E80085FD0AC08091E80080FFB0
:10525000FCCF8091E8008E778093E80006C08FB77E
:10526000F89421E02093DC028FBF9F709093E900B7
:1052700080E008959F709093E9008FEF0895CF9399
:10528000DF9300D01F92CDB7DEB790914E039430DC
:1052900019F589837B836A8382E08093E9008FEF2D
:1052A0009091E800815095FD06C095ED9A95F1F733
:1052B00000008111F5CF8091E80085FF0DC040E02E
:1052C00050E063E070E0CE0101960E94D12B809106
:1052D000E8008E778093E8000F900F900F90DF9199
:1052E000CF910895CF93DF93EC010E94B42B8230CD
:1052F00011F0843031F4BE0184E0DF91CF910C9441
:105300003F29DF91CF910895BC0183E00C943F29A0
:10531000CF93DF93EC010E94B42B823011F08430E4
:10532000D9F580912301882339F08091480387FFC4
:1053300003C060E282E002C068E081E08093E9009F
:105340008FEF9091E800815095FD06C095ED9A95FC
:10535000F1F700008111F5CF8091E80085FF1CC0B6
:1053600080912301811105C040E050E068E070E0C9
:1053700003C070E040E050E0CE010E94D12B80914C
:10538000E8008E778093E80080E2FE01ADEDB2E0A8
:1053900001900D928A95E1F7DF91CF91089588E110
:1053A0009BE00E94920680914D03811109C00E94EA
:1053B000622D0E94BF2D8091E20084608093E20004
:1053C000089584E19BE00E94920610924D03089597
:1053D00080E19BE00C9492068CE09BE00C9492069A
:1053E00088E09BE00E9492060C94A0262091DB02AC
:1053F0002F5F822F62E30E947E30992319F0209361
:10540000DB0208951092DB028091DC02882371F1A7
:1054100080914E03843041F58091E9008F70209196
:10542000EC00922F917020FD90E8892B93E09093EF
:10543000E9009091EB0090FF14C09091EE0097FF6F
:1054400010C09091E80095FF03C01092F100F9CFD1
:105450009091E80090FF05C09091E8009E779093AE
:10546000E8008F708093E9001092DC02089542E01A
:1054700061EC81E00E94DB2C42E261EC82E00E9460
:10548000DB2C42E261EC83E00C94DB2C8091500336
:10549000833009F460C030F4813071F0823009F457
:1054A00099C008958A3009F485C08B3009F46BC027
:1054B000893009F0A7C020C080914F03813A09F0DC
:1054C000A1C08091E800877F8093E800809153031A
:1054D00090915403892B21F460E28DED92E003C09A
:1054E00060E080E090E070E00E941C2C8091E80079
:1054F0008B778093E800089580914F03813209F003
:1055000081C08091530390915403029708F07AC0B0
:105510008091E800877F8093E8008091E80082FD19
:1055200005C080914E038111F8CF6CC02091F3002B
:105530008091F20090E0922B029729F48091F10083
:105540008B7F813021F48091F1008093FD02809166
:10555000E8008B7753C080914F03813A09F052C025
:105560008091530390915403892B09F04BC0809193
:10557000E800877F8093E8008091E80080FFFCCFFF
:105580008091230136C080914F038132D9F58091FB
:10559000530390915403892BA9F58091E800877FEC
:1055A0008093E8000E94102D809151038093230185
:1055B0000C94851E80914F03813221F58091E80083
:1055C000877F8093E8000E94102D80915203809382
:1055D000FE02089580914F03813AA1F48091E80082
:1055E000877F8093E8008091E80080FFFCCF809166
:1055F000FE028093F1008091E8008E778093E800AE
:105600000C94102D089584B7877F84BF0FB6F8944B
:10561000A89580916000886180936000109260007E
:105620000FBE90E080E80FB6F894809361009093ED
:1056300061000FBE0E94D5190E94622D0E94BF2DED
:105640008091E20084608093E2008CED98E20E94F9
:10565000782478940E9453300E94DF1989E191E008
:105660000E94331987EF9AE00E94920680914E03C0
:10567000853089F483EF9AE00E9492060E945A26B0
:1056800080914C03882391F30E944126882371F373
:105690000E94BB2BEBCF0E94131AE8CF0C94502B27
:1056A000292F332723303105C9F060F4213031052B
:1056B00081F02230310509F047C08BE590E02EE300
:1056C0003BE046C02132310511F12232310561F152
:1056D0003BC082E190E029E93BE03AC09927813064
:1056E000910561F040F08230910559F0039761F522
:1056F000ECE1FBE008C0EAE3FBE005C0E0E3FBE02F
:1057000002C0E2E2FBE0849190E09F0121C063309F
:105710007105D0F4660F771FFB01E353FE4F208124
:10572000318189E090E014C06330710568F4FB01B9
:10573000EE0FFF1FE953FE4F20813181FB01EC5337
:10574000FE4F808190E004C080E090E020E030E0F7
:10575000FA0131832083089580914E03843011F043
:1057600081E0089582E008958091FF02811102C0D6
:105770000C94AC2B089580E189BD82E189BD09B408
:1057800000FEFDCF8091D8008F7D8093D80080915E
:10579000E00082608093E0008091E00081FDFCCF1A
:1057A0000895CF92DF92EF92FF920F931F93CF93C2
:1057B000DF93EC018B017A010E942F2D811133C000
:1057C000E114F10439F0F70180819181081B190B74
:1057D000C80FD91FC12CD12C0115110519F18091C9
:1057E000E80085FD16C08091E8008E778093E80080
:1057F000E114F10449F0F70180819181C80ED91EAE
:10580000D182C08285E00FC00E942F2D882321F312
:105810000AC089918093F10001501109FFEFCF1A5E
:10582000DF0ADACF80E0DF91CF911F910F91FF90D7
:10583000EF90DF90CF90089520915503309156035B
:105840002617370748F06115710539F42091E800F3
:105850002E772093E80001C0B901FC0120E061151A
:10586000710579F180914E038823F1F18530F1F1D2
:105870008091E80083FD3CC08091E80082FD2EC04D
:105880008091E80080FFEBCF2091F3008091F2003F
:1058900090E0922B6115710551F08830910538F434
:1058A00021912093F100615071090196F3CF21E01D
:1058B000089709F020E08091E8008E778093E80057
:1058C000CECF2111CFCF0AC080914E03882361F043
:1058D000853061F08091E80083FD0AC08091E80086
:1058E00082FFF2CF80E0089582E0089583E008957A
:1058F00081E008952091550330915603261737070C
:1059000048F06115710539F42091E8002E77209355
:10591000E80001C0B901FC0120E06115710591F1B9
:1059200080914E03882309F440C0853009F43FC0BC
:105930008091E80083FD3DC08091E80082FD2FC08A
:105940008091E80080FFE9CF2091F3008091F20080
:1059500090E0922B6115710559F08830910540F463
:1059600024912093F1003196615071090196F2CF94
:1059700021E0089709F020E08091E8008E7780937D
:10598000E800CBCF2111CCCF0AC080914E038823F1
:1059900061F0853061F08091E80083FD0AC080915C
:1059A000E80082FFF2CF80E0089582E0089583E06E
:1059B000089581E00895982F973068F59093E90055
:1059C000981739F07091EC002091ED005091F000A3
:1059D00003C0242F762F50E021FD02C09F5FECCF43
:1059E0003091EB003E7F3093EB003091ED003D7F36
:1059F0003093ED003091EB0031603093EB00709309
:105A0000EC002093ED005093F0002091EE0027FD74
:105A1000E5CF80E008958F708093E90081E00895DC
:105A200080914F0387FF11C08091E80082FD05C07F
:105A300080914E038111F8CF11C08091E8008B77DF
:105A40000BC080914E03882349F08091E80080FFCD
:105A5000F8CF8091E8008E778093E8000895209138
:105A6000E4003091E50095E64091EC00842F8170D0
:105A700040FF23C08091E80080FD1DC080914E034F
:105A8000882399F0853099F08091EB0085FD11C055
:105A90004091E4005091E5002417350729F3915017
:105AA00011F09A01E1CF84E0089582E0089583E047
:105AB000089581E0089580E008954091E80042FF54
:105AC000DDCF08950E94D02D0E94D82DE0EEF0E0A9
:105AD000808181608083E8EDF0E080818F77808332
