:100000000C94A9050C94F0050C94F0050C94F005E3
:100010000C94F0050C94F0050C94F0050C94F0058C
:100020000C94F0050C94F0050C94A12B0C94732CFB
:100030000C9424230C94F0050C94F0050C94F0051A
:100040000C94F0050C94F0050C94F0050C94F0055C
:100050000C947B070C948C230C94F0050C94F00505
:100060000C94F0050C94F0050C94F0050C94F0053C
:100070000C94F0050C94F0050C94F0050C94F0052C
:100080000C94F0050C94F0050C94F0050C94F0051C
:100090000C94F0050C94F0050C94F0050C94F0050C
:1000A0000C94F0050C94F0050C94F0057D087F0885
:1000B0008A08810883088508870889088C088E08C3
:1000C00090089B0892089408960898089A089D083A
:1000D000B019B019E219E219221A7B1B7B1B7B1B9A
:1000E000421A7B1BE31AE31A7B1B531BF01AF01A0C
:1000F000F01AF01AF01AF01AF01AF01AF01AF01AB0
:10010000F01AF01AF01AF01AF01AF01AFF1A0D1B72
:10011000141B1B1B251BFE1BFE1B101C101C071C8D
:10012000101C101C101CFE1BFE1B0C1C101C101C99
:100130000C1CE02C072DF92D072DF92D532D762DB4
:10014000F92DCC2DDB2D29001E001F0020002100E1
:100150002200230024002500260027002D002E0069
:1001600031002B0014001A000800150017001C00B5
:1001700018000C00120013002F0030002A00E000CD
:1001800004001600070009000A000B000D000E0015
:100190000F003300340028000000E1001D001B00A8
:1001A0000600190005001100100036003700380065
:1001B000E50002510000E200E200E3000000000060
:1001C00000002C43000000000000E700E600E6000D
:1001D00035410100010001000100010001000100A2
:1001E0000100010001000100010001000100010007
:1001F000C25CC35CC55CC65CC75CC85CC95CCA5CED
:1002000001000100010001000100010001000100E6
:1002100001000100010001000100010001000100D6
:10022000010001000000010001000100BD5CBF5C95
:10023000BE5CC05C01000100010001000100010082
:1002400000000100010001000000000000000100AA
:1002500000000000000001000100010001002C0569
:100260003A003B003C003D003E003F0040004100A2
:10027000420043004400450000000000BC00BB00F9
:10028000AE000000000000000000000000000000C0
:10029000000000000000000081008000A8000000B5
:1002A000000000000000000000000000000000004E
:1002B000000000000000000000000000000000003E
:1002C000000000000000000000000100000000002D
:1002D000000000000000000000000000000000001E
:1002E00000000000000000004C00000000000000C2
:1002F00000000000000000000000000000000000FE
:1003000000000000000000000000000000000000ED
:10031000000000000000520000000000000000008B
:1003200000000000000000000000000000000000CD
:10033000500051004F0000000000000000000000CD
:100340000000000000000000000000000000500855
:100350004F08000000000000000000000000000046
:10036000000000000000000000000000000000008D
:10037000000000004C0044454255473A2064697330
:1003800061626C65642E0A0044454255473A206517
:100390006E61626C65642E0A0000000000000000BF
:1003A0000000000001010203040506080A0C0F11F9
:1003B00014181C2024292E33393F464C535B626AA3
:1003C0007179818A929AA2AAB2B9C1C8CFD5DCE16B
:1003D000E7EBF0F4F7FAFCFDFEFFFEFDFCFAF7F4A4
:1003E000F0EBE7E1DCD5CFC8C1B9B2AAA29A928AF4
:1003F0008179716A625B534C463F39332E29242040
:100400001C1814110F0C0A08060504030201010050
:100410000000000000000000000A002530313662B4
:10042000003A200025303258000A722F6320303104
:1004300032333435363738394142434445460A0071
:100440007267626C696768742074696D6572206494
:10045000697361626C652E0A007267626C69676815
:10046000742074696D657220656E61626C65642EBE
:100470000A007267626C696768742073657420682B
:100480007376205B4E4F454550524F4D5D3A2025C7
:10049000752C25752C25750A007267626C69676872
:1004A000742073657420687376205B454550524F05
:1004B0004D5D3A2025752C25752C25750A0072672F
:1004C000626C69676874207261696E626F7720730D
:1004D0006574206873763A2025642C25642C256485
:1004E0002C25750A007267626C69676874206469FC
:1004F0007361626C65205B454550524F4D5D3A20FB
:100500007267626C696768745F636F6E6669672E95
:10051000656E61626C65203D2025750A0072676218
:100520006C6967687420656E61626C65205B454527
:1005300050524F4D5D3A207267626C696768745F14
:10054000636F6E6669672E656E61626C65203D2023
:1005500025750A007267626C6967687420746F673A
:10056000676C65205B454550524F4D5D3A20726780
:10057000626C696768745F636F6E6669672E656E2B
:1005800061626C65203D2025750A007267626C69A6
:10059000676874206D6F6465205B4E4F454550520F
:1005A0004F4D5D3A2025750A007267626C69676875
:1005B00074206D6F6465205B454550524F4D5D3A28
:1005C0002025750A007267626C696768745F696EDE
:1005D0006974207267626C696768745F636F6E66C6
:1005E00069672E6D6F6465203D20302E205772693B
:1005F00074652064656661756C742076616C7565E0
:100600007320746F20454550524F4D2E0A0072677B
:10061000626C696768745F696E6974206565636F91
:100620006E666967206973206E6F7420656E616203
:100630006C65642E0A007267626C696768745F6932
:100640006E6974207374617274210A007267626C3F
:10065000696768745F696E69742063616C6C656456
:100660002E0A007267626C696768745F636F6E66FA
:1006700069672E7370656564203D2025640A0072E9
:1006800067626C696768745F636F6E6669672E7610
:10069000616C203D2025640A007267626C6967689E
:1006A000745F636F6E6669672E736174203D2025E9
:1006B000640A007267626C696768745F636F6E6674
:1006C00069672E687565203D2025640A0072676899
:1006D0006C696768745F636F6E6669672E6D6F64BF
:1006E00065203D2025640A007267626C6967687442
:1006F0005F636F6E6669672E656E61626C65203D33
:100700002025640A007267626C696768745F636FB2
:100710006E666967206570726F6D0A0000047F3F26
:100720001F643214643214783C1E1E140A052223FE
:10073000252628292A2C2D2F3032333536383A3BBE
:100740003D3E4042434547494A4C4E505153555710
:10075000595A5C5E6062646668696B6D6F7173752F
:1007600077797B7D7F81838587898A8C8E9092942F
:1007700096989A9C9E9FA1A3A5A7A8AAACAEAFB13C
:10078000B3B4B6B8B9BBBCBEBFC1C2C3C5C6C7C986
:10079000CACBCCCDCED0D1D2D2D3D4D5D6D7D7D840
:1007A000D9D9DADADBDBDBDCDCDCDCDCDDDDDDDD92
:1007B000DCDCDCDCDCDBDBDBDADAD9D9D8D7D7D69A
:1007C000D5D4D3D2D2D1D0CECDCCCBCAC9C7C6C551
:1007D000C3C2C1BFBEBCBBB9B8B6B4B3B1AFAEAC97
:1007E000AAA8A7A5A3A19F9E9C9A98969492908E42
:1007F0008C8A89878583817F7D7B79777573716F1B
:100800006D6B6968666462605E5C5A5957555351F6
:10081000504E4C4A4947454342403E3D3B3A3836AC
:10082000353332302F2D2C2A292826252322FFAAC2
:100830007F554000000000000000000000010101A1
:10084000010101010101020202020202020203038C
:100850000303030303040404040405050505050656
:100860000606060607070707080808080909090A0F
:100870000A0A0B0B0B0C0C0C0D0D0D0E0E0E0F0FB0
:100880001010101111121213131414151516161737
:1008900017181819191A1A1B1C1C1D1D1E1F1F20A2
:1008A000212122232324252526272828292A2B2CE9
:1008B0002C2D2E2F30313132333435363738393A0A
:1008C0003B3C3D3E3F404142434445464748494BFF
:1008D0004C4D4E4F50525354555758595A5C5D5ECB
:1008E000606163646567686A6B6C6E6F7172747661
:1008F00077797A7C7D7F8182848687898B8D8E90C3
:1009000092949597999B9D9FA1A2A4A6A8AAACAEEC
:10091000B0B2B4B6B9BBBDBFC1C3C5C8CACCCED0D6
:10092000D3D5D7DADCDEE1E3E6E8EAEDEFF2F4F77F
:10093000F9FCFF0A002530325820006B6579626FA0
:100940006172645F7265706F72743A20000A0025EC
:10095000303258006B6579626F6172645F736574E1
:100960005F6C65643A2000646F6E652E0A00626FEA
:100970006F746D61676963207363616E3A202E2E18
:100980002E20006261636B6C696768742073746504
:10099000703A2025750A006261636B6C6967687440
:1009A0002064697361626C650A006261636B6C69E3
:1009B00067687420656E61626C650A006261636BD2
:1009C0006C6967687420746F67676C653A20257579
:1009D0000A006261636B6C696768742064656372A6
:1009E000656173653A2025750A006261636B6C6905
:1009F00067687420696E6372656173653A20257556
:100A00000A005B735D004B6579626F6172642073ED
:100A1000746172742E0A005B575D005B535D005B6E
:100A2000525D005B445D005B435D000403300000E9
:100A3000000C036B006200640036007800000008C0
:100A40000359006F00750000000403090409025BEC
:100A500000030100A0FA09040000010301010009DC
:100A600021110100012240000705810308000A0945
:100A700004010001030000000921110100012236D8
:100A8000000705820320000A090402000203000097
:100A90000009211101000122220007058303200023
:100AA00001070503032000011201100100000008E6
:100AB000EDFE00000100010203010631FF0974A1EF
:100AC000010975150026FF00952075088102097639
:100AD000150026FF00952075089102C005010980C8
:100AE000A10185031601002603001A81002A830054
:100AF000751095018100C0050C0901A1018504163E
:100B00000100269C021A01002A9C027510950181A1
:100B100000C005010906A101050719E029E7150034
:100B20002501950875018102950175088101050867
:100B3000190129059505750191029501750391012A
:100B40000507190029FF150026FF00950675088185
:100B500000C011241FBECFEFDAE0DEBFCDBF04B668
:100B600003FE27C08091730290917402A0917502D8
:100B7000B09176028730904BA740B04BD1F41092E1
:100B8000730210927402109275021092760214BED3
:100B900084B7877F84BF0FB6F894A89580916000D2
:100BA000886180936000109260000FBEE0E0F8E37F
:100BB000099511E0A0E0B1E0E2E1FEE502C0059098
:100BC0000D92A636B107D9F722E0A6E6B1E001C042
:100BD0001D92A337B207E1F70E94BA280C94072FA1
:100BE0000C940000FF93EF93E0916601F091670190
:100BF000309709F00995EF91FF910895FC018591D7
:100C0000803011F0EFDFFBCF0895FF27E0E230E204
:100C100047FF0CC0419597FF09C0EDE260957095C4
:100C200080959095611D711D811D911D27FF02C04A
:100C3000219530E350E2AA27660F771F881F991F7E
:100C4000AA1FA41710F0A41B63955A95A9F7AA3000
:100C500008F0A95FA05DAF93F3956115710581055B
:100C6000910541F7ED3211F4EF93F395F21718F473
:100C70003F93F395FBCF8F91B5DFFA95E1F7089598
:100C8000E991F9918591803021F0853219F0AADF40
:100C9000F9CF089520E0E89455915532C1F35033CF
:100CA00011F4689455915A3348F4505390F3220F3D
:100CB000022E220F220F200D250FF4CF0EF42195C6
:100CC00089919991533619F3533729F1533559F1D5
:100CD000BC0188279927E8945C3621F48991999181
:100CE00068945591543639F446EF7EF077FF0DC085
:100CF0008FEF9FEF0AC055374AE039F0583540E191
:100D000021F0523642E009F00895FF93EF937DDF22
:100D1000EF91FF91B7CFFF93EF93FC01819180306A
:100D2000B9F360DFFBCFFF93EF9368DFF1CFDF9381
:100D3000CF93CDB7DEB72596A3DFCF91DF9108958E
:100D40000C94C20C0C94C30C0C94EC0681FF02C0F2
:100D5000269A01C026982E980C940608CF92DF920E
:100D6000EF92FF928C3724E1920728F469E070E05B
:100D70000E94482E29C0A0E0B0E08A50974DAF4FA6
:100D8000BF4F6627782F892F9A2F25EF38E241E051
:100D900050E00E94702E69017A01CA01B9010E94D7
:100DA0002C2E9B01AC01C701B6010E942C2EBB2743
:100DB000A92F982F872F009721E0A207B10511F0E6
:100DC000BC0102C06FEF7FEFCB01FF90EF90DF908F
:100DD000CF90089581E0089581E008951F93CF9307
:100DE000DF9300D000D01F92CDB7DEB749835A837E
:100DF0002091A50189819A81211112C0662349F0B1
:100E00000E94A620182F682F89819A810E944B206A
:100E100003C00E947A20182F69817A81812F04C033
:100E20000E94A62069817A810F900F900F900F90F9
:100E30000F90DF91CF911F910C94150AFC01408116
:100E400051816281738184810C94EE060C94A20618
:100E5000E82FE295EF70F0E032A1282F2F7081E0AB
:100E600090E001C0880F2A95EAF78095832382A33A
:100E70000895843030F4811105C090918000977FEF
:100E800004C083E090918000986090938000282FA8
:100E900030E0AFEFBFEF0E94982E23E030E040E05B
:100EA00050E00E94702EC9010E94AE0690938D0002
:100EB00080938C00089580916F0081700895109246
:100EC00069011092680110926A01EFE6F0E08081FA
:100ED000816080830895EFE6F0E080818E7F8083DB
:100EE0000E9477260C9439070E945B0781110C94AD
:100EF0006B070C945F071F920F920FB60F9211248D
:100F00002F933F934F935F936F937F938F939F9311
:100F1000AF93BF93CF93EF93FF9320910001809104
:100F2000680190916901019644EF249F900111247A
:100F3000B9010E94482E9093690180936801B9011C
:100F4000660F672F661F770B71950E94482E6F778B
:100F500080916A01823019F4603451F404C0813008
:100F600039F46F3729F480916F008E7F80936F0082
:100F7000E62FF0E0E756FC4FC4910E947726282F19
:100F800041E051E0C49FC001C59F900D112463E072
:100F900070E00E94482E269FC001279F900D1124CB
:100FA0000E94AE0690938D0080938C00FF91EF918C
:100FB000CF91BF91AF919F918F917F916F915F91F1
:100FC0004F913F912F910F900FBE0F901F9018954A
:100FD000279A87E30E9428078AE08093800089E1AE
:100FE000809381008FEF9FEF90938700809386001E
:100FF0000E9453250C945F070E94FE21811102C0BC
:101000000E948B220E94E8070C94A00608950C947D
:10101000A60608950E94EE1B0E9409082FEF84E3A4
:101020009CE0215080409040E1F700C000000C940B
:10103000B2230F931F93CF93DF93EC010E941E07FF
:101040008C01BE010E94A406882331F1BE01C801B3
:101050000E94E115882301F10A3C8CE51807F1F0A4
:1010600008F01CC1023C8CE51807F9F008F0CDC06F
:1010700005318CE5180708F093C002308CE518079D
:10108000D8F401158CE5180709F067C0CA81CC2394
:1010900009F4C5C10E940A08C0E0C1C1CA81CC23BD
:1010A00009F4BDC10E94A811F7CFCA81CC2309F46D
:1010B000B6C10E948E14F0CF8A81882309F450C0F3
:1010C0000E94FE21811102C00E948B220E941B22DD
:1010D00090E09093640280936302F801E350FC4532
:1010E000E231F10530F4EA5AFF4F809163020C942B
:1010F000922E80916302816027C0826025C0846047
:1011000023C0806121C080621FC080641DC08068D0
:101110001BC08460886018C08E7F16C08D7F14C08D
:101120008B7F12C08F7E10C08F7D0EC08F7B0CC056
:101130008F770AC08B7F877F07C087FB222720F924
:1011400091E0922790FB87F980936302809163027C
:101150000E941F220E94EE1B9FCF01301C4539F0D8
:10116000CE01DF91CF911F910F910C94EA06CA81B5
:10117000CC2309F454C180912002C82FC095C170BE
:10118000C0FB80F980932002CC2329F088E893E00B
:101190000E94FE0581CF86E793E00E94FE053FC1D5
:1011A00006318CE5180731F50E942621282F8A8107
:1011B0004091110150911201882379F02A7A91E02F
:1011C00009F490E090936B01911102C069E201C0B3
:1011D00065E3CA010E94BF220AC080916B018111A0
:1011E00002C069E201C065E3CA010E94C1220E94F7
:1011F000652152CF013C1C4509F0B2CFCA81CC23F6
:1012000009F40DC10E94740747CFCA81063C8CE5E2
:10121000180731F4CC2309F402C10E946C113CCFB1
:10122000073C8CE5180708F5043C8CE5180751F4D9
:10123000CC2309F4F4C00E942621827269F40E9432
:10124000DB132ACF053C1C4550F4CC2309F4E7C03E
:101250000E942621827299F70E94CE131DCFCC23C3
:1012600009F4DDC00E945F1117CF083C8CE5180718
:1012700031F4CC2309F4D3C00E948A110DCF093C6C
:101280001C4530F4CC2309F4CAC00E947B1104CF62
:10129000CC2309F4C4C00E949911FECE013D8CE517
:1012A000180771F4CA81CC2309F4B9C00E94950FC4
:1012B0008F3020F00E94950F843170F28FE00EC0C5
:1012C000023D8CE5180708F058C00D3C8CE5180766
:1012D00041F4CA81CC2309F4A2C081E00E94DE134C
:1012E000DBCE0E3C8CE51807B0F40B3C8CE5180700
:1012F00039F4CA81CC2309F492C00E949D0FCCCE50
:101300000C3C1C4509F02CCFCA81CC2309F487C0C2
:101310000E94AE0FC1CECA810F3C8CE5180771F454
:10132000CC2309F47CC00E94950F863028F00E94DF
:10133000950F883008F490CF86E0D0CF003D1C4553
:1013400070F4CC2309F46BC00E94950F823028F012
:101350000E94950F853008F47FCF82E0BFCFCC2369
:1013600009F45DC00E94950F893028F00E94950F06
:101370008E3008F471CF89E0B1CF053D8CE51807B8
:1013800031F4CA81CC2309F44AC083E2A7CF063DD9
:101390008CE5180730F5CA81033D8CE5180721F468
:1013A000CC23E9F188E19ACF043D1C4568F4CC23B5
:1013B000B1F10E94950F853128F00E94950F873179
:1013C00008F44ACF85E18ACFCC2349F10E94950FDA
:1013D000893128F00E94950F823208F43DCF89E1CF
:1013E0007DCF0D3D8CE5180739F4CA81CC23B9F0C7
:1013F00082E00E94642950CE0E3D8CE5180731F43E
:10140000CA81CC2361F00E948B2246CE0C3D1C4544
:1014100009F0A6CECA81CC2311F080E0EACF8C2F50
:10142000DF91CF911F910F9108959EE0799FF00178
:10143000112496E4899FE00DF11D1124E60FF11DA2
:10144000EE0FFF1FEA5BFE4F859194910895880F80
:10145000991FFC01E75EFB4F859194910895CF930E
:10146000DF930E94150A0E94220CEC01811521E5F0
:10147000920708F042C0811560E5960708F031C177
:10148000883E910500F5803E910508F0D7C1883A65
:10149000910570F4853A910508F0A6C08130910558
:1014A00009F4CCC108F47DC1049708F0C7C179C123
:1014B0008F3B910508F4A3C0803C910508F471C1ED
:1014C000805C9109FDC0C11580E3D80780F4C11587
:1014D00090E2D90708F0F2C0C03FD10508F461C11D
:1014E000CF3FD10511F008F0A9C1D065A7C1C11542
:1014F00020E4D20708F0F2C0E7C0811569E596073D
:1015000060F5C11588E5D80708F037C1C11594E525
:10151000D90778F4C11523E5D20708F013C1C11526
:1015200062E5D60708F0F8C0DC2FCC27C16FD06A7F
:1015300085C1C11585E5D80708F41AC1C11596E51E
:10154000D90708F02EC18C2F0E949F0C8F71C82FD5
:10155000D0E0DC2FCC27D06271C18D3B2CE5920707
:1015600009F416C1F0F4CB3B8CE5D80709F40AC1A5
:1015700008F00BC1C1152AE5D20708F012C18C2F63
:101580008F700E949F0C94E0D695C7959A95E1F7CD
:10159000CF70D0E0DC2FCC27D06A8F70806EC82B44
:1015A0004DC1803C9C4509F4F9C0C13C8CE5D8078D
:1015B00060F4CE3B9CE5D90709F4EDC0CF3BDC4598
:1015C00009F0EFC0C0E0D2ED39C1CE0190568115CF
:1015D000904208F0E6C08D2F8F710E949F0CDD278E
:1015E000D0628F71D82B2AC1853A910509F4DCC0ED
:1015F000863A910509F0DBC0C2E8D0E41FC1883A01
:10160000910509F4D7C0893A910509F4D6C08A3A00
:10161000910509F4D5C08B3A910509F4D4C08C3AF0
:10162000910509F4D3C08B3B910509F4D2C08C3BE2
:10163000910509F4D1C08D3A910509F4D0C0803BE1
:10164000910509F4CFC08E3A910509F4CEC08F3AC6
:10165000910509F4CDC0813B910509F4CCC0823BD2
:10166000910509F4CBC0833B910509F4CAC0843BC2
:10167000910509F4C9C0853B910509F4C8C0863BB2
:10168000910509F4C7C0873B910509F4C6C0883BA2
:10169000910509F4C5C0893B910509F4C4C08D3B8F
:1016A000910509F4C3C08E3B910509F4C2C08A3B81
:1016B000910509F4C1C0C0E0D4E4C0C0CE019F7060
:1016C0000E94270AEC01BAC0CE019927D3FF03C0BC
:1016D000EC01D86CB3C0EC01D06CB0C0DF70D06A44
:1016E000ADC0837021E030E002C0220F331F8A9525
:1016F000E2F73C68CE0174E0969587957A95E1F71C
:101700008370382BCF70C695C69580E2C89FE001E4
:101710001124C22BD32B92C04C2F4695469590E2B4
:10172000499FA0011124C370DD2721E030E0C901E9
:1017300002C0880F991FCA95E2F7EC01C42BD52B84
:10174000DC687CC04C2F4695469580E2489FA001FE
:101750001124C370DD2721E030E0C90102C0880FE9
:10176000991FCA95E2F7EC01C42BD52BDA6866C045
:10177000DC2FCC27C46FD06A61C0DC2FCC27C06FB0
:10178000D06A5CC0C0E0D4ED59C0C0E0D5ED56C011
:10179000C0E0D1ED53C0C0E0D0ED50C0C0E0D3ED0B
:1017A0004DC0C0E0D0E04AC0C1E8D0E447C0C3E8C3
:1017B000D0E444C0C2EED4E441C0C9EED4E43EC09B
:1017C000CAEED4E43BC0C5EBD4E438C0C6EBD4E4E5
:1017D00035C0C3EBD4E432C0C4EBD4E42FC0C7EBB4
:1017E000D4E42CC0CCECD4E429C0CDECD4E426C0A5
:1017F000C3E8D5E423C0CAE8D5E420C0C2E9D5E4F3
:101800001DC0C4E9D5E41AC0C1E2D6E417C0C3E2E2
:10181000D6E414C0C4E2D6E411C0C5E2D6E40EC0DA
:10182000C6E2D6E40BC0C7E2D6E408C0CFE6D4E4F3
:1018300005C0C0E7D4E402C0CAE2D6E4CE01DF911D
:10184000CF9108958238910549F1B0F48133910523
:1018500009F458C048F48932910509F44EC08A321F
:10186000910509F454C008958533910509F440C0E9
:101870008933910599F00895833E910529F138F453
:10188000803E910591F0823E9105A1F00895863E3B
:101890009105F9F0873E910531F108952091630299
:1018A00020FD3AC021FD38C008958091630280FD7B
:1018B00035C032C08091630282FF32C080916302E2
:1018C00084FD30C083EE39C08091630282FD28C060
:1018D000F5CF8091630283FF27C08091630284FD6E
:1018E00021C087EE2AC08091630283FD1DC0F5CF21
:1018F0008091630285FD1AC01BC08091630285FD43
:1019000017C014C08091630286FD14C015C0809179
:10191000630286FD11C00EC080EE0FC089E30DC0CA
:1019200082EE0BC080E009C086EE07C089E205C0E8
:1019300085E303C08AE201C081E390E008959091BD
:10194000630292FF0DC0282F2871283019F4877F79
:10195000846006C0282F2471243011F48B7F8860A6
:1019600093FF0DC0282F2871283119F4877E8461D8
:1019700006C0282F2471243111F48B7E886194FDD8
:10198000877E089508950895E82FF0E0EE0FFF1F79
:10199000E459FE4F808191810895CF92DF92EF92BA
:1019A000FF920F931F93CF93DF9389E294E00E94FD
:1019B000FE058CE6E82E81E0F82EC0E0D0E094E24F
:1019C000C92E94E0D92E0BE114E0DF93CF93DF9280
:1019D000CF920E94970681E294E00E94FE05F701F3
:1019E000819191917F010E94E4219F938F931F9396
:1019F0000F930E94970689E194E00E94FE052196CC
:101A00008DB79EB708960FB6F8949EBF0FBE8DBFD8
:101A1000C530D105D1F6DF91CF911F910F91FF9085
:101A2000EF90DF90CF900895ECE2F1E041E050E0DC
:101A300025E02E0F9191A92FA295AF70B0E091965D
:101A40003C9191979F70BA0102C0660F771F9A95DB
:101A5000E2F7CB018095832391968C932E13EACFE6
:101A6000AEE1B1E041E050E02EE02A0F8D91E82F89
:101A7000E295EF70F0E031A18F70BA0102C0660FFD
:101A8000771F8A95E2F7CB01962F9095932391A328
:101A900092A1892B82A32A13E9CFE6E7F1E0ACE615
:101AA000B1E0119211921D921D9271E0E038F7079A
:101AB000C1F785E00E94F50D0C94FC075F926F92D0
:101AC0007F928F929F92AF92BF92CF92DF92EF92CE
:101AD000FF920F931F93CF93DF930CE211E0A6E7E1
:101AE000B1E0612CEE24E394F12C5D018D909C908B
:101AF000119711961C921E92E80189918E01E82F90
:101B0000E295EF70F0E091A18F70A70101C0440F42
:101B10008A95EAF7892F842B81A382A1542E5094B1
:101B2000852182A3D0EADA95F1F78EE1C82E81E013
:101B3000D82E80E090E0E60179906E01272D229565
:101B40002F7030E0E90168A12D913C91119770E070
:101B5000D72DDF7002C075956795DA95E2F760FDC5
:101B600008C0B701082E02C0660F771F0A94E2F77B
:101B700002C060E070E0262B372B11963C932E9329
:101B800001968E309105B9F681A1D52DD823D1A328
:101B900082A1482B42A3129681E0F5012081318178
:101BA0008216930609F480E0682AF1E0A038BF07A6
:101BB00009F09BCF262D45E06CE671E086E791E0C9
:101BC0000E94F60D0E942607862DDF91CF911F916E
:101BD0000F91FF90EF90DF90CF90BF90AF909F90CC
:101BE0008F907F906F905F9008950895FF920F936C
:101BF0001F93CF93DF93F82E092F162FD72FC42FC3
:101C0000222349F081E0809382010E945623909321
:101C1000810180938001809182018823D9F0809195
:101C20008001909181010E946223069798F0EF2D28
:101C3000F02FA12FBD2F80E090E04C2F50E08417B3
:101C4000950734F4219131912D933D930196F7CF6F
:101C500010928201DF91CF911F910F91FF90089513
:101C6000CF92DF92EF92FF920F931F93CF93DF9368
:101C70007B01282F382FE82FF0E0F11006C0ED5C33
:101C8000F74F6491762F862F7BC00F2D10E046E032
:101C9000649FC0011124CFEFD0E0BE010E94482E06
:101CA000AB016BEA6403C001659F900D11248E0D9A
:101CB000911D8E0D911D982F990F890FBE01601BEC
:101CC000710B6E9FD0016F9FB00D7E9FB00D1124E0
:101CD0009B2F8F9DB0011124672F77277E01E61A75
:101CE000F70AEE9EB001EF9E700DFE9E700D11245E
:101CF0006E01C81AD108C09E7001C19EF00CD09E22
:101D0000F00C11240F2D1127C01BD10BCE9F800189
:101D1000CF9F100DDE9F100D1124812F42305105F1
:101D200091F04CF441155105E1F041305105B9F401
:101D3000822F272F16C04430510569F044F04630F9
:101D4000510579F00CC0822F2B2F912F0AC02B2F19
:101D5000932F872F06C08B2F922F212F02C08B2FFE
:101D6000972FE22FF0E0ED5CF74F7491E82FF0E051
:101D7000ED5CF74F6491E92FF0E0ED5CF74F849153
:101D8000DF91CF911F910F91FF90EF90DF90CF9057
:101D900008950895CF93DF93762FE901682F842F5C
:101DA0000E94300E798368838A83DF91CF910895F2
:101DB00080913002282F269530E02115310519F445
:101DC0008170826005C02532310524F081708864FD
:101DD00080933002089588E090E00C94C72ECF9352
:101DE000DF9300D000D0CDB7DEB7AB01BC01498393
:101DF0005A836B837C830E94D80E49815A816B8100
:101E00007C8188E090E00F900F900F900F90DF9111
:101E1000CF910C94E52EE0E3F2E083E08083118221
:101E20008FEF8283838314826081718182819381A9
:101E30000C94EF0E8091200280FF08C085E097E0AF
:101E40009F938F930E9497060F900F90809120028E
:101E500080FF0FC08091300281701F928F9388EEB7
:101E600096E09F938F930E9497060F900F900F908C
:101E70000F908091200280FF0FC0809130028695E4
:101E80001F928F938DEC96E09F938F930E949706FD
:101E90000F900F900F900F908091200280FF0EC046
:101EA000809131021F928F9383EB96E09F938F93E3
:101EB0000E9497060F900F900F900F908091200234
:101EC00080FF0EC0809132021F928F9389E996E0C5
:101ED0009F938F930E9497060F900F900F900F90F3
:101EE0008091200280FF0EC0809133021F928F9359
:101EF0008FE796E09F938F930E9497060F900F9025
:101F00000F900F908091200280FF0EC080913402CC
:101F10001F928F9383E696E09F938F930E9497067C
:101F20000F900F900F900F9008958091300280FFD6
:101F300002C08695089580E0089580913402833030
:101F400018F48F5F809334026091300270913102F7
:101F500080913202909133020C94EF0E8091340202
:101F6000882319F08150809334026091300270917F
:101F7000310280913202909133020C94EF0E609105
:101F8000050170E08091300280FF0AC080918701D6
:101F900023E0829FC00111248B5C9D4F0C9471152E
:101FA0008091860190910401891780F7E82FF0E075
:101FB0009F01220F331FE20FF31FEB5CFD4F1182D5
:101FC000108212828F5FF0CF9091300290FF16C086
:101FD0009091860120910401921770F4E92FF0E0AE
:101FE000DF01AA0FBB1FEA0FFB1FEB5CFD4F8183D4
:101FF000608342839F5FF0CF0C94BF0F0895CF930F
:10200000DF9300D01F92CDB7DEB79091300290FFE2
:102010000AC09E012F5F3F4F0E94CA0E4B8169810B
:102020008A810E94E40F0F900F900F90DF91CF9163
:102030000895CF93DF93EC01EC81F0E0E25DF84F7F
:102040004491E0E3F2E0628181810E94FF0F8C8184
:102050008F5F8C83DF91CF910895CF93DF93EC0155
:10206000E0E3F2E0438162818C810E94FF0F8C816A
:102070008F5F8C83DF91CF9108950F931F93CF9340
:10208000DF9300D01F92CDB7DEB78C018091830122
:1020900081110AC09E012F5F3F4F4FEF6FEF0E94EB
:1020A000CA0E8A8180938301F8018481813051F0C6
:1020B00028F0823061F4409183010AC0809183014D
:1020C00040E007C06091830140E080E003C040E051
:1020D00080E060E00E94E40FF801248130E0C90153
:1020E000019663E070E00E945C2E84830F900F9055
:1020F0000F90DF91CF911F910F9108956F927F9272
:102100008F929F92AF92BF92CF92DF92EF92FF9207
:102110000F931F93CF93DF9300D000D0CDB7DEB7DE
:10212000182FD62E042FB22E9091300290FFAAC005
:10213000E92FE695AE2FB0E0AF5CBE4F8C91809357
:102140008F019E7F923061F49E012F5F3F4F812F60
:102150000E94CA0E4B8169818A810E94E40F60C08F
:10216000823019F4009133025BC0863019F410916B
:10217000310256C08930D9F3893109F051C0E95193
:102180008E2F80958170C82EE695F0E0E25DF74FC6
:10219000E590F490A12CFF242EEB822E24E0922EC9
:1021A00060910301A616D0F56A2C712C6E9CC001BB
:1021B0006F9C900D7E9C900D112470E00E94482E23
:1021C000812FCC2011F0860F01C0861B9091200238
:1021D00090FF13C0FF92EF921F92CF921F928F93A6
:1021E0001F92AF929F928F928C830E9497060FB698
:1021F000F894DEBF0FBECDBF8C8190918601690E31
:10220000711C9301220F331F260D371D2B5C3D4F90
:10221000402F6D2D0E94CA0EA394C2CF0E94BF0F03
:1022200010933102D092320200933302BB20C9F0E6
:1022300060913002709131028091320290913302AC
:102240000E94EF0E809133021F928F938091320291
:102250001F928F93809131021F928F9389E994E0AE
:1022600008C01F920F931F92DF921F921F9382E765
:1022700094E09F938F930E9497060FB6F894DEBF69
:102280000FBECDBF0F900F900F900F90DF91CF91A9
:102290001F910F91FF90EF90DF90CF90BF90AF9084
:1022A0009F908F907F906F900895E0E3F2E091818E
:1022B000282F438162818CE0890F0C947E1081E08D
:1022C0000C945511E0E3F2E09181282F4381628163
:1022D00084EF890F0C947E1081E00C946211E0E38E
:1022E000F2E062812CE0620F08F46FEF282F438147
:1022F00081810C947E1081E00C946F11E0E3F2E098
:1023000062812CE0621B08F460E0282F4381818108
:102310000C947E1081E00C947E11E0E3F2E04381A6
:102320002CE0420F08F44FEF282F628181810C943A
:102330007E1081E00C948D11E0E3F2E043812CE00B
:10234000421B08F440E0282F628181810C947E10AA
:1023500081E00C949C1120E00C947E10FF920F936E
:102360001F93CF93DF93EC01F12C0FEF10E06091FE
:102370000301F616E8F42091860130E02F0D311D9F
:10238000C901880F991F280F391F2B5C3D4F70E042
:10239000C8010E945C2E962F8C814091330260917F
:1023A0003202F99E800D11240E94CA0EF394DFCFF1
:1023B0000E94BF0F9A818C8190FF02C08F5F01C085
:1023C00081508C83DF91CF911F910F91FF900895E1
:1023D000BF92CF92DF92EF92FF920F931F93CF9312
:1023E000DF93FC01828180FF02C00FEF01C001E09A
:1023F00010E0809103011817E0F5C12ED12C8091D7
:102400008601E601C80FD11DCE01880F991FC80FA4
:10241000D91FCB5CDD4F198218821A8234E0E32E7B
:10242000F12CB12C809185018B0D87FF03C0909119
:102430000301890F082E000C990BC816D90691F4D8
:10244000809133028E9DA0018F9D500D11245595D2
:102450004795559547959E016091320280913102D2
:102460000E94CA0EB00EF1E0EF1AF108D9F61F5F14
:10247000C0CF0E94BF0F80918501013031F48111DE
:1024800002C080910301815007C090E001966091E5
:10249000030170E00E945C2E80938501DF91CF9153
:1024A0001F910F91FF90EF90DF90CF90BF90089514
:1024B000CF938091860190910401891770F4E82FE1
:1024C000F0E09F01220F331FE20FF31FEB5CFD4F83
:1024D0001182108212828F5FF0CFC0E06091030101
:1024E000C617B8F5EC2FF0E070E0CF010E945C2E2B
:1024F00040918601480F80918401082E000C990BB1
:1025000050E0E817F907C4F020910201022E000CF8
:10251000330B2E173F0784F09A01220F331F240F2D
:10252000351F2B5C3D4F4091330260913202809108
:1025300031020E94CA0E0BC0FA01EE0FFF1F4E0FB0
:102540005F1FFA01EB5CFD4F118210821282CF5F98
:10255000C5CF0E94BF0F2091010180918401820F9D
:102560008093840190910201920F909302011916B9
:102570005CF4082E000C990B4091030150E041508F
:102580005109841795071CF0219520930101CF91E3
:1025900008950F931F93CF93DF938C01FC018481E7
:1025A000958101968170992795838483C0E0D5E554
:1025B00080910301C817F8F42091860130E02C0FB8
:1025C000311DC901880F991F280F391F2B5C3D4F02
:1025D0004C2F4695F80184819581840F911D81705F
:1025E00040913302609132028D9F802D11240E9410
:1025F000CA0ECF5FDDCFDF91CF911F910F910C9469
:10260000BF0F0F931F93CF93DF93EC0100E010E017
:1026100080910301282F30E00217130724F59091D1
:1026200086019801290F311DA901440F551F240F60
:10263000351F2B5C3D4F869590E04C81081719079C
:102640001CF4442331F002C0411103C04091330215
:1026500001C040E060913202809131020E94CA0EB6
:102660000F5F1F4FD5CF0E94BF0F2C8130E02F5F2F
:102670003F4F217033272C83DF91CF911F910F9112
:10268000089560913002669570E04BE050E086E07E
:1026900091E00E94B22E892B19F481E08093900181
:1026A0000E94562390938901809388018091200293
:1026B00080FF08C089E594E09F938F930E9497065E
:1026C0000F900F900895109290018091200280FF4A
:1026D00008C080E494E09F938F930E9497060F9028
:1026E0000F9008959091300290FF4CC0917081112D
:1026F00002C0926006C0853210F0986402C0880F54
:10270000982B90933002662391F060913002709183
:10271000310280913202909133020E94EF0E80913B
:10272000300286951F928F9389EA95E007C08091C9
:10273000300286951F928F938BE895E09F938F933D
:102740000E9497060F900F900F900F9060913002AB
:10275000669570E04BE050E086E091E00E94B22E7A
:10276000892B19F00E94631302C00E94411381E07B
:1027700080938B014091330260913202809131024B
:102780000C94AB110895682F90913002969581E0DA
:10279000890F853208F081E00C94721381E00C946B
:1027A000C313682F9091300296958FEF890F09F42B
:1027B00084E20C94721381E00C94D11361E00C94C8
:1027C0007213CF93DF93C0E3D2E088818160888366
:1027D0001F9281E08F938DE195E09F938F930E94EC
:1027E00097060F900F900F900F9088818695DF913C
:1027F000CF910C94DE1360E00C94721380918E01E3
:10280000811161C0809120028160809320028CE45C
:1028100096E09F938F930E949706809120020F90DD
:102820000F9080FF08C086E396E09F938F930E94ED
:1028300097060F900F900E94FE21811110C0809189
:10284000200280FF08C08EE096E09F938F930E9445
:1028500097060F900F900E948B220E940B0F0E94F0
:10286000EB0E6093300270933102809332029093AA
:1028700033026E7FC1F48091200280FF08C085EC96
:1028800095E09F938F930E9497060F900F900E9460
:102890000B0F0E94EB0E6093300270933102809315
:1028A0003202909333020E94D80E0E941A0F1092A7
:1028B00090018091300280FF03C086950E94FB1337
:1028C00081E080938E010895CF93DF93C0E3D2E03F
:1028D00088818E7F8883688179818A819B810E942B
:1028E000EF0E888181701F928F9385EE94E09F9305
:1028F0008F930E9497060E9463132FEF80E792E068
:10290000215080409040E1F700C000000F900F90F0
:102910000F900F90DF91CF910C94BF0F80913002F8
:10292000809581701F928F9384E595E09F938F939C
:102930000E949706809130020F900F900F900F9099
:1029400080FD0C9464140C94E1130F931F93CF93A8
:10295000DF9380919001882309F48CC080918F01CE
:10296000E0913002E695E81BE0938A01823049F459
:10297000F0E0E65DF84FE491CE2FD0E009E110E100
:1029800049C0863049F4F0E0E95DF84FE491CE2F7C
:10299000D0E00DE210E13EC0893051F4E695F0E060
:1029A000EC5DF84FE491CE2FD0E00EEA11E132C099
:1029B0008F3051F4E695F0E0EF5DF84FE491CE2FC3
:1029C000D0E008EE11E126C0853149F4F0E0E25E86
:1029D000F84FE491CE2FD0E008E512E11BC088311A
:1029E00081F0833239F4ECE1F7E0C591D4910DE345
:1029F00010E110C0843251F4C4EFD1E001E013E1E2
:102A000009C0C8EED3E009EC12E104C0C0EDD7E084
:102A100009EC1EE080918B01882389F010928B01D4
:102A20000E9456239E0120953095820F931F90930C
:102A300089018093880110928D0110928C01809100
:102A40008801909189010E9462238C179D0790F064
:102A5000E0918801F0918901CE0FDF1FD0938901A9
:102A6000C093880188E891E0F801DF91CF911F9130
:102A70000F910994DF91CF911F910F91089521B388
:102A8000342F3095232331B3432B3FB7F894FC0107
:102A9000680F791FE617F70789F0819198E041BB2D
:102AA000000000C087FF21BB880F000000C000C0ED
:102AB00000C021BB00C09A9591F7ECCF3FBF0895AD
:102AC00020B3242B20BB9B01220F331F620F731FE7
:102AD0000E943F1587EC90E00197F1F700C00000DD
:102AE000089541E00C9460150F931F93CF93DF93EB
:102AF000C62FD42F022FFC0182818823C9F0609356
:102B000093010E945623909392018093910180E259
:102B10008C0F883008F050C0C77081E001C0880F6A
:102B2000CA95EAF7DF91CF911F910F910C946B1921
:102B300010919301161330C08091910190919201F0
:102B40000E946223883C910538F5C0E2CD0F1D1725
:102B5000B9F080E2810F883040F4177081E001C045
:102B6000880F1A95EAF70E947219C83048F481E07C
:102B70009D2F977001C0880F9A95EAF70E946B19F4
:102B8000802F0E945819C830B8F4D77081E001C076
:102B9000880FDA95EAF70AC080E28C0F883060F47B
:102BA000C77081E001C0880FCA95EAF7DF91CF9125
:102BB0001F910F910C947219DF91CF911F910F917A
:102BC00008959C01CB01203F4CE53407F9F078F4DF
:102BD000283DFCE53F07B9F0293D4CE5340711F1EC
:102BE000273D3C4531F526E241EE61EE1EC0223F15
:102BF000FCE53F0799F070F0233F3C45D1F427E214
:102C000045EE66EE12C027E245EE0EC026E241EE2A
:102C100060EE0BC027E245EE64EE07C026E241EE0F
:102C200062EE03C028E241E065EE0E94741580E088
:102C30000895FC018281882319F010929301089570
:102C400081E0089590939901809398010895E0910F
:102C50009801F0919901309721F00190F081E02DD9
:102C6000099480E00895EF92FF920F931F93CF9302
:102C7000DF93E0919801F09199013097B1F18C01C7
:102C80000280F381E02D09958091200282FF2DC002
:102C900080FF04C08BE399E00E94FE05E80118E084
:102CA00085E3E82E89E0F82E8091200280FF0BC09A
:102CB00088811F928F93FF92EF920E9497060F9048
:102CC0000F900F900F90115021961111EDCF809120
:102CD000200280FF0AC083E399E0DF91CF911F912A
:102CE0000F91FF90EF900C94FE05DF91CF911F9113
:102CF0000F91FF90EF9008952091960130919701E8
:102D00008217930771F09093970180939601E09159
:102D10009801F0919901309721F00680F781E02D1C
:102D20000994089520919401309195018217930799
:102D300071F09093950180939401E0919801F09146
:102D40009901309721F00084F185E02D09940895D0
:102D500085B7806885BF85B7806885BF0895089569
:102D600008950C94B01608950C94B3160E94A816FA
:102D70000E94AF160C94B11681E008950E944D2375
:102D80000E94140D0E9422240E9453250E94FE13CB
:102D90000C94B416CF93C82F8091200282FF1EC0DE
:102DA00080FF04C084E599E00E94FE058091200226
:102DB00080FF0CC01F92CF938FE499E09F938F9375
:102DC0000E9497060F900F900F900F908091200215
:102DD00080FF04C08DE499E00E94FE058C2FCF9106
:102DE0000C9407084F925F927F928F929F92AF92BE
:102DF000BF92CF92DF92EF92FF920F931F93CF93E8
:102E0000DF93CDB7DEB72A970FB6F894DEBF0FBEBB
:102E1000CDBF0E945E0D0E94BC16811111C08FEFC4
:102E200089838A831B820E9456238160782F9D8329
:102E30008C8349815A816B818D810E94AE1757C066
:102E40009BE9C92E91E0D92E00E010E0AA24A394BA
:102E5000B12C702E802F0E94C40C4C01F6014190C1
:102E600051906F01482659264114510431F40F5FE7
:102E70001F4F0530110569F7D2CF8091200281FDE7
:102E80000E94CD0C20E030E07501022E02C0EE0C55
:102E9000FF1C0A94E2F7C70184219521892B09F1CF
:102EA0002E837F828E209F2091E0892809F490E074
:102EB00098870E9456238160782F9A8789874E8150
:102EC0005F8168858A850E94AE17000F111FF80187
:102ED000E556FE4F80819181E826F926F182E08255
:102EE00006C02F5F3F4F2E30310571F6C0CF1091D5
:102EF0009A010E9427161817D9F00E94271680936E
:102F00009A012A960FB6F894DEBF0FBECDBFDF91AF
:102F1000CF911F910F91FF90EF90DF90CF90BF90D6
:102F2000AF909F908F907F905F904F900C94CA16B7
:102F30002A960FB6F894DEBF0FBECDBFDF91CF91BA
:102F40001F910F91FF90EF90DF90CF90BF90AF90C7
:102F50009F908F907F905F904F900895CF93DF93D5
:102F6000CDB7DEB72B970FB6F894DEBF0FBECDBF3F
:102F70004F83588769877A878B87DE01119686E0B1
:102F8000FD0111928A95E9F785E0FE0137960190DF
:102F90000D928A95E1F749815A816B817C818D81FF
:102FA0009E810E94981E2B960FB6F894DEBF0FBE2E
:102FB000CDBFDF91CF910895FC01808191810E9466
:102FC000E7200895882309F413C1682F8238C1F4DB
:102FD0000E94271681FD0CC169E380911101909137
:102FE00012010E94BF220E9465212FEF81EE94E022
:102FF000215080409040E1F700C0000069E319C013
:103000008338F9F40E94271680FDF2C063E58091B1
:103010001101909112010E94BF220E9465212FEFA1
:1030200081EE94E0215080409040E1F700C0000024
:1030300063E580911101909112010E94C1220C94CC
:1030400065218438C1F40E94271682FDD1C067E44F
:1030500080911101909112010E94BF220E9465216E
:103060002FEF81EE94E0215080409040E1F700C0C6
:10307000000067E4DECF8CEF860F813A38F4809150
:103080001101909112010E94BF22D9CF80E2860FD8
:10309000883048F4677081E001C0880F6A95EAF7CC
:1030A0000E942921CCCF8BE5860F833070F4653ADE
:1030B00029F0663A31F083E890E005C081E890E0BD
:1030C00002C082E890E00C947C1688E5860F873178
:1030D00008F08EC0683A09F445C0693A09F445C061
:1030E0006A3A09F445C06B3A09F445C06C3A09F4F0
:1030F00045C06B3B09F445C06C3B09F445C06D3AD3
:1031000009F445C0603B09F445C06E3A09F445C076
:103110006F3A09F445C0613B09F445C0623B09F4CC
:1031200045C0633B09F445C0643B09F445C0653BB9
:1031300009F445C0663B09F445C0673B09F445C046
:10314000683B09F445C0693B09F445C06D3B09F48F
:1031500045C06E3B09F445C06A3B09F445C080E0B8
:1031600090E044C082EE90E041C089EE90E03EC025
:103170008AEE90E03BC085EB90E038C086EB90E0B3
:1031800035C083EB90E032C084EB90E02FC087EB3A
:1031900090E02CC08CEC90E029C08DEC90E026C033
:1031A00083E891E023C08AE891E020C082E991E0C1
:1031B0001DC084E991E01AC081E292E017C083E269
:1031C00092E014C084E292E011C085E292E00EC069
:1031D00086E292E00BC087E292E008C08FE690E0C2
:1031E00005C080E790E002C08AE292E00C9492165B
:1031F0000895882309F45BC0682F823879F40E940F
:10320000271681FF54C069E380911101909112014A
:103210000E94BF220E94652169E310C08338B1F487
:103220000E94271680FF43C063E5809111019091B1
:1032300012010E94BF220E94652163E58091110165
:10324000909112010E94C1220C946521843879F476
:103250000E94271682FF2BC067E480911101909194
:1032600012010E94BF220E94652167E4E7CF8CEF24
:10327000860F813A18F380E2860F883048F4677031
:1032800081E001C0880F6A95EAF70E942F21DCCF08
:103290008BE5860F833020F480E090E00C947C1660
:1032A000685A673120F480E090E00C9492160895FB
:1032B000CF93C82F0E94E217C93349F42FEF83EC54
:1032C00099E0215080409040E1F700C000008C2F31
:1032D000CF910C94F918882321F00E9429210C9495
:1032E00065210895882321F00E942F210C946521E7
:1032F0000895BF92CF92DF92EF92FF920F931F93A8
:10330000CF93DF937C01062FC72FFC011581129507
:103310001F70D281D1110E9446210E941F21882353
:1033200079F0DD2369F080E2800F883048F082E098
:103330000E94B0210E941F2191E0B82EB92601C041
:10334000B12CCC2EC2948FE0C822D12CFEE0CF1637
:10335000D10408F0D0C1F601E859FF4F0C94922E29
:103360008C2F807FCF70882311F0C295C07FDD2322
:1033700099F0CC2309F482C180E2800F883010F0EC
:10338000011104C08C2F0E94292103C08C2F0E94A0
:1033900039210E94652172C1802F0E94F918CC2327
:1033A00009F4A9C180E2800F883010F0011104C037
:1033B0008C2F0E942F2103C08C2F0E943F210E943E
:1033C000652199C18C2F807FCF70803211F0C2951A
:1033D000C07F002319F00130C9F022C0DD2371F055
:1033E000112341F0113031F40E944C218C2B0E94AA
:1033F000522181C10E944C218C2B1DC0112319F038
:10340000113009F478C10E945B211AC0DD2321F03C
:10341000163008F070C10EC0153008F06CC110C035
:10342000DD2361F0112331F0F701858180FF26C192
:103430008F7085838C2F0E946B195DC111112FC174
:103440008C2FDAC08C2F86958695837090E000973C
:1034500019F0019761F04FC1DD2321F0802F9C2FDF
:10346000937002C080E090E00E947C1654C1DD237E
:1034700021F0802F9C2F937002C080E090E00E948A
:10348000921649C18C2F837009F04BC0D1113FC1F6
:10349000E02FE295E695E770EE0FEE0F602F6F706C
:1034A000862F90E0A0E0B0E0AC01BD010E2E04C07C
:1034B000440F551F661F771F0A94D2F704FF10C0F0
:1034C0000FE010E020E030E004C0000F111F221FC9
:1034D000331FEA95D2F7009510952095309503C0DB
:1034E00000E010E09801C695C695C370D0E0CB010E
:1034F000BA01602B712B822B932BC230D10559F06E
:10350000C330D10559F0219719F00E94601FFFC008
:103510000E944E1FFCC00E94721FF9C00E944C1FE7
:10352000F6C0DD2319F08C2F817001C086958823A9
:1035300009F4EDC0E02FE295E695E770EE0FEE0F8F
:10354000602F6F70862F90E0A0E0B0E0AC01BD016D
:103550000E2E04C0440F551F661F771F0A94D2F722
:1035600004FF10C00FE010E020E030E004C0000FC6
:10357000111F221F331FEA95D2F700951095209551
:10358000309503C000E010E09801C695C695C37061
:10359000D0E0CB01BA01602B712B822B932BC23070
:1035A000D10559F0C330D10559F0219719F00E9487
:1035B0002620ADC00E941420AAC00E943820A7C0B7
:1035C0000E94871FA4C0802F90E0FC01E05EF109FB
:1035D000E531F10508F04EC0EA58FF4F0C94922EE9
:1035E0000F708C2F8F71DD2321F00E94AD1F802F73
:1035F00022CF0E94CE1F802F0E9472197CC0DD2333
:1036000041F0153008F077C08C2F8F710E94F31FA6
:1036100072C0163008F06FC0F7CFDD2339F08C2F61
:103620008F710E94AD1F67C0DD23C9F38C2F8F718E
:103630000E94CE1F60C0DD2329F08C2F8F710E9465
:10364000981F59C00E94931F56C0DD2349F0CF71C7
:103650008C2F0E94AD1F63E08C2F0E949B214BC0DA
:1036600081E00E94B021123008F445C082E00E943F
:10367000B02141C0DD2331F0112389F2802F0E9457
:10368000E21739C0112391F2093349F4FFEF23EC1B
:1036900089E0F15020408040E1F700C00000802F19
:1036A0000E94F91828C0D11136C0CF702C2F30E0FD
:1036B00022303105B1F04CF42115310579F021307B
:1036C0003105C9F40E94A02526C02430310579F0C7
:1036D0005CF02530310579F480E00AC00E94702545
:1036E0001AC00E940A2617C00E94262614C083E032
:1036F0000E945C2610C098E0C916D10441F05CF02D
:10370000FAE0CF1AD10822E0C216D10420F40E94B8
:1037100027160E940708BB20D1F00E941B2180FDC4
:1037200016C0F70112820E9415210E94AD1FC70129
:103730000E94B11B0E941521DF91CF911F910F9123
:10374000FF90EF90DF90CF90BF900C94CE1FDF9151
:10375000CF911F910F91FF90EF90DF90CF90BF908E
:1037600008950F931F93CF93DF93EC018881998184
:103770002B813C81232BB9F09F3F11F48F3F99F0AF
:10378000CE010E941908882371F0688179818A81AD
:103790000E94F2208C010E944A200E944B1FB80117
:1037A000CE010E947919DF91CF911F910F91089559
:1037B0000E9446210E9449210E94652180E090E0FC
:1037C0000E947C1680E090E00C949216809111018A
:1037D000909112010E94C3220C94D81B0E943621A2
:1037E0000C94E61BE92FE295EF70F0E03297EE3093
:1037F000F105B0F4E557FF4F0C94922E803F91F005
:1038000018F4803E68F40EC0843F51F40BC0803E33
:1038100048F0813F29F406C093FB882780F908957A
:1038200080E0089581E008950E94E7200E94F21B45
:103830000895CF93DF9300D000D01F92CDB7DEB7AD
:103840000F900F900F900F900F90DF91CF910895F0
:10385000CF93DF9300D000D000D0CDB7DEB726964F
:103860000FB6F894DEBF0FBECDBFDF91CF910895A4
:103870001F93CF93DF93C091A60116E08091A7011B
:10388000C81799F0D0E01C9FF0011D9FF00D112486
:10389000E855FE4F40815181628173818481958119
:1038A0000E94281C2196C770E9CFDF91CF911F910C
:1038B00008954091D8015091D9016091DA01709139
:1038C000DB018091DC019091DD010C94281C80913A
:1038D000DD0182958F7009F054C08091DA01882350
:1038E00009F44FC08091A601A091A7016091D80171
:1038F0007091D9014091DB015091DC01B6E08A174B
:1039000009F43FC090E041155105C1F17F3F11F42A
:103910006F3FA1F1B89FF001B99FF00D1124E85558
:10392000FE4F218172132AC02081621327C0228199
:10393000211124C0238134812417350710F421502C
:103940003109241B350B283C3105C0F42091DD01E1
:103950002F7020612093DD0126E0289FF001299F30
:10396000F00D1124E355FE4F80818F7080618083BC
:1039700088ED91E00E94B11B0C94381C0196877071
:10398000BECF0895CF92DF92EF92FF920F931F93D5
:10399000CF93DF93CDB7DEB762970FB6F894DEBF53
:1039A0000FBECDBF8C0185E0F801DE011D960190B0
:1039B0000D928A95E1F7D8014C9111965C9111977F
:1039C00012966C9112971396CD90DC9014973091CB
:1039D000D8017091D9018091DB019091DC010097B1
:1039E00009F46BC17F3F19F43F3F09F466C1E090D1
:1039F000DA01EE2009F4C0C02091DD01C816D90615
:103A000028F0F601E81BF90BCF0104C080959095D2
:103A10008C0D9D1DFF24F394883C910578F0F12CCA
:103A2000207F09F0C6C07C2DD98AC88A89890E9466
:103A3000191C88ED91E00E94B11BB1C0822F807FDC
:103A400009F046C0751314C0341312C0611110C0C0
:103A50002F7020612093DD010E94591C88ED91E0B8
:103A60000E94B11B8091DD01D80115968C932EC068
:103A7000CD2819F15F3F11F44F3FF9F0F62E611197
:103A80001CC08091A6012091A70136E0821709F49D
:103A90005AC090E0389FF001399FF00D1124E8558D
:103AA000FE4F7181571306C07081471303C07281A6
:103AB000711103C001968770E9CFF62E662309F4D1
:103AC00027C18091DD0181608093DD01F12C20C14F
:103AD000751308C0341306C0611104C08091DD0164
:103AE000D801C3C04D875E878D859E856A8B0E94F5
:103AF000141C6A898823E1F16623D1F12091DD014C
:103B0000822F82958F7090E0029774F08091D80197
:103B10009091D90198878F831986DB86CA862C8776
:103B2000CE0107960E94B11B86E0F801A8EDB1E036
:103B300001900D928A95E1F70E94671C0E94591C22
:103B4000FF24F394E5C04D875E878D859E850E9496
:103B5000E720292F22952F7030E0223031050CF01C
:103B6000CBC09F7009F0C5C0805E883008F4D0C01B
:103B7000C8010E94B11BE4CFC816D90608F453C08F
:103B8000F601E81BF90BCF01883C910508F450C001
:103B9000F12C7C2DD98AC88A89890E94191CE8EDEC
:103BA000F1E086E0DF011D928A95E9F70E94591C39
:103BB000AFC0751314C0341312C0611110C08091CE
:103BC000DD01F8018583C8010E94B11B86E0E8EDA4
:103BD000F1E0DF011D928A95E9F7FE2C99C04D872F
:103BE0005E878D859E856A8B0E94141C6A89882356
:103BF00009F4BECF662309F4BBCF2091DD01822FEB
:103C000082958F7090E002970CF48ECF8091D8014E
:103C10009091D9019A8389831B82DD82CC822E8385
:103C2000CE0101967FCF809590958C0D9D1DACCFD8
:103C3000F62E662309F49CCF75132EC034132CC0C6
:103C40002091DD0120FD1FC0822F82958F70D9F059
:103C5000D80115962C9315978F3049F08F5F982FC8
:103C60009295907F822F8F70892B15968C93C80127
:103C70000E94B11B86E0F801A8EDB1E001900D9221
:103C80008A95E1F793CF86E0F801A8EDB1E00190C5
:103C90000D928A95E1F73CC04D875E878D859E85A4
:103CA0000E94141C811140CF8091DD0181608093BE
:103CB000DD01C8010E94B11B2BC0662309F458CF57
:103CC0004D875E878D859E850E94141CF82E882363
:103CD00009F44ECF86E0F801A8EDB1E001900D9215
:103CE0008A95E1F788ED91E00E94DC170E94671C3D
:103CF0005DCF811139CF0CC0243031050CF038CFA5
:103D00009F7009F431CFF8019581907F09F02CCF95
:103D10008F2D62960FB6F894DEBF0FBECDBFDF9138
:103D2000CF911F910F91FF90EF90DF90CF9008956A
:103D30001F93CF93DF93CDB7DEB72C970FB6F894D0
:103D4000DEBF0FBECDBF4F83588769877A878B87C9
:103D50009C87CE0107960E94C21C882369F08F8140
:103D600098852A853B85232BF1F19F3F09F063C09D
:103D70008F3F09F060C037C086E0FE013796DE0154
:103D8000119601900D928A95E1F76F817885EA8509
:103D9000FB85309741F17F3F11F46F3F21F1209176
:103DA000A70130E0C9010196877099274091A601CB
:103DB00050E08417950709F447C069837A83FD832F
:103DC000EC8396E0929FD001939FB00D1124A855EB
:103DD000BE4FFE01319601900D929A95E1F78093C6
:103DE000A7010E94381C16E08091A6019091A701BE
:103DF0008917C1F1189FC001112488559E4F0E9458
:103E0000C21C882379F1E091A6011E9FF0011124C4
:103E1000E855FE4F40815181628173818481958193
:103E20000E94281C8091A60190E001968770992736
:103E30008093A601D9CF4F81588569857A858B8576
:103E40009C850E94281CCFCF0E94EE1B1092A701D8
:103E50001092A601E8EDF1E086E0DF011D928A955F
:103E6000E9F7C1CF2C960FB6F894DEBF0FBECDBFD9
:103E7000DF91CF911F91089508950C943C1F0E94EB
:103E80003D1F60930F027093100280931102909374
:103E900012020C94D81B08950C943F1F0F931F938C
:103EA00000910F0210911002209111023091120224
:103EB000602B712B822B932B1F910F910C943F1F22
:103EC0000F931F9300910F02109110022091110285
:103ED0003091120260237123822393231F910F914B
:103EE0000C943F1F0F931F9300910F02109110022B
:103EF00020911102309112026027712782279327A7
:103F00001F910F910C943F1F08950C94841F0E94E1
:103F1000851F60930B0270930C0280930D029093A7
:103F20000E020C94D81B60E070E0CB010C94871F4C
:103F30000F931F9341E050E060E070E08A019B0125
:103F400004C0000F111F221F331F8A95D2F7C90129
:103F5000B8011F910F910C94871F0F931F9341E09D
:103F600050E060E070E004C0440F551F661F771FEB
:103F70008A95D2F780910B0290910C02A0910D02CC
:103F8000B0910E028A019B01082B192B2A2B3B2B87
:103F9000C901B8011F910F910C94871F0F931F93B4
:103FA00041E050E060E070E004C0440F551F661F20
:103FB000771F8A95D2F740955095609570958091BE
:103FC0000B0290910C02A0910D02B0910E028A0199
:103FD0009B01082319232A233B23C901B8011F9100
:103FE0000F910C94871F0F931F9341E050E060E006
:103FF00070E004C0440F551F661F771F8A95D2F7E3
:1040000080910B0290910C02A0910D02B0910E02D2
:104010008A019B01082719272A273B27C901B801D4
:104020001F910F910C94871F0F931F9300910B0208
:1040300010910C0220910D0230910E02602B712B19
:10404000822B932B1F910F910C94871F0F931F931B
:1040500000910B0210910C0220910D0230910E0282
:1040600060237123822393231F910F910C94871F48
:104070000F931F9300910B0210910C0220910D02DF
:1040800030910E0260277127822793271F910F918D
:104090000C94871F08952EE0929F800D1124A82F65
:1040A000A695A695A695877051E001C0550F8A95F3
:1040B000EAF785E0A89FD001112420E030E070E00D
:1040C000F901EA0FFB1FE252FE4F4081CB01022EA5
:1040D00002C0969587950A94E2F781709927819599
:1040E00084278523842780832F5F3F4F2530310528
:1040F00039F708952EE0929F800D1124682F669560
:1041000066956695982F977085E0689FB001112499
:1041100040E050E080E0FA01E60FF71FE252FE4F68
:10412000208130E0092E02C0369527950A94E2F7E7
:1041300021703327042E01C0220F0A94EAF7822B44
:104140004F5F5F4F4530510531F70895BF92CF92D1
:10415000DF92EF92FF920F931F93CF93DF938C0127
:10416000C0900F02D0901002E0901102F090120265
:1041700080910B0290910C02A0910D02B0910E0261
:10418000C82AD92AEA2AFB2ACFE1D0E0D701C60102
:104190000C2E04C0B695A795979587950A94D2F7EB
:1041A00080FF07C0BC2EB8018C2F0E942F0A0197F8
:1041B00019F4219758F7B12C8B2DDF91CF911F91D6
:1041C0000F91FF90EF90DF90CF90BF900895CF9325
:1041D000DF93EC010E94A620BE010E942F0ADF910E
:1041E000CF9108951F93CF93DF93EB019091A50199
:1041F000992321F0CB010E94E72013C0882349F0C6
:10420000CB010E94A620182F682FCE010E944B20C0
:1042100004C0CB010E947A20182FBE01812F0E947A
:104220002F0ADF91CF911F910895809113028595F8
:1042300085958595089580911302877008959091D2
:104240001302977081E009F480E0089580911F02C5
:10425000089590911F02892B80931F0208958095E5
:1042600090911F02892380931F02089510921F02CC
:10427000089590911E02892B80931E0208958095C7
:1042800090911E02892380931E02089510921E02AF
:10429000089510921D0208958091140208950895C2
:1042A0000C944F2190911402981721F080931402DE
:1042B0000C945021089580911402882329F01092C3
:1042C000140280E00C9450210895E0911101F091C6
:1042D000120180911F028083E0911101F09112017F
:1042E000908180911E02892B8083E0911101F091D1
:1042F0001201908180911D02892B8083809114028C
:10430000882381F0E0911101F09112019081892BB5
:10431000808380911101909112010E948D22811160
:104320000E945B2180911101909112010C9433162F
:1043300008950C94982198E0899F90011124262BD0
:10434000209313020E94AD1F8091130285958595DD
:1043500085950C9499211092130280E00C94992178
:10436000209113028095822380931302982F9770D7
:1043700079F430E0482F082E000C550B2417350730
:1043800039F08595859585950E94CE1F0C94AB21BB
:104390000895909367018093660108958295982F00
:1043A0009C7C392F36953695282F237344E0249F23
:1043B000C0011124932F982B292F2A7A2695892F13
:1043C0008575880F822B08951F93CF93DF931F92DB
:1043D000CDB7DEB799830E94CE21182F9981892FFE
:1043E0000E94CE21212F30E0322F2227A901482B15
:1043F000CA010F90DF91CF911F91089580E090E066
:104400000E94CD2E21E08D3E9E4F09F020E0822FAC
:10441000089582E090E00C94BF2E682F82E090E037
:104420000C94D32E83E090E00C94BF2E682F83E091
:1044300090E00C94D32E84E090E00C94BF2E682F73
:1044400084E090E00C94D32E86E090E00C94BF2E94
:10445000682F86E090E00C94D32EAB01BC018FE076
:1044600090E00C94E52EAB01BC0183E190E00C944C
:10447000E52E60E070E0CB010C94332260E070E048
:10448000CB010E942D220C9439226DEE7EEF80E04C
:1044900090E00E94F12E60E082E090E00E94D32E36
:1044A00060E083E090E00E94D32E10920F02109201
:1044B0001002109211021092120260E084E090E06B
:1044C0000E94D32E60E085E090E00E94D32E60E051
:1044D00086E090E00E94D32E6FEF87E090E00E948C
:1044E000D32E40E050E0BA0188E090E00E94E52E33
:1044F00060E08DE090E00E94D32E40E050E0BA01F1
:1045000088E190E00E94E52E60E087E190E00E9463
:10451000D32E0C943E220C944522FC01329697E057
:1045200080E0915029F021912223D9F38F5FF9CFB8
:1045300008959C01FC0132969FEF80E0419146175F
:1045400089F09F3F19F4411101C0982F8F5F863089
:10455000A9F79F3F39F0F901E90FF11D97FDFA9591
:10456000628308950895FC013296089620812613EF
:1045700001C010823196E817F907C1F708950C942D
:1045800099220C94B322029626E0FC0111922A95FE
:10459000E9F7089508950C94CA220E94CB228091D5
:1045A0006A02843061F11092210220E488E190E0F7
:1045B0000FB6F894A895809360000FBE209360001A
:1045C00080E00E94390780E00E9407080E94CB2209
:1045D00083B7817F846083BF83B7816083BF789412
:1045E000889583B78E7F83BF0FB6F894A895809186
:1045F0006000886180936000109260000FBE089593
:1046000008950895CF930E9400230E945E0D0E949A
:104610000123C0E08C2F0E94C40C892B29F4CF5FAA
:10462000C530C1F780E001C081E0CF9108950895C1
:104630000C9417230E94EE1B0E9453250E942716FC
:104640000E9407080C9418231F920F920FB60F9226
:1046500011248F939F93AF93BF9380912102811177
:1046600013C080915F0290916002A0916102B091AD
:1046700062024196A11DB11D80935F02909360027A
:10468000A0936102B0936202BF91AF919F918F910D
:104690000F900FBE0F901F90189582E084BD93E09D
:1046A00095BD9AEF97BD80936E0008952FB7F8944B
:1046B00080915F0290916002A0916102B0916202CC
:1046C0002FBF0895CF92DF92EF92FF920F931F9327
:1046D0002FB7F89440915F0250916002609161029F
:1046E000709162022FBF6A017B01EE24FF248C01CE
:1046F00020E030E0C016D106E206F30610F4415087
:1047000051099A01281B390BC9011F910F91FF9084
:10471000EF90DF90CF90089578941F920F920FB68C
:104720000F9211248F939F93AF93BF9380915F0259
:1047300090916002A0916102B09162020196A11D68
:10474000B11D80935F0290936002A0936102B093C9
:104750006202BF91AF919F918F910F900FBE0F900A
:104760001F90189581E08093E00080E28093D8004C
:104770001092C9008FE19EE40197F1F700C000009C
:1047800087E090EBDC018093730290937402A09316
:104790007502B09376029CE088E10FB6F894A89574
:1047A000809360000FBE90936000FFCFAF92BF92E6
:1047B000CF92DF92EF92FF920F931F93CF93C0E0BF
:1047C000CC24C394D12CE82EF12C8C2F0E94C40C45
:1047D0005C0100E010E09601002E02C0220F331FA2
:1047E0000A94E2F72A213B21232B31F40F5F1F4F5C
:1047F0000E30110581F70AC0602F7C2F80E00E94E7
:10480000150AE816F90691F781E004C0CF5FC530BC
:10481000E1F680E0CF911F910F91FF90EF90DF9034
:10482000CF90BF90AF900895CF93C82F8CE20E9495
:10483000D623882321F08C2FCF910C94D62380E0AF
:10484000CF910895CF930E94FE21811102C00E9452
:104850008B228EE699E00E94FE05C5E6C15049F024
:104860000E945E0D8FE39CE90197F1F700C0000004
:10487000F5CF87E699E00E94FE0589E20E941424A4
:1048800081110FC18AE20E94142481110E948B229F
:1048900085E00E94142481110E94B2230E94092203
:1048A0008093200287E00E9414248823A9F18BE1E1
:1048B0000E941424882351F08091200281FB22273A
:1048C00020F991E0922790FB81F90EC08EE00E94C2
:1048D0001424882361F08091200282FB222720F992
:1048E00091E0922790FB82F98093200215C080E12D
:1048F0000E94142490912002882341F093FB2227E8
:1049000020F981E0822780FB93F904C0892F8095EC
:1049100080FB90F990932002809120020E940D224A
:104920000E941B2290E0909364028093630280EEC9
:104930000E941424882341F080916302982F90955F
:1049400090FB80F98093630289E30E9414248823FA
:1049500059F08091630281FB222720F991E0922790
:1049600090FB81F98093630282EE0E9414248823D5
:1049700059F08091630282FB222720F991E092276F
:1049800090FB82F98093630286EE0E9414248823B0
:1049900059F08091630283FB222720F991E092274E
:1049A00090FB83F98093630283EE0E941424882392
:1049B00059F08091630284FB222720F991E092272D
:1049C00090FB84F98093630285E30E94142488237A
:1049D00059F08091630285FB222720F991E092270C
:1049E00090FB85F98093630281E30E94142488235D
:1049F00059F08091630286FB222720F991E09227EB
:104A000090FB86F98093630281E10E94142488233D
:104A100059F08091630287FB222720F991E09227C9
:104A200090FB87F980936302809163020E941F22AA
:104A300087E20E941424C82F8EE10E941424811161
:104A4000C2608FE10E9414248111C46080E20E9440
:104A500014248111C86081E20E9414248111C06174
:104A600082E20E9414248111C06283E20E94142415
:104A70008111C06484E20E941424882311F0C0686C
:104A800002C0CC2329F08C2F0E9416226C2F03C069
:104A90000E941222682F70E080E090E0CF910C9489
:104AA0004C1FCF9108950E94FE21811102C00E94E7
:104AB0008B220E94242280936502282F269530E0C5
:104AC0002430310524F081708660809365028091E6
:104AD000650280FF02C0869501C080E00C94390712
:104AE00020916502822F8695482F50E04330510572
:104AF00044F48F5F982F990F822F8170892B8093B8
:104B00006502809165028160809365020E9428227F
:104B10008091200280FF0FC08091650286951F92D0
:104B20008F938AEE99E09F938F930E9497060F9040
:104B30000F900F900F908091650286950C94390725
:104B400080916502982F969591F09158990F8170F8
:104B5000892B809365028E7F91E009F490E080912B
:104B6000650290FB80F9809365020E942822809163
:104B7000200280FF0FC08091650286951F928F935F
:104B800082ED99E09F938F930E9497060F900F906C
:104B90000F900F908091650286950C943907809153
:104BA000650280FD1DC0816080936502813019F42B
:104BB00083E080936502809165020E9428228091A3
:104BC000200280FF08C08AEA99E09F938F930E9499
:104BD00097060F900F908091650286950C94390787
:104BE00008958091650280FF14C08E7F80936502D6
:104BF0000E9428228091200280FF08C087E999E066
:104C00009F938F930E9497060F900F9080E00C94D3
:104C100039070895CF93C0916502C1708091200239
:104C200080FF0CC01F92CF938CEB99E09F938F93E2
:104C30000E9497060F900F900F900F90CC2319F0C1
:104C4000CF910C94F125CF910C94CF2590916502D2
:104C5000892F86958F5F8F779170843028F4880F25
:104C6000892B8093650202C0909365028091650252
:104C70008E7F91E009F490E08091650290FB80F9CD
:104C8000809365020E9428228091200280FF0FC03D
:104C90008091650286951F928F9383E899E09F9398
:104CA0008F930E9497060F900F900F900F90809116
:104CB000650286950C943907843008F083E0880FEC
:104CC000909165029170892B809365028E7F91E0AF
:104CD00009F490E08091650290FB80F98093650271
:104CE0000E9428228091650286950C943907809154
:104CF00065028695089580912D02089508959FB7C5
:104D0000F894109224029FBF90916A02943009F0A7
:104D100057C09091E9009F703091EC00232F2170D3
:104D200030FD20E8922B23E02093E9002091EB0056
:104D300020FF43C02091EE0027FF3FC020912202B8
:104D4000222321F02091E80025FF37C01092220293
:104D500026E03091E80035FD15C030916A0234300C
:104D600061F53091EB0035FD28C0215021F481E040
:104D70008093220222C0EFE9FFE03197F1F700C0F3
:104D80000000E7CF8093F1008091E80085FD0AC024
:104D90008091E80080FFFCCF8091E8008E778093BF
:104DA000E80006C08FB7F89421E0209324028FBF5B
:104DB0009F709093E90080E008959F709093E900C0
:104DC0008FEF08950F931F93CF93DF9300D01F921F
:104DD000CDB7DEB78C010E947429823011F0843087
:104DE00021F584E089831B830A8382E08093E900B4
:104DF0008FEF9091E800815095FD06C095ED9A9552
:104E0000F1F700008111F5CF8091E80085FF0DC01A
:104E100040E050E063E070E0CE0101960E949129ED
:104E20008091E8008E778093E8000F900F900F90AC
:104E3000DF91CF911F910F910895CF93DF9300D011
:104E40001F92CDB7DEB720916A02243031F523E0FE
:104E50002983805891099B838A8382E08093E900AB
:104E60008FEF9091E800815095FD06C095ED9A95E1
:104E7000F1F700008111F5CF8091E80085FF0DC0AA
:104E800040E050E063E070E0CE0101960E9491297D
:104E90008091E8008E778093E8000F900F900F903C
:104EA000DF91CF910895CF93DF93EC010E94742995
:104EB000823011F0843039F581E08093E9008FEF82
:104EC0009091E800815095FD06C095ED9A95F1F717
:104ED00000008111F5CF8091E80085FF14C040E00B
:104EE00050E068E070E0CE010E9491298091E800D6
:104EF0008E778093E80088E0FE01A5E2B2E00190A1
:104F00000D928A95E1F7DF91CF91089587E29AE0BB
:104F10000E94FE0580916902811109C00E94262B22
:104F20000E94832B8091E20084608093E2000895C8
:104F300083E29AE00E94FE051092690208958FE1D3
:104F40009AE00C94FE058BE19AE00C94FE0587E153
:104F50009AE00E94FE050C941A23209123022F5FF1
:104F6000822F62E30E943C2E992319F020932302A2
:104F700008951092230280912402882371F1809178
:104F80006A02843041F58091E9008F702091EC0035
:104F9000922F917020FD90E8892B93E09093E90087
:104FA0009091EB0090FF14C09091EE0097FF10C01D
:104FB0009091E80095FF03C01092F100F9CF909115
:104FC000E80090FF05C09091E8009E779093E8007C
:104FD0008F708093E90010922402089542E061EC02
:104FE00081E00E94A02A42E261EC82E00E94A02AB5
:104FF00042E261EC83E00C94A02A80916C02833041
:1050000009F460C030F4813071F0823009F499C045
:1050100008958A3009F485C08B3009F46BC089305B
:1050200009F0A7C020C080916B02813A09F0A1C0AD
:105030008091E800877F8093E80080916F029091D3
:105040007002892B21F468E085E292E003C060E001
:1050500080E090E070E00E94DC298091E8008B778E
:105060008093E800089580916B02813209F081C03D
:1050700080916F0290917002029708F07AC080913F
:10508000E800877F8093E8008091E80082FD05C0FA
:1050900080916A028111F8CF6CC02091F300809159
:1050A000F20090E0922B029729F48091F1008B7F1F
:1050B000813021F48091F10080932D028091E800ED
:1050C0008B7753C080916B02813A09F052C0809176
:1050D0006F0290917002892B09F04BC08091E8001B
:1050E000877F8093E8008091E80080FFFCCF80916B
:1050F0001D0136C080916B028132D9F580916F021B
:1051000090917002892BA9F58091E800877F8093A8
:10511000E8000E94D52A80916D0280931D010C94B5
:10512000EE1B80916B02813221F58091E800877F30
:105130008093E8000E94D52A80916E0280932E020F
:10514000089580916B02813AA1F48091E800877FF5
:105150008093E8008091E80080FFFCCF80912E02D0
:105160008093F1008091E8008E778093E8000C94A2
:10517000D52A089584B7877F84BF0FB6F894A89581
:1051800080916000886180936000109260000FBE83
:1051900080E880936100109261000E94B6160E9420
:1051A000262B0E94832B8091E20084608093E20092
:1051B0008FE796E20E94C92178940E94112E0E94E6
:1051C000BE1683E191E00E94221686E09AE00E94DA
:1051D000FE0580916A02853089F482E09AE00E949F
:1051E000FE050E94CD2280916802882391F30E94DF
:1051F0000223882371F30E947B29EBCF0E94F216D1
:105200000E94A514E6CF0C940529292F33272330BB
:105210003105C9F064F42130310581F022303105C7
:1052200009F049C08BE590E02DE43AE048C0213216
:10523000310521F12232310571F13DC082E190E06A
:1052400028EA3AE03CC099278130910571F02CF4AE
:10525000892B89F5E9E4FAE00DC08230910541F02F
:10526000039749F5EBE2FAE005C0EFE3FAE002C08C
:10527000E1E3FAE0849190E09F0121C06330710581
:10528000D0F4660F771FFB01E15AFE4F2081318178
:1052900089E090E014C06330710568F4FB01EE0F03
:1052A000FF1FE75AFE4F20813181FB01EA5AFE4F72
:1052B000808190E004C080E090E020E030E0FA01DE
:1052C0003183208308950895CF93C82F0E946329C6
:1052D000C0932F02CF91089580916A02843011F01B
:1052E00081E0089582E0089580912F02811102C02B
:1052F0000C946C29089580E189BD82E189BD09B4CF
:1053000000FEFDCF8091D8008F7D8093D8008091E2
:10531000E00082608093E0008091E00081FDFCCF9E
:105320000895CF92DF92EF92FF920F931F93CF9346
:10533000DF93EC018B016A010E94F42A811133C0D2
:10534000C114D10439F0F60180819181081B190B39
:10535000C80FD91FE12CF12C0115110519F180910D
:10536000E80085FD16C08091E8008E778093E80004
:10537000C114D10449F0F60180819181E80EF91E33
:10538000F182E08285E00FC00E94F42A882321F395
:105390000AC089918093F10001501109FFEFEF1AC3
:1053A000FF0ADACF80E0DF91CF911F910F91FF903C
:1053B000EF90DF90CF9008952091710230917202AA
:1053C0002617370748F06115710539F42091E80078
:1053D0002E772093E80001C0B90140E06115710506
:1053E000A9F120916A02222309F443C0253009F46F
:1053F00042C02091E80023FD40C02091E80022FD3A
:1054000032C02091E80020FFE9CF4091F3002091C5
:10541000F20030E0342BFC01CF016115710559F029
:105420002830310540F481918093F1006150710979
:105430002F5F3F4FF1CF41E02830310509F040E0C8
:105440002091E8002E772093E800C8CF4111C9CF02
:105450000AC080916A02882361F0853061F08091F2
:10546000E80083FD0AC08091E80082FFF2CF80E06F
:10547000089582E0089583E0089581E008952091E1
:105480007102309172022617370748F061157105D5
:1054900039F42091E8002E772093E80001C0B9018B
:1054A000FC0120E06115710591F180916A02882369
:1054B00009F440C0853009F43FC08091E80083FDC5
:1054C0003DC08091E80082FD2FC08091E80080FF00
:1054D000E9CF2091F3008091F20090E0922B6115CA
:1054E000710559F08830910540F424912093F10022
:1054F0003196615071090196F2CF21E0089709F0C9
:1055000020E08091E8008E778093E800CBCF2111D6
:10551000CCCF0AC080916A02882361F0853061F0A7
:105520008091E80083FD0AC08091E80082FFF2CFFD
:1055300080E0089582E0089583E0089581E0089571
:10554000982F973058F59093E900981739F070919B
:10555000EC002091ED005091F00003C0242F762F35
:1055600050E021FF19C03091EB003E7F3093EB00FB
:105570003091ED003D7F3093ED003091EB003160D4
:105580003093EB007093EC002093ED005093F0000B
:105590002091EE0027FF07C09F5FD3CF8F708093CD
:1055A000E90081E0089580E0089580916B0287FF13
:1055B00011C08091E80082FD05C080916A028111CE
:1055C000F8CF11C08091E8008B770BC080916A0200
:1055D000882349F08091E80080FFF8CF8091E800AF
:1055E0008E778093E80008952091E4003091E500E3
:1055F00095E64091EC00842F817040FF22C080919D
:10560000E80080FD1CC080916A02882391F08530FB
:1056100091F08091EB0085FD10C04091E400509125
:10562000E5004217530729F39A01915011F784E0DE
:10563000089582E0089583E0089581E0089580E070
:1056400008954091E80042FFDECF08950E94942B18
:105650000E949C2BE0EEF0E0808181608083E8ED89
:10566000F0E080818F77808319BCA7EDB0E08C914A
:105670008E7F8C9380818F7E808310926902089543
:105680000F931F93CF93DF930E94942B0E949C2B28
:10569000C8EDD0E088818F7788838881806888838F
:1056A00088818F7D888319BC10926A0210926602ED
:1056B000109268021092670200EE10E0F8018081FB
:1056C0008B7F808388818160888342E060E080E016
:1056D0000E94A02AE1EEF0E080818E7F8083E2EEDE
:1056E000F0E0808181608083808188608083F80120
:1056F00080818E7F8083888180618883DF91CF91D4
:105700001F910F910895E8EDF0E080818F7E8083F6
:10571000E7EDF0E080818160808384E082BF81E0FA
:10572000809369020C94402BE8EDF0E080818E7F3D
:1057300080831092E20008951092DA001092E10046
:1057400008951F920F920FB60F9211242F933F933B
:105750004F935F936F937F938F939F93AF93BF9379
:10576000EF93FF938091E10082FF0BC08091E200F4
:1057700082FF07C08091E1008B7F8093E1000E944F
:10578000AD278091DA0080FF1FC08091D80080FF94
:105790001BC08091DA008E7F8093DA008091D9005F
:1057A00080FF0DC080E189BD82E189BD09B400FEA2
:1057B000FDCF81E080936A020E94862705C019BC54
:1057C00010926A020E9498278091E10080FF19C020
:1057D0008091E20080FF15C08091E2008E7F80936F
:1057E000E2008091E20080618093E2008091D80025
:1057F00080628093D80019BC85E080936A020E9481
:10580000A3278091E10084FF30C08091E20084FFF3
:105810002CC080E189BD82E189BD09B400FEFDCFC5
:105820008091D8008F7D8093D8008091E1008F7E99
:105830008093E1008091E2008F7E8093E20080916E
:10584000E20081608093E20080916602882311F07B
:1058500084E007C08091E30087FD02C081E001C0C1
:1058600083E080936A020E94A7278091E10083FF72
:1058700029C08091E20083FF25C08091E100877FED
:105880008093E10082E080936A0210926602809128
:10589000E1008E7F8093E1008091E2008E7F809313
:1058A000E2008091E20080618093E20042E060E0EB
:1058B00080E00E94A02A8091F00088608093F00030
:1058C0000E949F27FF91EF91BF91AF919F918F9180
:1058D0007F916F915F914F913F912F910F900FBEEC
:1058E0000F901F9018951F920F920FB60F921124D0
:1058F0002F933F934F935F936F937F938F939F93D8
:10590000AF93BF93CF93DF93EF93FF93C091E900E1
:10591000CF708091EC00D82FD17080FDD0E810922C
:10592000E9008091F000877F8093F00078940E94D6
:10593000B72C1092E9008091F00088608093F0000D
:10594000CD2BCF70C093E900FF91EF91DF91CF9104
:10595000BF91AF919F918F917F916F915F914F9187
:105960003F912F910F900FBE0F901F9018951F938E
:10597000CF93DF93CDB7DEB7AA970FB6F894DEBF0B
:105980000FBECDBFEBE6F2E088E08E0F9091F10004
:1059900091938E13FBCF0E94FD278091E80083FF37
:1059A00028C180916B0290916C02492F50E04A30DF
:1059B000510508F01EC1FA01E756FF4F0C94922ED4
:1059C000803821F0823809F014C108C08091670244
:1059D00090916802992389F082600FC080916F02D4
:1059E0008F70873008F005C18093E9008091EB004B
:1059F00085FB882780F91092E9009091E800977F55
:105A00009093E8008093F1001092F100D0C0282F0D
:105A10002D7F09F0EEC0882319F0823061F0E9C0D3
:105A200080916D02813009F0E4C0933009F080E08C
:105A3000809368022EC080916D0281112AC08091EE
:105A40006F028F702FEF280F263008F0D2C080939E
:105A5000E9002091EB0020FF1CC0933021F48091DD
:105A6000EB00806214C09091EB0090619093EB008A
:105A700021E030E0A90102C0440F551F8A95E2F7EA
:105A80004093EA001092EA008091EB0088608093D6
:105A9000EB001092E9008091E800877F8093E80096
:105AA0000E94D52AA6C08111A4C010916D021F7753
:105AB0008091E3008078812B8093E3008091E8005F
:105AC000877F8093E8000E94D52A8091E80080FFBC
:105AD000FCCF8091E30080688093E300111102C045
