:100000000C940D030C9454030C9454030C9454035B
:100010000C9454030C9454030C9454030C94540304
:100020000C9454030C9454030C94712C0C94432D95
:100030000C948C240C9454030C9454030C9454038B
:100040000C9454030C9454030C9454030C945403D4
:100050000C9454030C9401250C9454030C945403F5
:100060000C9454030C9454030C9454030C945403B4
:100070000C9454030C9454030C9454030C945403A4
:100080000C9454030C9454030C9454030C94540394
:100090000C9454030C9454030C9454030C94540384
:1000A0000C9454030C9454030C9454033E104710C6
:1000B0004C10511056105B10601065106A106F10D4
:1000C000741079107E10831088108D109210971084
:1000D0009C10A110A610AB10561459145E14651490
:1000E0006A146F14741479147E14831488148D1494
:1000F0008F149114931499149914991499149914B0
:10010000FA19FA192C1A2C1A791A971AB81BB81B53
:10011000A21A371B481B481BA81BB81BB81BB11BD6
:10012000581C581C6A1C6A1C611C6A1C6A1C6A1CCC
:10013000581C581C661C6A1C6A1C661CB02DD72DE6
:10014000CF2ED72DCF2E232E462ECF2E9D2EAC2E4A
:10015000165C1E001F002000210022002300240046
:100160002500260027002D002E002A004A412B00E2
:1001700014001A000800150017001C0018000C00DD
:10018000120013002F00300031004D00E000040089
:100190001600070009000A000B000D000E000F00FA
:1001A00033003400000028004C00E1001D001B005B
:1001B0000600190005003542110010003600370016
:1001C0003800E50052000000E2000000E3002C00CF
:1001D0000000035100002C0000000251000000004C
:1001E000500051004F00005C3A003B003C003D00D5
:1001F0003E003F00400041004200430044004500F3
:10020000010001000100C35CC45CC65CC75CC85C43
:10021000C95CCA5CCB5C01004600A600A7000100D7
:1002200001000100CC5CCD5C010001000100010077
:10023000010001000100010001000000DF5C01007D
:1002400001000100010001000100010001000100A6
:100250000100010001000100A800A9000000010048
:10026000000001000100000001000000010000008A
:10027000010000000000AC00AA00AB002C053A0011
:100280003B003C003D003E003F004000410042007A
:10029000430044004500000000000000AC00AB003B
:1002A000AE000000000000000000000000000000A0
:1002B00000000000000000000000AA00A900A80043
:1002C000000000000000000000000000000000002E
:1002D000000000000000000000000000000000001E
:1002E000000000000000000000000000000000000E
:1002F00000000000000000000000000000000000FE
:1003000000000000000001000000000000000000EC
:10031000000000000000000000003D04000000009C
:1003200000000000000000000000000000000000CD
:10033000000000001A0100000000170300004B003D
:1003400052004E000000000000000000000000000D
:100350000401160A000000000000000050005100D7
:100360004F0000000000000000000000000000003E
:100370001B010601190100000000000000004A00F6
:100380004D00000000000000000000000000000020
:10039000000000000100000000000000000000005C
:1003A0000000000000000000000101010101010146
:1003B000010102020202020202020203030303031A
:1003C00003030304040404040404050505050506E9
:1003D00006060606070707070708080808090909A7
:1003E000090A0A0A0B0B0B0C0C0C0D0D0D0E0E0E50
:1003F0000F0F0F10101111111212131314141515E1
:1004000016161717181819191A1A1B1B1C1D1D1E52
:100410001E1F2020212222232424252626272829A6
:10042000292A2B2C2D2D2E2F3031323233343536D4
:100430003738393A3B3C3D3E3F40414243444546D4
:100440004748494A4C4D4E4F5051535455565859B0
:100450005A5B5D5E5F616264656668696B6C6D6F57
:100460007072737577787A7B7D7E808283858788CA
:100470008A8C8E8F91939596989A9C9EA0A2A3A504
:10048000A7A9ABADAFB1B3B5B7BABCBEC0C2C4C605
:10049000C9CBCDCFD1D4D6D8DBDDDFE2E4E7E9EBC1
:1004A000EEF0F3F5F8FAFDFF0403300000000A0354
:1004B0004D0041004A004100000010034B00420083
:1004C0004400460041004E005300000004030904AC
:1004D00009023B00020100A0FA0904000001030127
:1004E00001000921110100012240000705810308D4
:1004F000000A0904010001030000000921110100A4
:100500000122BC000705820320000A12011001002D
:10051000000008424B686001000102030105010967
:1005200002A10185020901A100050919012905158A
:10053000002501950575018102950175038101056D
:1005400001093009311581257F9502750881060959
:10055000381581257F950175088106050C0A38023A
:100560001581257F950175088106C0C005010980A8
:10057000A101850319012AB700150126B7009501CD
:1005800075108100C0050C0901A101850419012A1B
:10059000A002150126A002950175108100C0050179
:1005A0000906A1018505050719E029E715002501C0
:1005B0009508750181020507190029EF150025012D
:1005C00095F0750181020508190129059505750148
:1005D0009102950175039101C005010906A101056C
:1005E0000719E029E7150025019508750181029595
:1005F00001750881010507190029FF150026FF0074
:1006000095067508810005081901290595057501EC
:100610009102950175039101C00011241FBECFEF17
:10062000DAE0DEBFCDBF04B603FE27C080918C06A2
:1006300090918D06A0918E06B0918F068730904BD9
:10064000A740B04BD1F410928C0610928D061092F8
:100650008E0610928F0614BE84B7877F84BF0FB6B4
:10066000F894A89580916000886180936000109252
:1006700060000FBEE0E0F8E3099513E0A0E0B1E010
:10068000EAE9F0E602C005900D92A83CB107D9F75F
:1006900026E0A8ECB3E001C01D92AC38B207E1F748
:1006A0000E94AB290C944B300C94000081E00E9416
:1006B00035110C94522480E00E9435110C9438249A
:1006C0000E94AA1781FF07C02FEF4FEF6FEF8EE157
:1006D00090E00C946D0A089581E0089581E00895FA
:1006E0000C946E0308950C9472031F93CF93DF93C1
:1006F00000D000D01F92CDB7DEB749835A836B83F9
:100700003091360489819A81311114C0662359F0E1
:10071000222349F00E949421182F682F89819A8101
:100720000E943D2103C00E946821182F69817A81AF
:10073000812F04C00E94942169817A810F900F90CB
:100740000F900F900F90DF91CF911F910C9439046F
:10075000FC01262F408151816281738184810C9438
:100760007503CF93DF93EC0160E00E94A803BE0104
:10077000DF91CF910C9473030E944D250E94CC22EF
:10078000811102C00E9473230E9407110C94580625
:100790000E94A50F0C94540608950E94461C0E94C6
:1007A000CC032FEF84E39CE0215080409040E1F7A0
:1007B00000C000000C9427250F931F93CF93DF9365
:1007C000EC0161E00E94A8038C01BE010E94F60EBC
:1007D0008823A9F1BE01C8010E947003882379F122
:1007E000BE01C8010E943715882349F1BE01C80126
:1007F0000E948915882319F1BE01C8010E94B41610
:100800008823E9F0BE01C8010E943F148823B9F093
:100810008A81882369F001158CE5180731F00F3DB6
:100820001C4531F40E9473230AC00E94CD0307C007
:10083000CE01DF91CF911F910F910C946C0380E05A
:10084000DF91CF911F910F91089508950C94250485
:1008500081E008950C942804CF93C82F0E942604A9
:100860008C2F0E942A04CF91089580E090E0089593
:1008700008952BE4829FC0011124FC012FE0729F98
:10088000E00DF11D1124E60FF11DEE0FFF1FE05BDF
:10089000FE4F859194910895880F991FFC01E855AA
:1008A000FC4F859194910895CF93DF930E94390472
:1008B0000E946C05EC018115904508F041C0C115FE
:1008C00080E4D80708F0D1C0C83ED10510F5C03E7D
:1008D000D10508F0FDC0C83AD10578F4C53AD10574
:1008E00008F0A2C0C130D10509F4F2C008F4EEC08E
:1008F000C430D10508F0ECC0E9C0CF3BD10508F405
:100900009BC0C03CD10508F4E1C0CE01805C9109D8
:100910009EC0C11590E2D90758F4C11521E0D20755
:1009200008F0D6C0C03FD10508F4D0C0D065D0C013
:10093000C11580E3D80708F08EC0CE019F7087C034
:10094000C11595E5D90708F043C0C11524E5D207C4
:1009500008F0A2C0C11582E5D80708F5C11591E5D8
:10096000D90708F085C0CE0174E0969587957A95F1
:10097000E1F783709C2F937021E030E002C0220FDA
:10098000331F9A95E2F73C68382BCF70C695C69511
:1009900080E2C89FE0011124C22BD32B99C09E0195
:1009A000237033278C2F86958695C115D34508F083
:1009B00064C0C1E0D0E002C0CC0FDD1F2A95E2F791
:1009C00020E2829FC0011124C82BD92BDC6880C093
:1009D000C11529E5D207A0F4C11588E5D80708F0AC
:1009E00060C0C11596E5D90708F070C08C2F0E9431
:1009F00000068F71C82FD0E0DC2FCC27D06268C0F2
:100A0000C1152AE5D20708F451C0CE0190568115D0
:100A1000904208F05BC08D2F8F710E940006DD2789
:100A2000D0628F71D82B54C0C55AD0E0C059DC4F6A
:100A3000C881D0E0D0644CC0C85AD0E0CC0FDD1FD4
:100A4000CE5BDC4F0990D881C02DD46441C00E9498
:100A50004C04EC013DC0CE019927D3FF03C0EC014B
:100A6000D86C36C0EC01D06C33C0DF70D06A30C0B7
:100A7000DC2FCC27C16FD06A2BC0C1E0D0E002C010
:100A8000CC0FDD1F2A95E2F720E2829FC0011124DE
:100A9000C82BD92BDA681CC0DC2FCC27C46FD06AD6
:100AA00017C0DC2FCC27C06FD06A12C08C2F8F707C
:100AB0000E94000694E0D695C7959A95E1F7CF700D
:100AC000D0E0DC2FCC27D069C82B02C0C0E0D0E03A
:100AD000CE01DF91CF9108958238910569F1B0F48C
:100AE0008133910509F46DC048F48932910509F408
:100AF00063C08A32910509F469C008958533910570
:100B000009F455C089339105B9F00895833E9105E4
:100B100069F138F4803E9105B1F0823E910509F10A
:100B20000895863E9105A9F1873E9105B9F1843E6D
:100B3000910509F064C023C020917D0620FD4FC0BF
:100B400021FD4DC0089580917D0680FD44C08091B7
:100B50007E0680FF44C080917D0684FD42C083EE06
:100B60004DC080917D0682FF38C0F5CF80917D0613
:100B700082FD33C080917E0680FD31C0ECCF809134
:100B80007E0681FF32C080917D0684FD2AC087EEFB
:100B900035C080917D0683FF26C0F5CF80917D060C
:100BA00083FD21C080917E0681FD1FC0ECCF809126
:100BB0007D0685FD1CC01DC080917D0685FD19C088
:100BC00016C080917D0686FD16C017C080917D06F7
:100BD00086FD13C010C089E311C082EE0FC080EE05
:100BE0000DC080E00BC086EE09C084EE07C089E22C
:100BF00005C085E303C08AE201C081E390E0089567
:100C000090917D0692FF0DC0282F2871283019F48D
:100C1000877F846006C0282F2471243011F48B7FD5
:100C2000886093FF0DC0282F2871283119F4877E22
:100C3000846106C0282F2471243111F48B7E8861D1
:100C400020917E0620FF0DC0382F3871383019F4FE
:100C5000877F816006C0382F3171313011F48E7F6B
:100C6000886021FF0DC0282F2871283119F4877E54
:100C7000816106C0282F2171213111F48E7E886197
:100C800094FD877E0895E82FF0E0EE0FFF1FE75FE9
:100C9000FA4F808191810895089580EA8A95F1F74D
:100CA000089508950C9451060C9452060C94510624
:100CB0000C945606F894E82FE295EF70F0E031A11D
:100CC000282F2F7081E090E001C0880F2A95EAF765
:100CD000982F9095932391A392A1892B82A3789426
:100CE00008950F931F93CF93DF9380EF0E945A06CE
:100CF00086E30E945A0685E30E945A0684E30E9416
:100D00005A0687E90E945A06C3E7D3E002E813E0D7
:100D100089910E945A060C171D07D1F7EFEFF4E0F6
:100D2000A9E0B5E0119211921D921D9285E0E93083
:100D3000F807C1F785E00E942F07DF91CF911F913F
:100D40000F910C94BC037F928F929F92AF92BF92AF
:100D5000CF92DF92EF92FF920F931F93CF93DF9387
:100D6000C2E8D3E08FEFA82E84E0B82E99E0E92EF8
:100D700095E0F92E712C01E010E06E018881F89465
:100D8000E82FE295EF70F0E021A18F70A80102C07A
:100D9000440F551F8A95E2F7CA01922F982B91A311
:100DA00092A18095892382A378940E944D06E3E75F
:100DB000F3E020E030E0812C912C4191A42FA2950A
:100DC000AF70B0E090968C9190E04F7002C0959516
:100DD00087954A95E2F780FD08C0C801022E02C03F
:100DE000880F991F0A94E2F702C080E090E0882AF9
:100DF000992A2F5F3F4F2F303105F9F62196F601E2
:100E000080810E945A06F501808191818816990699
:100E100021F09182808281E001C080E0782AF2E0B6
:100E2000AF0EB11CEA14FB0409F0A7CF272D45E053
:100E300069E075E08FEF94E00E9430070E94C803DC
:100E4000872DDF91CF911F910F91FF90EF90DF9051
:100E5000CF90BF90AF909F908F907F90089508950E
:100E6000FF920F931F93CF93DF93F82E092F162F26
:100E7000D72FC42F222349F081E08093CA030E9418
:100E8000BE249093C9038093C8038091CA0388232A
:100E9000D9F08091C8039091C9030E94D624049789
:100EA00098F0EF2DF02FA12FBD2F80E090E04C2F78
:100EB00050E08417950734F4219131912D933D939F
:100EC0000196F7CF1092CA03DF91CF911F910F9136
:100ED000FF900895EF92FF920F931F93CF93DF93AC
:100EE0008B01682F11110AC0442329F0E82FF0E08C
:100EF000E855FC4F6491762F862F75C0212F30E086
:100F0000E82FF0E0442321F0E855FC4FE491F0E0B5
:100F100046E0049FC0011124CFEFD0E0BE010E9443
:100F2000032F4BEA4603C001479F900D1124800F09
:100F3000911D800F911D982F990F890FAE01421BB3
:100F4000530B4E9FD0014F9FB00D5E9FB00D1124EB
:100F50009B2F189FA0011124452F55278E01041B9C
:100F6000150B0E9FA0010F9F500D1E9F500D1124B9
:100F70007E01E81AF108E29E8001E39E100DF29EC8
:100F8000100D1124212F3327C21BD30BCE9F9001AC
:100F9000CF9F300DDE9F300D112462307105A9F016
:100FA00048F46115710569F061307105C9F48B2F42
:100FB000752F0DC06430710581F058F066307105F1
:100FC00079F47E2F8B2F932F0DC0832F7B2F9E2F95
:100FD00009C08E2F7B2F952F05C08E2F732F02C037
:100FE0007E2F852F692FDF91CF911F910F91FF9059
:100FF000EF90089541E00E946A07089520E030E0F4
:10100000869F212D969F200D311D1124C901089521
:10101000BC018230910508F40895613E8EE17807A5
:1010200048F49B0195E0369527959A95E1F748E0BD
:10103000420F01C04FEF91E0242F30E0290F311D06
:1010400035952795229FF001239FF00DF00D112477
:101050006E177F0718F44FEF420F04C02F3F39F08F
:1010600091E0920F491740F78FEF890F08958FEFA6
:101070000895482F982F46FD9095E92FEF739F70A4
:1010800046FD9F5FE295EF70EE0FF0E0E957FC4FF1
:101090002181299F802D212D112482958F702295E9
:1010A000207F822B3081982F930F892F47FD8195C8
:1010B00080580895E42FF0E0EE0FFF1FE15BFE4F34
:1010C000408134EE439F412D1124E82FF0E050E0A1
:1010D000445E5F4FDA01A21BB1099D01B7FF03C057
:1010E00031952195310993E0220F331F9A95E1F74D
:1010F000AF01421B530B9A0157FF02C020E030E0C2
:10110000582F259F212D1124822F0895622F089595
:10111000E42FF0E0EE0FFF1FE15BFE4F6081621BEA
:101120000895E42FF0E0EE0FFF1FE05BFE4F6081BB
:10113000621B0895A22F50E0FA01EE0FFF1FE05B43
:10114000FE4F9081905297FD9195440F551FFA01E3
:10115000E15BFE4F3081232F30E02A1B3109290F3C
:10116000311D97FD3A95620F0895EF920F931F93EB
:1011700093E0099F80011124159507956E2D600F4E
:101180001F910F91EF9008950F93CF93DF93D72F77
:10119000C82F47FD4195E8E3F0E0CF01841B91099A
:1011A00047FD9395889FB001899F700D700D1124A4
:1011B000229FC001239F900D900D1124860F971F31
:1011C0000E940808682F660F860F682F600F7D2F1A
:1011D0008C2FDF91CF910F9108950F931F93522F72
:1011E00010E0F801EE0FFF1FE05BFE4FE081F0E042
:1011F000B0979F015203D001539FB00D1124000FEF
:10120000111FF801E15BFE4F008110E0005711094A
:1012100040039001419F300D11242A0F3B1F37FFDF
:1012200002C021583F4F220F232F221F330B620F82
:101230001F910F9108950F931F93522F10E0F80103
:10124000EE0FFF1FE05BFE4FE081F0E0B097EE0F86
:10125000FF1F9F015203D001539FB00D1124000FB7
:10126000111FF801E15BFE4F008110E000571109EA
:10127000000F111F40039001419F300D11242A0FD0
:101280003B1F37FF02C021583F4F220F232F221F41
:10129000330B620F1F910F9108950F931F9310E06E
:1012A000F801EE0FFF1FE15BFE4F9081905797FD15
:1012B0009195000F111FF801E05BFE4FE081F0E017
:1012C000B097DF01AA0FBB1F8D010E0F1F1F200358
:1012D000D001219FB00D1124E8E3F0E0E91BF109F2
:1012E00097FDF3959F01220F331F89010E0F1F1FDA
:1012F00040039001419F300D11242A0F3B1F37FFFF
:1013000002C021583F4F220F232F221F330B620FA1
:101310001F910F91089522E8241B08F420E0620F2A
:101320000895FC019B01009721F477FF2BC080E812
:101330000895AC0197FF04C044275527481B590B5B
:10134000B901640F751F37FD0CC0241B350BC90193
:10135000A5E0880F991FAA95E1F70E94172F80E258
:101360000CC0CB0165E0880F991F6A95E1F7BA01BF
:10137000621B730B0E94172F80E6861BF7FF03C0CA
:101380008195089580E00895FF920F931F93CF9366
:10139000DF93F62ED72F182FC901C12FC01BBA011A
:1013A0000E949109982F990F890FC81B2C2F219FFC
:1013B000212D1124822F6F2D7D2FDF91CF911F9131
:1013C0000F91FF900895EF920F931F93CF93DF93A8
:1013D000D62FC72F182FC9010E19010FBA010E946D
:1013E0009109081B202F219F212D1124822F6D2F61
:1013F0007C2FDF91CF911F910F91EF9008950F9364
:10140000CF93DF93D72FC82FC901BA010E9491094A
:10141000682F600F7D2F8C2FDF91CF910F91089552
:10142000EF920F93CF93DF93D72FC82FC9010E19D7
:10143000BA010E949109602F681B7D2F8C2FDF91CC
:10144000CF910F91EF9008950E94FA07089545E01B
:1014500050E06CE170E083E195E00C94D72F45E01B
:1014600050E06CE170E083E195E00C94F52FE3E14E
:10147000F5E081E280838091330290913402A09163
:10148000350281839283A3838FE784830C942F0A90
:1014900080E008950F931F93CF93DF93C82FD62F2B
:1014A0008A010E94480A9FE0C99FF0011124EC5F65
:1014B000FE4FED0FF11D90819F3F29F0F801E80FDD
:1014C000F11D90838F5FDF91CF911F910F91089550
:1014D000E0919503F09196030994E0919103F091C6
:1014E000920309944F925F926F927F928F929F9294
:1014F000AF92BF92CF92DF92EF920F931F93CF9351
:10150000DF932C013B01FC01C081CC0FCC0FD4E058
:10151000DC0FD43408F0D3E4609117056695809110
:101520001805909119050E94FE07182FCD1708F095
:1015300044C08C2E912CF401EB52FE4F9081F201AD
:1015400081818923C1F1F401EE0FFF1FE15BFE4FA2
:10155000C080D12CF0E7CF1AD108F401EE0FFF1FA5
:10156000E05BFE4FA080B12C80E2A81AB108CC9CB1
:101570009001CD9C300D300D1124AA9CC001AB9C74
:10158000900D900D1124820F931F0E940808082FC0
:10159000609114057091150580911605E12E950155
:1015A000A601F30109950E94240A462F282F672FD0
:1015B000C4010E946D0ACF5FB9CF81E0D33408F037
:1015C00080E0DF91CF911F910F91EF90DF90CF904E
:1015D000BF90AF909F908F907F906F905F904F9053
:1015E000089563EE79E00C94720A65EB78E00C9450
:1015F000720A60E17AE00C94720AAF92BF92CF92C5
:10160000DF92EF92FF920F931F93CF93DF936C01C2
:101610005B01FC01C081CC0FCC0FD4E0DC0FD434D3
:1016200008F0D3E4609117056695809118059091B4
:1016300019050E94FE07182FCD1778F5EC2EF12C16
:10164000F701EB52FE4F9081F6018181892319F158
:10165000F701EE0FFF1FE05BFE4F208130E02052CC
:101660003109F701EE0FFF1FE15BFE4F408150E0B3
:101670004057510960911405709115058091160528
:10168000012FF50109950E94240A462F282F672F64
:10169000C7010E946D0ACF5FCFCF81E0D33408F03D
:1016A00080E0DF91CF911F910F91FF90EF90DF903D
:1016B000CF90BF90AF90089564EC79E00C94FD0A50
:1016C00064EC78E00C94FD0A6FEF79E00C94FD0A6D
:1016D000BF92CF92DF92EF92FF920F931F93CF931F
:1016E000DF938C017B01FC01C081CC0FCC0FD4E0D7
:1016F000DC0FD43408F0D3E4609117056695669545
:1017000080911805909119050E94FE07B82ECD17FB
:10171000F0F4CC2ED12CF601EB52FE4F9081F80163
:101720008181892391F06091140570911505809154
:1017300016052B2D4C2FF70109950E94240A462FE0
:10174000282F672FC6010E946D0ACF5FE0CF81E08E
:10175000D33408F080E0DF91CF911F910F91FF907B
:10176000EF90DF90CF90BF9008956AE578E00C94F9
:10177000680B66E878E00C94680B68E878E00C94F5
:10178000680B61E978E00C94680B6AE978E00C94E6
:10179000680B7F928F929F92AF92BF92CF92DF920F
:1017A000EF92FF920F931F93CF93DF936C015B0136
:1017B000FC01C081CC0FCC0FD4E0DC0FD43408F096
:1017C000D3E4609117056695669580911805909110
:1017D00019050E94FE07182F80E4810F0E94390826
:1017E00090E8F92EF80E812F0E94390820E8722E19
:1017F000780ECD1700F58C2E912CF401EB52FE4F94
:101800009081F60181818923A1F060911405709186
:10181000150580911605E12E0C2F272D4F2DF50172
:1018200009950E94240A462F282F672FC4010E9481
:101830006D0ACF5FDECF81E0D33408F080E0DF9126
:10184000CF911F910F91FF90EF90DF90CF90BF90BD
:10185000AF909F908F907F9008956DEE78E00C94FC
:10186000C90B6BE179E00C94C90B6DE479E00C9441
:10187000C90BAF92BF92CF92DF92EF92FF920F937C
:101880001F93CF93DF937C015B01FC01C081CC0FE0
:10189000CC0FD4E0DC0FD43408F0D3E4209117054A
:1018A00030E040E050E06FEF7FEF80E090E00E949A
:1018B0002B2F8901CD17E8F5CC2ED12CF601EB5258
:1018C000FE4F9081F7018181892389F190911C0558
:1018D000915097FD15C0292F092E000C330BF901EB
:1018E000E45EFA4F8189C813F3CF220F331FF90149
:1018F000E45EFA4F218D328D2017310748F701C081
:10190000980160911705C9010E94FE07AC01609122
:1019100014057091150580911605F50109950E9431
:10192000240A462F282F672FC6010E946D0ACF5F19
:10193000C1CF81E0D33408F080E0DF91CF911F91D7
:101940000F91FF90EF90DF90CF90BF90AF900895F0
:101950006BE879E00C94390CDF92EF92FF920F93D1
:101960001F93CF93DF938C01DC01CC91CC0FCC0F74
:10197000D4E0DC0FD43408F0D3E460911405709106
:101980001505809116050E94240AF62EE72ED82E02
:10199000CD1798F4EC2FF0E0DF01AB52BE4F8C91E5
:1019A000D80111969C91982331F02D2D4F2D6E2D3D
:1019B000CF010E946D0ACF5FEBCF81E0D33408F0F6
:1019C00080E0DF91CF911F910F91FF90EF90DF901A
:1019D0000895AF92BF92CF92DF92EF92FF920F9352
:1019E0001F93CF93DF938C01FC01C081CC0FCC0FF0
:1019F000D4E0DC0FD43408F0D3E4E0901505F09087
:101A00001605D09014056D2D7E2D8F2D0E94240A71
:101A1000C62EB72EA82E609117056D0D7E2D8F2D29
:101A20000E94240AF62EE72ED82ECD17B8F48C2F5C
:101A300090E0FC01EB52FE4F3081F801218123231D
:101A400059F030FF04C02D2D4F2D6E2D03C02A2DCF
:101A50004C2D6B2D0E946D0ACF5FE7CF81E0D33410
:101A600008F080E0DF91CF911F910F91FF90EF90F0
:101A7000DF90CF90BF90AF900895BF92CF92DF924A
:101A8000EF92FF920F931F93CF93DF937C01FC01A2
:101A9000C081CC0FCC0FD4E0DC0FD43408F0D3E4F9
:101AA000C0901505B09016052091170530E4D32E8F
:101AB0003D2D329F312D1124D32ECD1738F50C2F0B
:101AC00010E0F801EB52FE4F9081F70181818923EC
:101AD000D9F0F801EE0FFF1FE15BFE4F6081D69E4B
:101AE000B001112495E0759567959A95E1F780917D
:101AF0001405680F7C2D8B2D0E94240A462F282F59
:101B0000672FC8010E946D0ACF5FD7CF81E0D33421
:101B100008F080E0DF91CF911F910F91FF90EF903F
:101B2000DF90CF90BF900895DF92EF92FF920F93D6
:101B30001F93CF93DF938C01DC01CC91CC0FCC0FA2
:101B4000D4E0DC0FD43408F0D3E4E0901405F09036
:101B50001505D090160560911705669566956695F2
:101B600080911805909119050E94FE070E9439087E
:101B7000805887FD8195880F282F3D2D239F212D8B
:101B80001124822FB7010E94240AF62EE72ED82EA8
:101B9000CD1798F4EC2FF0E0DF01AB52BE4F8C91E3
:101BA000D80111969C91982331F02D2D4F2D6E2D3B
:101BB000CF010E946D0ACF5FEBCF81E0D33408F0F4
:101BC00080E0DF91CF911F910F91FF90EF90DF9018
:101BD0000895DF92EF92FF920F931F93CF93DF93BD
:101BE000EC01FC01EB52FE4F9081692381F1D09012
:101BF00015050091160510911405E12EF12C0E9497
:101C0000BE2F282FC7018C549F4F68E671E00E94B9
:101C1000172F8E199F0997FD039695958795959592
:101C200087952370612F289F600D11247D2D802FB3
:101C30000E94240A462F282F672FCE01DF91CF91D3
:101C40001F910F91FF90EF90DF900C946D0ADF9140
:101C5000CF911F910F91FF90EF90DF900895CF9259
:101C6000DF92FF920F931F93CF93DF938C01FC01C0
:101C7000C281C1111DC06091170520E1620F08F4F7
:101C80006FEF80911805909119050E94FE076AE098
:101C900070E00E94032F892B49F50E94BE2F63E458
:101CA00070E00E94172FF80161810E94E90D1EC0AB
:101CB000FC01C081CC0FCC0F94E0F92EFC0EF3E4B4
:101CC000FF1510F483E4F82ED0E0CF2CD12CCC15E6
:101CD000DD053CF4F8016181CE010E94E90D2196F9
:101CE000F6CFC1E0F2E4FF1508F4C0E08C2FDF91DD
:101CF000CF911F910F91FF90DF90CF9008951F9388
:101D0000CF93DF93FC01EB52FE4F20816223A9F0B9
:101D1000EC010E94BE2F182F0E94BE2F612F782F3A
:101D2000809116050E94240A462F282F672FCE0186
:101D3000DF91CF911F910C946D0ADF91CF911F918C
:101D40000895CF92DF92FF920F931F93CF93DF936B
:101D50008C01FC01C281C1111DC06091170520E1F9
:101D6000620F08F46FEF80911805909119050E9499
:101D7000FE0765E070E00E94032F892B49F50E9461
:101D8000BE2F63E470E00E94172FF80161810E946A
:101D90007F0E1EC0FC01C081CC0FCC0F94E0F92E49
:101DA000FC0EF3E4FF1510F483E4F82ED0E0CF2C02
:101DB000D12CCC15DD053CF4F8016181CE010E94E7
:101DC0007F0E2196F6CFC1E0F2E4FF1508F4C0E0E3
:101DD0008C2FDF91CF911F910F91FF90DF90CF90CB
:101DE0000895E0919303F09194030994CF92DF92C8
:101DF000EF92FF920F931F93CF93DF93CDB7DEB790
:101E000028970FB6F894DEBF0FBECDBFFB018281CD
:101E1000882349F0AE014F5F5F4F608181810E944E
:101E20004A0AF82E01C0F12CE090CB030F2D10E0F0
:101E3000C8018E0D911D099764F188E090E06C0156
:101E4000C01AD10AB80164537C4FA6018CEC93E010
:101E50000E94CE2FB8016C527C4FA60184ED93E016
:101E60000E94CE2FA601440F551FB801660F771FA1
:101E70006C517C4F84EE93E00E94CE2FB8016452E7
:101E80007C4FA6018CED93E00E94CE2FEA94E09265
:101E9000CB031091CB03DE01119640E0842F810F1C
:101EA000F41609F190E05D91252F30E0BC016553F7
:101EB0007C4FF901EE0FFF1FE15BFE4F0081FB013C
:101EC0000183220F331FF901E05BFE4F2081FB01EC
:101ED0002187518B880F991FFC01E553FC4F128E0F
:101EE000118E4F5FDBCF8093CB0381E028960FB636
:101EF000F894DEBF0FBECDBFDF91CF911F910F9140
:101F0000FF90EF90DF90CF90089508950C94850F87
:101F10000E94860F0C94600308950C948C0FCF934D
:101F2000DF93FC01C081CC0FCC0FC450D4E0DC0F98
:101F3000D43408F0D3E46D2F8C2F0E948D0F6D2FB9
:101F40008C2FDF91CF910C948C0F4F925F926F92F8
:101F50007F928F929F92AF92BF92CF92DF92EF9239
:101F6000FF92CF93DF936091F4037091F50380911A
:101F7000F6039091F7030E94E5246B017C010E9417
:101F8000CA244B015C016093F4037093F5038093C2
:101F9000F6039093F703A091CB03EBECF3E08A2FC9
:101FA00090E04FEF5FEF60E070E04C195D096E0963
:101FB0007F09A91799F0218D328D2901612C712C8F
:101FC000441555056605770510F4815004C02C0DA5
:101FD0003D1D328F218F9F5F3296EBCF8093CB03D5
:101FE000D091F803D11108C0C09113058C2F8370D4
:101FF00019F0C695C69501C0C0E0809118028130E5
:10200000E9F038F0823009F4D5C0833009F4DFC03C
:10201000EFC0109219028092180590921905A092B3
:102020001A05B0921B0589E2EBECF3E0ACE1B5E0F8
:1020300001900D928A95E1F781E0C6C080911C0263
:10204000C8130DC020911305237030E040911D028C
:1020500050E081E02417350719F480E001C081E0E9
:10206000817080931B024C2F50E04631510508F0DF
:1020700077C0FA01EA5AFF4F0C944A2F882309F4DB
:102080006FC040E060E080E00E94F10E69C089E12D
:1020900092E00E94AC0C65C089E192E00E94E90CDC
:1020A00060C089E192E00E943D0D5BC089E192E051
:1020B0000E94940D56C089E192E00E94B50B51C078
:1020C00089E192E00E945C0B4CC089E192E00E94A1
:1020D000F10A47C089E192E00E94B90B42C089E150
:1020E00092E00E94BD0B3DC089E192E00E94C10BCD
:1020F00038C089E192E00E94C50B33C089E192E0CB
:102100000E94F50A2EC089E192E00E94600B29C06E
:1021100089E192E00E94640B24C089E192E00E9470
:10212000F90A1FC089E192E00E942D0C1AC089E1D2
:1021300092E00E94310C15C089E192E00E94350CBA
:1021400010C089E192E00E942F0E0BC089E192E05D
:102150000E94A10E06C089E192E00E94A80C01C075
:1021600080E0909119029F5F9093190281110CC039
:1021700082E08093180280911B02811105C0C11179
:1021800003C083E080931802D11132C00E94880FEF
:1021900089E192E0DF91CF91FF90EF90DF90CF90B7
:1021A000BF90AF909F908F907F906F905F904F9077
:1021B0000C948F0FC0931C02809113058370809341
:1021C0001D020E94680A83E08093180211C060918A
:1021D00018057091190580911A0590911B050E94B0
:1021E000E5246A3171058105910510F010921802FD
:1021F000DF91CF91FF90EF90DF90CF90BF90AF90A5
:102200009F908F907F906F905F904F900895E09196
:102210008F03F0919003099510921C05E5E3F5E01A
:102220008FEF9FEF8193919325E0E534F207D1F78B
:102230001092CB03E4EEF3E08FEF9FEF8193919345
:1022400023E0E43FF207D1F70E94CC22811104C0C1
:102250000E9473230E94370A0E94270A8091130567
:102260008C7F11F40C94370A0895CF93C82F8823DC
:1022700029F040E060E080E00E94F10EC093F80396
:10228000CF9108952091130591E092279093130523
:102290001092180281110C942F0A089581E00C9479
:1022A000421190911305937091F0811102C09460D6
:1022B00007C0863110F0946503C0880F880F982BF3
:1022C000909313051092180261110C942F0A08952F
:1022D00061E00C945111682F909113059695969595
:1022E0009F5F963110F4892F01C081E00C94511149
:1022F00081E00C946B11682F90911305969596953B
:10230000915011F0892F01C085E10C94511181E0A9
:102310000C947B1190911305937049F080931405F0
:10232000609315054093160521110C942F0A08950A
:10233000A3E1B5E01196EC911197F0E0282F1396E8
:102340004C91139712966C91CF0108960C948A11B8
:1023500081E00C949811A3E1B5E01196EC911197EE
:10236000F0E0282F13964C91139712966C91CF01A1
:1023700008970C948A1181E00C94AB11E3E1F5E02D
:10238000628120E1620F08F46FEF9181282F438171
:10239000892F90E00C948A1181E00C94BE11E3E146
:1023A000F5E0628120E1621B08F460E09181282F52
:1023B0004381892F90E00C948A1181E00C94CF1115
:1023C000E3E1F5E0438120E1420F08F44FEF918112
:1023D000282F6281892F90E00C948A1181E00C945F
:1023E000E011E3E1F5E0438120E1421B08F440E025
:1023F0009181282F6281892F90E00C948A1181E0CD
:102400000C94F1112091170530E1230F08F42FEF00
:102410002093170581110C942F0A089581E00C94E4
:1024200002122091170530E1231B08F420E02093CD
:10243000170581110C942F0A089581E00C94111254
:1024400060E084E70E94EF1361E086E70C94EF13ED
:10245000CF930E94E51684E70E94751286E70E94DA
:102460007512C0E021E041E061E08C2F0E940B1367
:10247000CF5FC334B9F760E084E70E94071461E0DE
:1024800086E7CF910C940714E5E6F6E0608341837C
:1024900024E630E042E050E0BF01880F0C94721750
:1024A0000F931F93CF93DF93082F000FEB0114E2DC
:1024B00010936506E6E6F6E0DE018D91819386E0F5
:1024C000E637F807D1F724E630E041E150E065E671
:1024D00076E0802F0E947217105F6096143B41F7E0
:1024E000DF91CF911F910F910895CF93DF93C82F64
:1024F0004BE06DEF0E94441240E06AE08C2F0E9496
:1025000044128FE39CE90197F1F700C0000040E01E
:1025100060E08C2F0E94441240E061E08C2F0E940A
:10252000441240E066E08C2F0E94441240E06DEFC0
:102530008C2F0E944412D0E040E06D2F8C2F0E941F
:102540004412DF5FD231C1F740E06D2F8C2F0E9423
:102550004412DF5FD432C1F740E06D2F8C2F0E9410
:102560004412DF5FD43BC1F74BE06DEF8C2F0E942C
:10257000441241E06AE08C2F0E94441240E06DEF6B
:102580008C2FDF91CF910C9444128334910540F548
:10259000880F991F880F991FFC01EA5CFD4F52813B
:1025A0003381808183707181A82FB0E0E0E98E9F34
:1025B000C00111248B5B9A4FFC01E70FF11DB4970A
:1025C0006083FC01E50FF11DB4974083830F911DDB
:1025D000FC01B4972083FD01E15EFB4F81E0808325
:1025E0000895FF920F931F93CF93DF93182F062F19
:1025F000F42EC0E0D0E02F2D402F612FCE010E949D
:10260000C5122196C334D105B1F7DF91CF911F9147
:102610000F91FF9008957F928F929F92AF92BF92F9
:10262000CF92DF92EF92FF920F931F93CF93DF939E
:10263000362F54E0859FC0011124FC01EA5CFD4F58
:1026400060816370762E618170E0CB0184978C018C
:1026500097FF02C0095F1F4FA3E015950795AA9544
:10266000E1F7628170E07B0154E2E51AF108E701CD
:10267000F7FC279673E0D595C7957A95E1F76381C6
:1026800070E04B0154E2851A9108F40197FC3796EB
:1026900053E0F595E7955A95E1F768E0A62EB12C41
:1026A000B5010E94172F6C01C701B5010E94172FB9
:1026B0007C01C401B5010E94172F1127672D70E01E
:1026C000DD24332399F032E1369FD001379FB00DDE
:1026D0001124A550BC4FA00FB11F01E010E001C0B4
:1026E000000FCA94EAF73C91032B13C032E1369FE6
:1026F000D001379FB00D1124A550BC4FA00FB11FC2
:1027000001E010E001C0000FCA94EAF700953C9187
:1027100003230C93DD27FF2432E1442391F0369FFD
:10272000A001379F500D112445505C4FC40FD51F99
:1027300041E050E001C0440FEA94EAF73881432BAE
:1027400012C0369FA001379F500D112445505C4F99
:10275000C40FD51F41E050E001C0440FEA94EAF7EE
:102760004095388143234883AF015527992792E14B
:10277000969FF001979FF00D1124E550FC4FE40F58
:10278000F51F222361F021E030E0A90102C0440FCF
:10279000551F8A95E2F7CA019081892B0CC021E070
:1027A00030E0A90102C0440F551F8A95E2F7CA0123
:1027B0008095908189238083FB01E750FC4F81E065
:1027C0008083DF91CF911F910F91FF90EF90DF9069
:1027D000CF90BF90AF909F908F907F900895CF93B0
:1027E000DF93262F30E0E901C15EDB4F988199230A
:1027F00051F090E9929FB001939F700D11246B5B93
:102800007A4F0E9450121882DF91CF910895DF9283
:10281000EF92FF920F931F93CF93DF93262F30E019
:10282000A90147505C4F7A01FA01908191110AC0C9
:10283000F7011082DF91CF911F910F91FF90EF90E0
:10284000DF900895D82EF2E16F9FE001112400E09F
:1028500010E0F801EC0FFD1FE550FC4F4081602FA8
:102860008D2D0E9444120F5F1F4F0231110589F711
:10287000DFCF882311F0FA0101C0FB0109940F9307
:102880001F93CF93FB01C281CC2309F450C08C016C
:102890000E9415228272F801E35CFC45E431F105E7
:1028A00008F048C0E459FF4F0C944A2F0E944E1183
:1028B00040C047E851E168E771E104C048E751E1F1
:1028C00067E871E10E94391434C04BEB51E168EACA
:1028D00071E1F8CF48EA51E16BEB71E1F3CF4DEDD7
:1028E00051E16CEC71E1EECF4CEC51E16DED71E139
:1028F000E9CF4FEF51E16EEE71E1E4CF4EEE51E1E1
:102900006FEF71E1DFCF4DE152E16EE072E1DACFBE
:102910004EE052E16DE172E1D5CF81E005C084E087
:1029200003C089E001C08EE00E94681102C0C1E0CE
:1029300001C0C0E08C2FCF911F910F910895AF92ED
:10294000BF92CF92DF92EF92FF920F931F93CF939C
:10295000DF937C015B01C42FD22FFC01828188238D
:10296000F9F0409323040E94BE24909322048093A4
:10297000210480E28C0F883008F06EC0C77081E0BF
:1029800001C0880FCA95EAF7DF91CF911F910F918F
:10299000FF90EF90DF90CF90BF90AF900C94B6195E
:1029A00080912304481335C0809121049091220422
:1029B0000E94D6246C01B701C5010E94FF1EC816F3
:1029C000D90638F510E21D0FCD17B9F080E28C0F53
:1029D000883040F4C77081E001C0880FCA95EAF7DB
:1029E0000E94BD19183058F581E09D2F977001C0E5
:1029F000880F9A95EAF70E94B619802F0E94A319B2
:102A0000183050F5D77081E001C0880FDA95EAF7E9
:102A10000AC080E28C0F8830F8F4C77081E001C0F2
:102A2000880FCA95EAF7DF91CF911F910F91FF9020
:102A3000EF90DF90CF90BF90AF900C94BD19802F96
:102A4000DF91CF911F910F91FF90EF90DF90CF908A
:102A5000BF90AF900C94A319DF91CF911F910F916C
:102A6000FF90EF90DF90CF90BF90AF9008950F93BD
:102A70009C01CB01243F4CE5340731F188F4293D1A
:102A8000FCE53F07D9F02A3D4CE5340779F1283DB4
:102A90003C45A9F506E221EE41EE68ED7CE52BC050
:102AA000263FFCE53F07E1F0A8F0273F3C4539F51C
:102AB00007E225EE46EE67EF7CE51DC007E225EE56
:102AC00045EE69ED7CE517C006E221EE40EE64EFCD
:102AD0007CE511C007E225EE44EE65EF7CE50BC016
:102AE00006E221EE42EE66EF7CE505C008E221E059
:102AF00045EE6AED7CE50E949F1480E008C0FC0171
:102B00008281882319F01092230401C081E00F9183
:102B10000895CF93DF93EC01FB018281882309F4B0
:102B20001FC1C230FCE5DF0708F41BC1C6319CE5BC
:102B3000D90738F09E012B5F3C452930310508F05C
:102B400010C10E94DF2290937E0680937D06C031E3
:102B5000ECE5DE0709F4C3C008F041C0C8308CE5DD
:102B6000D80709F49AC0F0F4C430ECE5DE0709F4A4
:102B700087C068F4C2308CE5D80709F477C0C33049
:102B8000DC4509F0E3C080917D06826076C0C630E6
:102B9000ECE5DE0709F46EC008F07BC080917D068D
:102BA00088606BC0CC308CE5D80709F485C068F428
:102BB000CA30ECE5DE0709F474C008F079C00E9461
:102BC000461C80917D06806858C0CE308CE5D807C1
:102BD00009F476C008F07FC080917D068BC0CC3FA1
:102BE000ECE5DE0709F44FC018F5C3318CE5D807D2
:102BF00009F47DC078F4C131ECE5DE0709F473C057
:102C0000C231DC4509F0A2C00E94461C80917D06BD
:102C10008F7733C0C5318CE5D80709F472C008F44A
:102C200086C0CB3FDC4509F091C080917E063EC056
:102C3000C115FDE5DF0709F45FC058F4CE3F9CE500
:102C4000D90709F444C008F43FC080917E06826031
:102C50002DC0C230FDE5DF0709F475C008F45DC082
:102C6000C330DD4509F072C080E06EC080917D0602
:102C7000816003C080917D06806180937D0666C07F
:102C800080917D0611C080917E06826080937E06D1
:102C90005DC080917D068062F0CF80917D0680646A
:102CA000ECCF80917D0688608460E7CF8160EECFB5
:102CB00080917D068E7FE1CF80917D068D7FDDCF77
:102CC00080917D06877FD9CF80917E0618C0809144
:102CD0007E068D7FDBCF80917D068F7ECECF80916B
:102CE0007D068F7DCACF80917D068F7BC6CF809178
:102CF0007D06877F8B7FC1CF80917E068D7F8E7F03
:102D0000C5CF80917D0682FB222720F991E0922792
:102D100090FB82F990FB83F9B0CF80917E06982FCB
:102D2000909591708E7F892B90FB81F9AFCF0E9497
:102D3000461C80917D0687FB222720F991E092278F
:102D400090FB87F99ACF81E00E94752380917D06E0
:102D500090917E060E94F0220E94461C80E001C0F5
:102D600081E0DF91CF910895CF93DF9386319C4529
:102D700041F5EB010E941522982F8A8120911E02B5
:102D800030911F02882379F09A7A81E009F480E07B
:102D900080932404911102C069E201C065E3C90176
:102DA0000E9410240AC080912404811102C069E2AB
:102DB00001C065E3C9010E941B240E94632280E0D8
:102DC00001C081E0DF91CF9108951092B9008CE0AD
:102DD0008093B8000895EF92FF920F931F93CF93C3
:102DE000DF93182FEB011092BC0084EA8093BC00A3
:102DF0000E94BE247C018091BC0087FD0EC0CF3FA5
:102E00008FEFD807C1F30E94BE248E199F098C173B
:102E10009D0788F38EEF9FEF2EC08091B900887FC9
:102E2000883041F08091B900887F803119F08FEFB0
:102E30009FEF21C01093BB0084E88093BC000E94E8
:102E4000BE248C018091BC0087FD0CC0CF3F8FEF6A
:102E5000D807C1F30E94BE24801B910B8C179D07DD
:102E600088F3D8CF8091B900887F883111F0803401
:102E7000F1F680E090E0DF91CF911F910F91FF90EC
:102E8000EF9008950F931F93CF93DF93EB018093FF
:102E9000BB0084E88093BC000E94BE248C0180911A
:102EA000BC0087FD0EC0CF3F8FEFD807C1F30E9453
:102EB000BE24801B910B8C179D0788F38EEF9FEF2C
:102EC0000CC02091B900287F81E090E0283211F4F5
:102ED00080E090E0919581959109DF91CF911F91CC
:102EE0000F910895CF92DF92EF92FF920F931F936D
:102EF000CF93DF936B018A017901B9010E94EB1630
:102F0000E6010C0D1D1DC017D10761F424E92093C3
:102F1000BC00DF91CF911F910F91FF90EF90DF9058
:102F2000CF90089597FDF2CFB70189910E94421783
:102F3000EACF90932A04809329040895E09129040C
:102F4000F0912A04309721F00190F081E02D09944E
:102F500080E00895E0912904F0912A04309711F45B
:102F600080E008950190F081E02D09950895E091A9
:102F70002904F0912A04309799F0209132022223FB
:102F800059F020917D0627FF07C0DC012C91119696
:102F90002C93119725E02C930280F381E02D099466
:102FA0000895E0912904F0912A04309739F022E045
:102FB000DC012C930480F581E02D09940895209183
:102FC0002704309128042817390771F090932804BA
:102FD00080932704E0912904F0912A04309721F08E
:102FE0000680F781E02D0994089520912504309101
:102FF00026042817390771F090932604809325043E
:10300000E0912904F0912A04309721F00084F185A1
:10301000E02D0994089585B7806885BF85B78068DD
:1030200085BF089581E008950C94121808950C94BA
:1030300016180C9416180C9419180C9416180C9455
:103040001D180C9416180E940B180E9421180C943D
:103050001F180E94B5240E9471060E9461250C94DD
:103060001B187F928F929F92AF92BF92CF92DF9266
:10307000EF92FF920F931F93CF93DF93CDB7DEB7FD
:103080002A970FB6F894DEBF0FBECDBF0E94171867
:103090000E9416180E94A3060E941418811111C0E4
:1030A0008FEF89838A831B820E94BE248160782FE0
:1030B0009D838C8349815A816B818D810E94E518A3
:1030C0004FC04CE2A42E44E0B42E00E010E0702E7D
:1030D000802F0E9443066C01F501819091905F0161
:1030E000882699268114910431F40F5F1F4F053013
:1030F000110569F7D5CF8091CE0481FD0E944C0661
:1031000080E0EE24E394F12C94012E213F21232B27
:1031100009F18E837F82CE20DF2081E0CD2809F463
:1031200080E088870E94BE248160782F9A878987F3
:103130004E815F8168858A850E94E518000F111F06
:10314000F801E45DFB4F80819181E826F926F18248
:10315000E08206C08F5FEE0CFF1C8F30A9F6C5CF52
:103160000E9410270E949E1790912B048917C9F086
:103170000E949E1780932B042A960FB6F894DEBF08
:103180000FBECDBFDF91CF911F910F91FF90EF90B8
:10319000DF90CF90BF90AF909F908F907F900C94D6
:1031A0002C042A960FB6F894DEBF0FBECDBFDF9178
:1031B000CF911F910F91FF90EF90DF90CF90BF9034
:1031C000AF909F908F907F900895CF93DF93CDB76E
:1031D000DEB72B970FB6F894DEBF0FBECDBF4F837F
:1031E000588769877A878B87DE01119686E0FD0113
:1031F00011928A95E9F785E0FE01379601900D92CC
:103200008A95E1F749815A816B817C818D819E810C
:103210000E94021F2B960FB6F894DEBF0FBECDBFE3
:10322000DF91CF910895FC01808191810E94D62188
:103230000895CF93882309F450C0C82F8CEF8C0FCA
:10324000813AD0F46C2F80911E0290911F020E944F
:103250009023882349F06C2F80911E0290911F02C9
:103260000E941B240E9463226C2F80911E02909169
:103270001F020E9410240CC080E28C0F883058F48A
:10328000C77081E001C0880FCA95EAF70E94182232
:10329000CF910C946322EBE5EC0FE33040F4F0E0C7
:1032A000EB53FC4F808190E0CF910C94DF17E8E561
:1032B000EC0FE73150F4F0E0EE0FFF1FE956FC4F42
:1032C00080819181CF910C94F517C03F30F08C2F05
:1032D0000E940526CF910C94F226CF910895882361
:1032E00089F19CEF980F913A40F4682F80911E026B
:1032F00090911F020E941B240DC090E2980F9830FD
:1033000058F4877091E001C0990F8A95EAF7892FE8
:103310000E941E220C9463229BE5980F933020F4A8
:1033200080E090E00C94DF1798E5980F973120F437
:1033300080E090E00C94F517803F20F00E946D260D
:103340000C94F2260895CF93C82F0E941919C933FF
:1033500049F42FEF87EE93E0215080409040E1F751
:1033600000C000008C2FCF910C946F19882321F09E
:103370000E9418220C9463220895882321F00E9451
:103380001E220C9463220895CF92DF92EF92FF9257
:103390000F931F93CF93DF937C01062FC72FFC0160
:1033A000158112951F70D281D1110E9435220E9481
:1033B0000E22882399F0DD2389F08C2F807F8034C2
:1033C00021F080E2800F883048F082E00E94AD2238
:1033D0000E940E2291E0D82ED92601C0D12CCC2EED
:1033E000C2948FE0C8228C2D90E0FC01E058FF4F82
:1033F0000C944A2F8C2F807FCF70882311F0C295B8
:10340000C07FDD2399F0CC2309F48DC180E2800FC9
:10341000883010F0011104C08C2F0E94182203C0C4
:103420008C2F0E9428220E9463227DC1802F0E943F
:103430006F19CC2309F49CC180E2800F883010F012
:10344000011104C08C2F0E941E2203C08C2F0E94E9
:103450002E220E9463228CC18C2F807FCF708032FD
:1034600011F0C295C07F002319F00130C9F022C0CD
:10347000DD2371F0112341F0113031F40E94482214
:103480008C2B0E94502274C10E9448228C2B1DC09C
:10349000112319F0113009F46BC10E94592225C083
:1034A000DD2321F0163008F063C10EC0153008F09E
:1034B0005FC11BC0DD2361F0112331F0F70185816D
:1034C00080FF31C18F7085838C2F0E94B61950C147
:1034D000112359F0093309F037C1FFEF27EE83E0DC
:1034E000F15020408040E1F72DC18C2F0E94BD1982
:1034F0003FC18C2F86958695837019F0813061F0DD
:1035000037C1DD2321F0802F9C2F937002C080E013
:1035100090E00E94DF1734C1DD2321F0802F9C2F23
:10352000937002C080E090E00E94F51729C1802FBF
:10353000DD2319F00E94052602C00E946D260E941C
:10354000F2261EC18C2F837009F045C0D11114C121
:10355000402F429546954770440F440F602F6F707F
:10356000862F90E0A0E0B0E0042E04C0880F991FE1
:10357000AA1FBB1F0A94D2F704FF10C00FE010E08F
:1035800020E030E004C0000F111F221F331F4A95B6
:10359000D2F7009510952095309503C000E010E01B
:1035A0009801C695C695C370BC01CD01602B712BE7
:1035B000822B932BC23049F058F4C13019F00E948D
:1035C0005320DAC00E944120D7C00E946520D4C099
:1035D0000E943F20D1C0DD2319F08C2F817001C0E3
:1035E0008695882309F4C8C0402F429546954770B8
:1035F000440F440F602F6F70862F90E0A0E0B0E082
:10360000042E04C0880F991FAA1FBB1F0A94D2F76B
:1036100004FF10C00FE010E020E030E004C0000F15
:10362000111F221F331F4A95D2F700951095209540
:10363000309503C000E010E09801C695C695C370B0
:10364000BC01CD01602B712B822B932BC23049F032
:1036500058F4C13019F00E9418218EC00E94062132
:103660008BC00E942A2188C00E94792085C0CF701B
:10367000DD2339F08C2F0E949F20802F0E94B619E5
:103680007BC0802F0E94BD198C2F0E94C02074C067
:10369000023F01F128F4003F41F0013FA1F03FC09B
:1036A000033FF9F0043F39F13AC0DD2341F0153012
:1036B00008F05EC08C2F8F710E94E52059C0163033
:1036C00008F056C0F7CFDD2339F08C2F8F710E94A0
:1036D0009F204EC0DD23C9F38C2F8F710E94C02024
:1036E00047C0DD2329F08C2F8F710E948A2040C0B3
:1036F0000E9485203DC0DD2349F0CF718C2F0E94B0
:103700009F2063E08C2F0E94982232C081E00E94AB
:10371000AD22123068F182E00E94AD2229C0DD2383
:1037200031F0112391F2802F0E94191921C0112329
:1037300099F2093349F49FEFE7EEF3E09150E0404E
:10374000F040E1F700C00000802F0E946F1910C008
:103750004C2F4F70602FC7010E9435040E94B01F8C
:103760000FC04C2F4F70602FC7010E94380408C053
:1037700088EF8C0D843020F40E949E170E942C0448
:10378000DD20C9F00E940A2280FD15C0F7011282D7
:103790000E9404220E949F20C7010E94FC1B0E94DD
:1037A0000422DF91CF911F910F91FF90EF90DF9056
:1037B000CF900C94C020DF91CF911F910F91FF907B
:1037C000EF90DF90CF9008950F931F93CF93DF93E7
:1037D000EC01688179818A810E94E1218C010E943B
:1037E0003C210E942D20B801CE010E94C419DF9116
:1037F000CF911F910F910895CF93DF93EC019881A2
:1038000089812B813C81232B31F08F3F31F481E082
:103810009F3F19F403C081E001C080E080FD19C022
:10382000CE010E94DC0381110CC00E940E2288236D
:1038300081F08A81882369F082E0DF91CF910C9436
:10384000AD22CE010E94E41BCE01DF91CF910C94FA
:10385000B103DF91CF9108950E9435220E94452245
:103860000E9463220E9423280E94F22680E090E0BA
:103870000E94DF1780E090E00C94F51780911E0203
:1038800090911F020E9426240C942C1C0E94252239
:103890000C943E1CE92FE295EF704E2F50E0FA0198
:1038A0003297EE30F105B0F4E057FF4F0C944A2FF9
:1038B000803F91F018F4883E68F40EC0843F51F4C4
:1038C0000BC0883E48F0813F29F406C093FB88274F
:1038D00080F9089580E0089581E008950E94D6213E
:1038E0000E944A1C0895CF93DF9300D000D01F920E
:1038F000CDB7DEB70F900F900F900F900F90DF9124
:10390000CF910895CF93DF9300D000D000D0CDB7F2
:10391000DEB726960FB6F894DEBF0FBECDBFDF919F
:10392000CF9108951F93CF93DF93C091370416E092
:1039300080913804C81799F0D0E01C9FF0011D9FBA
:10394000F00D1124E75CFB4F40815181628173814E
:10395000848195810E94821C2196C770E9CFDF91F6
:10396000CF911F9108954091690450916A0460912C
:103970006B0470916C0480916D0490916E040C94B2
:10398000821C0F931F93CF93DF9380916E048295D7
:103990008F7009F05DC080916B04882309F458C0D2
:1039A00080913704109138046091690470916A0421
:1039B000C0916C04D0916D0491E06F3F09F090E0EC
:1039C000292F06E0811709F443C0209721F07F3F9B
:1039D00021F030E003C031E001C0322F90E030FD33
:1039E00034C0089FF001099FF00D1124DF01A75C8E
:1039F000BB4F11963C911197371327C03C9136135A
:103A000024C012963C91129731111FC013964D910C
:103A10005C9114974C1B5D0B483C5105B0F48091B0
:103A20006E048F70806180936E04E25CFB4F808136
:103A30008F708061808389E694E00E94FC1BDF9197
:103A4000CF911F910F910C94921C01968770BACF61
:103A5000DF91CF911F910F9108959F92AF92BF92E6
:103A6000CF92DF92EF92FF920F931F93CF93DF934A
:103A7000CDB7DEB761970FB6F894DEBF0FBECDBFEE
:103A80008C0185E0F801DE011D9601900D928A956A
:103A9000E1F7F80140815181E280909169046091E1
:103AA0006A0420916C0430916D042115310531F0C8
:103AB0006F3F31F481E09F3F19F403C081E001C002
:103AC00080E0F82FF1709F2E80FD46C1F801A380A1
:103AD000B48089E6C82E84E0D82EF0906B04F501FE
:103AE000E21BF30BFF2009F4DFC080916E04E83C79
:103AF000F10508F09BC0282F207F09F052C0561313
:103B000013C0491311C0FE2CE1100EC08F708061EC
:103B100080936E040E94B31CC6010E94FC1B80911E
:103B20006E04F801858358C1AB2831F05F3F31F452
:103B300081E04F3F19F403C081E001C080E080FDC7
:103B400003C081E08E2502C080E090E0F82FF17084
:103B5000FF2E80FF1CC0809137042091380436E08E
:103B6000821709F417C190E0389FF001399FF00DDA
:103B70001124E75CFB4F6181561306C06081461338
:103B800003C06281E61203C001968770E9CFFE2C64
:103B9000EE2009F421C180916E04816080936E044F
:103BA0005AC0561306C0491304C0E11002C0F80100
:103BB0009FC04D875E878D859E850E946E1C8823E1
:103BC00079F1EE2069F120916E04822F82958F7039
:103BD00090E0029774F08091690490916A0498874C
:103BE0008F831986BB86AA862C87CE0107960E94F2
:103BF000FC1B86E0F801A9E6B4E001900D928A95DD
:103C0000E1F70E94C11C0E94B31C0DC0561729F198
:103C10004D875E878D859E850E946E1C81112CC00C
:103C2000C8010E94FC1BFF24F394D6C0282F207FDC
:103C300069F77A2DB98AA88A6E2D89890E94731C2A
:103C400089E694E00E94FC1B86E0F60111928A95B9
:103C5000E9F70E94B31CF12CBFC04913D9CFE11082
:103C6000D7CFF8018583C8010E94FC1B86E0F601CE
:103C700011928A95E9F7B0C0EE2091F220916E047E
:103C8000822F82958F7090E002970CF4B2CF8091D2
:103C9000690490916A049A8389831B82BD82AC82F5
:103CA0002E83CE010196A3CFE83CF10508F047C072
:103CB000FE2CEE2009F4B4CF561330C049132EC0A9
:103CC00020916E0420FD21C0822F82958F70482F95
:103CD00050E041155105C9F0F80125834F305105D9
:103CE00041F08F5F982F9295907F822F8F70892B54
:103CF0008583C8010E94FC1B86E0F801A9E6B4E0B8
:103D000001900D928A95E1F742C086E0F801A9E69C
:103D1000B4E001900D928A95E1F75EC04D875E8711
:103D20008D859E850E946E1C811163CF80916E04EB
:103D3000816080936E04C8010E94FC1B4DC07A2DE7
:103D4000B98AA88A6E2D89890E94731C86E0F601C3
:103D500011928A95E9F71BC0EE2009F461CF4D87D7
:103D60005E878D859E850E946E1CF82E882309F43F
:103D700057CF86E0F801A9E6B4E001900D928A954C
:103D8000E1F789E694E00E9413190E94C11C0E9489
:103D9000B31C22C04D875E878D859E850E94D621EB
:103DA000292F22952F70223028F49F7039F081112D
:103DB00005C00BC0243028F49F7049F4805E883021
:103DC00020F0C8010E94FC1B9F2CF92C05C0F801B3
:103DD0009581907F99F7F9CF8F2D61960FB6F89462
:103DE000DEBF0FBECDBFDF91CF911F910F91FF902E
:103DF000EF90DF90CF90BF90AF909F90089588ECA8
:103E000090E008951F93CF93DF93CDB7DEB72C9743
:103E10000FB6F894DEBF0FBECDBF4F8358876987BA
:103E20007A878B879C87CE0107960E942D1D882359
:103E3000D1F09F8188852A853B85232B31F08F3FE8
:103E400031F481E09F3F19F403C081E001C080E0BC
:103E500080FD47C04F81588569857A858B859C8513
:103E60000E94821C3EC086E0FE013796DE0111965C
:103E700001900D928A95E1F7FF81E8856A857B853F
:103E80006115710531F0EF3F31F481E0FF3F19F426
:103E900003C081E001C080E080FD23C02091380490
:103EA00030E0C9010196877099274091370450E0AE
:103EB00084179507F1F1F983EA837D836C8396E09B
:103EC000929FD001939FB00D1124A75CBB4FFE01C0
:103ED000319601900D929A95E1F7809338040E94F3
:103EE000921C16E08091370490913804891771F183
:103EF000189FC0011124875C9B4F0E942D1D8823B1
:103F000029F1E09137041E9FF0011124E75CFB4F7B
:103F10004081518162817381848195810E94821CDC
:103F20008091370490E00196877099278093370439
:103F3000D9CF0E94461C1092380410923704E9E64B
:103F4000F4E086E0DF011D928A95E9F72C960FB622
:103F5000F894DEBF0FBECDBFDF91CF911F910895C2
:103F6000EF92FF920F931F93CF93DF938C01892BD6
:103F700009F46CC0F12CEE24E394E8012196F801D9
:103F80008491843740F4843008F051C0813081F04E
:103F9000823019F15BC0853709F444C0A8F19CE771
:103FA000980F903708F052C08F770E946F1941C068
:103FB0000E5F1F4FFE01849190E2980F983050F4ED
:103FC0008770FE2D01C0FF0F8A95EAF78F2F0E94A0
:103FD000382214C00E9419192DC00E5F1F4FFE0118
:103FE000849190E2980F983060F48770FE2D01C0A4
:103FF000FF0F8A95EAF78F2F0E943E220E946322CC
:1040000019C00E946F1916C00E5F1F4FFE01C491A8
:10401000CC2381F08FE99FE00197F1F700C0000009
:10402000C150F6CF0E5F1F4FFE01F49003C00E94F7
:1040300019198E018F2D882309F49FCFEFE9FFE036
:104040003197F1F700C000008150F5CFDF91CF919B
:104050001F910F91FF90EF900895089508950C948B
:104060002E200C942F200E9431206093A504709381
:10407000A6048093A7049093A8040C942C1C0C9481
:1040800033200F931F930091A5041091A604209153
:10409000A7043091A804602B712B822B932B1F91C6
:1040A0000F910C9433200F931F930091A50410914E
:1040B000A6042091A7043091A804602371238223D1
:1040C00093231F910F910C9433200F931F93009112
:1040D000A5041091A6042091A7043091A80460279C
:1040E0007127822793271F910F910C9433200C94F2
:1040F0002E200E9477206093A1047093A2048093E5
:10410000A3049093A4040C942C1C60E070E0CB01F9
:104110000C9479200F931F9341E050E060E070E031
:104120008A019B0104C0000F111F221F331F8A95B3
:10413000D2F7C901B8011F910F910C9479200F9308
:104140001F9341E050E060E070E004C0440F551F51
:10415000661F771F8A95D2F78091A1049091A204DF
:10416000A091A304B091A4048A019B01082B192BF0
:104170002A2B3B2BC901B8011F910F910C94792078
:104180000F931F9341E050E060E070E004C0440FE3
:10419000551F661F771F8A95D2F7409550956095F9
:1041A00070958091A1049091A204A091A304B09174
:1041B000A4048A019B01082319232A233B23C90154
:1041C000B8011F910F910C9479200F931F9341E038
:1041D00050E060E070E004C0440F551F661F771F79
:1041E0008A95D2F78091A1049091A204A091A30492
:1041F000B091A4048A019B01082719272A273B278D
:10420000C901B8011F910F910C9479200F931F934E
:104210000091A1041091A2042091A3043091A40460
:10422000602B712B822B932B1F910F910C94792073
:104230000F931F930091A1041091A2042091A30455
:104240003091A40460237123822393231F910F9143
:104250000C9479200F931F930091A1041091A20454
:104260002091A3043091A40460277127822793270B
:104270001F910F910C94792008952FE0929F800D4B
:104280001124E82FE695E695E695877051E001C088
:10429000550F8A95EAF785E0E89FF0011124E1596E
:1042A000FB4F20E030E070E04081CB01022E02C0E5
:1042B000969587950A94E2F78170819584278523E6
:1042C000842781932F5F3F4F2530310569F708958B
:1042D0002FE0929F800D1124682F66956695669554
:1042E000982F977085E0689FB001112440E050E05E
:1042F00080E0FB01E40FF51FE159FB4F208130E026
:10430000092E02C0369527950A94E2F721703327CB
:10431000042E01C0220F0A94EAF7822B4F5F5F4FF1
:104320004530510531F70895BF92CF92DF92EF9259
:10433000FF920F931F93CF93DF938C01C090A10442
:10434000D090A204E090A304F090A4048091A5046E
:104350009091A604A091A704B091A804C82AD92AD4
:10436000EA2AFB2ACFE1D0E0D701C6010C2E04C017
:10437000B695A795979587950A94D2F780FD04C0C6
:10438000219790F7B12C07C0BC2EB8018C2F0E944A
:1043900054040197A9F38B2DDF91CF911F910F91B9
:1043A000FF90EF90DF90CF90BF900895CF93DF9371
:1043B000EC010E949421BE010E945404DF91CF9130
:1043C00008951F93CF93DF93EB01909136049923C7
:1043D00021F0CB010E94D62113C0882349F0CB01E4
:1043E0000E949421182F682FCE010E943D2104C005
:1043F000CB010E946821182FBE01812F0E94540416
:10440000DF91CF911F9108958091A904859585959D
:10441000859508958091A904877008959091A904C5
:10442000977081E009F480E008958091CD040895AB
:104430009091CD04892B8093CD040895809590911F
:10444000CD0489238093CD0408951092CD0408955E
:104450009091CC04892B8093CC0408958095909101
:10446000CC0489238093CC0408951092CC04089541
:104470009091CB04892B8093CB04089580959091E3
:10448000CB0489238093CB0408951092CB04089524
:104490008091AA04089508950C944B220C944C2208
:1044A0009091AA04981721F08093AA040C944E22AC
:1044B00008958091AA04882329F01092AA0480E02C
:1044C0000C944E220895E0911E02F0911F028091FB
:1044D000CD048083E0911E02F0911F0290818091B3
:1044E000CC04892B8083E0911E02F0911F02908101
:1044F0008091CB04892B80838091AA04882381F04A
:10450000E0911E02F0911F029081892B808380919F
:104510001E0290911F020E947A2381110E9459224B
:1045200080911E0290911F020C94B7170C944B229D
:1045300098E0899F90011124262B2093A9040E94C2
:104540009F208091A9048595859585950C94962248
:104550001092A90480E00C9496222091A9048095E1
:1045600082238093A904982F977079F430E0482F24
:10457000082E000C550B2417350739F085958595C5
:1045800085950E94C0200C94A82208956FEF7FEFBC
:1045900080E090E00C94233080E090E00E94EF2FC8
:1045A00021E08C3E9E4F09F020E0822F089582E0AA
:1045B00090E00C94E72F83E090E00C94E72FCF93EA
:1045C00084E090E00E94E72FC82F81E290E00E94F3
:1045D000E72F2C2F30E0A901582BCA01CF91089565
:1045E000CF93C92F682F84E090E00E9405306C2F94
:1045F00081E290E0CF910C940530AB01BC018FE0DB
:1046000090E00C941730AB01BC0183E190E00C9476
:10461000173060E070E0CB010C94032360E070E0A1
:10462000CB010E94FD220C9409236CEE7EEF80E00A
:1046300090E00E94233060E082E090E00E9405302C
:1046400060E083E090E00E9405301092A504109293
:10465000A6041092A7041092A80460E084E090E001
:104660000E94053060E081E290E00E94053060E049
:1046700085E090E00E94053060E086E090E00E94D6
:1046800005306FEF87E090E00E94053040E050E099
:10469000BA0188E090E00E94173060E08DE090E081
:1046A0000E94053040E050E0BA0188E190E00E94AD
:1046B000173060E087E190E00E94053040E050E074
:1046C000BA018CE190E00E94173060E080E290E057
:1046D0000E94053040E050E0BA0188E190E00E947D
:1046E00017300C940E230C941523682F8EE090E065
:1046F0000C940530FC01329680913202882331F00F
:1047000080917D0687FF02C09EE101C096E080E0B7
:10471000915028F021912223D9F38F5FF9CF08958A
:10472000662351F1209132022223E9F020917D0687
:1047300027FF19C0462F4695469546954E31E0F421
:10474000677021E030E002C0220F331F6A95E2F764
:10475000FC01E40FF11D828190E02823392381E0E0
:10476000232B69F409C0FC01329608962191621747
:1047700029F0E817F907D1F780E0089581E008955E
:104780009C01FC0132969FEF80E04191461789F031
:104790009F3F19F4411101C0982F8F5F8630A9F710
:1047A0009F3F39F0F901E90FF11D97FDFA956283FA
:1047B000089508959C012A5F3F4FFC0142814613F2
:1047C00001C01282019682179307B9F70895262F28
:1047D0002695269526952E3168F4FC01E20FF11DF1
:1047E000677021E030E001C0220F6A95EAF782810C
:1047F000282B22830895262F2695269526952E313F
:1048000070F4FC01E20FF11D677021E030E001C09F
:10481000220F6A95EAF72095828128232283089542
:1048200020913202222329F020917D0627FD0C944D
:10483000E7230C94C02320913202222329F02091F7
:104840007D0627FD0C94FB230C94DA232091320281
:10485000FC013296222331F080917D0687FF02C051
:104860008EE101C086E0DF011D928A95E9F7089587
:1048700008950C9438240C943824CF930E943B2440
:104880000E94A3060E943924C0E08C2F0E94430698
:10489000892B29F4CF5FC530C1F780E001C081E0EA
:1048A000CF9108950C9438240E945603809183067A
:1048B000843049F11092CF0420E488E190E00FB6F3
:1048C000F894A895809360000FBE2093600080E06C
:1048D0000E942C040E94560383B7817F846083BFAB
:1048E00083B7816083BF7894889583B78E7F83BFB9
:1048F0000FB6F894A895809160008861809360005D
:10490000109260000FBE08950E94461C0E949E17E0
:104910000E942C040C945B031F920F920FB60F920F
:1049200011248F939F93AF93BF938091CF048111F4
:1049300013C08091790690917A06A0917B06B09180
:104940007C064196A11DB11D8093790690937A064D
:10495000A0937B06B0937C06BF91AF919F918F91FE
:104960000F900FBE0F901F90189582E084BD93E0CA
:1049700095BD9AEF97BD80936E0008952FB7F89478
:104980008091790690917A06A0917B06B0917C0681
:104990002FBF08952FB7F8946091790670917A0629
:1049A00080917B0690917C062FBF08959C014FB7A4
:1049B000F8948091790690917A06A0917B06B09147
:1049C0007C064FBF821B930B0895CF92DF92EF922C
:1049D000FF922FB7F894C0907906D0907A06E090B5
:1049E0007B06F0907C062FBFA7019601261B370B94
:1049F000480B590BCA01B901FF90EF90DF90CF909F
:104A0000089578941F920F920FB60F9211248F93EE
:104A10009F93AF93BF938091790690917A06A0916E
:104A20007B06B0917C060196A11DB11D809379068D
:104A300090937A06A0937B06B0937C06BF91AF91CA
:104A40009F918F910F900FBE0F901F90189581E04E
:104A50008093E00080E28093D8001092C9008FE13B
:104A60009EE40197F1F700C0000087E090EBDC01C5
:104A700080938C0690938D06A0938E06B0938F063C
:104A80009CE088E10FB6F894A895809360000FBE73
:104A900090936000FFCF0C94C6220E94A3068FEB78
:104AA0009DE50197F1F700C000000E94A30680E099
:104AB0000E94430680FF04C00E944B250C942725CA
:104AC00008950E94CC22811102C00E9473230E948B
:104AD000D7228093CE040E94DF2290937E0680939B
:104AE0007D060E94DB22682F70E080E090E00E944B
:104AF0003F206091A1047091A2048091A304909141
:104B0000A4040C9477208091D60480FF0BC06091A0
:104B1000250285E0689FB00111247595679575950C
:104B200067952BC081FF09C06091250285E0689FD1
:104B3000B00111247595679520C082FF07C0609170
:104B4000250285E0689FB001112417C09091D5041B
:104B50009923D1F060912402961788F720912502BD
:104B600085E0289F90011124929FA001939F500DF2
:104B7000112470E0CA010E94172F6038710540F4BB
:104B80006115710519F406C065E070E0862F08957F
:104B90008FE7089581E008958091D60480FF08C0D2
:104BA0006091210270E0759567957595679521C0B4
:104BB00081FF06C06091210270E07595679519C06C
:104BC00082FF04C06091210270E010C09091D40473
:104BD000992399F0609120029617A0F78091210205
:104BE000899FC001112470E00E94172F6038710561
:104BF00040F46115710519F406C061E070E0862F7C
:104C000008958FE7089581E00895803F21F40E9480
:104C10008325819504C0813F29F40E9483258093D8
:104C2000DA040895823F21F40E948325819504C00F
:104C3000833F29F40E9483258093D9040895893FF6
:104C400019F40E94CC2505C08A3F31F40E94CC257E
:104C500081958093DB0408958B3F21F40E94CC253D
:104C6000819504C08C3F29F40E94CC258093DC04FC
:104C70000895843F21F48091D804816017C0853F56
:104C800021F48091D804826011C0863F21F4809184
:104C9000D80484600BC0873F21F48091D8048860D9
:104CA00005C0883F31F48091D80480618093D80496
:104CB00008958D3F21F48091D60481600BC08E3F12
:104CC00021F48091D604826005C08F3F29F4809141
:104CD000D60484608093D6040895803F39F480918F
:104CE000DA0487FF6AC01092DA0467C0813F29F4B2
:104CF0008091DA041816BCF360C09091D904823F09
:104D000029F497FF5AC01092D90457C0833F19F471
:104D10001916CCF352C09091DB04893F31F4191677
:104D20000CF04BC01092DB0448C08A3F19F497FF87
:104D300044C0F8CF8B3F39F48091DC0487FF3DC03D
:104D40001092DC043AC08C3F29F48091DC041816E0
:104D5000BCF333C0843F21F48091D8048E7F17C008
:104D6000853F21F48091D8048D7F11C0863F21F4C6
:104D70008091D8048B7F0BC0873F21F48091D804A9
:104D8000877F05C0883F31F48091D8048F7E80935F
:104D9000D80413C08D3F21F48091D6048E7F0BC0C0
:104DA0008E3F21F48091D6048D7F05C08F3F29F47A
:104DB0008091D6048B7F8093D6048091D904811191
:104DC00006C08091DA04811102C01092D50480914E
:104DD000DB04811106C08091DC04811102C01092B5
:104DE000D40408950E94BE242091D904211104C046
:104DF0002091DA04222321F09093D3048093D204EB
:104E00002091DB04211104C02091DC04222321F035
:104E10009093D1048093D00487ED94E00C94D11743
:104E2000EF92FF920F931F93CF93DF9300D000D0A8
:104E300000D0CDB7DEB786E0E7EDF4E0DE011196F5
:104E400001900D928A95E1F7E090D904F090DA0490
:104E50000091DB041091DC041092D9041092DA0462
:104E60001092DB041092DC04E11003C0FF2009F46F
:104E70005DC08091D2049091D3040E94D624AC01ED
:104E80009091D504992339F02091260230E024171F
:104E9000350758F04BC0209127028AE0289F9001E7
:104EA00011242417350718F041C09F3F19F09F5F68
:104EB0009093D504EE2061F00E9483251E1414F017
:104EC0009FEF01C091E0989F902D11249093D904F9
:104ED000FF2061F00E9483251F1414F09FEF01C092
:104EE00091E0989F902D11249093DA043091D90489
:104EF0003323E1F02091DA042223C1F045EB34039F
:104F0000C0011124992319F09093D90403C081E0C2
:104F10008093D90435EB2303C0011124992319F0A0
:104F20009093DA0403C081E08093DA04011103C096
:104F3000112309F45DC08091D0049091D1040E94A6
:104F4000D624AC019091D404992339F02091220207
:104F500030E02417350758F04BC0209123028AE037
:104F6000289F900111242417350718F041C09F3F56
:104F700019F09F5F9093D404002361F00E94CC2528
:104F8000101614F09FEF01C091E0989F902D11240E
:104F90009093DB04112361F00E94CC25111614F0CC
:104FA0009FEF01C091E0989F902D11249093DC0415
:104FB0003091DB043323E1F02091DC042223C1F0A3
:104FC00045EB3403C0011124992319F09093DB04BD
:104FD00003C081E08093DB0435EB2303C00111247F
:104FE000992319F09093DC0403C081E08093DC04E2
:104FF0008091D90481110BC08091DA04811107C01E
:105000008091DB04811103C08091DC0481110E9436
:10501000F226EB82FC820D831E8386E0FE01319630
:10502000A7EDB4E001900D928A95E1F726960FB6B0
:10503000F894DEBF0FBECDBFDF91CF911F910F91CE
:10504000FF90EF900895E7EDF4E086E0DF011D9218
:105050008A95E9F71092D5041092D4041092D604E0
:1050600008958091FD040895CF93DF9300D01F929F
:10507000CDB7DEB790918306943019F589837B8391
:105080006A8382E08093E9008FEF9091E80081507D
:1050900095FD06C095ED9A95F1F700008111F5CFC9
:1050A0008091E80085FF0DC040E050E063E070E0D3
:1050B000CE0101960E94652A8091E8008E77809348
:1050C000E8000F900F900F90DF91CF910895BC01F1
:1050D00084E00C943428BC0183E00C94342822E052
:1050E0002093E9002FEF3091E800215035FD06C0F4
:1050F00035ED3A95F1F700002111F5CF2091E80048
:1051000025FF0BC040E050E066E070E00E94652A99
:105110008091E8008E778093E8000895CF93DF9325
:1051200020913202222339F020917D0627FF03C00F
:1051300060E222E002C068E021E02093E9002FEF66
:105140003091E800215035FD06C035ED3A95F1F774
:1051500000002111F5CF2091E80025FF1DC0EC01D2
:1051600080913202811105C040E050E068E070E0BB
:1051700003C070E040E050E0CE010E94652A8091BB
:10518000E8008E778093E80080E2FE01ADEDB4E0A8
:1051900001900D928A95E1F7DF91CF91089580916A
:1051A0008206811109C00E94F62B0E94532C809127
:1051B000E20084608093E2000895109282060895D0
:1051C000089508950C94842442E061EC81E00E94EB
:1051D0006F2B42E261EC82E00C946F2B809185068C
:1051E000833009F460C030F4813071F0823009F40A
:1051F00099C008958A3009F485C08B3009F46BC0DA
:10520000893009F0A7C020C080918406813A09F056
:10521000A1C08091E800877F8093E8008091880694
:1052200090918906892B21F460E28DED94E003C012
:1052300060E080E090E070E00E94B02A8091E80099
:105240008B778093E800089580918406813209F07D
:1052500081C08091880690918906029708F07AC0F3
:105260008091E800877F8093E8008091E80082FDCC
:1052700005C0809183068111F8CF6CC02091F300A6
:105280008091F20090E0922B029729F48091F10036
:105290008B7F813021F48091F1008093FD04809117
:1052A000E8008B7753C080918406813A09F052C0A0
:1052B0008091880690918906892B09F04BC08091D6
:1052C000E800877F8093E8008091E80080FFFCCFB2
:1052D0008091320236C0809184068132D9F5809166
:1052E000880690918906892BA9F58091E800877F2F
:1052F0008093E8000E94A42B80918606809332025E
:105300000C94461C80918406813221F58091E8003E
:10531000877F8093E8000E94A42B8091870680936A
:10532000FE04089580918406813AA1F48091E800FA
:10533000877F8093E8008091E80080FFFCCF809118
:10534000FE048093F1008091E8008E778093E8005E
:105350000C94A42B089584B7877F84BF0FB6F8946C
:10536000A895809160008861809360001092600031
:105370000FBE90E080E80FB6F894809361009093A0
:1053800061000FBE0E9423180E94F62B0E94532C2E
:105390008091E20084608093E20078940E94E82E7D
:1053A0000E94291888E292E00E9499178091830652
:1053B000853069F40E945424809181068823B1F3DA
:1053C0000E943D24882391F30E944F2AEFCF0E9430
:1053D00031180E9417180E941618E8CF0C94F02973
:1053E000292F332723303105C9F060F421303105EE
:1053F00081F02230310509F04AC08BE390E020EDC6
:1054000034E049C02132310511F12232310579F100
:105410003EC082E190E02BE035E03DC0992781302D
:10542000910561F040F08230910559F0039779F5CC
:10543000E8EAF4E008C0ECECF4E005C0EAEBF4E0E4
:1054400002C0EEEAF4E0849190E09F0124C061156F
:10545000710541F061307105D1F489E090E02BEFE6
:1054600034E019C089E090E022EE34E014C0611508
:10547000710541F06130710551F48CEB90E02DE144
:1054800035E009C080E490E029ED35E004C080E01B
:1054900090E020E030E0FA0131832083089580E13C
:1054A00089BD82E189BD09B400FEFDCF8091D8009D
:1054B0008F7D8093D8008091E00082608093E0002F
:1054C0008091E00081FDFCCF0895CF92DF92EF92B2
:1054D000FF920F931F93CF93DF93EC018B017A011F
:1054E0000E94C32B811133C0E114F10439F0F7019C
:1054F00080819181081B190BC80FD91FC12CD12C99
:105500000115110519F18091E80085FD16C0809103
:10551000E8008E778093E800E114F10449F0F70188
:1055200080819181C80ED91ED182C08285E00FC0D2
:105530000E94C32B882321F30AC089918093F10034
:1055400001501109FFEFCF1ADF0ADACF80E0DF91B7
:10555000CF911F910F91FF90EF90DF90CF90089522
:1055600020918A0630918B062617370748F061157F
:10557000710539F42091E8002E772093E80001C0EE
:10558000B901FC0120E06115710579F18091830674
:105590008823F1F18530F1F18091E80083FD3CC072
:1055A0008091E80082FD2EC08091E80080FFEBCF63
:1055B0002091F3008091F20090E0922B611571052B
:1055C00051F08830910538F421912093F100615019
:1055D00071090196F3CF21E0089709F020E080914E
:1055E000E8008E778093E800CECF2111CFCF0AC09C
:1055F00080918306882361F0853061F08091E80016
:1056000083FD0AC08091E80082FFF2CF80E0089518
:1056100082E0089583E0089581E0089520918A064C
:1056200030918B062617370748F06115710539F45C
:105630002091E8002E772093E80001C0B901FC0119
:1056400020E06115710591F180918306882309F4AA
:1056500040C0853009F43FC08091E80083FD3DC023
:105660008091E80082FD2FC08091E80080FFE9CFA3
:105670002091F3008091F20090E0922B611571056A
:1056800059F08830910540F424912093F10031962F
:10569000615071090196F2CF21E0089709F020E0EE
:1056A0008091E8008E778093E800CBCF2111CCCF9A
:1056B0000AC080918306882361F0853061F0809173
:1056C000E80083FD0AC08091E80082FFF2CF80E00D
:1056D000089582E0089583E0089581E00895982F69
:1056E000973068F59093E900981739F07091EC00C5
:1056F0002091ED005091F00003C0242F762F50E050
:1057000021FD02C09F5FECCF3091EB003E7F3093D4
:10571000EB003091ED003D7F3093ED003091EB00D8
:1057200031603093EB007093EC002093ED005093C8
:10573000F0002091EE0027FDE5CF80E008958F7006
:105740008093E90081E008958091840687FF11C06D
:105750008091E80082FD05C0809183068111F8CF19
:1057600011C08091E8008B770BC08091830688235D
:1057700049F08091E80080FFF8CF8091E8008E77B3
:105780008093E80008952091E4003091E50095E6CB
:105790004091EC00842F817040FF23C08091E8008D
:1057A00080FD1DC080918306882399F0853099F093
:1057B0008091EB0085FD11C04091E4005091E5001F
:1057C0002417350729F3915011F09A01E1CF84E0B5
:1057D000089582E0089583E0089581E0089580E0CF
:1057E00008954091E80042FFDDCF08950E94642CA7
:1057F0000E946C2CE0EEF0E0808181608083E8ED17
:10580000F0E080818F77808319BCA7EDB0E08C91A8
:105810008E7F8C9380818F7E808310928206089584
:105820000F931F93CF93DF930E94642C0E946C2CE4
:10583000C8EDD0E088818F778883888180688883ED
:1058400088818F7D888319BC1092830610927F0611
:10585000109281061092800600EE10E0F80180811F
:105860008B7F808388818160888342E060E080E074
:105870000E946F2BE1EEF0E080818E7F8083E2EE6C
:10588000F0E0808181608083808188608083F8017E
:1058900080818E7F8083888180618883DF91CF9132
:1058A0001F910F910895E8EDF0E080818F7E808355
:1058B000E7EDF0E080818160808384E082BF81E059
:1058C000809382060C94102CE8EDF0E080818E7FAE
:1058D00080831092E20008951092DA001092E100A5
:1058E00008951F920F920FB60F9211242F933F939A
:1058F0004F935F936F937F938F939F93AF93BF93D8
:10590000EF93FF938091E10082FF0BC08091E20052
:1059100082FF07C08091E1008B7F8093E1000E94AD
:10592000E72E8091DA0080FF1FC08091D80080FFB1
:105930001BC08091DA008E7F8093DA008091D900BD
:1059400080FF0DC080E189BD82E189BD09B400FE00
:10595000FDCF81E0809383060E94CF2805C019BC4B
:10596000109283060E94DD288091E10080FF19C01B
:105970008091E20080FF15C08091E2008E7F8093CD
:10598000E2008091E20080618093E2008091D80083
:1059900080628093D80019BC85E0809383060E94C2
:1059A000E1288091E10084FF30C08091E20084FF13
:1059B0002CC080E189BD82E189BD09B400FEFDCF24
:1059C0008091D8008F7D8093D8008091E1008F7EF8
:1059D0008093E1008091E2008F7E8093E2008091CD
:1059E000E20081608093E20080917F06882311F0BD
:1059F00084E007C08091E30087FD02C081E001C020
:105A000083E0809383060E94E2288091E10083FF77
:105A100029C08091E20083FF25C08091E100877F4B
:105A20008093E10082E08093830610927F0680914C
:105A3000E1008E7F8093E1008091E2008E7F809371
:105A4000E2008091E20080618093E20042E060E049
:105A500080E00E946F2B8091F00088608093F000BE
:105A60000E94E028FF91EF91BF91AF919F918F919C
:105A70007F916F915F914F913F912F910F900FBE4A
:105A80000F901F9018951F920F920FB60F9211242E
:105A90002F933F934F935F936F937F938F939F9336
:105AA000AF93BF93CF93DF93EF93FF93C091E90040
:105AB000CF708091EC00D82FD17080FDD0E810928B
:105AC000E9008091F000877F8093F00078940E9435
:105AD000872D1092E9008091F00088608093F0009B
