:100000000C94010A0C944A0A0C944A0A0C944A0A69
:100010000C944A0A0C944A0A0C944A0A0C944A0A10
:100020000C944A0A0C944A0A0C944A0A0C94992D8E
:100030000C94482E0C94B8240C944A0A0C944A0A46
:100040000C944A0A0C944A0A0C944A0A0C942025EF
:100050000C944A0A0C944A0A0C944A0A0C944A0AD0
:100060000C944A0A0C944A0A0C944A0A0C944A0AC0
:100070000C944A0A2B0B2D0B380B2F0B310B330B27
:10008000350B370B3A0B3C0B3E0B490B400B420B2D
:10009000440B460B480B4B0B5F1A5F1A911A911ACF
:1000A000CF1AEF1A531C531C311B531CD21BD21BEB
:1000B000431C531C531C4C1CDF1BDF1BDF1BDF1BB3
:1000C000DF1BDF1BDF1BDF1BDF1BDF1BDF1BDF1B60
:1000D000DF1BDF1BDF1BDF1BF01BFE1B051C0C1CCB
:1000E000161CE21CE21CF41CF41CEB1CF41CF41C9B
:1000F000F41CE21CE21CF01CF41CF41CF01CB52ED9
:10010000DC2ECE2FDC2ECE2F282F4B2FCE2FA12F43
:10011000B02F290014001A000800150017001C0059
:1001200018000C00120013002A002B000400160017
:10013000070009000A000B000D000E000F0033003D
:100140003400E1001D001B0006001900050011002D
:10015000100036003700380028000351E000E200AC
:10016000E30001512C442C44025150005100520034
:100170004F0035001E001F00200021002200230038
:1001800024002500260027004C000000000000008D
:10019000000000000000000000002D002E00000004
:1001A000000001000000000000000000000000004E
:1001B00000002F00300031000000000000000000AF
:1001C0000000010000000000000050084E004B003D
:1001D0004F0800001E021F022002210222022302F9
:1001E0002402250226022702000000003A003B00FC
:1001F0003C003D003E003F00000000000000000009
:10020000000001004000410042004300440045005E
:1002100000000000000000000000000000000000DE
:1002200000000000000000000100000000000000CD
:1002300000000000C25CC35CC45CC95CCA5C000016
:10024000F400F000F5000000000000000000C55CB4
:10025000C65CCB5CCC5C0000F200F100F300000057
:10026000000000000000C75CC85CCD5CCE5CCF5CC9
:10027000D05CD15CD25CD35CD45C01000000000097
:1002800000000000000000000000FB00FA00F90080
:10029000FC000000BC00BB00AE000000000000003D
:1002A000000000000000000000000000810080004D
:1002B0007F000000000000000000000000000000BF
:1002C000000000000000000000000000000000002E
:1002D000000000000000000000000000000000001E
:1002E000000000000000000000000000000000000E
:1002F00000000100010001000100010001000100F7
:1003000001000100010001000100010001000100E5
:1003100001000100010001000100010001000100D5
:1003200001000100010001000100010001000100C5
:1003300001000100010001000100010001000100B5
:1010100001000000000000000000000000000000CF
:1010200000000000000000000000000000000000C0
:1010300000000000000000000000000000000000B0
:1010400000000000000000000000000000000000A0
:10105000000000000000000001000000000000008F
:101060000000000000000000000000000000000080
:10107000000000047F3F1F643214643214783C1E69
:101080001E140A052223252628292A2C2D2F30322A
:10109000333536383A3B3D3E4042434547494A4C5A
:1010A0004E5051535557595A5C5E60626466686988
:1010B0006B6D6F71737577797B7D7F818385878990
:1010C0008A8C8E90929496989A9C9E9FA1A3A5A795
:1010D000A8AAACAEAFB1B3B4B6B8B9BBBCBEBFC1C1
:1010E000C2C3C5C6C7C9CACBCCCDCED0D1D2D2D34C
:1010F000D4D5D6D7D7D8D9D9DADADBDBDBDCDCDC60
:10110000DCDCDDDDDDDDDCDCDCDCDCDBDBDBDADA22
:10111000D9D9D8D7D7D6D5D4D3D2D2D1D0CECDCC99
:10112000CBCAC9C7C6C5C3C2C1BFBEBCBBB9B8B6AE
:10113000B4B3B1AFAEACAAA8A7A5A3A19F9E9C9A39
:1011400098969492908E8C8A89878583817F7D7B07
:1011500079777573716F6D6B6968666462605E5CE8
:101160005A5957555351504E4C4A494745434240AE
:101170003E3D3B3A3836353332302F2D2C2A292844
:1011800026252322FFAA7F55400000000000000012
:10119000000000010101010101010101020202023E
:1011A000020202020303030303030304040404040E
:1011B00005050505050606060606070707070808CC
:1011C00008080909090A0A0A0B0B0B0C0C0C0D0D77
:1011D0000D0E0E0E0F0F101010111112121313140A
:1011E00014151516161717181819191A1A1B1C1C7E
:1011F0001D1D1E1F1F2021212223232425252627D4
:101200002828292A2B2C2C2D2E2F30313132333403
:1012100035363738393A3B3C3D3E3F404142434406
:1012200045464748494B4C4D4E4F505253545557E5
:1012300058595A5C5D5E606163646567686A6B6C8F
:101240006E6F7172747677797A7C7D7F8182848605
:1012500087898B8D8E9092949597999B9D9FA1A243
:10126000A4A6A8AAACAEB0B2B4B6B9BBBDBFC1C348
:10127000C5C8CACCCED0D3D5D7DADCDEE1E3E6E808
:10128000EAEDEFF2F4F7F9FCFF0403300000000E82
:101290000355005400340037002E003200000010C7
:1012A000034B006500790068006900760065000066
:1012B000000403090409023B00020100A0FA09042A
:1012C0000000010301010009211101000122400079
:1012D0000705810308000A0904010001030000005A
:1012E00009211101000122C0000705820320000A24
:1012F0001201100100000008EDFE000001000102D3
:10130000030105010902A10185020901A1000509E6
:101310001901290515002501950575018102950121
:10132000750381010501093009311581257F950279
:101330007508810609381581257F95017508810694
:10134000050C0A38021581257F950175088106C0B4
:10135000C005010980A10185031601002603001ABA
:1013600081002A8300751095018100C0050C0901D8
:10137000A1018504160100269C021A01002A9C0284
:10138000751095018100C005010906A101850505BB
:101390000719E029E7150025019508750181020567
:1013A00008190129059505750191029501750391AB
:1013B000010507190029EF1500250195F075018138
:1013C00002C005010906A101050719E029E715007A
:1013D00025019508750181029501750881010508AF
:1013E0001901290595057501910295017503910172
:1013F0000507190029FF150026FF009506750881CD
:1014000000C011241FBECFEFD4E0DEBFCDBF04B6B5
:1014100003FE29C08091730290917402A09175021D
:10142000B09176028730904BA740B04BE1F4109218
:10143000730210927402109275021092760214BE1A
:1014400084B7877F84BF0FB6F894A8958091600019
:10145000886180936000109260000FBEE09162028C
:10146000F0916302099411E0A0E0B1E0E2E4F1E65A
:1014700002C005900D92A835B107D9F722E0A8E582
:10148000B1E001C01D92A337B207E1F70E94D92A4B
:101490000C949F300C9400000C943E0F0C943F0F62
:1014A00081E0089581E008950C94520A1F93CF9330
:1014B000DF9300D000D01F92CDB7DEB749835A83A7
:1014C00020918C0189819A81211112C0662349F0F3
:1014D0000E942022182F682F89819A810E94BF21A3
:1014E00003C00E94F121182F69817A81812F04C0E5
:1014F0000E94202269817A810F900F900F900F90A7
:101500000F90DF91CF911F910C94BC0CFC01408196
:1015100051816281738184810C94560A0E94502308
:10152000811102C00E94D4230C944C0A0C944E0AE0
:1015300008950C94980A0C94990A08950E94D21C5C
:101540000E949D0A2FEF84E39CE021508040904050
:10155000E1F700C000000C9446250F931F93CF9332
:10156000DF938C010E94860AEC01B8010E94540AA4
:10157000882309F4F7C1B801CE010E94D31688234D
:1015800009F4F0C1CA3CFCE5DF0741F4F8018281AF
:10159000882309F4E7C10E942F13E4C1CB3C8CE5FA
:1015A000D80708F012C1C33C9CE5D90761F4F801E3
:1015B0008281882309F4D6C10E94A0228272E1F0C0
:1015C0000E944715CFC1C43CECE5DE07C0F0C63C25
:1015D0009CE5D90709F4CAC008F0DCC0C43CFCE5AE
:1015E000DF0709F0CBC0F8018281882309F4BAC172
:1015F0000E94A022827221F30E943A15B3C1C53124
:10160000FCE5DF0708F07BC0C2308CE5D80708F4A2
:1016100052C0F8018281882309F454C00E945023EB
:10162000811102C00E94D4230E946D2390E0909308
:10163000650280936402FE01E350FC45E231F1054E
:1016400030F4E65CFF4F809164020C94443080914A
:101650006402816027C0826025C0846023C08061ED
:1016600021C080621FC080641DC080681BC0846070
:10167000886018C08E7F16C08D7F14C08B7F12C00B
:101680008F7E10C08F7D0EC08F7B0CC08F770AC0FD
:101690008B7F877F07C087FB222720F991E0922765
:1016A00090FB87F980936402809164020E94712309
:1016B0000E94D21C57C1C1159CE5D90751F0C13019
:1016C000DC4579F0C801DF91CF911F910F910C9407
:1016D000500AF8018281882309F444C10E949E0ABD
:1016E00041C1F8018281882309F43CC18091100234
:1016F000982F909590FB80F98093100233C1C631EA
:10170000FCE5DF0739F50E94A022282FF80182812D
:101710004091100150911101882379F02A7A91E0CB
:1017200009F490E090935801911102C069E201C060
:1017300065E3CA010E943B240AC0809158018111CF
:1017400002C069E201C065E3CA010E9446240E940A
:10175000EC2208C1C23CDC4509F0B4CFF80182811B
:10176000882309F4FFC00E945515FCC0F80182814E
:10177000882309F4F7C00E94F312F4C0C53CDC458D
:1017800009F0A0CFF8018281882309F4EBC00E9400
:10179000E612E8C0F8018281C83CFCE5DF0731F4BD
:1017A000882309F4DFC00E941113DCC0C93CDC456A
:1017B00030F4882309F4D6C00E940213D3C08823D2
:1017C00009F4D0C00E942013CDC0C13DECE5DE0776
:1017D00091F4F8018281882309F4C4C00E945A114F
:1017E0008F3028F00E945A11843108F405CF8FE021
:1017F0000E944A15B7C0C23DFCE5DF0708F05AC099
:10180000CD3C8CE5D80739F4F8018281882309F4AE
:10181000A9C081E0EDCFCE3C9CE5D907C0F4CB3C1C
:10182000ECE5DE0741F4F8018281882309F49AC0CF
:101830000E94621197C0CC3CDC4509F043CFF8010F
:101840008281882309F48EC00E9473118BC0F80135
:101850008281CF3CFCE5DF0771F4882309F482C064
:101860000E945A11863028F00E945A11883008F4DC
:10187000C3CE86E0BDCFC03DDC4570F4882309F4BB
:1018800071C00E945A11823028F00E945A1185308E
:1018900008F4B2CE82E0ACCF882309F463C00E9482
:1018A0005A11893028F00E945A118E3008F4A4CEC3
:1018B00089E09ECFC53DECE5DE0739F4F801828171
:1018C000882309F44FC083E293CFC63DFCE5DF07D0
:1018D00040F5F8018281C33DFCE5DF0729F4882348
:1018E00009F440C088E184CFC43DDC4568F4882316
:1018F000C9F10E945A11853128F00E945A1187318E
:1019000008F47ACE85E174CF882361F10E945A11E0
:10191000893128F00E945A11823208F46DCE89E193
:1019200067CFCD3DECE5DE0741F4F80182818823E5
:10193000C9F082E00E947A2B15C0CE3DFCE5DF079E
:1019400039F4F8018281882369F00E94D4230AC007
:10195000CC3DDC4509F0B6CEF8018281882311F038
:1019600080E0E8CF80E0DF91CF911F910F91089543
:1019700080E090E0089508959B0190E060E370E0BE
:101980000E940B30FC01832F90E06CE070E00E941D
:101990000B308E0F9F1FFC01E20FF11DEE0FFF1F9A
:1019A000EE5EFE4F859194910895880F991FFC017A
:1019B000EE58FF4E859194910895CF93DF930E9446
:1019C000BC0C0E949E0EEC01811520E5920708F0E8
:1019D0003FC0811530E4930708F02AC1883E910585
:1019E00000F5803E910508F0A5C1883A910570F494
:1019F000853A910508F0A4C08130910509F49AC197
:101A000008F44BC1049708F095C147C18F3B91057D
:101A100008F4A1C0803C910508F43FC1805C9109A5
:101A2000F9C0C11580E2D80758F4C11521E0D207EA
:101A300008F080C1C03FD10508F42FC1D0657AC13C
:101A4000C11530E3D30708F0E9C0CE019F70E2C0B2
:101A5000C11585E5D80708F047C0C11524E5D207B0
:101A600008F0FFC0C11532E5D30718F5C11581E5AF
:101A7000D80708F0E0C02C2F237081E090E002C06E
:101A8000880F991F2A95E2F79C689E01F4E036952D
:101A90002795FA95E1F72370922BCF70C695C695DE
:101AA000D0E0A5E0CC0FDD1FAA95E1F7C82BD92B1C
:101AB00041C12C2F26952695CE0183709927C115FB
:101AC000D34508F0BDC030E075E0220F331F7A9592
:101AD000E1F7C1E0D0E002C0CC0FDD1F8A95E2F74C
:101AE000C22BD32BDC6826C1C11589E5D807A0F429
:101AF000C11528E5D20708F0B9C0C11536E5D307EE
:101B000008F0CBC08C2F0E941B0F8F71C82FD0E024
:101B1000DC2FCC27D0620EC1C1158AE5D80708F4A6
:101B2000AAC0CE0190568115904208F0B6C08D2F04
:101B30008F710E941B0FDD27D0628F71D82BFAC0E6
:101B4000853A910509F4ACC0863A910509F0ABC01D
:101B5000C2E8D0E4EFC0883A910509F4A7C0893AF9
:101B6000910509F4A6C08A3A910509F4A5C08B3AFB
:101B7000910509F4A4C08C3A910509F4A3C08B3BEC
:101B8000910509F4A2C08C3B910509F4A1C08D3ADE
:101B9000910509F4A0C0803B910509F49FC08E3ADD
:101BA000910509F49EC08F3A910509F49DC0813BCF
:101BB000910509F49CC0823B910509F49BC0833BCD
:101BC000910509F49AC0843B910509F499C0853BBD
:101BD000910509F498C0863B910509F497C0873BAD
:101BE000910509F496C0883B910509F495C0893B9D
:101BF000910509F494C08D3B910509F493C08E3B87
:101C0000910509F492C08A3B910509F491C0C0E0A6
:101C1000D4E490C00E94D50CEC018CC0CE01992771
:101C2000D3FF03C0EC01D86C85C0EC01D06C82C03E
:101C3000DF70D06A7FC0DC2FCC27C16FD06A7AC03A
:101C400030E065E0220F331F6A95E1F7C1E0D0E094
:101C500002C0CC0FDD1F8A95E2F7C22BD32BDA68C6
:101C600069C0DC2FCC27C46FD06A64C0DC2FCC27BE
:101C7000C06FD06A5FC08C2F8F700E941B0F94E0E2
:101C8000D695C7959A95E1F7CF70D0E0DC2FCC2799
:101C9000D06A8F70806EC82B4DC0C0E0D0E04AC0C3
:101CA000C1E8D0E447C0C3E8D0E444C0C2EED4E405
:101CB00041C0C9EED4E43EC0CAEED4E43BC0C5EB9B
:101CC000D4E438C0C6EBD4E435C0C3EBD4E432C0AE
:101CD000C4EBD4E42FC0C7EBD4E42CC0CCECD4E4E8
:101CE00029C0CDECD4E426C0C3E8D5E423C0CAE8BB
:101CF000D5E420C0C2E9D5E41DC0C4E9D5E41AC0CA
:101D0000C1E2D6E417C0C3E2D6E414C0C4E2D6E40C
:101D100011C0C5E2D6E40EC0C6E2D6E40BC0C7E2ED
:101D2000D6E408C0CFE6D4E405C0C0E7D4E402C0DE
:101D3000CAE2D6E4CE01DF91CF91089582389105B1
:101D400049F1B0F48133910509F458C048F489325F
:101D5000910509F44EC08A32910509F454C00895E2
:101D60008533910509F440C08933910599F00895B0
:101D7000833E910529F138F4803E910591F0823E31
:101D80009105A1F00895863E9105F9F0873E9105F1
:101D900031F108952091640220FD3AC021FD38C040
:101DA00008958091640280FD35C032C08091640244
:101DB00082FF32C08091640284FD30C083EE39C05E
:101DC0008091640282FD28C0F5CF8091640283FF78
:101DD00027C08091640284FD21C087EE2AC08091D3
:101DE000640283FD1DC0F5CF8091640285FD1AC099
:101DF0001BC08091640285FD17C014C080916402ED
:101E000086FD14C015C08091640286FD11C00EC00D
:101E100080EE0FC089E30DC082EE0BC080E009C0E8
:101E200086EE07C089E205C085E303C08AE201C0EF
:101E300081E390E008959091640292FF0DC0282FF5
:101E40002871283019F4877F846006C0282F2471F8
:101E5000243011F48B7F886093FF0DC0282F2871E8
:101E6000283119F4877E846106C0282F247124311B
:101E700011F48B7E886194FD877E089508950895FE
:101E8000E82FF0E0EE0FFF1FE75AFE4F80819181AF
:101E900008950895EFE2F1E041E050E024E02E0FD4
:101EA0009191A92FA295AF70B0E091963C91919736
:101EB0009F70BA0102C0660F771F9A95E2F7CB01B7
:101EC0008095832391968C932E13EACFA3E2B1E001
:101ED00041E050E02CE02A0F8D91E82FE295EF7061
:101EE000F0E031A18F70BA0102C0660F771F8A95AA
:101EF000E2F7CB01962F9095932391A392A1892B82
:101F000082A32A13E9CF109262011092610110920C
:101F10005A011092590110926401109263011092BB
:101F20005C0110925B0110926601109265011092A3
:101F30005E0110925D01109268011092670110928B
:101F4000600110925F0184E00E943F100C948E0AA1
:101F50005F926F927F928F929F92AF92BF92CF9239
:101F6000DF92EF92FF920F931F93CF93DF930FE2D5
:101F700011E0A1E6B1E0612CEE24E394F12C5D01C7
:101F80008D909C90119711961C921E92E801899158
:101F90008E01E82FE295EF70F0E091A18F70A7011C
:101FA00001C0440F8A95EAF7892F842B81A382A16F
:101FB000542E5094852182A3D0EADA95F1F783E27A
:101FC000C82E81E0D82E80E090E0E60179906E0185
:101FD000272D22952F7030E0E90168A12D913C91C9
:101FE000119770E0D72DDF7002C075956795DA956F
:101FF000E2F760FD08C0B701082E02C0660F771F28
:102000000A94E2F702C060E070E0262B372B1196AD
:102010003C932E9301968C309105B9F681A1D52D74
:10202000D823D1A382A1482B42A3129681E0F501C7
:10203000208131818216930609F480E0682AF1E05C
:10204000A936BF0709F09BCF262D44E069E571E072
:1020500081E691E00E9440100E94960A862DDF9151
:10206000CF911F910F91FF90EF90DF90CF90BF9095
:10207000AF909F908F907F906F905F90089508959C
:10208000FF920F931F93CF93DF93F82E092F162FF4
:10209000D72FC42F222349F081E080936B010E9447
:1020A000EA2490936A018093690180916B018823EF
:1020B000D9F08091690190916A010E94F6240697F7
:1020C00098F0EF2DF02FA12FBD2F80E090E04C2F46
:1020D00050E08417950734F4219131912D933D936D
:1020E0000196F7CF10926B01DF91CF911F910F9165
:1020F000FF900895BF92CF92DF92EF92FF920F93DD
:102100001F93CF93DF93382FC82EE82FF0E0711183
:1021100006C0E757FE4E6491762F862F70C0C62FFB
:10212000D0E0072F10E0CE0166E070E00E940B3097
:10213000EE24EA94F12CB7010E941C30DB01CB01A4
:102140006BEA7FEF0E940B30CC0FDD1F8C0F9D1FC1
:10215000C82FCC0FC80FC701801B910BBF010E9475
:102160000B30492FB92ED0E0CE01B8010E940B30C0
:10217000692F70E0C701861B970BBF010E940B30CF
:10218000D92EC7018C1B9D0BB8010E940B30692F03
:1021900070E0C701861B970BBF010E940B30892F8F
:1021A000A230B10579F03CF41097D1F01197B1F459
:1021B000932F3D2D15C0A430B10561F03CF016976A
:1021C00079F00CC0932F342F482F0AC0342F4C2D98
:1021D0009D2D06C0942F432F382F02C09B2D4D2DCF
:1021E000E32FF0E0E757FE4E7491E92FF0E0E75758
:1021F000FE4E6491E42FF0E0E757FE4E8491DF91AC
:10220000CF911F910F91FF90EF90DF90CF90BF90F3
:1022100008950895CF93DF93762FE901682F842FD7
:102220000E947A10798368838A83DF91CF91089521
:1022300080913F02282F269530E02115310519F4B1
:102240008170826005C02532310524F08170886478
:1022500080933F02089588E090E00C945F30CF9324
:10226000DF9300D000D0CDB7DEB7AB01BC0149830E
:102270005A836B837C830E94181149815A816B8138
:102280007C8188E090E00F900F900F900F90DF918D
:10229000CF910C947D30EFE3F2E083E080831182F4
:1022A0008FEF828383831482608171818281938125
:1022B0000C942F1180913F0280FF02C086950895F3
:1022C00080E0089580914302833018F48F5F8093FB
:1022D000430260913F0270914002809141029091CF
:1022E00042020C942F1180914302882319F08150EF
:1022F0008093430260913F027091400280914102BD
:10230000909142020C942F11E0910401F0E0809131
:102310003F0280FF0CC08091700190E063E070E0AC
:102320000E940B30BF018C5B9D4F0C946316209173
:102330006F0130910301231770F7822F90E063E063
:1023400070E00E940B30DC01AC5BBD4F11961C921B
:1023500011971C9212961C922F5FEDCFA82FB62FCB
:1023600080913F0280FF16C020916F0130910301E0
:10237000231770F4822F90E063E070E00E940B302E
:10238000FC01EC5BFD4FA183B08342832F5FF0CF54
:102390000C9484110895CF93DF9300D01F92CDB792
:1023A000DEB790913F0290FF0AC09E012F5F3F4F22
:1023B0000E940A114B8169818A810E94AE110F909F
:1023C0000F900F90DF91CF910895CF93DF93EC01A1
:1023D000EC81F0E0EC57FF4E4491EFE3F2E06281D4
:1023E00081810E94CB118C818F5F8C83DF91CF9193
:1023F0000895CF93DF93EC01EFE3F2E04381628134
:102400008C810E94CB118C818F5F8C83DF91CF9167
:1024100008950F931F93CF93DF9300D01F92CDB7F2
:10242000DEB78C0180916C0181110AC09E012F5F83
:102430003F4F4FEF6FEF0E940A118A8180936C012A
:10244000F8018481813051F028F0823061F44091AC
:102450006C010AC080916C0140E007C060916C0182
:1024600040E080E003C040E080E060E00E94AE1108
:10247000F801248130E0C901019663E070E00E9418
:10248000303084830F900F900F90DF91CF911F9188
:102490000F910895AF92BF92CF92DF92EF92FF9289
:1024A0000F931F93CF93DF9300D01F92CDB7DEB76A
:1024B000182FF62E042FE22E90913F0290FF6EC04F
:1024C000E92FE695AE2FB0E0AD5CBE4F8C918093C6
:1024D00078019E7F923061F49E012F5F3F4F812FE4
:1024E0000E940A114B8169818A810E94AE1144C009
:1024F000823019F4009142023FC0863019F41091E5
:1025000040023AC08930D9F38931B1F5E9514E2FF3
:102510004170D42EE695F0E0EC57FE4EA590B490B5
:10252000C12CBB2440910201C41620F52C2D30E0B3
:10253000C901B5010E940B30642F70E00E941C306D
:10254000E12FD11002C0E60F01C0E61B80916F01A0
:10255000A901480F511DCA0163E070E00E940B30D1
:102560009C012C5B3D4F402F6F2D8E2F0E940A1136
:10257000C394D8CF0E94841110934002F09241027C
:1025800000934202EE2051F060913F0270914002B0
:1025900080914102909142020E942F110F900F9062
:1025A0000F90DF91CF911F910F91FF90EF90DF90EF
:1025B000CF90BF90AF900895EFE3F2E09181282F84
:1025C0004381628188E0890F0C944A1281E00C9467
:1025D000DC12EFE3F2E09181282F4381628188EFE2
:1025E000890F0C944A1281E00C94E912EFE3F2E0B7
:1025F000628128E0620F08F46FEF282F4381818108
:102600000C944A1281E00C94F612EFE3F2E062813E
:1026100028E0621B08F460E0282F438181810C943C
:102620004A1281E00C940513EFE3F2E0438128E0C5
:10263000420F08F44FEF282F628181810C944A12D7
:1026400081E00C941413EFE3F2E0438128E0421B95
:1026500008F440E0282F628181810C944A1281E0C5
:102660000C94231320E00C944A12EF92FF921F93D4
:10267000CF93DF93EC0110E0EE24EA94F12C30913B
:102680000201131700F590916F01892F90E0810FDF
:10269000911D63E070E00E940B30FC01EC5BFD4F8C
:1026A000632F70E0C7010E943030812F0E940230FA
:1026B0009C819F014091420260914102890F0E94DA
:1026C0000A111F5FDCCF0E9484118A819C8180FFE8
:1026D00002C09F5F01C091509C83DF91CF911F91F9
:1026E000FF90EF900895BF92CF92DF92EF92FF920A
:1026F0000F931F93CF93DF93FC01828180FF02C071
:10270000DFEF01C0D1E0C0E080910201C817E0F521
:10271000CC2ED12C80916F019601280F311DC9015B
:1027200063E070E00E940B308C5B9D4F7C01FC01EC
:1027300011821082128204E010E0B12C40916E01EF
:102740004B0D47FF03C080910201480F042E000C7F
:10275000550BC416D50691F48091420290E0B80161
:102760000E940B3095958795959587959701482FF1
:1027700060914102809140020E940A11BD0E0150F9
:102780001109E1F6CF5FC0CF0E94841180916E01E4
:10279000D13031F4811102C080910201815007C013
:1027A00090E001966091020170E00E9430308093C9
:1027B0006E01DF91CF911F910F91FF90EF90DF900D
:1027C000CF90BF900895CF9320916F013091030176
:1027D000231770F4822F90E063E070E00E940B30CA
:1027E000FC01EC5BFD4F1182108212822F5FF0CF53
:1027F000C0E060910201C61798F5EC2FF0E070E0A0
:10280000CF010E94303090916F01980F20916D019F
:10281000022E000C330B892F90E063E070E00E94E1
:102820000B30E217F307A4F020910101022E000CF7
:10283000330B2E173F0764F09C012C5B3D4F4091FA
:10284000420260914102809140020E940A1106C03A
:10285000FC01EC5BFD4F118210821282CF5FC9CF69
:102860000E9484112091000180916D01820F80935C
:102870006D0190910101920F9093010119165CF482
:10288000082E000C990B4091020150E04150510973
:10289000841795071CF0219520930001CF9108958E
:1028A0000F931F93CF938C01FC01248135812F5FFF
:1028B0003F4F2170332735832483C0E0809102018C
:1028C000C817F8F480916F0190E08C0F911D63E0C0
:1028D00070E00E940B309C012C5B3D4F4C2F4695C5
:1028E000F80184819581840F911D817065E50E94B6
:1028F000023040914202609141020E940A11CF5F72
:10290000DDCFCF911F910F910C9484110F931F93E2
:10291000CF93DF93EC0100E010E040910201842F9F
:1029200090E0081719072CF580916F019801280F86
:10293000311DC90163E070E00E940B309C012C5BEB
:102940003D4F469550E08C81041715071CF48823F1
:1029500031F002C0811103C04091420201C040E049
:1029600060914102809140020E940A110F5F1F4F47
:10297000D4CF0E9484112C8130E02F5F3F4F217013
:1029800033272C83DF91CF911F910F910895EFE3AF
:10299000F2E080818E7F808360817181828193816A
:1029A0000E942F11109279012FEF80E792E02150C1
:1029B00080409040E1F700C000000C9484116091C9
:1029C0003F02669570E04BE050E085E091E00E94A8
:1029D0004A30892B19F481E0809379010E94EA241E
:1029E0009093720180937101089590913F0290FF3E
:1029F00035C09170811102C0926006C0853210F01E
:102A0000986402C0880F982B90933F02662351F080
:102A100060913F0270914002809141029091420288
:102A20000E942F1160913F02669570E04BE050E0EC
:102A300085E091E00E944A30892B19F010927901CB
:102A400002C00E94DF1481E0809374014091420231
:102A500060914102809140020C9432130895682FD6
:102A600090913F02969581E0890F853208F081E0D0
:102A70000C94F51481E00C942F15682F90913F026F
:102A800096958FEF890F09F484E20C94F51481E098
:102A90000C943D1561E00C94F514EFE3F2E08081B5
:102AA0008160808386950C944A1580913F0280FD59
:102AB0000C94C7140C944D1560E00C94F51480919F
:102AC0007701811133C080911002816080931002E0
:102AD0000E945023811104C00E94D4230E944B11F4
:102AE0000E942B1160933F02709340028093410239
:102AF000909342026E7F61F40E944B110E942B1151
:102B000060933F027093400280934102909342028F
:102B10000E9418111092790180913F0280FF03C03A
:102B200086950E945C1581E08093770108950F934C
:102B30001F93CF93DF9380917901882309F48CC090
:102B400080917801E0913F02E695E81BE0937301E4
:102B5000823049F4F0E0E058FF4EE491CE2FD0E00F
:102B600005EE11E149C0863049F4F0E0E358FF4E2C
:102B7000E491CE2FD0E009EF11E13EC0893051F44D
:102B8000E695F0E0E658FF4EE491CE2FD0E005E365
:102B900013E132C08F3051F4E695F0E0E958FF4E72
:102BA000E491CE2FD0E003E713E126C0853149F44C
:102BB000F0E0EC58FF4EE491CE2FD0E003EE13E1AD
:102BC0001BC0883181F0833239F4E2E7F0E1C5912E
:102BD000D49109E012E110C0843251F4C4EFD1E085
:102BE00006E814E109C0C8EED3E000E514E104C032
:102BF000C0EDD7E009E011E180917401882389F0EC
:102C0000109274010E94EA249E0120953095820F53
:102C1000931F90937201809371011092760110922C
:102C2000750180917101909172010E94F6248C17B8
:102C30009D0790F0E0917101F0917201CE0FDF1FBE
:102C4000D0937201C093710181E791E0F801DF91A7
:102C5000CF911F910F910994DF91CF911F910F9107
:102C6000089528B1342F3095232338B1432B3FB733
:102C7000F894FC01680F791FE617F70789F0819136
:102C800098E048B9000000C087FF28B9880F00000D
:102C900000C000C000C028B900C09A9591F7ECCFE1
:102CA0003FBF089527B1242B27B99B01220F331F63
:102CB000620F731F0E94311687EC90E00197F1F7C5
:102CC00000C00000089540E40C9452160F931F9327
:102CD000CF93DF93C62FD42F022FFC01828188234C
:102CE000C9F060937C010E94EA2490937B01809359
:102CF0007A0180E28C0F883008F050C0C77081E004
:102D000001C0880FCA95EAF7DF91CF911F910F910B
:102D10000C941B1A10917C01161330C080917A011B
:102D200090917B010E94F624883C910538F5C0E221
:102D3000CD0F1D17B9F080E2810F883040F4177075
:102D400081E001C0880F1A95EAF70E94221AC83064
:102D500048F481E09D2F977001C0880F9A95EAF79B
:102D60000E941B1A802F0E94081AC830B8F4D7702E
:102D700081E001C0880FDA95EAF70AC080E28C0F83
:102D8000883060F4C77081E001C0880FCA95EAF707
:102D9000DF91CF911F910F910C94221ADF91CF9167
:102DA0001F910F9108959C01CB01203F4CE5340702
:102DB000F9F078F4283DFCE53F07B9F0293D4CE5F2
:102DC000340711F1273D3C4531F526E241EE61EE35
:102DD0001EC0223FFCE53F0799F070F0233F3C45C1
:102DE000D1F427E245EE66EE12C027E245EE0EC0B2
:102DF00026E241EE60EE0BC027E245EE64EE07C02E
:102E000026E241EE62EE03C028E241E065EE0E9458
:102E1000661680E00895FC018281882319F01092E3
:102E20007C01089581E0089590938201809381014F
:102E30000895E0918101F0918201309721F0019095
:102E4000F081E02D099480E00895E0918101F091F6
:102E50008201309799F020912201222359F020918C
:102E6000640227FF07C0DC012C9111962C93119767
:102E700025E02C930280F381E02D09940895E091E0
:102E80008101F0918201309739F022E0DC012C932E
:102E90000480F581E02D0994089520917F013091FF
:102EA00080018217930771F09093800180937F01D6
:102EB000E0918101F0918201309721F00680F78145
:102EC000E02D0994089520917D0130917E018217B3
:102ED000930771F090937E0180937D01E0918101D1
:102EE000F0918201309721F00084F185E02D099462
:102EF0000895089508950C947A1708950C947D17F9
:102F00000E9479170C947B1781E008950E94E124B8
:102F10000E944A0F0E94D2250E945F150C947E17D2
:102F20004F925F927F928F929F92AF92BF92CF9279
:102F3000DF92EF92FF920F931F93CF93DF93CDB762
:102F4000DEB72A970FB6F894DEBF0FBECDBF0E9442
:102F5000A80F0E948417811111C08FEF89838A8383
:102F60001B820E94EA248160782F9D838C83498193
:102F70005A816B818D810E944E1857C094E8C92EEA
:102F800091E0D92E00E010E0AA24A394B12C702E79
:102F9000802F0E94400F4C01F601419051906F012B
:102FA000482659264114510431F40F5F1F4F043055
:102FB000110569F7D2CF8091100281FD0E94490F5F
:102FC00020E030E07501022E02C0EE0CFF1C0A94D6
:102FD000E2F7C70184219521892B09F12E837F8295
:102FE0008E209F2091E0892809F490E098870E9424
:102FF000EA248160782F9A8789874E815F8168856E
:103000008A850E944E18000F111FF801EC57FE4FE1
:1030100080819181E826F926F182E08206C02F5F47
:103020003F4F2C30310571F6C0CF0E9479281091A6
:1030300083010E9419171817D9F00E94191780935D
:1030400083012A960FB6F894DEBF0FBECDBFDF9185
:10305000CF911F910F91FF90EF90DF90CF90BF9095
:10306000AF909F908F907F905F904F900C949B0AB1
:103070002A960FB6F894DEBF0FBECDBFDF91CF9179
:103080001F910F91FF90EF90DF90CF90BF90AF9086
:103090009F908F907F905F904F900895CF93DF9394
:1030A000CDB7DEB72B970FB6F894DEBF0FBECDBFFE
:1030B0004F83588769877A878B87DE01119686E070
:1030C000FD0111928A95E9F785E0FE01379601909E
:1030D0000D928A95E1F749815A816B817C818D81BE
:1030E0009E810E948B1F2B960FB6F894DEBF0FBEF9
:1030F000CDBFDF91CF910895FC01808191810E9425
:1031000061220895882309F41AC18238C1F40E940B
:10311000191781FD14C169E380911001909111018B
:103120000E943B240E94EC222FEF81EE94E021507C
:1031300080409040E1F700C0000069E319C0833887
:10314000F9F40E94191780FDFAC063E5809110011F
:10315000909111010E943B240E94EC222FEF81EEFE
:1031600094E0215080409040E1F700C0000063E50A
:1031700080911001909111010E9446240C94EC2240
:103180008438C1F40E94191782FDD9C067E4809188
:103190001001909111010E943B240E94EC222FEF1C
:1031A00081EE94E0215080409040E1F700C00000A3
:1031B00067E4DECF9CEF980F913A40F4682F80913E
:1031C0001001909111010E943B24D8CF90E2980FFA
:1031D000983050F4877091E001C0990F8A95EAF712
:1031E000892F0E94A322CACF9BE5980F933070F4D9
:1031F000853A29F0863A31F083E890E005C081E80D
:1032000090E002C082E890E00C944D1798E5980F8A
:10321000973108F08EC0883A09F445C0893A09F41C
:1032200045C08A3A09F445C08B3A09F445C08C3A46
:1032300009F445C08B3B09F445C08C3B09F445C0FB
:103240008D3A09F445C0803B09F445C08E3A09F433
:1032500045C08F3A09F445C0813B09F445C0823B23
:1032600009F445C0833B09F445C0843B09F445C0DB
:10327000853B09F445C0863B09F445C0873B09F40A
:1032800045C0883B09F445C0893B09F445C08D3BE6
:1032900009F445C08E3B09F445C08A3B09F445C09A
:1032A00080E090E044C082EE90E041C089EE90E082
:1032B0003EC08AEE90E03BC085EB90E038C086EBE4
:1032C00090E035C083EB90E032C084EB90E02FC0FB
:1032D00087EB90E02CC08CEC90E029C08DEC90E066
:1032E00026C083E891E023C08AE891E020C082E90B
:1032F00091E01DC084E991E01AC081E292E017C01C
:1033000083E292E014C084E292E011C085E292E090
:103310000EC086E292E00BC087E292E008C08FE622
:1033200090E005C080E790E002C08AE292E00C9451
:103330006317803F20F00E9481270C946E28089527
:10334000882309F464C0823879F40E94191781FF38
:103350005EC069E380911001909111010E943B24AD
:103360000E94EC2269E310C08338B1F40E9419175F
:1033700080FF4DC063E580911001909111010E9482
:103380003B240E94EC2263E5809110019091110191
:103390000E9446240C94EC22843879F40E94191778
:1033A00082FF35C067E480911001909111010E9465
:1033B0003B240E94EC2267E4E7CF9CEF980F913A00
:1033C00010F4682FE1CF90E2980F983050F4877096
:1033D00091E001C0990F8A95EAF7892F0E94A922EE
:1033E000D9CF9BE5980F933020F480E090E00C94C7
:1033F0004D1798E5980F973120F480E090E00C94F9
:103400006317803F20F00E94E9270C946E280895EE
:10341000CF93C82F0E948218C93349F42FEF83EC51
:1034200099E0215080409040E1F700C000008C2FCF
:10343000CF910C94A019882321F00E94A3220C9410
:10344000EC220895882321F00E94A9220C94EC22FA
:1034500008954F925F926F927F92BF92CF92DF92C8
:10346000EF92FF920F931F93CF93DF937C01062F70
:10347000C72FFC01158112951F70D281D1110E94B6
:10348000C0220E949922882379F0DD2369F080E22E
:10349000800F883048F082E00E9437230E949922F2
:1034A00091E0B82EB92601C0B12CCC2EC2948FE089
:1034B000C822D12CF601E45BFF4F0C9444308C2FD2
:1034C000807FCF70882311F0C295C07FDD2399F0F3
:1034D000CC2309F4C3C180E2800F883010F00111C1
:1034E00004C08C2F0E94A32203C08C2F0E94B32201
:1034F0000E94EC22B3C1802F0E94A019CC2309F4B2
:10350000D2C180E2800F883010F0011104C08C2FEE
:103510000E94A92203C08C2F0E94B9220E94EC2293
:10352000C2C18C2F807FCF70803211F0C295C07FD6
:10353000002319F00130C9F022C0DD2371F01123FE
:1035400041F0113031F40E94D3228C2B0E94D922F9
:10355000AAC10E94D3228C2B3AC1112319F0113039
:1035600009F4A1C10E94E22218C0DD2321F0163027
:1035700008F099C10EC0153008F095C10EC0DD23CA
:1035800051F0112331F0F701858180FF67C18F7001
:1035900085838C2F1CC1111172C18C2F1EC18C2FE1
:1035A00086958695837090E0009719F0019761F0F9
:1035B0007AC1DD2321F0802F9C2F937002C080E020
:1035C00090E00E944D177FC1DD2321F0802F9C2FBA
:1035D000937002C080E090E00E94631774C1DD2305
:1035E000F9F0053F51F0063F71F0043FA9F48091D6
:1035F0005C0290915D0281600BC080915C029091B1
:103600005D02826005C080915C0290915D028460E1
:1036100090935D0280935C02802F0E9481271EC0E0
:10362000053F51F0063F71F0043FA9F480915C0220
:1036300090915D028E7F0BC080915C0290915D0243
:103640008D7F05C080915C0290915D028B7F90938D
:103650005D0280935C02802F0E94E9270E946E2801
:1036600032C18C2F837009F04BC0D11128C1202F9B
:10367000229526952770220F220F602F6F70862FBC
:1036800090E0A0E0B0E02C013D01022E04C0440C0B
:10369000551C661C771C0A94D2F704FF10C08FE0FB
:1036A00090E0A0E0B0E004C0880F991FAA1FBB1FE4
:1036B0002A95D2F780959095A095B09503C080E0AB
:1036C00090E0DC01C695C695C370D0E0BC01CD0189
:1036D0006429752986299729C230D10559F0C3304C
:1036E000D10559F0219719F00E94D420E8C00E941A
:1036F000C220E5C00E94E620E2C00E94C020DFC0D8
:10370000DD2319F08C2F817001C08695882309F480
:10371000D6C0202F229526952770220F220F602FCA
:103720006F70862F90E0A0E0B0E02C013D01022EEA
:1037300004C0440C551C661C771C0A94D2F704FF85
:1037400010C08FE090E0A0E0B0E004C0880F991FA7
:10375000AA1FBB1F2A95D2F780959095A095B0958A
:1037600003C080E090E0DC01C695C695C370D0E050
:10377000BC01CD016429752986299729C230D1055C
:1037800059F0C330D10559F0219719F00E949A21C0
:1037900096C00E94882193C00E94AC2190C00E94D4
:1037A000FB208DC0802F90E0FC01E05EF109E53147
:1037B000F10508F04FC0E45AFF4F0C9444300F70ED
:1037C0008C2F8F71DD2331F00E942121802F0E94E8
:1037D0001B1A69C00E944221802F0E94221A63C0D6
:1037E000DD2341F0153008F05EC08C2F8F710E94F0
:1037F000672159C0163008F056C0F7CFDD2339F0E5
:103800008C2F8F710E9421214EC0DD23C9F38C2F94
:103810008F710E94422147C0DD2329F08C2F8F71C8
:103820000E940C2140C00E9407213DC0DD2349F0C9
:10383000CF718C2F0E94212163E08C2F0E942223C4
:1038400032C081E00E943723123068F182E00E948A
:10385000372329C0DD2331F0112391F2802F0E94FC
:10386000821821C0112399F2093349F4FFEF23ECA8
:1038700089E0F15020408040E1F700C00000802F37
:103880000E94A01910C04C2F4F70602FC7010E94DA
:10389000B80C0E94332017C04C2F4F70602FC70107
:1038A0000E94BB0C10C098E0C916D10441F05CF036
:1038B000FAE0CF1AD10822E0C216D10420F40E9407
:1038C00019170E949B0ABB20F1F00E94952280FDEF
:1038D0001AC0F70112820E948F220E942121C70183
:1038E0000E94911C0E948F22DF91CF911F910F9116
:1038F000FF90EF90DF90CF90BF907F906F905F90A0
:103900004F900C944221DF91CF911F910F91FF9026
:10391000EF90DF90CF90BF907F906F905F904F902F
:1039200008950F931F93CF93DF93EC0188819981C2
:103930002B813C81232BB9F09F3F11F48F3F99F0ED
:10394000CE010E94AD0A882371F0688179818A8155
:103950000E946C228C010E94BE210E94BF20B801EF
:10396000CE010E94291ADF91CF911F910F910895E6
:103970000E94C0220E94D0220E94EC220E94202994
:103980000E946E2880E090E00E944D1780E090E059
:103990000C94631780911001909111010E945124A1
:1039A0000C94B81C0E94B0220C94CA1CE92FE2951A
:1039B000EF70F0E03297EE30F105B0F4EF58FF4FC2
:1039C0000C944430803F91F018F4803E68F40EC0AF
:1039D000843F51F40BC0803E48F0813F29F406C07B
:1039E00093FB882780F9089580E0089581E0089589
:1039F0000E9461220E94D61C0895CF93DF9300D0CD
:103A000000D01F92CDB7DEB70F900F900F900F90A0
:103A10000F90DF91CF910895CF93DF9300D000D026
:103A200000D0CDB7DEB726960FB6F894DEBF0FBE36
:103A3000CDBFDF91CF910895CF93DF93C0918D01DA
:103A400080918E01C817A1F0D0E0CE0166E070E051
:103A50000E940B30FC01E157FE4F40815181628191
:103A60007381848195810E940C1D2196C770E8CFD7
:103A7000DF91CF9108954091BF015091C0016091B5
:103A8000C1017091C2018091C3019091C4010C9455
:103A90000C1DCF93DF938091C40182958F7009F044
:103AA0005CC08091C101882309F457C020918D0129
:103AB000D0918E014091BF01C091C001E091C2013F
:103AC000F091C3012D1709F448C030E0309709F494
:103AD00040C0CF3F11F44F3FE1F1C90166E070E013
:103AE0000E940B30DC01A157BE4F11968C911197AB
:103AF000C8132FC08C9148132CC012968C9112972A
:103B0000811127C013968D919C9114978E179F0752
:103B100008F401978E1B9F0B883C9105D0F480918F
:103B2000C4018F7080618093C401C90166E070E0B8
:103B30000E940B30FC01EC56FE4F90819F7090610B
:103B400090838FEB91E00E94911CDF91CF910C94B8
:103B50001C1D2F5F3F4F2770B5CFDF91CF91089588
:103B6000BF92CF92DF92EF92FF920F931F93CF936A
:103B7000DF93CDB7DEB761970FB6F894DEBF0FBE07
:103B8000CDBF8C0185E0F801DE011D9601900D92FC
:103B90008A95E1F7D8014C9111962C9111971296C4
:103BA000EC9012971396CD90DC9014975091BF0132
:103BB0006091C0018091C2019091C301009709F406
:103BC0006EC16F3F19F45F3F09F469C1B090C10144
:103BD000BB2009F4C3C03091C401C816D90628F02F
:103BE000F601E81BF90BCF0104C0809590958C0D70
:103BF0009D1DFF24F394883C910588F0F12C307FC3
:103C000009F0CBC07C2DD98AC88A522F6E2D8989A4
:103C10000E94FD1C8FEB91E00E94911CB4C0832F89
:103C2000807F09F049C0621314C0541312C0E11020
:103C300010C03F7030613093C4010E943B1D8FEB78
:103C400091E00E94911C8091C401D80115968C933B
:103C500031C0CD2831F12F3F11F44F3F11F1FE2C2F
:103C6000E1101FC0E0918D0130918E01E31709F43E
:103C70005CC0F0E0CF0166E070E00E940B30DC0138
:103C8000A157BE4F11968C911197281307C08C91A4
:103C9000481304C012968C91811103C03196E770CD
:103CA000E5CFFE2CEE2009F425C18091C40181608E
:103CB0008093C401F12C1EC1621308C0541306C0C6
:103CC000E11004C08091C401D801C1C04D872E8786
:103CD0008D859E850E94F81C8823E1F1EE20D1F1AC
:103CE0002091C401822F82958F7090E0029774F02A
:103CF0008091BF019091C00198878F831986DB86E0
:103D0000CA862C87CE0107960E94911C86E0F80196
:103D1000AFEBB1E001900D928A95E1F70E94491D49
:103D20000E943B1DFF24F394E5C04D872E878D85AF
:103D30009E850E946122292F22952F7030E022302B
:103D400031050CF0CBC09F7009F0C5C0805E883093
:103D500008F4D0C0C8010E94911CE4CFC816D9064F
:103D600008F453C0F601E81BF90BCF01883C91051C
:103D700008F450C0F12C7C2DD98AC88A522F6E2DA0
:103D800089890E94FD1CEFEBF1E086E0DF011D92C6
:103D90008A95E9F70E943B1DADC0621314C054130D
:103DA00012C0E11010C08091C401F8018583C801E0
:103DB0000E94911C86E0EFEBF1E0DF011D928A95F5
:103DC000E9F7FB2C97C04D872E878D859E850E9435
:103DD000F81C882309F4BECFEE2009F4BBCF209154
:103DE000C401822F82958F7090E002970CF48ECFE1
:103DF0008091BF019091C0019A8389831B82DD82EB
:103E0000CC822E83CE0101967FCF809590958C0D2C
:103E10009D1DACCFFE2CEE2009F49CCF62132EC06A
:103E200054132CC02091C40120FD1FC0822F829505
:103E30008F70D9F0D80115962C9315978F3049F0D3
:103E40008F5F982F9295907F822F8F70892B159678
:103E50008C93C8010E94911C86E0F801AFEBB1E0A1
:103E600001900D928A95E1F795CF86E0F801AFEBCE
:103E7000B1E001900D928A95E1F73CC04D872E8705
:103E80008D859E850E94F81C811140CF8091C401D0
:103E900081608093C401C8010E94911C2BC0EE2058
:103EA00009F458CF4D872E878D859E850E94F81C7A
:103EB000F82E882309F44ECF86E0F801AFEBB1E08D
:103EC00001900D928A95E1F78FEB91E00E947C18AA
:103ED0000E94491D5FCF811139CF0CC024303105BC
:103EE0000CF038CF9F7009F431CFF8019581907FA5
:103EF00009F02CCF8F2D61960FB6F894DEBF0FBE60
:103F0000CDBFDF91CF911F910F91FF90EF90DF9088
:103F1000CF90BF900895CF93DF93CDB7DEB72C97A6
:103F20000FB6F894DEBF0FBECDBF4F8358876987A9
:103F30007A878B879C87CE0107960E94B01D8823C5
:103F400071F08F8198852A853B85232B09F43FC02A
:103F50009F3F09F068C08F3F09F065C038C086E018
:103F6000FE013796DE01119601900D928A95E1F7D8
:103F70006F817885EA85FB85309749F17F3F11F4A1
:103F80006F3F29F180918E0190E09C012F5F3F4FA0
:103F90002770332740918D0150E02417350709F42D
:103FA0004BC069837A83FD83EC8366E070E00E94F6
:103FB0000B30DC01A157BE4F96E0FE013196019017
:103FC0000D929A95E1F720938E010E941C1D80911D
:103FD0008D0190918E018917E9F190E066E070E023
:103FE0000E940B3081579E4F0E94B01D882391F193
:103FF00080918D0190E066E070E00E940B30FC0142
:10400000E157FE4F408151816281738184819581A6
:104010000E940C1D80918D0190E001968770992778
:1040200080938D01D4CF4F81588569857A858B85A2
:104030009C850E940C1DCBCF0E94D21C10928E0139
:1040400010928D01EFEBF1E086E0DF011D928A9581
:10405000E9F7BDCF2C960FB6F894DEBF0FBECDBFEB
:10406000DF91CF910895EF92FF920F931F93CF931B
:10407000DF938C01892B09F46CC0F12CEE24E394BE
:10408000E8012196F8018491843740F4843008F0E7
:1040900051C0813081F0823019F15BC0853709F45D
:1040A00044C0A8F19CE7980F903708F052C08F7772
:1040B0000E94A01941C00E5F1F4FFE01C49180E213
:1040C0008C0F883048F4C7708E2D01C0880FCA95B8
:1040D000EAF70E94C32214C08C2F0E9482182DC0C0
:1040E0000E5F1F4FFE01C49180E28C0F883058F4A0
:1040F000C7708E2D01C0880FCA95EAF70E94C922A9
:104100000E94EC221AC08C2F0E94A01916C00E5FCC
:104110001F4FFE01C491CC2381F08FE99FE00197EE
:10412000F1F700C00000C150F6CF0E5F1F4FFE0137
:10413000F49003C00E9482188E018F2D882309F409
:104140009FCFEFE9FFE03197F1F700C00000815009
:10415000F5CFDF91CF911F910F91FF90EF900895D0
:1041600008950C94B0200E94B1206093E7017093F1
:10417000E8018093E9019093EA010C94B81C08953A
:104180000C94B3200F931F930091E7011091E80165
:104190002091E9013091EA01602B712B822B932B46
:1041A0001F910F910C94B3200F931F930091E7017F
:1041B0001091E8012091E9013091EA016023712317
:1041C000822393231F910F910C94B3200F931F937D
:1041D0000091E7011091E8012091E9013091EA0195
:1041E00060277127822793271F910F910C94B3208A
:1041F00008950C94F8200E94F9206093E3017093D5
:10420000E4018093E5019093E6010C94B81C60E012
:1042100070E0CB010C94FB200F931F9341E050E022
:1042200060E070E08A019B0104C0000F111F221F93
:10423000331F8A95D2F7C901B8011F910F910C94D1
:10424000FB200F931F9341E050E060E070E004C05A
:10425000440F551F661F771F8A95D2F78091E3019F
:104260009091E401A091E501B091E6018A019B01E2
:10427000082B192B2A2B3B2BC901B8011F910F9139
:104280000C94FB200F931F9341E050E060E070E03E
:1042900004C0440F551F661F771F8A95D2F74095BB
:1042A0005095609570958091E3019091E401A09103
:1042B000E501B091E6018A019B01082319232A2315
:1042C0003B23C901B8011F910F910C94FB200F9360
:1042D0001F9341E050E060E070E004C0440F551FC0
:1042E000661F771F8A95D2F78091E3019091E401D0
:1042F000A091E501B091E6018A019B0108271927E9
:104300002A273B27C901B8011F910F910C94FB206C
:104310000F931F930091E3011091E4012091E501B7
:104320003091E601602B712B822B932B1F910F9103
:104330000C94FB200F931F930091E3011091E40173
:104340002091E5013091E6016023712382239323BC
:104350001F910F910C94FB200F931F930091E30189
:104360001091E4012091E5013091E6016027712769
:10437000822793271F910F910C94FB200895282FDB
:10438000362F892F6CE00E940230820F982F977091
:10439000A1E001C0AA0F9A95EAF7869586958695C1
:1043A00090E065E070E00E940B30FC01EB53FE4FA3
:1043B00040E050E0632F70E090819B01042E02C02A
:1043C000369527950A94E2F72170332721952927FE
:1043D0002A23292721934F5F5F4F4530510561F70D
:1043E0000895282F892F6CE00E940230820FA82F99
:1043F000A77086958695869590E065E070E00E94AE
:104400000B30BC0140E050E080E0FA01E60FF71FFE
:10441000EB53FE4F208130E00A2E02C036952795DF
:104420000A94E2F721703327042E01C0220F0A9468
:10443000EAF7822B4F5F5F4F4530510531F7089502
:10444000BF92CF92DF92EF92FF920F931F93CF9381
:10445000DF938C01C090E701D090E801E090E90182
:10446000F090EA018091E3019091E401A091E501CF
:10447000B091E601C82AD92AEA2AFB2ACFE1D0E086
:10448000D701C6010C2E04C0B695A79597958795C0
:104490000A94D2F780FF07C0BC2EB8018C2F0E946F
:1044A000DD0C019719F4219758F7B12C8B2DDF9172
:1044B000CF911F910F91FF90EF90DF90CF90BF9021
:1044C0000895CF93DF93EC010E942022BE010E9449
:1044D000DD0CDF91CF9108951F93CF93DF93EB0114
:1044E00090918C01992321F0CB010E94612213C08D
:1044F000882349F0CB010E942022182F682FCE017B
:104500000E94BF2104C0CB010E94F121182FBE01DF
:10451000812F0E94DD0CDF91CF911F910895809132
:10452000EB0185958595859508958091EB018770C0
:1045300008959091EB01977081E009F480E008956F
:1045400080910F02089590910F02892B80930F02A2
:104550000895809590910F02892380930F0208950A
:1045600010920F02089590910E02892B80930E02F3
:104570000895809590910E02892380930E020895EC
:1045800010920E02089590910D02892B80930D02D6
:104590000895809590910D02892380930D020895CE
:1045A00010920D0208958091EC01089508950C94E5
:1045B000D6229091EC01981721F08093EC010C9495
:1045C000D72208958091EC01882329F01092EC0104
:1045D00080E00C94D7220895E0911001F091110130
:1045E00080910F028083E0911001F0911101908180
:1045F00080910E02892B8083E0911001F0911101CE
:10460000908180910D02892B80838091EC01882319
:1046100081F0E0911001F09111019081892B80834C
:1046200080911001909111010E94D62381110E9466
:10463000E22280911001909111010C9425170895A8
:104640000C941F23982F990F990F990F692B609342
:10465000EB010E9421218091EB018595859585953F
:104660000C9420231092EB0180E00C9420232091E5
:10467000EB01809582238093EB01982F977079F45A
:1046800030E0482F082E000C550B2417350739F061
:104690008595859585950E9442210C943223089535
:1046A00080E090E00E94653021E08D3E9E4F09F051
:1046B00020E0822F089582E090E00C945730682F1C
:1046C00082E090E00C946B3083E090E00C945730E3
:1046D000682F83E090E00C946B3084E090E00C94C1
:1046E0005730682F84E090E00C946B30AB01BC0134
:1046F0008FE090E00C947D30AB01BC0183E190E051
:104700000C947D3060E070E0CB010C947C2360E081
:1047100070E0CB010E9476230C9482236DEE7EEF35
:1047200080E090E00E94893060E082E090E00E94AA
:104730006B3060E083E090E00E946B301092E70104
:104740001092E8011092E9011092EA0160E084E021
:1047500090E00E946B3060E085E090E00E946B305A
:1047600060E086E090E00E946B306FEF87E090E0C1
:104770000E946B3040E050E0BA0188E090E00E9477
:104780007D3060E08DE090E00E946B3040E050E0D2
:10479000BA0188E190E00E947D3060E087E190E01E
:1047A0000E946B300C9487230C948E23FC0132966C
:1047B00080912201882331F08091640287FF02C03A
:1047C0009EE101C096E080E0915028F021912223E3
:1047D000D9F38F5FF9CF08959C01FC0132969FEFCA
:1047E00080E04191461789F09F3F19F4411101C0C3
:1047F000982F8F5F8630A9F79F3F39F0F901E90FB5
:10480000F11D97FDFA95628308950895FC01329693
:1048100008962081261301C010823196E817F90707
:10482000C1F70895262F2695269526952E3168F4F2
:10483000FC01E20FF11D677021E030E001C0220FA2
:104840006A95EAF78281282B22830895262F2695E0
:10485000269526952E3170F4FC01E20FF11D67704C
:1048600021E030E001C0220F6A95EAF720958281AD
:1048700028232283089520912201222329F02091C8
:10488000640227FD0C9412240C94EC232091220145
:10489000222329F02091640227FD0C9426240C94F5
:1048A000062420912201FC013296222331F08091CE
:1048B000640287FF02C08EE101C086E0DF011D9225
:1048C0008A95E9F7089508950C9463240E9464245E
:1048D00080916A02843049F11092110220E488E14B
:1048E00090E00FB6F894A895809360000FBE2093D7
:1048F000600080E00E949B0A0E94642483B7817F4D
:10490000846083BF83B7816083BF7894889583B7C1
:104910008E7F83BF0FB6F894A89580916000886160
:1049200080936000109260000FBE0895089508956E
:10493000CF930E9496240E94A80F0E949724C0E063
:104940008C2F0E94400F892B29F4CF5FC430C1F710
:1049500080E001C081E0CF91089508950C94AD24CA
:104960000E94D21C0E9419170E949B0A0C94AE242C
:104970001F920F920FB60F9211248F939F93AF93B4
:10498000BF9380911102811113C080915E029091BA
:104990005F02A0916002B09161024196A11DB11D1C
:1049A00080935E0290935F02A0936002B0936102D5
:1049B000BF91AF919F918F910F900FBE0F901F905D
:1049C000189582E084BD93E095BD9AEF97BD8093E2
:1049D0006E0008952FB7F89480915E0290915F0267
:1049E000A0916002B09161022FBF0895CF92DF9233
:1049F000EF92FF920F931F932FB7F89440915E02AE
:104A000050915F0260916002709161022FBF6A0154
:104A10007B01EE24FF248C0120E030E0C016D1069B
:104A2000E206F30610F4415051099A01281B390B94
:104A3000C9011F910F91FF90EF90DF90CF900895E3
:104A400078941F920F920FB60F9211248F939F9319
:104A5000AF93BF9380915E0290915F02A09160023C
:104A6000B09161020196A11DB11D80935E029093E9
:104A70005F02A0936002B0936102BF91AF919F91DA
:104A80008F910F900FBE0F901F901895E3E0F0E00C
:104A900089E080935700E4918E2F867019F080E0B2
:104AA0009FE30CC0E2FF03C080E09EE307C0E1FF8C
:104AB00003C080E09CE302C080E098E3909363022F
:104AC0008093620281E08093E00080E28093D800CE
:104AD0001092C9008FE19EE40197F1F700C0000039
:104AE00087E090EBDC018093730290937402A093B3
:104AF0007502B09376029CE088E10FB6F894A89511
:104B0000809360000FBE90936000FFCFAF92BF9282
:104B1000CF92DF92EF92FF920F931F93CF93C0E05B
:104B2000CC24C394D12CE82EF12C8C2F0E94400F62
:104B30005C0100E010E09601002E02C0220F331F3E
:104B40000A94E2F72A213B21232B31F40F5F1F4FF8
:104B50000C30110581F70AC0602F7C2F80E00E9485
:104B6000BC0CE816F90691F781E004C0CF5FC430B1
:104B7000E1F680E0CF911F910F91FF90EF90DF90D1
:104B8000CF90BF90AF900895CF93C82F8CE20E9432
:104B90008625882321F08C2FCF910C94862580E0E8
:104BA000CF910895CF930E945023811102C00E949B
:104BB000D423C5E6C15049F00E94A80F8FE39CE9B9
:104BC0000197F1F700C00000F5CF89E20E94C425EB
:104BD00081110FC18AE20E94C42581110E94D42351
:104BE00085E00E94C42581110E9446250E945B2316
:104BF0008093100287E00E94C4258823A9F18BE1ED
:104C00000E94C425882351F08091100281FB222745
:104C100020F991E0922790FB81F90EC08EE00E946E
:104C2000C425882361F08091100282FB222720F99D
:104C300091E0922790FB82F98093100215C080E1E9
:104C40000E94C42590911002882341F093FB2227F3
:104C500020F981E0822780FB93F904C0892F809599
:104C600080FB90F990931002809110020E945F23C4
:104C70000E946D2390E0909365028093640280EE21
:104C80000E94C425882341F080916402982F90955A
:104C900090FB80F98093640289E30E94C4258823F5
:104CA00059F08091640281FB222720F991E092273C
:104CB00090FB81F98093640282EE0E94C4258823D0
:104CC00059F08091640282FB222720F991E092271B
:104CD00090FB82F98093640286EE0E94C4258823AB
:104CE00059F08091640283FB222720F991E09227FA
:104CF00090FB83F98093640283EE0E94C42588238D
:104D000059F08091640284FB222720F991E09227D8
:104D100090FB84F98093640285E30E94C425882374
:104D200059F08091640285FB222720F991E09227B7
:104D300090FB85F98093640281E30E94C425882357
:104D400059F08091640286FB222720F991E0922796
:104D500090FB86F98093640281E10E94C425882338
:104D600059F08091640287FB222720F991E0922775
:104D700090FB87F980936402809164020E94712302
:104D800087E20E94C425C82F8EE10E94C4258111AC
:104D9000C2608FE10E94C4258111C46080E20E943C
:104DA000C4258111C86081E20E94C4258111C061BF
:104DB00082E20E94C4258111C06283E20E94C42560
:104DC0008111C06484E20E94C425882311F0C06868
:104DD00002C0CC2329F08C2F0E9468236C2F03C0C3
:104DE0000E946423682F70E080E090E0CF910C94E3
:104DF000C020CF9108958091150280FF0CC0809152
:104E0000150190E065E070E00E940B309595879564
:104E1000959587952EC081FF0AC08091150190E07D
:104E200065E070E00E940B309595879522C082FF67
:104E300008C08091150190E065E070E00E940B30A1
:104E400018C0209114022223D1F0309114012317AD
:104E500080F78091150190E065E070E00E940B30D2
:104E6000622F70E00E940B30632F70E00E943030A0
:104E7000CB018038910530F4009731F0089585E03A
:104E800090E008958FE7089581E0089580911502DC
:104E900080FF08C06091130170E075956795759566
:104EA000679523C081FF06C06091130170E075957E
:104EB00067951BC082FF04C06091130170E012C0AF
:104EC000609114026623D1F0209112016217A0F7BD
:104ED0008091130170E090E00E940B30622F70E02F
:104EE0000E9430306038710528F46115710521F099
:104EF000862F08958FE7089581E0089561E070E0BE
:104F0000F4CF803F21F40E94FB26819504C0813FAD
:104F100029F40E94FB26809319020895823F21F410
:104F20000E94FB26819504C0833F29F40E94FB2642
:104F3000809318020895893F19F40E94462705C0FE
:104F40008A3F31F40E944627819580931A02089582
:104F50008B3F21F40E944627819504C08C3F29F4A1
:104F60000E94462780931B020895843F21F480917C
:104F70001702816017C0853F21F48091170282607B
:104F800011C0863F21F48091170284600BC0873FD7
:104F900021F480911702886005C0883F31F4809128
:104FA000170280618093170208958D3F21F480914C
:104FB000150281600BC08E3F21F480911502826042
:104FC00005C08F3F29F480911502846080931502FB
:104FD0000895803F39F48091190287FF6CC01092C8
:104FE000190269C0813F29F4809119021816BCF397
:104FF00062C090911802823F29F497FF5CC0109222
:10500000180259C0833F19F41916CCF354C0893FD4
:1050100041F480911A0218160CF04DC010921A0239
:105020004AC08A3F29F480911A0287FF44C0F6CF14
:105030008B3F39F480911B0287FF3DC010921B0209
:105040003AC08C3F29F480911B021816BCF333C080
:10505000843F21F4809117028E7F17C0853F21F491
:10506000809117028D7F11C0863F21F48091170235
:105070008B7F0BC0873F21F480911702877F05C08B
:10508000883F31F4809117028F7E8093170213C0FE
:105090008D3F21F4809115028E7F0BC08E3F21F44D
:1050A000809115028D7F05C08F3F29F480911502F4
:1050B0008B7F809315028091180281110EC0809120
:1050C000190281110AC080911A02811106C08091D3
:1050D0001B02811102C010921402089586E192E031
:1050E0000E943F170E94EA249093130280931202B9
:1050F00008951F93CF93DF93809112029091130232
:105100000E94F624FC0120911402222329F09091A0
:105110001601892F90E007C08091170190E06AE0A6
:1051200070E00E940B30E817F90708F485C0809101
:105130001802C0911902D0911A0210911B0281111C
:1051400007C0C11175C0D11173C0111171C074C0F5
:105150002F3F19F02F5F20931402181624F40E9499
:10516000FB26809318028091180287FF05C00E94D9
:10517000FB268195809318021C1624F40E94FB26BE
:10518000809319028091190287FF05C00E94FB26B7
:1051900081958093190280911802882331F1409102
:1051A0001902442311F1082E000C990B65EB70E0F5
:1051B0000E940B30292F392F330F330B232B19F07B
:1051C0009093180203C081E080931802842F440F4B
:1051D000990B65EB70E00E940B30892F990F990BAA
:1051E000009709F481E0809319021D1624F40E94AF
:1051F000462780931A0280911A0287FF05C00E94F9
:105200004627819580931A02111624F40E9446279E
:1052100080931B0280911B0287FF05C00E944627D6
:10522000819580931B02DF91CF911F910C946E2882
:105230002F3F09F08FCF97CFDF91CF911F91089526
:10524000E6E1F2E086E0DF011D928A95E9F710922F
:10525000140210921502089580913C0208950F9354
:105260001F93CF93DF9300D01F92CDB7DEB78C0191
:105270000E948A2B823011F0843021F584E08983EA
:105280001B830A8382E08093E9008FEF9091E8000E
:10529000815095FD06C095ED9A95F1F700008111BA
:1052A000F5CF8091E80085FF0DC040E050E063E05D
:1052B00070E0CE0101960E94A72B8091E8008E77C6
:1052C0008093E8000F900F900F90DF91CF911F9186
:1052D0000F910895CF93DF9300D01F92CDB7DEB723
:1052E00020916A02243031F523E029838058910906
:1052F0009B838A8382E08093E9008FEF9091E8009E
:10530000815095FD06C095ED9A95F1F70000811149
:10531000F5CF8091E80085FF0DC040E050E063E0EC
:1053200070E0CE0101960E94A72B8091E8008E7755
:105330008093E8000F900F900F90DF91CF91089528
:10534000CF93DF93EC010E948A2B823011F08430DE
:10535000F9F482E08093E9009FEF8091E80091509A
:1053600085FD06C085ED8A95F1F700009111F5CF16
:105370008091E80085FF0CC040E050E066E070E0FE
:10538000CE010E94A72B8091E8008E778093E800E1
:10539000DF91CF910895CF93DF93EC010E948A2B88
:1053A000823011F08430D9F580912201882339F0C0
:1053B0008091640287FF03C060E282E002C068E07F
:1053C00081E08093E9008FEF9091E800815095FD96
:1053D00006C095ED9A95F1F700008111F5CF809107
:1053E000E80085FF1CC080912201811105C040E0CA
:1053F00050E068E070E003C070E040E050E0CE01B3
:105400000E94A72B8091E8008E778093E80080E2CD
:10541000FE01ACE1B2E001900D928A95E1F7DF91D7
:10542000CF910895089508950C94B02442E061EC62
:1054300081E00E94B02C42E261EC82E00C94B02C3E
:1054400080916C02833009F45CC030F4813071F0DB
:10545000823009F495C008958A3009F481C08B30F8
:1054600009F467C0893009F0A3C020C080916B02A5
:10547000813A09F09DC08091E800877F8093E80021
:1054800080916F0290917002892B21F460E28CE18F
:1054900092E003C060E080E090E070E00E94F22BB8
:1054A0008091E8008B778093E800089580916B02EB
:1054B000813209F07DC080916F0290917002029755
:1054C00008F076C08091E800877F8093E8008091A3
:1054D000E80082FD05C080916A028111F8CF68C0A2
:1054E0008091F200823029F48091F1008B7F81302D
:1054F00021F48091F10080933C028091E8008B7749
:1055000053C080916B02813A09F052C080916F02C2
:1055100090917002892B09F04BC08091E800877F41
:105520008093E8008091E80080FFFCCF8091220109
:1055300036C080916B028132D9F580916F029091D3
:105540007002892BA9F58091E800877F8093E8009D
:105550000E94E52C80916D02809322010C94D21C54
:1055600080916B02813221F58091E800877F8093E2
:10557000E8000E94E52C80916E0280933D02089520
:1055800080916B02813AA1F48091E800877F80933B
:10559000E8008091E80080FFFCCF80913D0280937D
:1055A000F1008091E8008E778093E8000C94E52C60
:1055B000089584B7877F84BF0FB6F894A89580912B
:1055C0006000886180936000109260000FBE80E8E8
:1055D00080936100109261000E9480170E94362D16
:1055E0000E94892D8091E20084608093E20078948B
:1055F0000E94E72F0E94861788E191E00E9414170D
:1056000080916A02853069F40E9466248091680264
:105610008823B1F30E949824882391F30E94912B50
:10562000EFCF0E9490170E949715EACF0C94182B89
:10563000292F332723303105C9F064F42130310597
:1056400081F02230310509F04CC08BE390E025EB6E
:1056500032E14BC02132310521F12232310589F18D
:1056600040C082E190E020EF32E13FC099278130D5
:10567000910571F02CF4892BA1F5E1EBF2E10DC05D
:105680008230910541F0039761F5E9E8F2E105C048
:10569000EFE9F2E102C0EFE8F2E1849190E09F01CE
:1056A00024C06115710541F061307105D1F489E0C4
:1056B00090E020EE32E119C089E090E027EC32E181
:1056C00014C06115710541F06130710551F480EC31
:1056D00090E022E033E109C080E490E022EC33E185
:1056E00004C080E090E020E030E0FA0131832083C4
:1056F00008950895CF93C82F0E94792BC0933E023E
:10570000CF91089580916A02843011F081E008956C
:1057100082E0089580913E02811102C00C94822B98
:10572000089584E089BD86E089BD09B400FEFDCFFF
:105730008091D8008F7D8093D8008091E0008260B6
:105740008093E0008091E00081FDFCCF0895CF922E
:10575000DF92EF92FF920F931F93CF93DF93EC01B1
:105760008B016A010E94042D811133C0C114D10440
:1057700039F0F60180819181081B190BC80FD91FE0
:10578000E12CF12C0115110519F18091E80085FD3E
:1057900016C08091E8008E778093E800C114D10490
:1057A00049F0F60180819181E80EF91EF182E082D4
:1057B00085E00FC00E94042D882321F30AC089913F
:1057C0008093F10001501109FFEFEF1AFF0ADACFC1
:1057D00080E0DF91CF911F910F91FF90EF90DF90CC
:1057E000CF900895209171023091720226173707E9
:1057F00048F06115710539F42091E8002E77209367
:10580000E80001C0B90140E06115710591F12091F6
:105810006A02222309F440C0253009F43FC02091D8
:10582000E80023FD3DC02091E80022FD2FC020911B
:10583000E80020FFE9CF2091F20030E0FC01CF0129
:105840006115710559F02830310540F4819180933C
:10585000F100615071092F5F3F4FF1CF41E02830D7
:10586000310509F040E02091E8002E772093E80010
:10587000CBCF4111CCCF0AC080916A02882361F05E
:10588000853061F08091E80083FD0AC08091E800D6
:1058900082FFF2CF80E0089582E0089583E00895CA
:1058A00081E0089520917102309172022617370726
:1058B00048F06115710539F42091E8002E772093A6
:1058C000E80001C0B901FC0120E06115710579F122
:1058D00080916A02882309F43DC0853009F43CC0F8
:1058E0008091E80083FD3AC08091E80082FD2CC0E1
:1058F0008091E80080FFE9CF8091F20090E061158F
:10590000710559F08830910540F424912093F100FD
:105910003196615071090196F2CF21E0089709F0A4
:1059200020E08091E8008E778093E800CECF2111AF
:10593000CFCF0AC080916A02882361F0853061F080
:105940008091E80083FD0AC08091E80082FFF2CFD9
:1059500080E0089582E0089583E0089581E008954D
:10596000982F953058F59093E900981739F0709179
:10597000EC002091ED005091F00003C0242F762F11
:1059800050E021FF19C03091EB003E7F3093EB00D7
:105990003091ED003D7F3093ED003091EB003160B0
:1059A0003093EB007093EC002093ED005093F000E7
:1059B0002091EE0027FF07C09F5FD3CF8F708093A9
:1059C000E90081E0089580E0089580916B0287FFEF
:1059D00011C08091E80082FD05C080916A028111AA
:1059E000F8CF11C08091E8008B770BC080916A02DC
:1059F000882349F08091E80080FFF8CF8091E8008B
:105A00008E778093E80008952091E4003091E500BE
:105A100095E64091EC00842F817040FF22C0809178
:105A2000E80080FD1CC080916A02882391F08530D7
:105A300091F08091EB0085FD10C04091E400509101
:105A4000E5004217530729F39A01915011F784E0BA
:105A5000089582E0089583E0089581E0089580E04C
:105A600008954091E80042FFDECF08950E94932DF3
:105A70000E94962DE0EEF0E0808181608083E8ED69
:105A8000F0E080818F77808319BCE3E6F0E08081CD
:105A9000816080831092690208950E94932D0E9474
:105AA000962D8091D8008F778093D8008091D80070
:105AB00080688093D8008091D8008F7D8093D80033
:105AC00084E089BD86E089BD09B400FEFDCF109257
:105AD0006A0210926602109268021092670242E017
:105AE00060E080E00E94B02C8091E1008E7F809386
:105AF000E1008091E20081608093E2008091E20009
:105B000088608093E2008091E0008E7F8093E000C7
:105B10000895E3E6F0E080818E7F808381E08093CA
:105B200069020C944D2D1092E20008951092E1004C
:105B300008951F920F920FB60F9211242F933F9347
:105B40004F935F936F937F938F939F93AF93BF9385
:105B5000EF93FF938091E10082FF0BC08091E20000
:105B600082FF07C08091E1008B7F8093E1000E945B
:105B7000E62F8091E10080FF19C08091E20080FF54
:105B800015C08091E2008E7F8093E2008091E20058
:105B900080618093E2008091D80080628093D80079
:105BA00019BC85E080936A020E94132A8091E1006B
:105BB00084FF30C08091E20084FF2CC084E089BD66
:105BC00086E089BD09B400FEFDCF8091D8008F7DAD
:105BD0008093D8008091E1008F7E8093E1008091D6
:105BE000E2008F7E8093E2008091E20081608093EA
:105BF000E20080916602882311F084E007C0809162
:105C0000E30087FD02C081E001C083E080936A0267
:105C10000E94142A8091E10083FF29C08091E20054
:105C200083FF25C08091E100877F8093E10082E0BF
:105C300080936A02109266028091E1008E7F8093C9
:105C4000E1008091E2008E7F8093E2008091E2008B
:105C500080618093E20042E060E080E00E94B02C2E
:105C60008091F00088608093F0000E94122AFF91DA
:105C7000EF91BF91AF919F918F917F916F915F91C4
:105C80004F913F912F910F900FBE0F901F9018953D
:105C90001F920F920FB60F9211242F933F934F93A1
:105CA0005F936F937F938F939F93AF93BF93CF93A4
:105CB000DF93EF93FF93C091E900CF708091EC00E8
:105CC000D82FD17080FDD0E81092E9008091F000CB
:105CD000877F8093F00078940E948C2E1092E900C8
:105CE0008091F00088608093F000CD2BCF70C0933E
:105CF000E900FF91EF91DF91CF91BF91AF919F911B
:105D00008F917F916F915F914F913F912F910F9064
:105D10000FBE0F901F9018951F93CF93DF93CDB7B1
:105D2000DEB7AA970FB6F894DEBF0FBECDBFEBE685
:105D3000F2E088E08E0F9091F10091938E13FBCFEB
:105D40000E94202A8091E80083FF28C180916B0285
:105D500090916C02492F50E04A30510508F01EC165
:105D6000FA01E158FF4F0C944430803821F082381A
:105D700009F014C108C080916702909168029923CC
:105D800089F082600FC080916F028F70853008F0BB
:105D900005C18093E9008091EB0085FB882780F99D
:105DA0001092E9009091E800977F9093E80080932B
:105DB000F1001092F100D0C0282F2D7F09F0EEC025
:105DC000882319F0823061F0E9C080916D02813042
:105DD00009F0E4C0933009F080E0809368022EC09F
:105DE00080916D0281112AC080916F028F702FEF18
:105DF000280F243008F0D2C08093E9002091EB00F6
:105E000020FF1CC0933021F48091EB00806214C00D
:105E10009091EB0090619093EB0021E030E0A901BC
:105E200002C0440F551F8A95E2F74093EA00109292
:105E3000EA008091EB0088608093EB001092E9000B
:105E40008091E800877F8093E8000E94E52CA6C03F
:105E50008111A4C010916D021F778091E3008078BA
:105E6000812B8093E3008091E800877F8093E80096
:105E70000E94E52C8091E80080FFFCCF8091E30038
:105E800080688093E300111102C082E001C083E0CA
:105E900080936A0283C08058823008F07FC080916E
:105EA0006D0290916E028C3D53E0950779F583E089
:105EB0008A838AE289834FB7F894DE01139620E043
:105EC0003EE051E2E32FF0E050935700E49120FFD1
:105ED00003C0E295EF703F5FEF708E2F90E0EA30E5
:105EE00010F0C79601C0C0968D939D932F5F24310B
:105EF00049F74FBF8091E800877F8093E8006AE20E
:105F000070E0CE0101960E94F22B15C060916F02E5
:105F100070917002AE014F5F5F4F0E94162BBC0163
:105F2000892BE1F19091E800977F9093E8008981B7
:105F30009A810E94522C8091E8008B778093E80030
:105F40002DC0803859F58091E800877F8093E80064
:105F5000809166028093F1008091E8008E7773CF84
:105F600081111CC090916D029230C0F48091E800C4
:105F7000877F8093E800909366020E94E52C8091D1
:105F80006602811106C08091E30087FD02C081E0B6
:105F900001C084E080936A020E94162A8091E80082
:105FA00083FF0AC08091E800877F8093E80080919A
:105FB000EB0080628093EB00AA960FB6F894DEBFE8
:105FC0000FBECDBFDF91CF911F9108950895CF935C
:105FD00080916A028823A1F0C091E900CF7090916E
:105FE000EC00892F817090FD80E8C82B1092E900A9
:105FF0008091E80083FD0E948C2ECF70C093E90051
:10600000CF910895002480FD060E660F11F086954D
:10601000D1F7802D08950024552704C0080E591F7C
:10602000880F991F009729F076956795B8F3710549
:10603000B9F7802D952F0895AA1BBB1B51E107C00E
:10604000AA1FBB1FA617B70710F0A61BB70B881F08
:10605000991F5A95A9F780959095BC01CD01089597
:1060600097FB072E16F4009407D077FD09D00E9405
:106070001C3007FC05D03EF4909581959F4F089504
:10608000709561957F4F0895EE0FFF1F0590F49175
:10609000E02D0994FC014150504030F0019006166B
:1060A000D1F73197CF010895882799270895F99955
:1060B000FECF92BD81BDF89A992780B50895A6E1DB
:1060C000B0E044E050E00C949130A8E1B0E042E050
:1060D00050E00C949130262FF999FECF92BD81BDEE
:1060E000F89A019700B4021639F01FBA20BD0FB616
:1060F000F894FA9AF99A0FBE08950396272F0E94F2
:106100006C300E946B30252F0E946C30242F0C9431
:106110006C300196272F0E946C300C946B30DC01A0
:10612000CB01FC01F999FECF06C0F2BDE1BDF89AA2
:10613000319600B40D9241505040B8F70895F8944C
:02614000FFCF8F
:10614200010208080801191A1B1C1D1E1F2021220A
:10615200ED012808140A321E2C29CB29A0296A290C
:106162002F290164653736353433323130969591B3
:106172009293940001020202020606060909090925
:1061820009090F0F0F0F0F0F1515151819191919E6
:08619200191919191919232428
:00000001FF
